:02000004080AE8
:1000000000000A08AC560B080000060008000501B5
:080010000402BD0B000000001A
:04001800CC2F0B08D6
:1000200009480A4908B5884205D0094A824202D0E7
:10003000121A0EF0CFFF0748074A0021121A0EF0DD
:10004000F1FF064808BD00BF0000002034540B0833
:100050004C02002050020020CD040020CD040020DE
:1000600070B50CF0A5F80025054E064CA41BA4089D
:10007000A54200D170BD56F8043B98470135F7E71B
:10008000F4470B0824480B0800F07EBA08B500F0CE
:10009000EDF9BDE808400CF04DB80AF0A7BA0AF037
:1000A000A5BA0AF0ABBA0AF0A9BA000000210C20E8
:1000B00008B5024A0AF020F9FEE700BF719E0A085F
:1000C0000078B0FA80F04009704701230370704750
:1000D000106870477047006A0368DB681847036858
:1000E0001268D1E900011847012A03D0022A03D07F
:1000F000002070470160FBE70B680360F8E7000031
:100100000022F0B5144B87B0586811460AF0A6F9E2
:1001100003466D46002453F8570F104E9B88104F2E
:100120000090ADF804300A2215F8011B02A80AF06D
:1001300048FC02A930460AF080FC02A80AF089FBBC
:10014000052C03D0394630460AF07BFC0134062CDE
:10015000E9D1012007B0F0BD400400208402002056
:10016000E02F0B081FB5014668460AF006FC6946F9
:10017000044807F0C6FB044668460AF06AFB2046BE
:1001800004B010BD9402002008B504490AF0AAFC8E
:1001900010B106F0D9FF012008BD00BFE22F0B0807
:1001A0001FB5014668460AF0E8FB6946044807F0B7
:1001B00017FC044668460AF04CFB204604B010BD0C
:1001C000940200201FB5014668460AF0D6FB694636
:1001D000044807F009FE044668460AF03AFB204648
:1001E00004B010BD940200201FB5014668460AF015
:1001F000C4FB6946044807F026FE044668460AF038
:1002000028FB204604B010BD940200201FB5014613
:1002100068460AF0B2FB6946044807F019FE044636
:1002200068460AF016FB204604B010BD9402002078
:100230001FB5014668460AF0A0FB6946044807F06E
:1002400021FE044668460AF004FB204604B010BDB7
:10025000940200201FB5014668460AF08EFB6946ED
:10026000044807F033FE044668460AF0F2FA2046D6
:1002700004B010BD940200201FB5014668460AF084
:100280007CFB6946044807F027FE044668460AF0EE
:10029000E0FA204604B010BD940200201FB50146CC
:1002A00068460AF06AFB6946044807F039FE0446CE
:1002B00068460AF0CEFA204604B010BD9402002031
:1002C00008B50AF081FCC1170BF05AFD012008BDEA
:1002D0001FB5014668460AF050FB6946044807F01E
:1002E000ABFE044668460AF0B4FA204604B010BDDE
:1002F000940200201FB5014668460AF03EFB69469D
:10030000044807F0BBFE044668460AF0A2FA2046FD
:1003100004B010BD9402002008B50AF019FA0120BB
:1003200008BD05F021BA30B51368006885B00193A7
:100330008368D1E90045CDE902450BB90DF021F9FB
:10034000C36801AA02A9984705B030BD30B585B091
:100350000446089860B1406850B1856845B1CDE960
:100360000241CDE90023C4686A4601AB02A9A04757
:1003700005B030BD02F00F02012A04D1024A137801
:100380000133DBB213707047C802002010B5044679
:10039000006808B10AF032F9204610BD10B50446D5
:1003A000094B03600AF0F4FD21460BF00DF80CF048
:1003B000CBFA0CF0BDFA2046044B40F8043B0AF09F
:1003C000F1FE204610BD00BFFC300B08E4300B08E6
:1003D00010B50446FFF7E2FF204624210DF0CBF8CC
:1003E000204610BD0A2A08B50AD10022054B114645
:1003F00058680AF073F818B904F054FD01238377A4
:1004000008BD00BF4004002010B58368044613B146
:10041000032201469847204610BD10B504462430FB
:10042000FFF7F2FF204610BD024601480BF04DBF1A
:100430009FC20A0808B50CF067FB4FF416510CF088
:100440005DFB01200BF007FE0022114610460BF069
:1004500012FE00F049FC01F015F901F0E7FD01F092
:1004600067FCBDE8084000F031BF000010B50D4842
:1004700007F011F909F024FD0B4B1A7802F0FF0484
:1004800012B1002201241A7009F022FD44B105487E
:10049000036893F82B301BB9BDE8104007F016B97C
:1004A00010BD00BF94020020C802002038B5002310
:1004B00083608B6804460D462BB102229847EB6897
:1004C000E360AB68A360204638BD0000F0B50024AF
:1004D0008FB007460E4602A8114606ADFFF7E6FFAD
:1004E00002A92846FFF7E2FF10200C94FFF7D5FD84
:1004F000034698B195E803006A4682E8030093E852
:10050000030085E8030092E80300089A83E80300EB
:100510009A60D968099A08940991DA600A93164B8F
:1005200010200D93154B0C93FFF7B7FD0446B0B1A7
:10053000002383600C9B33B102220AA998470D9BCC
:10054000E3600C9BA3600E4B3846CDE90034314686
:100550006B460C4A09F012FF041E18BF01240AA8BA
:10056000FFF752FF2846FFF74FFF02A8FFF74CFFA7
:1005700020460FB0F0BD00BF27030A0845070A0850
:10058000010008004D030A08F0B5434985B043480F
:10059000FFF74AFF42494348FFF746FF42494348B5
:1005A000FFF742FF42494348FFF73EFF42494348B5
:1005B000FFF73AFF42494348FFF736FF42494348B5
:1005C000FFF732FF42494348FFF72EFF42494348B5
:1005D000FFF72AFF42494348FFF726FF42494348B5
:1005E000FFF722FF42494348FFF71EFF42494348B5
:1005F000FFF71AFF42494348FFF716FF42494348B5
:10060000FFF712FF42494348FFF70EFF00240C2377
:100610000094ADF80030404B404D019304226B46EE
:100620003F494048029409F099FF234604223E497D
:100630003E4809F093FF284607F02AF804223C4977
:10064000032009F085FC3B4F3B4B3C4E6A460021A2
:100650002020009303970296FFF738FF6846FFF7C4
:10066000D3FE374B6A4600214FF400500093CDE98A
:100670000267FFF72BFF6846FFF7C6FE22462146BA
:10068000072009F08BFE20460BF0E5FC284607F01A
:10069000FBFC05B0F0BD00BF65010A08E72F0B08A1
:1006A00089010A08F32F0B0823030A08FF2F0B0800
:1006B000A1010A0814300B08C5010A0822300B08F2
:1006C000E9010A082E300B080D020A0838300B0821
:1006D00031020A0842300B0855020A084F300B0855
:1006E00079020A0860300B089D020A086A300B087C
:1006F000C1020A0876300B08D1020A087E300B08C6
:10070000F5020A088D300B0819030A0898300B0807
:1007100001010A089E300B08D1000A08940200204B
:1007200084020020AE300B08B7300B08BD300B0838
:10073000C4300B08DF000A08E5030A08E9000A08CC
:1007400075030A08022A70B5044607D0032A10D0A0
:10075000012A01D10B680360002070BD10200E68D3
:10076000FFF79BFC054610B13146FFF79FFE256061
:10077000F2E70468002CEFD02046FFF745FE102179
:1007800020460CF0F8FEE7E770B51426D0E90053D8
:10079000044606FB0356AE4204D028460AF059F838
:1007A0001435F8E7206809F029FF204670BD2DE9CF
:1007B000F843B1F10008074635DD4FF0140909FB95
:1007C00008F009F013FF0546A8B3D7E900468442B4
:1007D00009FB064615D2864214D9143EA4F1140929
:1007E000341B0444B1451FD02CB1314620460AF0D9
:1007F000AAF8337C237430460AF02BF8143E143CDC
:10080000F0E711D0A946A6420ED0214648460AF08C
:100810009AF8237C204689F810300AF01AF814342C
:1008200009F11409EFE70025386809F0E7FE012017
:100830003D60C7F80880BDE8F88300232DE9F0414A
:10084000C0E9003383600D4649680446994217DDCC
:10085000FFF7ADFFA0B1D5E900634FF0140808FB26
:1008600003682768B04509D02FB1314638460AF0F1
:1008700084F8337C3B7414361437F3E76B68636099
:100880002046BDE8F081000030B597B00CF0DEFCEA
:10089000002342F216511A460CF0E0FC0CF0D6FC94
:1008A000002300241A4638210CF0E0FC002101202E
:1008B00009F06CFD464D474B0120AB602C60AC80CD
:1008C000AC7109F04BFD28460125434A43490CF021
:1008D0004DFE0121042009F043FBFFF7ABFD404929
:1008E00040480AF000F83C4A3F493E480CF03EFEC2
:1008F0003E490CA809F0F7FF3D4911A88DF840507A
:1009000009F0F1FF02216846CDE900448DF854500A
:100910000294FFF74CFF98B1009C34B120460CA91B
:100920000AF02BF89DF84030237411A904F114004B
:100930000AF023F89DF8543084F824300223019300
:100940000CF002F80546694603A8FFF776FF03A9F5
:1009500006A8284CFFF771FF274B06A9236009A8BA
:10096000FFF76BFF09AA0121201D0AF07FFE09A8ED
:10097000FFF70AFF06A8FFF707FF204B2562236059
:1009800003A8FFF701FF1E4B23600BF0DDFF4FF4C0
:1009900016510BF0C9FF0AF0FBFA21460AF0F9FDE7
:1009A0006846FFF7F1FE11A809F053FF0CA809F003
:1009B00050FF094A134920460CF0D8FD124806F0B2
:1009C0000DFE054A114910480CF0D0FD17B030BD9E
:1009D000540200200000FFFF500200208D030A088F
:1009E000AA380B088402002053A80A08C9300B0853
:1009F000CD300B0860020020E4300B08A83F0B0844
:100A0000FC300B089D030A08940200201B040A080E
:100A100007B5002201A81146019209F0A9FA019830
:100A200003B05DF804FB09F043BA000038B5054C8B
:100A300025682DB90120FFF730FB00B1057020605B
:100A4000206838BDCC02002013B50CF021FD4FF416
:100A50007A7009F025FA04460CF01AFD0422694662
:100A600040F2E93009F03CFA631EDBB2FD2B13D9EA
:100A70000CF00EFD01214FF47A70FFF7D4FF0CF05B
:100A800007FD0BF094FA042201900DEB020140F2F5
:100A9000E93009F02DFA19E0042C19D90CF0F8FC12
:100AA00000214FF47A70FFF7BEFF0CF0F1FC042236
:100AB000002440F2E9300DEB0201019409F018FA2C
:100AC00005200BF0BDFA204609F045FE02B010BD2E
:100AD0000BF06DFA009BC01AB0F5167FF6D80CF03B
:100AE000D7FC611CC9B2C6E713B50CF0D1FC40F2CB
:100AF000ED3009F0D5F904460CF0CAFC0422694631
:100B000040F2EE3009F0ECF9631EDBB2FD2B13D995
:100B10000CF0BEFC012140F2ED30FFF784FF0CF039
:100B2000B7FC0BF044FA042201900DEB020140F2F5
:100B3000EE3009F0DDF919E0042C19D90CF0A8FC0D
:100B4000002140F2ED30FFF76EFF0CF0A1FC042213
:100B5000002440F2EE300DEB0201019409F0C8F9D7
:100B600005200BF06DFA204609F0F5FD02B010BD2E
:100B70000BF01DFA009BC01AB0F5167FF6D80CF0EA
:100B800087FC611CC9B2C6E710B50446FFF740FFF9
:100B9000822804D12046BDE81040FFF755BFFFF77B
:100BA00037FF8C2804D12046BDE81040FFF79CBFDA
:100BB000FFF72EFF282802D10123237010BDBDE8C6
:100BC0001040FFF725BF7047002210B50446044BC4
:100BD000114640F8043B09F0AFFB204610BD00BFB2
:100BE00080310B0810B50446FFF7EEFF20462021A8
:100BF0000CF0C1FC204610BD10B56C22002104464B
:100C00000EF010FA0123002220461146236009F05D
:100C1000F5FB204610BD2DE9F04105460E4617466E
:100C20009DF81810002218461C4609F0EFFB2346D9
:100C300006903A4631462846BDE8F04109F05EBDCF
:100C4000F0B5044626468BB001F0D0F91C4B0022CB
:100C500046F8083B1421012009F0D8FB0125142790
:100C600003462A46CDE900756FF07F41304609F012
:100C700023FD39460022022009F0C8FB1E2203464C
:100C8000019500920F49022202A804F10C0503AE5F
:100C900009F012FD0FCE0FC596E8070085E80700A2
:100CA00002A8FFF791FF4FF480124FF480732046A3
:100CB000C4E90A23002384F8303063630BB0F0BD2D
:100CC00094310B080060FF0038B5064C23683BB92F
:100CD0003820FFF7E2F9054608B1FFF7B1FF2560BC
:100CE000206838BDD002002030B514249FB003A87E
:100CF000FFF782FF03A803236FF07F4200210094D7
:100D0000FFF789FF03A803236FF07F4201210094BE
:100D1000FFF781FF02231E25194603A8FF22009436
:100D2000FFF779FF03A80223FF2203210094FFF7B6
:100D300072FF03A80323FF2204210094FFF76BFF37
:100D400003A80223FF2205210095FFF764FF03A8F3
:100D50000223FF2206210095FFF75DFF03A803236E
:100D60006FF07F4207210094FFF755FF0A2303A885
:100D700000934FF47F4202230921FFF74CFF00222A
:100D800003A8114609F032FB1FB030BD10B5142482
:100D90009EB003A8FFF730FF03A803236FF07F4244
:100DA00002210094FFF737FF032303A819466FF0D1
:100DB0007F420094FFF72FFF03A803236FF07F42C9
:100DC00004210094FFF727FF03A803236FF07F425D
:100DD00005210094FFF71FFF032303A86FF07F4254
:100DE00006210094FFF717FF002203A8114609F01F
:100DF000FDFA1EB010BD38B505460C4681B10BF0AA
:100E000028F928B100200BF026F9012385F82830B5
:100E1000214605F10C000022BDE8384009F08CBAEB
:100E200090F82830002BF3D001200BF014F9224663
:100E3000214620460BF01FF985F82840E8E710B559
:100E4000044649B10BF005F9A0B194F8290088B91E
:100E5000BDE810400BF0FFB80BF0FBF8044648B9B2
:100E600001200BF0F8F8224621462046BDE810404C
:100E70000BF001B910BD38B50546E0B10478D4B126
:100E800083783A2B17D10FF02FF9042813D90A22AF
:100E90006878303C303802FB04042B79E878303B2A
:100EA0003038172C02FB003005D83B2803D83C23F0
:100EB00003FB040038BD4FF0FF30FBE770B50D4673
:100EC0001646FFF7D8FF04462846FFF7D4FF05462D
:100ED0003046FFF7D0FF002C10DB002D0EDB002882
:100EE0000CDB854206DCAC4208DB8442ACBF002050
:100EF000012070BDAC42F8DB0120FAE70020F8E7E2
:100F000030B50546364C8DB039B108F0B9FF95F8CB
:100F10002930206063B10DB030BD08F0B1FF42F25E
:100F20000F722368C01A9042EFD8002BEDD0F2E781
:100F300095F82B40002CEED12A492B480DF10D02DB
:100F40008DF80D4005F05FFA9DF80D3053B9274933
:100F5000274808AA05F057FA28469DF82010FFF701
:100F60006EFFD8E7224623491F4804AB0494ADF82E
:100F700014400694ADF81C4005F0AAF822461E491C
:100F8000194806AB05F0A4F8012318490DF10E022B
:100F900015488DF80E3005F036FA0BF008F8174BAF
:100FA000024617490093C31708A80AF0A1FF089842
:100FB00006AA04A9FFF782FF40B19DF80E1028464B
:100FC000FFF73DFF08A809F044FCA4E707490848DB
:100FD0000DF10F0205F017FA9DF80F10EFE700BFB3
:100FE000D40200200C310B0814310B0822310B08FD
:100FF00028310B0833310B0839310B083D310B0810
:101000009403002013B50446084909480DF107026E
:1010100005F0F9F99DF8073033B91121236884F8F8
:101020002A1020461B68984702B010BD22310B08D9
:1010300028310B0870B5154690F82B200446D2B91C
:10104000012680F82F1080F82D5080F82E3080F87F
:10105000302080F82C6008F013FF84F82B60606368
:1010600030460AF0F8FF002D0348BDE8704018BF75
:10107000FF200BF013B870BD0050FF0038B590F89A
:101080002B3004462BB308F0FBFE636BC01AC72855
:101090001FD908F0F5FE94F82C306063D3B100221C
:1010A000114610460AF0E7FF94F8303094F82F20EC
:1010B0000133DBB29A4284F830300AD8002594F824
:1010C0002E3084F82B5013B128460AF0C4FF84F860
:1010D0002C5038BD012384F82C3094F82D3004486E
:1010E000002B18BFFF20BDE838400AF0D7BF00BF73
:1010F0000050FF00F0B54B1E04460D468DB0242B6A
:1011000018D8DFE803F0131D7A7A7A17177A697A0C
:1011100017171717174F1F171717171717921717A4
:10112000171717171717A3AAAEB2B600012120464A
:10113000FFF761FE2946204600F052FF0DB0F0BDDA
:101140000021F4E70AF085FF064638B901200AF0CD
:1011500082FF3246314630460AF08DFF0022464972
:10116000464806F01DF81123454984F82A306846A0
:1011700009F0B9FB434904A809F0B5FB424908A8A6
:1011800009F0B1FB694608AB04AA532003F00CFD3B
:1011900008A809F05EFB04A809F05BFB684609F0AB
:1011A00058FBC7E70AF055FF20B194F8290008B9A9
:1011B0000AF051FF01223049304805F0F1FF1023B9
:1011C000324984F82A30684609F08DFB2D4904A87D
:1011D00009F089FB2E49D2E7012780F829700AF02F
:1011E00038FF06460028A5D138460AF034FF3246BB
:1011F000314630460AF03FFF9CE7002390F82B6011
:1012000080F82930002E95D11B491C4808AA05F00A
:10121000FAF89DF82030002B8CD00AF01AFF002835
:1012200088D030460AF017FF84E7FFF75DFD0AF02B
:1012300010FF10B100200AF00EFF01220E490F48E6
:1012400005F0AEFF182384F82A3073E701231A460D
:1012500019462046FFF7EEFE6CE7012302211A46ED
:10126000F7E701231A460321F3E7012304211A4675
:10127000EFE701230022F6E722310B0828310B08A3
:1012800043310B0849310B0855310B0864310B0809
:101290006A310B0810B5044600F0A8FE024B204648
:1012A00023601523A36010BDF8310B0838B5064C38
:1012B00023683BB90C20FEF7F0FE054608B1FFF7A6
:1012C000E9FF2560206838BDD802002008B501215B
:1012D00019200CF021F8BDE80840002119200CF07D
:1012E0002CB80000002213B511460DF10703044687
:1012F000074804F0F1FF9DF80710A1F11603012B38
:1013000003D8236820461B68984702B010BD00BF71
:1013100098310B0830B54B1E04460D468DB01F2B7F
:101320003AD8DFE803F0A3A79D979D399D399D39F1
:101330009D86869090393939393963103F3939396A
:101340003939399D9D9716230022037211464E4864
:1013500005F0BBFF4D49684609F0C5FA4C4904A8A1
:1013600009F0C1FA4B4908A809F0BDFA694608AB73
:1013700004AA532003F018FC08A809F06AFA04A88C
:1013800009F067FA684609F064FAA37A23B90121E3
:10139000E17219200BF0D1FF2946204600F020FE13
:1013A0000DB030BD1723002203721146364805F0F8
:1013B0008CFF3949684609F096FA354904A809F0C6
:1013C00092FA364908A809F08EFA694608AB04AAD1
:1013D000532003F0E9FB08A809F03BFA04A809F040
:1013E00038FA684609F035FA0021D1E715230022C2
:1013F00003721146244805F068FF6846284909F041
:1014000072FA234904A809F06EFA264908A809F0DF
:101410006AFA694608AB04AA532003F0C5FB08A882
:1014200009F017FA04A809F014FA684609F011FA4D
:10143000B2E7037A152BAFD1437A002BACD1837A74
:10144000002BA9D1D0E7037A152BA5D1437A002B25
:10145000A2D19AE701234372037A152B9CD194E71A
:1014600000234372037A152B96D1BDE70123002197
:1014700043818EE700238372037A162B87D0437A49
:10148000002B84D188E700BF98310B08A3310B08EB
:10149000A9310B08B5310B08C3310B08C9310B0852
:1014A000D8310B08DE310B08D0B5044616461F466E
:1014B00008F0E6FCDDE90423C4E90623DDE90623A0
:1014C000C4E90823DDE90823C4E90A23DDE90A2386
:1014D000C4E90C2300220023A060C4E9046720466D
:1014E000C4E90E23C4E91023D0BD2DE9F3471F46FC
:1014F000836882464360164608F0C2FCDDE90A2391
:1015000004463946CAF8080030460CF057FADAE9C2
:10151000082306460F460CF009FC4FF47A73CDE918
:101520000001DAF80400B0FBF3F0201A0CF084FBA1
:1015300032463B4604460D460CF0F8FBDAE9102330
:101540000CF03EFADAE90E23804689463046CAE9B5
:10155000108939460CF032FA22462B460CF010FD69
:10156000DAE90A230CF0E2FBDAE90C2304460D4623
:10157000404649460CF0DAFBDDE900230CF020FA86
:1015800002460B46204629460CF01AFADAE90445D1
:101590008046894602460B46204629460CF038FE16
:1015A00050B9DAE9064542464B46204629460CF03A
:1015B0004DFE08B944464D4620462946CAE90E6705
:1015C00002B0BDE8F0870000024A136801331360DF
:1015D000704700BFDC020020D0B5044688B000F0A0
:1015E00005FD20460026002700221B4B40F8503BFB
:1015F0001A4BCDE90667CDE9022315A3D3E90023F1
:10160000CDE90467CDE900230022154BFFF74CFF1D
:10161000192384F898304FF448534FF49661C4E985
:101620000267C4E90467A38504F12C0204F11803DE
:1016300023F8021B9342FBD100232046C4E9123356
:10164000E3850123238608B0D0BD00BFAFF300803F
:101650000000000000407FC0A4320B080000E03F03
:1016600000407F4038B5064C23683BB9A020FEF708
:1016700014FD054608B1FFF7AFFF2560206838BDAF
:10168000E802002007B5012118200BF045FE0021DB
:101690001B200BF041FE082118200BF0D3FE4FF465
:1016A0007A72FF2118200BF0B1FE002301220749B6
:1016B00000931B204FF0FF330BF0A0F908F0E0FB84
:1016C000034B186003B05DF804FB00BFC9150A089E
:1016D000E002002038B508F0D3FB0949094A0B683D
:1016E000C31AB3F57A7F08D30023074C0860256836
:1016F00023603C236B435B081380108838BD00BF18
:10170000E0020020E4020020DC02002000000000D3
:10171000F7B5054608F0B4FBAB6CC01AB0F5FA6F2C
:101720002BD3284695F82D40FFF7D4FF0CF084FA10
:10173000D5E9022305F15006CDE900013046FFF757
:10174000D4FE00223C4B06460F460CF075FDB0B1AE
:10175000103CE4B2042C38BF0424322C28BF3224BD
:1017600095F82D30A34205D0214618200BF028FE15
:1017700085F82D4008F084FBA86403B0F0BD00227A
:10178000304639462D4B0CF057FD08B1083CE0E7D8
:10179000304625A3D3E9002339460CF04DFD08B1AE
:1017A000043CD6E7002230463946254B0CF044FD78
:1017B00008B1023CCDE7002230463946214B0CF0FF
:1017C0003BFD08B1013CC4E70022304639461E4BC0
:1017D0000CF028FD08B10134BBE700223046394641
:1017E0001A4B0CF01FFD08B10234B2E7002230465C
:1017F0003946174B0CF016FD08B10434A9E7002256
:1018000030463946134B0CF00DFD08B10834A0E703
:10181000304607A3D3E9002339460CF003FD002826
:1018200098D0103495E700BF0000000000C072405F
:101830000000000000407FC000407F400000794071
:1018400000004E4000804640008046C000004EC070
:1018500000C072C0000079C010B590F83030044666
:101860008CB00BB1FFF754FF08F00AFBE36CC01A11
:10187000154B984226D908F003FB94F82F30E0640A
:1018800003BB94F83030EBB1104B1B88D3B910492F
:10189000684609F028F80F4904A809F024F80E4911
:1018A00008A809F020F8694608AB04AA532003F001
:1018B0007BF908A808F0CDFF04A808F0CAFF684625
:1018C00008F0C7FF0CB010BD002E9302E402002008
:1018D000FC310B0802320B080E320B08F8B51F461C
:1018E0009DF818300446164683B100220023304686
:1018F00039460CF083FC70B34FF47A72FF21182044
:101900000BF084FD002384F83030F8BD90F82C20D3
:1019100039460A2A08BF80F82C3090F82C506B1CEE
:1019200080F82C3030460CF0C3FC0C3580B224F823
:10193000150094F82E30002BE7D194F82F30002BAF
:10194000E3D104F1180304F12C0233F8021B88429E
:10195000DBD19342F9D1C4E90267D6E738B590F8F4
:101960002F3004460D4643B941B94FF47A72FF2136
:1019700018200BF04BFD84F8305038BD90F8303013
:1019800013B9012380F830302946BDE838404FF4C0
:101990007A7218200BF03ABD10B5044694F82F3037
:1019A00008463BB9D4E90223C4E904230CF044F906
:1019B000C4E9020110BD00002DE9F0434B1E0446AE
:1019C0000D468FB01F2B24D8DFE813F02F003C000A
:1019D0009C00D000D0002300D0002300D0002300C2
:1019E00016014100550066008100230023002300FA
:1019F000230023002300230023009C0035016A01FB
:101A0000380020002D00D000D000D000012384F841
:101A1000313094F830301BB12946204600F0E0FA0E
:101A20000FB0BDE8F0830023F1E7012380F82F30E9
:101A30004FF47A72FF2118200BF0E8FC002384F8A1
:101A40003030E6E7002380F82F300123F7E794F8E1
:101A50003130002200F10801D1E9000123B3984B95
:101A60000CF0CCFB0028D4D10022954B00902046EE
:101A7000FFF734FFCDE794F83130002200F1080180
:101A8000D1E900015BB38F4B0CF0B8FB0028C0D14B
:101A900000228C4B0090EAE794F83130002200F1EC
:101AA0000801D1E900014BB1874B0CF0A7FB0028DE
:101AB000AFD1002300220093834BD8E7834B0CF077
:101AC0009DFB0028A5D10022804B0090CFE794F821
:101AD0003130002200F10801D1E900014BB17C4B0B
:101AE0000CF08CFB002894D1002300220093784B4B
:101AF000BDE7784B0CF082FB00288AD10022754BA1
:101B00000090B4E7002380F82E3090F82F3013B9FE
:101B1000012380F830300026D4E9048900273246BA
:101B20003B46404649460CF069FB18B9C4E90289B6
:101B3000C4E90467684902A808F0D5FE674906A809
:101B400008F0D1FE66490AA808F0CDFE0AAB06AA45
:101B500002A9532003F028F80AA808F07AFE06A884
:101B600008F077FE02A808F074FE52E701235A49F4
:101B700080F82E3080F8303002A808F0B4FE5749C3
:101B800006A808F0B0FE57490AA808F0ACFE0AAB58
:101B900006AA02A9532003F007F80AA808F059FE84
:101BA00006A808F056FE02A808F053FE042D04D142
:101BB0000022484BC4E902232BE76B1F012B02D8FC
:101BC0000022414BF6E7072D02D100223C4BF1E702
:101BD000092D02D100223B4BECE71E2DFAD01F2D20
:101BE00003D133A3D3E90023E4E7202D7FF411AF21
:101BF00031A3D3E90023DDE73B4902A808F073FED7
:101C0000364906A808F06FFE38490AA808F06BFEAE
:101C10000AAB06AA02A9532002F0C6FF0AA808F0E0
:101C200018FE06A808F015FE02A808F012FE01230F
:101C300084F82E30FCE6284902A808F054FE274913
:101C400006A808F050FE2A490AA808F04CFE0AAB84
:101C500006AA02A9532002F0A7FF0AA808F0F9FD7E
:101C600006A808F0F6FD02A808F0F3FD94F82F305E
:101C700013B9012384F830304FF00008D4E9046729
:101C80004FF0000942464B46304639460CF0B6FA52
:101C900000287FF4BEAEC4E90267C4E90489B8E64F
:101CA00090F82F30002B7FF4B4AECEE6AFF3008077
:101CB0000000000000709740000000000088A34072
:101CC00000407F4000208C4000C0924000209C409B
:101CD00000E0954000409F4028320B0802320B087C
:101CE0002E320B0847320B086E320B0874320B0889
:101CF0008A320B0810B5044600F078F9034B122223
:101D0000236000232046C4E9022310BD54330B088E
:101D100038B5064C23683BB91020FEF7BEF90546DE
:101D200008B1FFF7E7FF2560206838BDEC0200200E
:101D300008B5012102200BF0EFFA00210B200BF077
:101D4000EBFABDE80840002102200BF0F6BA0000D3
:101D5000002213B511460DF107030446074804F0AD
:101D6000BBFA9DF80710A1F11303012B03D82368D8
:101D700020461B68984702B010BD00BFA8320B0870
:101D800070B5C37ADBB9012102200BF0D6FA0A2024
:101D90000AF056F901260F2400252DB90B200BF06F
:101DA000E5FA051E18BF0125013C14F0FF04F4D12B
:101DB0001EB1214602200BF0C0FA284670BD002655
:101DC000E9E7000030B54B1E04460D468DB01F2BD1
:101DD0004AD8DFE813F0E000E400D900D200D900CF
:101DE0004900D9004900D9004900D900BF00BF000F
:101DF000C900C900490049009C0020007800490042
:101E0000490049004900490049004900490049008A
:101E1000D900D900D200132300220372114665486D
:101E200005F053FA6449684608F05DFD634904A86B
:101E300008F059FD624908A808F055FD694608AB4D
:101E400004AA532002F0B0FE08A808F002FD04A87E
:101E500008F0FFFC684608F0FCFCA37A23B90121D6
:101E6000E17202200BF069FA08F00AF8E368C01A80
:101E7000544B984221D92046FFF782FFD0B95249EE
:101E8000684608F030FD4D4904A808F02CFD4F4984
:101E900008A808F028FD694608AB04AA532002F000
:101EA00083FE08A808F0D5FC04A808F0D2FC684618
:101EB00008F0CFFC07F0E4FFE0602946204600F080
:101EC0008FF80DB030BD142300220372114639483B
:101ED00005F0FBF93E49684608F005FD374904A8BE
:101EE00008F001FD3B4908A808F0FDFC694608AB75
:101EF00004AA532002F058FE08A808F0AAFC04A87F
:101F000008F0A7FC684608F0A4FC0021A8E712230B
:101F1000002203721146274805F0D7F968462E497A
:101F200008F0E1FC254904A808F0DDFC2B4908A8CD
:101F300008F0D9FC694608AB04AA532002F034FE2D
:101F400008A808F086FC04A808F083FC684608F09E
:101F500080FC89E7037A122B86D1437A002B83D148
:101F6000837A002B80D1D0E7037A122B7FF47CAFE9
:101F7000437A002B7FF478AF6FE701234372037A33
:101F8000122B7FF471AF68E700234372037A122BA0
:101F90007FF46AAFB9E701230021438161E70023A1
:101FA0008372037A132B3FF45AAF437A002B7FF4EA
:101FB00056AF59E7A8320B08B6320B08BC320B08F3
:101FC000D0320B08002E930221330B0827330B0865
:101FD000E6320B08EC320B0803330B0809330B080D
:101FE000406810B103681B6818477047024A0260D6
:101FF00000224260704700BF60330B0841607047A9
:10200000034640680028FBD15960704738B5064C3C
:1020100025683DB91420FEF740F810B10223C560D1
:1020200003802060206838BDF002002000211C20C1
:102030000BF072B9002370B586B004938B68044628
:102040000E4602AD33B1022228469847F368059345
:10205000B36804936A4695E80300231D82E80300F1
:1020600093E8030085E8030092E8030083E8030097
:10207000049AE3682169E260059A0493059122615C
:102080001BB1032229462846984706B070BD07B504
:1020900082688DF807100AB90BF073FAC3680DF166
:1020A0000701984703B05DF804FB000010B5044633
:1020B0008CB01C200BF05AF9012801462CD1237852
:1020C000022B29D140F20113204620F8043BFFF7F0
:1020D000DEFF1D49684608F006FC1C4904A808F00C
:1020E00002FC1B4908A808F0FEFB694608AB04AADD
:1020F000532002F059FD08A808F0ABFB04A808F033
:10210000A8FB684608F0A5FB01220023A11811488E
:1021100008F024FA0CB010BD1C200BF027F90028A1
:10212000F2D12378012BEFD10221204620F8041BA5
:10213000FFF7ADFF0849684608F0D5FB034904A83E
:1021400008F0D1FB0549CDE764330B086B330B086E
:1021500079330B08AE330B0890330B0897330B0819
:10216000436913B183690C301847704713B50021D8
:102170000446084607F014FF0023204601A90193F6
:1021800007F026FF019C0CB10123237100210120DF
:1021900007F006FF2CB1236820469B689847002370
:1021A000237102B010BD022A38B5044607D0032AB5
:1021B00011D0012A01D10B682360002038BD0C200A
:1021C0000D68FDF76AFF03460028F5D095E8070083
:1021D00083E80700F0E700680028EED00C210BF040
:1021E000CAF9EAE710B403685A689968541001EB19
:1021F0006200D20748BF0A591B6810BC48BFD358B9
:102200001847000037B5134B044603608068C8B117
:1022100000256FF000430221CDE900352A462B4608
:1022200007F0DEFE2946A06807F02AFF237903F0B5
:10223000FF0513B107F0ACFEF8E72946A06807F0E8
:10224000BFFEA56004F10C00FEF7DEF8204603B0E7
:1022500030BD00BFAC350B0810B50446FFF7D2FF08
:1022600020461C210BF087F9204610BD10B504460E
:1022700001F0C0FA0023236102232060237120466D
:1022800010BD000038B5064C23683BB91820FDF797
:1022900004FF054608B1FFF7E9FF2560206838BD57
:1022A000F40200202DE9F04F044600688FB0037857
:1022B000002B00F0AC8001F0ADFA00258046554FB0
:1022C000DFF878A1544E5FFA85F9C84576D93946CA
:1022D0000AA808F008FB019501350A22294606A83C
:1022E00008F081FB06A90AA808F0BAFB2268019B46
:1022F00001684FEA830B02EB83035B68524693F954
:102300000430304605F033F806A808F0A2FA0AA80F
:1023100008F09FFA39460AA808F0E5FA0A22294689
:1023200006A808F060FB06A90AA808F099FB3B4B39
:102330003B4A0168304605F0C4F806A808F089FA5F
:102340000AA808F086FA39460AA808F0CCFA0A2248
:10235000294606A808F047FB06A90AA808F080FB52
:10236000236801685B445B6830465B692D4A05F071
:1023700050F806A808F06DFA0AA808F06AFAB9F150
:10238000000FA0D139460AA808F0ADFA0A22294662
:1023900006A808F028FB06A90AA808F061FB236834
:1023A00001685B6830469B691F4A05F032F806A851
:1023B00008F04FFA0AA808F04CFA84E723680022D4
:1023C0001B781A49144804F080FF0022236818493A
:1023D0001A7702A808F087FA164906A808F083FAC7
:1023E00015490AA808F07FFA0AAB06AA02A95320E9
:1023F00002F0DAFB0AA808F02CFA06A808F029FA7D
:1024000002A808F026FA01200FB0BDE8F08F0520E1
:10241000FAE700BFB9330B0818310B08C6330B08B5
:10242000CC330B08DB330B08D7330B08E2330B0834
:10243000E7330B08EE330B08FC330B08BF330B08F4
:10244000006803785BB1437800EB83035B681B7F14
:102450000BB901F035BA037F0BB101F00FBA704729
:1024600030B5032904460D4695B000F00D810B46AA
:10247000017100228549864804F079FF23685A7863
:1024800003EB82035B681B7F43BB092D26D8DFE883
:1024900005F0B6055C25256B897A98A7042104F11F
:1024A0000800FFF7F4FD7B4908A808F01CFA7A49F8
:1024B0000CA808F018FA794910A808F014FA10AB23
:1024C0000CAA08A9532002F06FFB10A808F0C1F96C
:1024D0000CA808F0BEF908A808F0BBF92B460022AA
:1024E0006F496B4804F043FF6E4908A808F0FBF9F8
:1024F00069490CA808F0F7F96B4904A808F0F3F94A
:102500000A222946684608F06EFA694604A808F0CF
:10251000A7FA014610A808F030FA10AB0CAA08A9D7
:10252000532002F041FB10A808F093F9684608F028
:1025300090F904A808F08DF90CA808F08AF908A809
:1025400008F087F9012015B030BD052104F108001D
:10255000FFF79DFD554908A808F0C5F94E490CA89C
:1025600008F0C1F95249A7E7072104F10800FFF775
:102570008EFD504908A808F0B6F947490CA808F0A4
:10258000B2F94D4998E70B2104F10800FFF77FFDF0
:102590004A4908A808F0A7F93F490CA808F0A3F990
:1025A000474989E71E2104F10800FFF770FD4549FE
:1025B00008A808F098F938490CA808F094F942499D
:1025C0007AE71F2104F10800FFF761FD3F4908A8E1
:1025D00008F089F930490CA808F085F93C496BE707
:1025E000202104F10800FFF752FD3A4908A808F03D
:1025F0007AF929490CA808F076F937495CE704AB69
:1026000000223649224803F0B0FE9DF8103008340D
:1026100063B31C212046FFF73AFD2A4908A808F0B9
:1026200062F91D490CA808F05EF92D4910A808F0C0
:102630005AF910AB0CAA08A9532002F0B5FA10A859
:1026400008F007F90CA808F004F908A808F001F947
:1026500003212046FFF71BFD224908A808F043F993
:102660000D490CA808F03FF91F4925E71D21204618
:10267000FFF70DFD1D4908A808F035F906490CA81B
:1026800008F031F91A49D1E702205CE719340B0848
:1026900021340B082D340B08EE330B0833340B08B0
:1026A00039350B0841350B0847350B0843340B0807
:1026B00049340B0858340B085F340B0871340B088D
:1026C00078340B0887340B088E340B08A2340B08BF
:1026D000A9340B08BD340B08C4340B08D8340B08DC
:1026E000EB340B0823350B0829350B0803350B0891
:1026F0000A350B0830B590F9043004468FB0092B29
:1027000051D8DFE803F00567755050839F91ADBB4A
:102710000DF1070300226049604803F026FE9DF892
:10272000073004F10805002B46D01C212846FFF78E
:10273000AEFC5B490AA808F0D6F85A4906A808F08A
:10274000D2F8594902A808F0CEF802AB06AA0AA9A5
:10275000532002F029FA02A808F07BF806A808F036
:1027600078F80AA808F075F803212846FFF78FFCCF
:102770004E490AA808F0B7F84A4906A808F0B3F885
:102780004B4902A808F0AFF802AB06AA0AA95320E9
:1027900002F00AFA02A808F05CF806A808F059F856
:1027A0000AA808F056F8002294F9043041493B4841
:1027B00004F0DDFD0FB030BD1D212846FFF767FC9A
:1027C0003D490AA808F08FF8364906A808F08BF8AA
:1027D0003A49B7E704210830FFF759FC38490AA8FD
:1027E00008F081F82F4906A808F07DF83549C8E7B8
:1027F00005210830FFF74BFC33490AA808F073F8AD
:10280000284906A808F06FF83049BAE707210830D0
:10281000FFF73DFC2E490AA808F065F8214906A8F3
:1028200008F061F82B49ACE70B210830FFF72FFCCB
:1028300029490AA808F057F81A4906A808F053F8D9
:1028400026499EE71E210830FFF721FC14490AA8FB
:1028500008F049F8134906A808F045F8204990E720
:102860001F210830FFF713FC1E490AA808F03BF8A7
:102870000C4906A808F037F81B4982E720210830E8
:10288000FFF705FC19490AA808F02DF8054906A824
:1028900008F029F8164974E7D8340B0821340B08DE
:1028A00087340B08EE330B08EB340B0823350B0889
:1028B00029350B0839350B0803350B080A350B0889
:1028C0002D340B0833340B0843340B0849340B0800
:1028D00058340B085F340B0871340B0878340B083C
:1028E0008E340B08A2340B08A9340B08BD340B0836
:1028F000C4340B0813B50131044609D10DF10703A7
:1029000000220949094803F093FC9DF80730237120
:1029100023685A7803EB82035B681B7F13B9204658
:10292000FFF7E8FE02B010BD19340B0821340B0884
:1029300030B50D468FB00DF10703044600221A4949
:102940001A4803F075FC9DF90730AB4229D10023EA
:1029500015491A462371154804F009FD204694F9DB
:102960000410FFF7C7FF124902A807F0BCFF114986
:1029700006A807F0B8FF10490AA807F0B4FF0AAB91
:1029800006AA02A9532002F00FF90AA807F061FF76
:1029900006A807F05EFF02A807F05BFF01200FB05A
:1029A00030BD0320FBE700BF19340B0821340B08AE
:1029B00061350B08EE330B0867350B0813B56C4611
:1029C0000B46024603C884E8030093E8030082E84C
:1029D000030094E8030083E8030002B010BD000088
:1029E00070B58CB00E4605AD02A981E80C0085E8F3
:1029F0000C00002304460C200A93FDF74EFB03460F
:102A000028B195E80300109A83E803009A60002536
:102A10000893134B04F10C010B93124B08A80A9373
:102A2000114B25712360A5606561FFF7C7FF0A9B05
:102A3000626963610B9B0A92A269A3619DF84430AD
:102A400031460B920093094A2346019504F1080090
:102A500007F0AEFA08A8FDF7D7FC20460CB070BD11
:102A6000E5210A08A7210A08AC350B086D210A08E0
:102A70002DE9F04FA9B00DF11D0304460022C04915
:102A8000C04803F029FC9DF81D30002B00F0818226
:102A90002268BD491370BB4800220DF11E0303F0EC
:102AA0001BFC23689DF81E2000255A700023049308
:102AB00020689DF810A00378534540F268820AF11F
:102AC0000106B2491BA807F00EFF0A2231461FA8D3
:102AD00007F089FF1FA91BA807F0C2FF0DF11F0314
:102AE000AB4A0168A74803F0A3FB1FA807F0B1FE9B
:102AF0001BA807F0AEFEA5491BA807F0F4FE0A22AA
:102B000031461FA807F06FFF1FA91BA807F0A8FFF9
:102B100009ABA04A01689B4803F0DAFA1FA807F046
:102B200098FE1BA807F095FE98491BA807F0DBFE4E
:102B30000A2231461FA807F056FF1FA91BA807F05D
:102B40008FFF08AB0168944A8E4803F026FB1FA84C
:102B500007F07FFE1BA807F07CFE23685B785345D7
:102B600040F0408109F034FA0A2201460FA807F02C
:102B70003AFF0F9F09F038FA0A22014613A807F01E
:102B800032FFDDF84CB009F037FA0A22014617A8E7
:102B900007F029FF38460DF0A7FA064658460DF013
:102BA000A3FADDF85C90029048460DF09DFA80464D
:102BB00009A80DF099FA029B1E440636B044404421
:102BC000FDF76DFA804639460CF008FD7349404622
:102BD0000CF0D4FC594640460CF0D0FC6F494046FE
:102BE0000CF0CCFC494640460CF0C8FC6B49404612
:102BF0000CF0C4FC09A940460CF0C0FC68494046F2
:102C00000CF0BCFC1FAA674940460DF041FE1FA80E
:102C10000CF0E8FA0E46074609F0FAF90246C31727
:102C2000CDE90223DDE902013A4633460CF0D4F83F
:102C300051A3D3E900230BF0A3F900220023064699
:102C40000F460BF0E5FA002858D04046FDF72BFA66
:102C500009F0BEF90A22411E1BA807F0C4FE1B9909
:102C6000084605910DF040FA064658460DF03CFA2C
:102C7000804648460DF038FA074609A80DF034FAA8
:102C80004644063637443844FDF709FA804605992C
:102C90000CF0A4FC414940460CF070FC59464046FB
:102CA0000CF06CFC3D4940460CF068FC494640463F
:102CB0000CF064FC394940460CF060FC09A9404620
:102CC0000CF05CFC364940460CF058FC1FAA354914
:102CD00040460DF0DDFD1FA80CF084FA02460B46BD
:102CE000DDE902010CF078F823A3D3E900230BF00F
:102CF00047F906461BA80F4607F0ABFD4046FDF717
:102D0000D2F900220023304639460BF081FA002820
:102D10004AD04FF07C5108980BF048FC0AF0AEFF07
:102D200032463B46804689460BF090FA00283BD05D
:102D300032463B46404649460AF042FE0BF0D8FA7E
:102D4000064617A807F085FD13A807F082FD0FA817
:102D500007F07FFD9DF91F304FEA8A0A013B082BDF
:102D600053D8DFE813F041008700A300520095001C
:102D7000BF00B100CD00DC00000000000020AC402E
:102D8000E2330B0818310B0886350B08B9330B08F2
:102D9000BF330B08CC330B08DB330B0861380B084F
:102DA000C8330B088F350B08002200233046394604
:102DB0000BF04CFAA0B14FF07C5108980BF0F6FBE9
:102DC0000AF05CFF32463B46804689460BF03EFAED
:102DD00030B132463B46404649460AF0EFFDADE78A
:102DE0002E46AEE72E46B5E72420FDF756F90746F6
:102DF00040B1089B0121009609AA01F0E7FC664B4F
:102E00003B603C62236853445F6023682946534417
:102E10003046D3F804800BF085FD0746002800F00B
:102E20008D805E49D8F818000BF0C0FB5B490BF0B1
:102E3000BDFB5B490BF0BAFB0BF07EFD07461C2087
:102E4000FDF72BF9064660B1564B39460B9300232C
:102E50000C93012301932368524A00930023FFF748
:102E6000BFFD23689A44DAF804309E60049B013366
:102E700004931DE62420FDF710F907460028C1D071
:102E8000089B0221009609AA01F0A0FC464BB7E777
:102E90002420FDF702F907460028B3D0089B05213E
:102EA000009609AA01F092FC404BA9E72420FDF707
:102EB000F4F807460028A5D0089B0321009609AA2C
:102EC00001F084FC3A4B9BE72420FDF7E6F8074627
:102ED000002897D0089B0721009609AA01F076FCEC
:102EE000344B8DE72420FDF7D8F80746002889D019
:102EF000089B0621009609AA01F068FC2E4B7FE78B
:102F00002420FDF7CAF8074600283FF47BAF089B52
:102F10000821009609AA01F059FC284B70E72420EB
:102F2000FDF7BBF8074600283FF46CAF089B09216A
:102F3000009609AA01F04AFC214B61E7D8F8140079
:102F40000AF09CFE00221F4B0AF0F0FE00221E4BEE
:102F50000AF0ECFE00221C4B0AF0E8FE00221B4B9C
:102F60000AF0E4FE0BF07CF980461C20FDF795F892
:102F7000064600283FF475AF0A4B4146CDE90D37B0
:102F8000012301932368074A00933B4667E700F05B
:102F9000C7FC29B0BDE8F08FF4360B080000704282
:102FA00000007A444D390A088C360B081C370B0890
:102FB00030360B0854370B0868360B08F0350B0811
:102FC000CC360B080000E03F00004E4000408F4030
:102FD0002DE9F04F91B01F469DF86C3005460293E5
:102FE00003680E461B789046DDF868A00BB1FFF72A
:102FF00059F90024029B5FFA84F9A34200F06E8223
:1030000057F824B0002158460BF078FC30B95846E8
:1030100056490BF087FC002800F0968009F1FF3933
:10302000DFF864A1524FDFF85CB14FFA89F94FFA2B
:1030300089F8B8F1FF3F00F062822420FDF72DF8F7
:10304000064618B101F0B4FBC6F800A02B6839465B
:1030500003EB89035E600CA809F1010607F043FC4D
:103060000A22314608A807F0BEFC08A90CA807F000
:10307000F7FC2B684FEA890423445B685A4693F9AE
:10308000043001683B4804F072F908A807F0E1FB3E
:103090000CA807F0DEFB39460CA807F024FC0A2236
:1030A000314608A807F09FFC08A90CA807F0D8FC37
:1030B0002B68314A23445B6801680C332D4804F0C7
:1030C00000FA08A807F0C5FB0CA807F0C2FB3946B8
:1030D0000CA807F008FC0A22314608A807F083FC78
:1030E00008A90CA807F0BCFC2B6801681C446368A5
:1030F000224A5B691F4804F08CF908A807F0A9FB75
:103100000CA807F0A6FBB8F1000F1AD139460CA89D
:1031100007F0E9FB0A22314608A807F064FC08A979
:103120000CA807F09DFC2B6801685B68144A9B693A
:10313000104804F06EF908A807F08BFB0CA807F004
:1031400088FB09F1FF3972E733574FEA8409013BE5
:10315000082B34D8DFE813F01A00DC000401330038
:10316000F0002C0118014001540100BF0000C041D3
:10317000B9330B0818310B08CC330B08DB330B08C1
:10318000D7330B08BF330B0830360B082420FCF76D
:1031900084FF834678B106225AF8243002FB048269
:1031A000009357F82430315701F010FBB74BCBF8A0
:1031B0000030CBF820502B684B44C3F804B0D5F84E
:1031C00000B0002C40F030810021DAF800000BF054
:1031D000A9FB002800F02881DBF80430AC4998698D
:1031E0000BF0E4F9AA490BF0E1F9AA490BF0DEF97A
:1031F0000BF0A2FB83461C20FCF74FFF814658B121
:10320000A54B5946CDE90434012301932B68A24A0A
:1032100000932346FFF7E4FB2B685B68C3F8089034
:1032200004F101099D490CA807F05DFB0A224946FB
:1032300008A807F0D8FB08A90CA807F011FC2B6818
:10324000974A03EB84035B68016893F9043095485F
:1032500004F08DF808A807F0FCFA0CA807F0F9FABA
:103260008E490CA807F03FFB0A22494608A807F040
:10327000BAFB08A90CA807F0F3FB2B684FEA840BF4
:103280005B445B68884A0C330168864804F019F98E
:1032900008A807F0DEFA0CA807F0DBFA7F490CA8B3
:1032A00007F021FB0A22494608A807F09CFB08A961
:1032B0000CA807F0D5FB2B6801685B445B687B4A70
:1032C0005B69784804F0A5F808A807F0C2FA0CA8D2
:1032D00007F0BFFAD4B971490CA807F004FB0A2221
:1032E000494608A807F07FFB08A90CA807F0B8FB1F
:1032F0002B6801685B686E4A9B696A4804F089F82C
:1033000008A807F0A6FA0CA807F0A3FA4C4671E645
:103310002420FCF7C2FE834600283FF44CAF06226F
:103320005AF8243002FB0482009357F824303157B6
:1033300001F04CFA5F4B3AE72420FCF7AEFE8346DF
:1033400000283FF438AF06225AF8243002FB0482EA
:10335000009357F82430315701F038FA564B26E7DE
:103360002420FCF79AFE834600283FF424AF06226F
:103370005AF8243002FB0482009357F82430315766
:1033800001F024FA4D4B12E72420FCF786FE834619
:1033900000283FF410AF06225AF8243002FB0482C2
:1033A000009357F82430315701F010FA444BFEE6F1
:1033B0002420FCF772FE834600283FF4FCAE062270
:1033C0005AF8243002FB0482009357F82430315716
:1033D00001F0FCF93B4BEAE62420FCF75EFE834655
:1033E00000283FF4E8AE06225AF8243002FB04829B
:1033F000009357F82430315701F0E8F9324BD6E604
:103400002420FCF74AFE834600283FF4D4AE06226F
:103410005AF8243002FB0482009357F824303157C5
:1034200001F0D4F9294BC2E6CB44DBF804305869EB
:103430000AF024FC0022264B0AF078FC0022254BDF
:103440000AF074FC0022234B0AF070FC0022224B8D
:103450000AF06CFC0AF004FF03901C20FCF71DFE30
:10346000834660B10C4B0C4A06930023079301235B
:1034700001932B68039900930023FFF7B1FA2B689F
:103480004B445B68C3F808B0CAE600BFF4360B08CB
:103490000000704200007A444D390A08B9330B0825
:1034A000BF330B0818310B08CC330B08DB330B0888
:1034B000D7330B088C360B081C370B0830360B083B
:1034C00054370B0868360B08F0350B08CC360B0860
:1034D0000000E03F00004E4000408F402B68029A01
:1034E00008491A702B6800221B78074803F0EDFE8C
:1034F000286800F015FA012011B0BDE8F08F042013
:10350000FAE700BFE2330B0818310B087FB5002340
:1035100002938B6804460D4600F1080633B102227F
:1035200068469847EB680393AB6802933146684658
:10353000FFF744FA029B22692361039B02926269AE
:10354000684663610392FCF75FFF4FF0FF3120464E
:10355000FFF7D0F904B070BD012130B58368017761
:10356000044698688FB038B16FF000420023CDE96F
:1035700000231A4606F034FD0023256A0C932B69BC
:1035800043B1022205F108010AA898476B690D931F
:103590002B690C931F238DF818300C9B0BB909F085
:1035A000F0FF0D9B06A90AA898470C9B1BB10AA91E
:1035B00003220846984794F9043000221049114824
:1035C00003F0D5FE104902A807F08DF90F4906A8AF
:1035D00007F089F90E490AA807F085F90AAB06AA8F
:1035E00002A9532001F0E0FA0AA807F032F906A870
:1035F00007F02FF902A807F02CF90FB030BD00BF7B
:1036000039350B0821340B08A2340B08EE330B08B4
:10361000B8350B0830B50025036A85611B68044680
:103620005B788DB0002B3DD1304908A8039507F099
:103630005AF9236A0A221B6804A85978013107F055
:10364000D2F904A908A807F00BFA294A016803ABCC
:10365000284802F0A2FD04A807F0FBF808A807F02C
:10366000F8F8294603980BF05DF9D8B11F4908A86E
:1036700007F039F9236A0A221B6804A85978013136
:1036800007F0B1F904A908A807F0EAF9A3690168ED
:10369000174A184803F0BDFE04A807F0DAF808A896
:1036A00007F0D7F8A3689D68F5B160690AF0E6FAFB
:1036B0000022114B0AF03AFB0022104B0AF036FBB5
:1036C00000220E4B0AF032FB00220D4B0AF02EFBBB
:1036D0000AF0C6FD6FF0004100220346CDE900125A
:1036E0002846032106F07CFC0DB030BDB9330B0831
:1036F000D7330B0818310B080000E03F00004E40A4
:1037000000408F4070B58368044698688EB000B35F
:10371000002106F0A5FCE0B1A568A868C8B10026A4
:103720006FF000430221CDE900363246334606F001
:1037300057FC3146A86806F0A3FC2B7903F0FF067E
:1037400013B106F025FCF8E73146A86806F038FC0E
:10375000AE6000230021A06923770BF0E3F810B1DD
:103760002046FFF757FF206A4FF0FF31FFF7C2F8FE
:103770000E4902A807F0B7F80D4906A807F0B3F8FC
:103780000C490AA807F0AFF80AAB06AA02A9532011
:1037900001F00AFA0AA807F05CF806A807F059F841
:1037A00002A807F056F80EB070BD00BFCC350B086C
:1037B000EE330B08D3350B0800232DE9F041044606
:1037C000DFF82C8003800377061D00F11C072420FE
:1037D000FCF763FC054618B100F0EAFFC5F800806D
:1037E00046F8045BBE42F2D12046BDE8F08100BF3E
:1037F00030360B0838B5064C23683BB92020FCF75F
:103800004CFC054608B1FFF7D7FF2560206838BD9E
:10381000F80200202DE9F0414378044600EB8303D1
:103820005868037F13B103685B6898470027DFF887
:1038300048802378FEB2B3420DD92420FCF72DFC3A
:10384000054618B100F0B4FFC5F8008004EB860609
:1038500075600137EDE7002505492B462A460548E6
:10386000657003F032FD20782570BDE8F08100BF5F
:1038700086350B0818310B0830360B0870B500255B
:1038800004464378057700EB8303586803685B6858
:103890009847207801280ED063782A46591CB1FB3E
:1038A000F0F300FB1313DBB2637003490348BDE878
:1038B000704003F00ABD70BD86350B0818310B0847
:1038C00030B543788BB000EB8303596804460C3164
:1038D00002A807F008F808F06AFB0F4B02460F49F0
:1038E0000093C31706A808F003FB06A902A807F077
:1038F000ECF8054606A806F0ACFF02A806F0A9FF02
:1039000045B100236078237704EB80046068036886
:103910001B6898470BB030BD3D310B089403002065
:1039200070B54378044600EB83035D680021A86905
:103930000AF0F8FF28B12B682846BDE870401B68E4
:1039400018472046BDE87040FFF7BABF10B543786E
:10395000044600EB83035B689B68986810B90123F9
:10396000237710BD002106F07BFB0028F7D0F8E795
:1039700030B50025036A85611B6804465B788DB00D
:10398000002B3DD1304908A8039506F0ACFF236A0F
:103990000A221B6804A85978013107F024F804A909
:1039A00008A807F05DF8294A016803AB284802F02F
:1039B000F4FB04A806F04DFF08A806F04AFF2946CC
:1039C00003980AF0AFFFD8B11F4908A806F08BFF93
:1039D000236A0A221B6804A85978013107F003F80A
:1039E00004A908A807F03CF8A3690168174A184819
:1039F00003F00FFD04A806F02CFF08A806F029FF2D
:103A0000A3689D68F5B160690AF038F90022114B8E
:103A10000AF08CF90022104B0AF088F900220E4BB4
:103A20000AF084F900220D4B0AF080F90AF018FC24
:103A30006FF0004100220346CDE900122846032121
:103A400006F0CEFA0DB030BDB9330B08D7330B08F2
:103A500018310B080000E03F00004E4000408F404E
:103A600038B5002383608B6804460D462BB10222D3
:103A70009847EB68E360AB68A360204638BD000060
:103A8000012110B583680177044698688EB038B17B
:103A90006FF000420023CDE900231A4606F0A0FA99
:103AA000216A0AA80831FFF7DBFF09210AA8FEF7FF
:103AB000EEFA0AA8FCF7A8FC94F904300022104999
:103AC000104803F054FC104902A806F00CFF0F49FF
:103AD00006A806F008FF0E490AA806F004FF0AAB84
:103AE00006AA02A9532001F05FF80AA806F0B1FE69
:103AF00006A806F0AEFE02A806F0ABFE0EB010BDA2
:103B000039350B0821340B08F8350B08EE330B0858
:103B1000FE350B0870B58368044698688EB000B314
:103B2000002106F09DFAE0B1A568A868C8B100269A
:103B30006FF000430221CDE900363246334606F0ED
:103B40004FFA3146A86806F09BFA2B7903F0FF067E
:103B500013B106F01DFAF8E73146A86806F030FA0E
:103B6000AE6000230021A06923770AF0DBFE10B1CC
:103B70002046FFF7FDFE216A0AA80831FFF770FF13
:103B80000A210AA8FEF783FA0AA8FCF73DFC206A7E
:103B90004FF0FF31FEF7AEFE0E4902A806F0A3FE7D
:103BA0000D4906A806F09FFE0C490AA806F09BFEE8
:103BB0000AAB06AA02A9532000F0F6FF0AA806F0F5
:103BC00048FE06A806F045FE02A806F042FE0EB02A
:103BD00070BD00BF0F360B08EE330B0815360B080F
:103BE000012130B583680177044698688FB038B1F9
:103BF0006FF000420023CDE900231A4606F0F0F9E9
:103C00000023256A0C932B6943B1022205F10801B8
:103C10000AA898476B690D932B690C931E238DF8A6
:103C200018300C9B0BB909F0ACFC0D9B06A90AA837
:103C300098470C9B1BB10AA903220846984794F9A0
:103C4000043000221049114803F091FB104902A8EA
:103C500006F049FE0F4906A806F045FE0E490AA8DF
:103C600006F041FE0AAB06AA02A9532000F09CFF11
:103C70000AA806F0EEFD06A806F0EBFD02A806F085
:103C8000E8FD0FB030BD00BF39350B0821340B08FB
:103C900087340B08EE330B0838360B0830B5002597
:103CA000036A85611B6804465B788DB0002B3DD1AB
:103CB000304908A8039506F016FE236A0A221B68FD
:103CC00004A85978013106F08EFE04A908A806F070
:103CD000C7FE294A016803AB284802F05EFA04A82F
:103CE00006F0B7FD08A806F0B4FD294603980AF0CF
:103CF00019FED8B11F4908A806F0F5FD236A0A226B
:103D00001B6804A85978013106F06DFE04A908A8C3
:103D100006F0A6FEA3690168174A184803F079FB6C
:103D200004A806F096FD08A806F093FDA3689D6818
:103D3000F5B1606909F0A2FF0022114B09F0F6FF0E
:103D40000022104B09F0F2FF00220E4B09F0EEFFAB
:103D500000220D4B09F0EAFF0AF082FA6FF00041F1
:103D600000220346CDE900122846032106F038F967
:103D70000DB030BDB9330B08D7330B0818310B0821
:103D80000000E03F00004E4000408F4070B5836867
:103D9000044698688EB000B3002106F061F9E0B1E6
:103DA000A568A868C8B100266FF000430221CDE9DC
:103DB00000363246334606F013F93146A86806F05D
:103DC0005FF92B7903F0FF0613B106F0E1F8F8E78D
:103DD0003146A86806F0F4F8AE6000230021A0691F
:103DE00023770AF09FFD10B12046FFF757FF206AA6
:103DF0004FF0FF31FEF77EFD0E4902A806F073FD7D
:103E00000D4906A806F06FFD0C490AA806F06BFDE7
:103E10000AAB06AA02A9532000F0C6FE0AA806F0C3
:103E200018FD06A806F015FD02A806F012FD0EB05A
:103E300070BD00BF03350B08EE330B084C360B0882
:103E4000012130B583680177044698688FB038B196
:103E50006FF000420023CDE900231A4606F0C0F8B7
:103E60000023256A0C932B6943B1022205F1080156
:103E70000AA898476B690D932B690C9305238DF85D
:103E800018300C9B0BB909F07CFB0D9B06A90AA806
:103E900098470C9B1BB10AA903220846984794F93E
:103EA000043000221049114803F061FA104902A8B9
:103EB00006F019FD0F4906A806F015FD0E490AA8DF
:103EC00006F011FD0AAB06AA02A9532000F06CFE11
:103ED0000AA806F0BEFC06A806F0BBFC02A806F085
:103EE000B8FC0FB030BD00BF39350B0821340B08CA
:103EF00043340B08EE330B0849340B0830B500256A
:103F0000036A85611B6804465B788DB0002B3DD148
:103F1000304908A8039506F0E6FC236A0A221B68CC
:103F200004A85978013106F05EFD04A908A806F03E
:103F300097FD294A016803AB284802F02EF904A82E
:103F400006F087FC08A806F084FC294603980AF0CE
:103F5000E9FCD8B11F4908A806F0C5FC236A0A226B
:103F60001B6804A85978013106F03DFD04A908A892
:103F700006F076FDA3690168174A184803F049FA6C
:103F800004A806F066FC08A806F063FCA3689D6818
:103F9000F5B1606909F072FE0022114B09F0C6FE0E
:103FA0000022104B09F0C2FE00220E4B09F0BEFEAB
:103FB00000220D4B09F0BAFE0AF052F96FF00041F1
:103FC00000220346CDE900122846032106F008F836
:103FD0000DB030BDB9330B08D7330B0818310B08BF
:103FE0000000E03F00004E4000408F4070B5836805
:103FF000044698688EB000B3002106F031F8E0B1B5
:10400000A568A868C8B100266FF000430221CDE979
:1040100000363246334605F0E3FF3146A86806F025
:104020002FF82B7903F0FF0613B105F0B1FFF8E785
:104030003146A86805F0C4FFAE6000230021A069E6
:1040400023770AF06FFC10B12046FFF757FF206A74
:104050004FF0FF31FEF74EFC0E4902A806F043FC7C
:104060000D4906A806F03FFC0C490AA806F03BFCE7
:104070000AAB06AA02A9532000F096FD0AA806F092
:10408000E8FB06A806F0E5FB02A806F0E2FB0EB08E
:1040900070BD00BF70360B08EE330B0876360B0888
:1040A000012130B583680177044698688FB038B134
:1040B0006FF000420023CDE900231A4605F090FF7F
:1040C0000023256A0C932B6943B1022205F10801F4
:1040D0000AA898476B690D932B690C9320238DF8E0
:1040E00018300C9B0BB909F04CFA0D9B06A90AA8D5
:1040F00098470C9B1BB10AA903220846984794F9DC
:10410000043000221049114803F031F9104902A887
:1041100006F0E9FB0F4906A806F0E5FB0E490AA8E0
:1041200006F0E1FB0AAB06AA02A9532000F03CFD11
:104130000AA806F08EFB06A806F08BFB02A806F084
:1041400088FB0FB030BD00BF39350B0821340B0898
:10415000BD340B08EE330B0894360B0830B5002540
:10416000036A85611B6804465B788DB0002B3DD1E6
:10417000304908A8039506F0B6FB236A0A221B689B
:1041800004A85978013106F02EFC04A908A806F00D
:1041900067FC294A016803AB284801F0FEFF04A828
:1041A00006F057FB08A806F054FB294603980AF0CE
:1041B000B9FBD8B11F4908A806F095FB236A0A226B
:1041C0001B6804A85978013106F00DFC04A908A861
:1041D00006F046FCA3690168174A184803F019F96C
:1041E00004A806F036FB08A806F033FBA3689D6818
:1041F000F5B1606909F042FD0022114B09F096FD0E
:104200000022104B09F092FD00220E4B09F08EFDAA
:1042100000220D4B09F08AFD0AF022F86FF00041F0
:1042200000220346CDE900122846032105F0D8FEFE
:104230000DB030BDB9330B08D7330B0818310B085C
:104240000000E03F00004E4000408F4070B58368A2
:10425000044698688EB000B3002105F001FFE0B17C
:10426000A568A868C8B100266FF000430221CDE917
:1042700000363246334605F0B3FE3146A86805F0F5
:10428000FFFE2B7903F0FF0613B105F081FEF8E77E
:104290003146A86805F094FEAE6000230021A069B5
:1042A00023770AF03FFB10B12046FFF757FF206A43
:1042B0004FF0FF31FEF71EFB0E4902A806F013FB7C
:1042C0000D4906A806F00FFB0C490AA806F00BFBE7
:1042D0000AAB06AA02A9532000F066FC0AA806F061
:1042E000B8FA06A806F0B5FA02A806F0B2FA0EB0BF
:1042F00070BD00BFA8360B08EE330B08AF360B08B5
:10430000012130B583680177044698688FB038B1D1
:104310006FF000420023CDE900231A4605F060FE4D
:104320000023256A0C932B6943B1022205F1080191
:104330000AA898476B690D932B690C9304238DF899
:1043400018300C9B0BB909F01CF90D9B06A90AA8A3
:1043500098470C9B1BB10AA903220846984794F979
:10436000043000221049114803F001F8104902A856
:1043700006F0B9FA0F4906A806F0B5FA0E490AA8E0
:1043800006F0B1FA0AAB06AA02A9532000F00CFC11
:104390000AA806F05EFA06A806F05BFA02A806F084
:1043A00058FA0FB030BD00BF39350B0821340B0867
:1043B0002D340B08EE330B0833340B0830B50025D1
:1043C000036A85611B6804465B788DB0002B3DD184
:1043D000304908A8039506F086FA236A0A221B686A
:1043E00004A85978013106F0FEFA04A908A806F0DD
:1043F00037FB294A016803AB284801F0CEFE04A828
:1044000006F027FA08A806F024FA294603980AF0CD
:1044100089FAD8B11F4908A806F065FA236A0A226A
:104420001B6804A85978013106F0DDFA04A908A830
:1044300006F016FBA3690168174A184802F0E9FF65
:1044400004A806F006FA08A806F003FAA3689D6817
:10445000F5B1606909F012FC0022114B09F066FC0D
:104460000022104B09F062FC00220E4B09F05EFCAA
:1044700000220D4B09F05AFC09F0F2FE6FF00041EA
:1044800000220346CDE900122846032105F0A8FDCD
:104490000DB030BDB9330B08D7330B0818310B08FA
:1044A0000000E03F00004E4000408F4070B5836840
:1044B000044698688EB000B3002105F0D1FDE0B14C
:1044C000A568A868C8B100266FF000430221CDE9B5
:1044D00000363246334605F083FD3146A86805F0C4
:1044E000CFFD2B7903F0FF0613B105F051FDF8E77E
:1044F0003146A86805F064FDAE6000230021A06984
:1045000023770AF00FFA10B12046FFF757FF206A11
:104510004FF0FF31FEF7EEF90E4902A806F0E3F97D
:104520000D4906A806F0DFF90C490AA806F0DBF9E8
:104530000AAB06AA02A9532000F036FB0AA806F02F
:1045400088F906A806F085F902A806F082F90EB0EF
:1045500070BD00BFD4360B08EE330B08DA360B08FB
:1045600030B50025036A85611B6804465B788DB011
:10457000002B3DD1304908A8039506F0B4F9236A11
:104580000A221B6804A85978013106F02CFA04A904
:1045900008A806F065FA294A016803AB284801F02B
:1045A000FCFD04A806F055F908A806F052F92946C2
:1045B00003980AF0B7F9D8B11F4908A806F093F993
:1045C000236A0A221B6804A85978013106F00BFA05
:1045D00004A908A806F044FAA3690168174A184814
:1045E00002F017FF04A806F034F908A806F031F924
:1045F000A3689D68F5B1606909F040FB0022114B8A
:1046000009F094FB0022104B09F090FB00220E4BA6
:1046100009F08CFB00220D4B09F088FB09F020FE0D
:104620006FF0004100220346CDE900122846032125
:1046300005F0D6FC0DB030BDB9330B08D7330B08ED
:1046400018310B080000E03F00004E4000408F4052
:10465000012110B583680177044698688EB038B19F
:104660006FF000420023CDE900231A4605F0B8FCA4
:10467000216A0AA80831FFF7F3F907210AA8FDF714
:1046800006FD0AA8FBF7C0FE94F904300022104989
:10469000104802F06CFE104902A806F024F90F49F8
:1046A00006A806F020F90E490AA806F01CF90AAB84
:1046B00006AA02A9532000F077FA0AA806F0C9F862
:1046C00006A806F0C6F802A806F0C3F80EB010BDA2
:1046D00039350B0821340B0858340B08EE330B081E
:1046E0005F340B0870B58368044698688EB000B3D9
:1046F000002105F0B5FCE0B1A568A868C8B10026A6
:104700006FF000430221CDE900363246334605F012
:1047100067FC3146A86805F0B3FC2B7903F0FF066F
:1047200013B105F035FCF8E73146A86805F048FC00
:10473000AE6000230021A06923770AF0F3F810B1DE
:104740002046FFF70DFF216A0AA80831FFF788F914
:1047500008210AA8FDF79BFC0AA8FBF755FE206A72
:104760004FF0FF31FEF7C6F80E4902A806F0BBF87D
:104770000D4906A806F0B7F80C490AA806F0B3F8E8
:104780000AAB06AA02A9532000F00EFA0AA806F006
:1047900060F806A806F05DF802A806F05AF80EB018
:1047A00070BD00BFFC360B08EE330B0803370B0857
:1047B000054A0260FF2202710022426182610022EA
:1047C00002778260704700BF2C370B0838B504466B
:1047D00008461D46074B114623602071062204F14E
:1047E0000C000BF09BFC049B2046A3610023656139
:1047F000237738BD2C370B08012130B5836801774A
:10480000044698688FB038B16FF000420023CDE9BC
:1048100000231A4605F0E4FB0023256A0C932B695C
:1048200043B1022205F108010AA898476B690D936C
:104830002B690C930B238DF818300C9B0BB908F0E7
:10484000A0FE0D9B06A90AA898470C9B1BB10AA9BC
:1048500003220846984794F9043000221049114871
:1048600002F085FD104902A806F03DF80F4906A8A0
:1048700006F039F80E490AA806F035F80AAB06AA80
:1048800002A9532000F090F90AA805F0E2FF06A85B
:1048900005F0DFFF02A805F0DCFF0FB030BD00BF60
:1048A00039350B0821340B0871340B08EE330B0833
:1048B00078340B0830B50025036A85611B6804460F
:1048C0005B788DB0002B3DD1304908A8039506F0E8
:1048D0000AF8236A0A221B6804A85978013106F0F5
:1048E00082F804A908A806F0BBF8294A016803ABBE
:1048F000284801F052FC04A805F0ABFF08A805F019
:10490000A8FF294603980AF00DF8D8B11F4908A856
:1049100005F0E9FF236A0A221B6804A859780131CF
:1049200006F061F804A908A806F09AF8A3690168DE
:10493000174A184802F06DFD04A805F08AFF08A880
:1049400005F087FFA3689D68F5B1606909F096F9E5
:104950000022114B09F0EAF90022104B09F0E6F9A8
:1049600000220E4B09F0E2F900220D4B09F0DEF9AE
:1049700009F076FC6FF0004100220346CDE90012F9
:104980002846032105F02CFB0DB030BDB9330B08D0
:10499000D7330B0818310B080000E03F00004E40F1
:1049A00000408F4070B58368044698688EB000B3AD
:1049B000002105F055FBE0B1A568A868C8B1002644
:1049C0006FF000430221CDE900363246334605F050
:1049D00007FB3146A86805F053FB2B7903F0FF066F
:1049E00013B105F0D5FAF8E73146A86805F0E8FA02
:1049F000AE6000230021A069237709F093FF10B176
:104A00002046FFF757FF206A4FF0FF31FDF772FF96
:104A10000E4902A805F067FF0D4906A805F063FFDF
:104A20000C490AA805F05FFF0AAB06AA02A95320A9
:104A300000F0BAF80AA805F00CFF06A805F009FF77
:104A400002A805F006FF0EB070BD00BF34370B089A
:104A5000EE330B083B370B0810B50446024B0360DE
:104A600004F0DEFE204610BDC4370B0810B5044626
:104A7000FFF7F2FF2046382108F07DFD204610BDEB
:104A800037B59DF8185004688DF800308DF8045043
:104A90003C23E468A04703B030BD000013B5084CC8
:104AA000204605F037F8074B20461B78064A8DF85C
:104AB0000030064B06491B78FFF7E2FF02B010BD3D
:104AC00000030020FD0200206E370B08FC020020CE
:104AD00081370B08F0B54E288BB00E4615461C46A4
:104AE000109F16D1394606A805F0FDFE244B069A04
:104AF0001B7824498DF80030234B24481B78FFF79E
:104B0000BFFF06A805F0A5FE002007F099FA0BB03C
:104B1000F0BD5328FBD11E4902A805F0E4FE314642
:104B200002A805F09DFF1B4905F0A6FF294605F0E8
:104B300097FF194905F0A0FF214605F091FF17499D
:104B400005F09AFF0446394606A805F0CCFE06A9F2
:104B5000204605F085FF124905F08EFF084B0268DC
:104B60001B7810498DF80030074B08481B78FFF779
:104B700087FF06A805F06DFE02A805F06AFEC3E7F0
:104B8000FD02002081370B08FC02002000030020FA
:104B900088370B0892370B089E370B08AA370B088B
:104BA000B9370B086C380B0870B54E280E46154601
:104BB0001C4686B00FD11C4B22681B781B498DF810
:104BC00000301B4B1B481B78FFF75AFF002007F0F3
:104BD00037FA06B070BD5328FBD1174902A805F07B
:104BE00082FE314602A805F03BFF144905F044FF60
:104BF000294605F035FF124905F03EFF214605F034
:104C00002FFF104905F038FF074B02681B780E494B
:104C10008DF80030064B07481B78FFF731FF02A8DC
:104C200005F017FED2E700BFFD02002081370B0818
:104C3000FC0200200003002088370B0892370B0885
:104C4000AA370B08B9370B086C380B08014804F079
:104C500019BE00BF0003002001220B4B10B51A70D3
:104C600008220A4C0A4B20461A700A4940F6F832CC
:104C700004F0D4FE084B20462360084A0849BDE8EA
:104C8000104008F073BC00BFFC02002000030020AD
:104C9000FD02002000400240C4370B0850020020F3
:104CA000594A0A081FB50023019303930C23ADF85A
:104CB0000430044B0422029301AB05F04FFC05B015
:104CC0005DF804FBD1000A08022A38B5044607D073
:104CD000032A11D0012A01D10B682360002038BDBE
:104CE0000C200D68FBF7D9F903460028F5D095E8AC
:104CF000070083E80700F0E700680028EED00C21E9
:104D000008F039FCEAE710B403685A68996854104F
:104D100001EB6200D20748BF0A591B6810BC48BFAC
:104D2000D358184710B534220446002104300AF045
:104D300079F938232046236010BD002340681A46C5
:104D4000194605F0B3BB002340681A46194605F022
:104D5000B5BB00224068114605F0C0BB0023406887
:104D60001A46194605F0D2BB07B58068002340B14A
:104D7000CDE900131A46012105F032F9B0FA80F0AE
:104D8000400903B05DF804FB07B58068002338B123
:104D9000CDE90013022105F023F9B0FA80F04009B3
:104DA00003B05DF804FB000010B5002204466FF06C
:104DB00000418069FFF7E8FF0248FFF7BEFF0023CC
:104DC000637710BD40040020F0B589B00446FBF7BE
:104DD0007BFF2060FCF79CFF6060FCF767FAA06037
:104DE000FDF714F9E060FBF721FE2061FDF74AFAB8
:104DF00000262549606104F1200005F074FD224978
:104E000004F1300005F06FFD1C20A683A677FBF7A8
:104E100044F90546002832D00C200696FBF73DF9F0
:104E200018B11A4B8460C0E90036194B04902B600E
:104E3000002304AE02AF96E8030087E803002B715D
:104E4000AB6005F10C0292E8030086E8030097E8E6
:104E5000030082E803000F4A06936A61AA690E49BB
:104E600007920E4A05F10800AA61019301230C4A3A
:104E700000932B4605F09CF83046FBF7C5FA204618
:104E8000A56109B0F0BD00BFAA380B08A94D0A08FA
:104E9000AC350B08C94C0A08C0D40100074D0A08FC
:104EA0006D210A0838B5064C23683BB94020FBF752
:104EB000F4F8054608B1FFF787FF2560206838BD84
:104EC0003C03002030B50024CBB004AB18193834B3
:104ED000FFF728FFB4F58C7FF7D105220E4804A90F
:104EE00007F042FFC5B2012D02D000204BB030BD0B
:104EF00005A9684605F0F7FC6846084905F0F2FD8B
:104F00000446684605F0A5FC24B10348FFF726FFD8
:104F10002846EBE72046E9E740040020E4370B0889
:104F200010B5044600F120010448FFF7BBFE04F170
:104F300030010348BDE81040FFF7B4BEF1370B085D
:104F4000F6370B082DE9FF4700223A4E044611467A
:104F5000706805F0CBFA37460546002863D005F0A7
:104F600015FB002004F0DCFF4FF0000A064600208D
:104F700004F0D6FF00234EF65F22B0EB060861EB8B
:104F80000A094B4508BF424505D305F007FB10B998
:104F900005F0F4FAEBE705F001FB064648B3002202
:104FA0006FF00041A069FFF7EFFE0022786811461C
:104FB00005F054FA00F15D01684605F094FC69467D
:104FC00004F1200005F0E4FC684605F042FCFFF720
:104FD0003DFE237F4BB1002360694FF0FF31237703
:104FE000FDF788FC6069FDF743FD2068FBF7CEFE06
:104FF00008E0237F53B1024601462077786805F028
:1050000065FA3546284604B0BDE8F0870948FFF741
:10501000A0FE10B90748FFF796FE6FF00041A069A7
:10502000FFF7A2FEE1E702460146706805F04EFA7E
:10503000E8E700BF4004002010B504460B48FFF726
:1050400088FE50B1237F43B901232068237703688A
:105050001821BDE810401B6818470448FFF779FE87
:1050600010B9237F03B1607710BD00BF400400205A
:1050700030B5437F044685B0A3B9FFF723FF05464B
:1050800080B9012320466377FFF75CFF00B32369F3
:105090001A783AB14FF47A701D7006F0D1FF60694A
:1050A000FDF7E6FCA37F83B1002301A8A377CDE938
:1050B00001338DF80C3007F019F90648FFF743FE6D
:1050C0006FF00041A069FFF74FFE2046FFF7B4FFE5
:1050D00005B030BD4004002010B504468CB0114826
:1050E000FFF73CFEE0B100230F496377684605F007
:1050F000FAFB0E4904A805F0F6FB0D4908A805F0D7
:10510000F2FB694608AB04AA5320FFF74DFD08A83F
:1051100005F09FFB04A805F09CFB684605F099FB91
:105120000CB010BD4004002004380B080A380B08EE
:1051300018380B08F8B504460D460026A368F7B2E8
:10514000BB4234D93946204605F0E7FC7E2808D01A
:10515000172F04D83946204605F0DFFCE855013604
:10516000ECE7182F3B464FF0000628BF18233146C6
:105170002046EE547A1C05F00DFD0146204605F050
:10518000EDFBA168F7B2B94209D9172F05D8394606
:10519000204605F0C2FC2F4478760136F1E7182945
:1051A00094BF691805F1180100234B76F8BD002360
:1051B0002B766B76FAE700002DE9F043A9B00DF1EC
:1051C0002008054615A805F0D8FB2F4E414615A826
:1051D000FFF7B0FF15A805F03CFB3046FFF7ADFD2B
:1051E00040460AF081FF0DF13909074648460AF0AA
:1051F0007BFF3822044600211AA809F013FF4C2334
:10520000CDE915380323ADF86830002370681946DE
:1052100015AA1994CDE9177905F070F9044668BB11
:105220001A49684605F05FFB194904A805F05BFBC5
:10523000184915A805F057FB694615AB04AA532079
:10524000FFF7B2FC15A805F004FB04A805F001FB6C
:10525000684605F0FEFA15A8CDE915448DF85C40C6
:1052600007F044F840F2DC5006F0EAFE05F096F94B
:10527000044618B93046FFF766FD6C77142006F037
:10528000DFFE29B0BDE8F0834004002039380B0868
:105290000A380B083F380B082DE9F0470025D8B035
:1052A00012AC28193835FFF73DFDB5F58C7FF8D1E4
:1052B000052221462E4807F057FD2E49C7B202A805
:1052C00005F011FB0025DFF8B8A0DFF8B890EBB2CD
:1052D000BB4204F1380828D201350A22294606A823
:1052E00005F081FB06A90AA805F047FB51460AA86C
:1052F00005F0C2FB0646211D0EA805F0F4FA0EA922
:10530000304605F0ADFB494605F0B6FB014602A864
:1053100005F093FB0EA805F09CFA0AA805F099FA8F
:1053200006A805F096FA4446D1E7134B029A1B787B
:1053300012498DF800300EA83C2307F0CBF80F9CE3
:105340007CB16368013B63605BB9236820469B685E
:105350009847A368013BA3601BB923682046DB681C
:10536000984702A805F075FA58B0BDE8F08700BF6D
:1053700040040020AA380B083803002063380B08CB
:1053800060380B0861380B081FB50446684600F00A
:1053900015FA694604F1300005F0FAFA684605F09E
:1053A00058FA04B010BD00000022014B1A7070477B
:1053B0003803002004F074BD10B5044601464FF4D4
:1053C0006172022004F094FD204610BD10B5044621
:1053D00001464FF46172022004F082FD204610BDA8
:1053E00028B1037A03F0800311B9037201207047DA
:1053F00043F0040303720160F8E70346C06810B18C
:10540000182202FB0030704770B505460E4604684E
:1054100024B12046FFF7F1FF86420CD13046FFF75A
:10542000ECFF64B148B1031BDA10064B5343E36051
:1054300000B96C6070BD0446EAE70346F7E72860F0
:10544000F6E700BFABAAAAAA884203D020B131B1C7
:105450000AF0BAB8002070474FF0FF3070470120C3
:10546000704738B50D46044640B101692846FFF73C
:10547000EBFF18B12046FFF7C0FFF4E7204638BD28
:1054800050B1037ACAB223F07F0343F006030372DC
:105490000023C0E900230120704730B514461D46A3
:1054A00040B1037AC0E9004523F07F0343F00C03C9
:1054B0000372012030BD000030B50346D1E901027E
:1054C0001830824203D2012300200B7430BDA2F1B8
:1054D00018008860596869B1441AE510064C6C439D
:1054E000CC605860002342F80C3C02F8103C42F8B3
:1054F000083CEBE71860F4E7ABAAAAAA2DE9F04F45
:10550000037804462B2B8B4685B037D02D2B36D114
:10551000012501342378A3F13002092A02D92E2B68
:1055200040F01481002000214FF099394FF00A0813
:10553000DFF828A2A6461EF8013BA3F1300C5FFA63
:105540008CFCBCF1090F1CD88A4508BF814519D3D2
:105550004FF0FF376FEA0C0608FB01F3A0FB0801D0
:1055600019448F4208BF86424FF000035FFA8CF265
:1055700008D38018744643EB0101DBE701340025B2
:10558000C8E77BB1002300264FF48017B94208BF5B
:10559000B04203F101081CD300230A2209F012FAD9
:1055A0004346F3E79BF8083003F080034DB1CBE9A5
:1055B000000143F00A038BF80830284605B0BDE827
:1055C000F08FCBE9000143F008038BF80830012588
:1055D000F3E71A1B02EB040C234614F8016B0FFAD5
:1055E0008CFCA6F13007092FF4D92E2E1DD1A6462A
:1055F0004FF099364FF00A08554F73461C780EF15C
:10560000010E303CE4B2092C0FD8B94208BFB042B9
:10561000F3D2A0FB082308FB013310190CF1FF346F
:1056200043F100010FFA84FCE7E71A7802F0DF0289
:10563000452A70D15A782D2A24D101269A1C00249B
:105640004FF00A0E134612F8017B303F5FFA87F8DD
:10565000B8F1090F2DD80EFB047404EB0C03B3F55D
:105660009A7FEFDD00209BF80830AEB18DB90021A4
:1056700023F07F0343F00C033546CBE900018BF8A0
:1056800008309AE72B2A4FF0000614BF5A1C9A1CC8
:10569000D5E74FF00041EBE74DB92E4923F07F03EA
:1056A00043F00C03CBE900018BF808308FE72A495F
:1056B000F4E706B164421F78002F47D1644408F034
:1056C000FFFA002C064628DDDFF894A0E2070ED58D
:1056D000FBB25B005A1C5AF822205AF82330009281
:1056E00001933046DDE9002308F020FB06466410F4
:1056F00007F10107EAD10DB101F100419BF8083033
:10570000324623F07F0343F00C038BF808300B463E
:10571000CBE900235BE70024CDE7DFF848A0644233
:10572000002CE8D0E3070ED5FBB25B005A1C5AF8F8
:1057300022205AF82330029203933046DDE90223F7
:1057400008F0F4FA064664100137E9E7002534E76B
:10575000999901000000F07F0000F0FF99999919D4
:1057600080390B0838390B0838B500252C4607F06E
:105770008FFE2846FFF71EFEFF2818BF013405F1F3
:10578000010518BFA4B2B5F5006FF0D1204638BDB1
:1057900038B5046805467CB16368013B63605BB95A
:1057A000236820469B689847A368013BA3601BB908
:1057B00023682046DB689847284638BD30B5ADF5EC
:1057C0006B7D044607F064FE0120FFF7F3FDFF2820
:1057D000174D13D12B781749174A8DF8003009A8B7
:1057E0003C2306F077FE0AA8FFF7D2FF13492046B4
:1057F00005F079F820460DF56B7D30BD07F048FEC9
:1058000009A8FFF7E3FD09A905A805F06CF82B78B6
:105810000849059A8DF8003003A83C2306F05AFE8B
:1058200004A8FFF7B5FF05A805F013F809A9DEE7FE
:105830004003002063380B0874380B0895380B08B8
:10584000033138B521F003050446284604F0CEFEA6
:1058500070B105440023237694F82830C4E902008F
:1058600023F07F032046C4E9045584F8283038BD6E
:105870000546EFE708B570B1037A03F07F030C2B00
:1058800008D8DFE803F01907070707070907090722
:1058900009071000012008BDD0E90023134314BFFD
:1058A00001200020F7E7002203C8002308F0A6FC2F
:1058B000B0FA80F04009EEE70020ECE740B1037A4F
:1058C00003F07F03043B012B01D8006870470020E0
:1058D0007047806808B104F091BE7047F8B505467E
:1058E00008680F46E0B1D5E900349C420ED91A464B
:1058F00000F1FF3C92F800E01CF8016F114676457C
:1059000002F101020FD1002EF4D1EBB90AF0ECFB49
:10591000AA68431C2344934206460AD901232B74E8
:1059200000242046F8BD11F8013B002BFBD10B46AB
:10593000DBE76B60002CF4D002463968204609F0A2
:1059400049FB0023A355ECE71C46EAE750B1037A74
:10595000CAB223F07F0343F0080303720023C0E9B7
:1059600000230120704730B568B1037A4CB200299A
:105970004FEAE47503F0800306DB43F0080303728B
:10598000C0E90045012030BD43F00A0364420372C0
:1059900065EB4505F4E713B5044680B1019129B9DB
:1059A000037A23F07F030372012008E0104601A967
:1059B000FFF794FF237A23F07F0310B9237202B01C
:1059C00010BD43F0050323722060EDE770B5037A44
:1059D000164613F07F0202BF23F07F0343F020033B
:1059E0000372037A044608BFC0E9002213F02000C6
:1059F0000D460FD0084669B12068FFF732FD48B95F
:105A000031462046FFF758FD20B1037A056103F0C7
:105A10007F03037270BD037A024613F0200002D0A8
:105A20001068FFF71EBD704708B5034610B1FFF7B9
:105A3000CDFF0346184608BD437C33B9C3685A1CE2
:105A4000C2601B78037401234374007C704700001C
:105A5000F8B50446012600250D4F2046FFF7ECFF60
:105A600050B1A0F10903DBB2172B0DD806FA03F3EE
:105A70003B4209D06574F0E7237A002B14BF022360
:105A8000012384F85830F8BD01202072FBE700BFE5
:105A9000130080000000000030B5037A85B003F0E9
:105AA0007F03043B082B33D8DFE803F00E0E0532EA
:105AB000053232321A0003C8002908BFB0F5807FD2
:105AC00000D30020C0B209E00023694600688DF8C9
:105AD0000830FFF713FD6846FFF7DEFF05B030BD65
