:02000004080AE8
:1000000000000A0874510B080000060008000501F2
:080010000402BD0B000000001A
:040018009C2E0B0807
:1000200009480A4908B5884205D0094A824202D0E7
:10003000121A0EF037FF0748074A0021121A0EF075
:1000400059FF064808BD00BF00000020FC4E0B0809
:100050004C020020500200204105002041050020F4
:1000600070B50BF0F3FF0025054E064CA41BA40849
:10007000A54200D170BD56F8043B98470135F7E71B
:10008000B4460B08E4460B0800F07CBA08B500F053
:10009000EBF9BDE808400BF09BBF0AF0F5B90AF098
:1000A000F3B90AF0F9B90AF0F7B9000000210C2001
:1000B00008B5024A0AF06EF8FEE700BF2D9D0A0857
:1000C0000078B0FA80F04009704701230370704750
:1000D000106870477047006A0368DB6818470000C3
:1000E00002F00F02012A04BF014B1A70704700BFD3
:1000F000C802002003681268D1E900011847012AEC
:1001000003D0022A03D0002070470160FBE70B6890
:100110000360F8E70022F0B5144B87B05868114629
:100120000AF0EAF803466D46002453F8570F104EC4
:100130009B88104F0090ADF804300A2215F8011B7F
:1001400002A80AF08CFB02A930460AF0C4FB02A800
:100150000AF0CDFA052C03D0394630460AF0BFFB31
:100160000134062CE9D1012007B0F0BDB404002011
:1001700084020020B02E0B081FB5014668460AF025
:100180004AFB6946044807F062FB044668460AF0E9
:10019000AEFA204604B010BD9402002008B5044910
:1001A0000AF0EEFB10B106F077FF012008BD00BF9A
:1001B000B22E0B081FB5014668460AF02CFB6946B3
:1001C000044807F0B3FB044668460AF090FA20465C
:1001D00004B010BD940200201FB5014668460AF025
:1001E0001AFB6946044807F08DFD044668460AF08C
:1001F0007EFA204604B010BD940200201FB50146CF
:1002000068460AF008FB6946044807F0AAFD044660
:1002100068460AF06CFA204604B010BD9402002033
:100220001FB5014668460AF0F6FA6946044807F029
:100230009DFD044668460AF05AFA204604B010BDF7
:10024000940200201FB5014668460AF0E4FA6946A8
:10025000044807F0A5FD044668460AF048FA20461F
:1002600004B010BD940200201FB5014668460AF094
:10027000D2FA6946044807F0B7FD044668460AF01A
:1002800036FA204604B010BD940200201FB5014686
:1002900068460AF0C0FA6946044807F0ABFD044618
:1002A00068460AF024FA204604B010BD94020020EB
:1002B0001FB5014668460AF0AEFA6946044807F0E1
:1002C000BDFD044668460AF012FA204604B010BD8F
:1002D0009402002008B50AF0C5FBC1170BF09EFC84
:1002E000012008BD1FB5014668460AF094FA694628
:1002F000044807F02FFE044668460AF0F8F9204645
:1003000004B010BD940200201FB5014668460AF0F3
:1003100082FA6946044807F03FFE044668460AF040
:10032000E6F9204604B010BD9402002008B50AF09A
:100330005DF9012008BD05F07DB930B5136800688E
:1003400085B001938368D1E90045CDE902450BB939
:100350000DF07FF8C36801AA02A9984705B030BD27
:1003600030B585B00446089860B1406850B18568E2
:1003700045B1CDE90241CDE90023C4686A4601AB2D
:1003800002A9A04705B030BD10B50446006808B109
:100390000AF082F8204610BD10B50446094B0360F0
:1003A0000AF044FD21460AF05DFF0CF01BFA0CF048
:1003B0000DFA2046044B40F8043B0AF041FE20466B
:1003C00010BD00BFCC2F0B08B42F0B0810B504468E
:1003D000FFF7E2FF204624210DF035F8204610BD3E
:1003E0000A2A08B50AD10022054B1146586809F0BF
:1003F000C3FF18B904F0BAFC0123837708BD00BF1E
:10040000B404002010B58368044613B103220146EA
:100410009847204610BD10B504462430FFF7F2FF80
:10042000204610BD024601480BF09DBE3BC10A08A4
:1004300008B50CF0D1FA4FF416510CF0C7FA0120B0
:100440000BF057FD0022114610460BF062FD00F044
:1004500049FC01F017F901F0D3FD01F053FCBDE8B0
:10046000084000F031BF000010B50C4C204607F0EA
:10047000BAF809F063FC0A4B186009F0CDFF094B8C
:100480001A7852B100221A70236893F82B3023B9DE
:100490002046BDE8104007F0BDB810BD9402002012
:1004A000D4040020C802002038B5002383608B6884
:1004B00004460D462BB102229847EB68E360AB6817
:1004C000A360204638BD0000F0B500248FB0074679
:1004D0000E4602A8114606ADFFF7E6FF02A9284620
:1004E000FFF7E2FF10200C94FFF7D7FD034698B109
:1004F00095E803006A4682E8030093E8030085E874
:10050000030092E80300089A83E803009A60D96820
:10051000099A08940991DA600A93164B10200D93FA
:10052000154B0C93FFF7B9FD0446B0B1002383606F
:100530000C9B33B102220AA998470D9BE3600C9BE8
:10054000A3600E4B3846CDE9003431466B460C4A69
:1005500009F062FE041E18BF01240AA8FFF752FF2B
:100560002846FFF74FFF02A8FFF74CFF20460FB0C9
:10057000F0BD00BF3B030A0841070A08010008005C
:1005800061030A08F0B5434985B04348FFF74AFFC5
:1005900042494348FFF746FF42494348FFF742FFBD
:1005A00042494348FFF73EFF42494348FFF73AFFBD
:1005B00042494348FFF736FF42494348FFF732FFBD
:1005C00042494348FFF72EFF42494348FFF72AFFBD
:1005D00042494348FFF726FF42494348FFF722FFBD
:1005E00042494348FFF71EFF42494348FFF71AFFBD
:1005F00042494348FFF716FF42494348FFF712FFBD
:1006000042494348FFF70EFF00240C230094ADF845
:100610000030404B404D019304226B463F49404817
:10062000029409F0E9FE234604223E493E4809F0BF
:10063000E3FE284606F0D4FF04223C49032009F0DB
:10064000D5FB3B4F3B4B3C4E6A460021202000939C
:1006500003970296FFF738FF6846FFF7D3FE374B44
:100660006A4600214FF400500093CDE90267FFF77E
:100670002BFF6846FFF7C6FE22462146072009F0F9
:10068000DBFD20460BF035FC284607F08BFC05B05F
:10069000F0BD00BF79010A08B72E0B089D010A08BA
:1006A000C32E0B0837030A08CF2E0B08B5010A0822
:1006B000E42E0B08D9010A08F22E0B08FD010A08E6
:1006C000FE2E0B0821020A08082F0B0845020A0813
:1006D000122F0B0869020A081F2F0B088D020A0847
:1006E000302F0B08B1020A083A2F0B08D5020A086E
:1006F000462F0B08E5020A084E2F0B0809030A08CB
:100700005D2F0B082D030A08682F0B0815010A0836
:100710006E2F0B08D1000A089402002084020020EA
:100720007E2F0B08872F0B088D2F0B08942F0B089B
:10073000F5000A08E1030A08FF000A08E1000A08B8
:10074000022A70B5044607D0032A10D0012A01D12D
:100750000B680360002070BD10200E68FFF79DFC41
:10076000054610B13146FFF79FFE2560F2E70468A9
:10077000002CEFD02046FFF745FE102120460CF05C
:1007800062FEE7E770B51426D0E90053044606FB85
:100790000356AE4204D0284609F0A9FF1435F8E705
:1007A000206809F079FE204670BD2DE9F843B1F1CB
:1007B0000008074635DD4FF0140909FB08F009F081
:1007C00063FE0546A8B3D7E90046844209FB064606
:1007D00015D2864214D9143EA4F11409341B0444E2
:1007E000B1451FD02CB13146204609F0FAFF337CC9
:1007F0002374304609F07BFF143E143CF0E711D01F
:10080000A946A6420ED02146484609F0EAFF237CBD
:10081000204689F8103009F06AFF143409F11409F0
:10082000EFE70025386809F037FE01203D60C7F882
:100830000880BDE8F88300232DE9F041C0E90033CA
:1008400083600D4649680446994217DDFFF7ADFF06
:10085000A0B1D5E900634FF0140808FB03682768CE
:10086000B04509D02FB13146384609F0D4FF337C6A
:100870003B7414361437F3E76B6863602046BDE8B9
:10088000F081000030B597B00CF048FC002342F234
:1008900016511A460CF04AFC0CF040FC00230024D0
:1008A0001A4638210CF04AFC0021012009F0BCFC5A
:1008B000464D474B0120AB602C60AC80AC7109F019
:1008C0009BFC28460125434A43490CF0B7FD012112
:1008D000042009F093FAFFF7ABFD4049404809F0C6
:1008E00050FF3C4A3F493E480CF0A8FD3E490CA849
:1008F00009F047FF3D4911A88DF8405009F041FF2C
:1009000002216846CDE900448DF854500294FFF767
:100910004CFF98B1009C34B120460CA909F07BFF34
:100920009DF84030237411A904F1140009F073FFFD
:100930009DF8543084F82430022301930BF052FFC9
:100940000546694603A8FFF776FF03A906A8284CC9
:10095000FFF771FF274B06A9236009A8FFF76BFF7C
:1009600009AA0121201D0AF0CFFD09A8FFF70AFFFF
:1009700006A8FFF707FF204B2562236003A8FFF7B7
:1009800001FF1E4B23600BF02DFF4FF416510BF0AF
:1009900019FF0AF04BFA21460AF049FD6846FFF7B5
:1009A000F1FE11A809F0A3FE0CA809F0A0FE094A67
:1009B000134920460CF042FD124806F0B7FD054AE7
:1009C000114910480CF03AFD17B030BD5402002018
:1009D0000000FFFF5002002089030A0866370B0859
:1009E00084020020EFA60A08992F0B089D2F0B0800
:1009F00060020020B42F0B08643E0B08CC2F0B08BC
:100A000099030A089402002017040A0807B5002277
:100A100001A81146019209F0F9F9019803B05DF8B7
:100A200004FB09F0A3B9000038B5054C25682DB9C1
:100A30000120FFF732FB00B105702060206838BD4F
:100A4000CC02002013B50CF08BFC4FF47A7009F047
:100A500085F904460CF084FC0422694640F2E93032
:100A600009F08CF9631EDBB2FD2B13D90CF078FC76
:100A700001214FF47A70FFF7D4FF0CF071FC0BF0FA
:100A8000E4F9042201900DEB020140F2E93009F093
:100A90007DF919E0042C19D90CF062FC00214FF407
:100AA0007A70FFF7BEFF0CF05BFC0422002440F2DA
:100AB000E9300DEB0201019409F068F905200BF013
:100AC0000DFA204609F095FD02B010BD0BF0BDF9FE
:100AD000009BC01AB0F5167FF6D80CF041FC611CE3
:100AE000C9B2C6E713B50CF03BFC40F2ED3009F09B
:100AF00035F904460CF034FC0422694640F2EE302D
:100B000009F03CF9631EDBB2FD2B13D90CF028FC75
:100B1000012140F2ED30FFF784FF0CF021FC0BF0D7
:100B200094F9042201900DEB020140F2EE3009F03D
:100B30002DF919E0042C19D90CF012FC002140F217
:100B4000ED30FFF76EFF0CF00BFC0422002440F2A6
:100B5000EE300DEB0201019409F018F905200BF0BD
:100B6000BDF9204609F045FD02B010BD0BF06DF94E
:100B7000009BC01A7828F7D80CF0F2FB611CC9B2B0
:100B8000C7E710B50446FFF741FF822804D120468D
:100B9000BDE81040FFF756BFFFF738FF8C2804D19F
:100BA0002046BDE81040FFF79DBFFFF72FFF282824
:100BB00002D10123237010BDBDE81040FFF726BF0E
:100BC00070470000002210B50446044B114640F85F
:100BD000043B09F0FFFA204610BD00BF50300B085F
:100BE00010B50446FFF7EEFF204620210CF02BFC49
:100BF000204610BD10B56C22002104460EF07AF993
:100C00000123002220461146236009F045FB2046BF
:100C100010BD2DE9F04105460E4617469DF8181007
:100C2000002218461C4609F03FFB234606903A4630
:100C300031462846BDE8F04109F0AEBCF0B50446A7
:100C400026468BB001F0BCF91C4B002246F8083B4D
:100C50001421012009F028FB0125142703462A4608
:100C6000CDE900756FF07F41304609F073FC3946DD
:100C70000022022009F018FB1E2203460195009273
:100C80000F49022202A804F10C0503AE09F062FC30
:100C90000FCE0FC596E8070085E8070002A8FFF70A
:100CA00091FF4FF480124FF480732046C4E90A2369
:100CB000002384F8303063630BB0F0BD64300B0860
:100CC0000060FF0038B5064C23683BB93820FFF7B9
:100CD000E4F9054608B1FFF7B1FF2560206838BD8B
:100CE000D002002030B514249FB003A8FFF782FF84
:100CF00003A803236FF07F4200210094FFF789FFD0
:100D000003A803236FF07F4201210094FFF781FFC6
:100D100002231E25194603A8FF220094FFF779FF3E
:100D200003A80223FF2203210094FFF772FF03A808
:100D30000323FF2204210094FFF76BFF03A8022383
:100D4000FF2205210095FFF764FF03A80223FF227D
:100D500006210095FFF75DFF03A803236FF07F4294
:100D600007210094FFF755FF0A2303A800934FF4CF
:100D70007F4202230921FFF74CFF002203A81146FE
:100D800009F082FA1FB030BD10B514249EB003A83C
:100D9000FFF730FF03A803236FF07F420221009486
:100DA000FFF737FF032303A819466FF07F42009433
:100DB000FFF72FFF03A803236FF07F420421009465
:100DC000FFF727FF03A803236FF07F42052100945C
:100DD000FFF71FFF032303A86FF07F420621009453
:100DE000FFF717FF002203A8114609F04DFA1EB0C5
:100DF00010BD38B505460C4681B10BF078F828B126
:100E000000200BF076F8012385F82830214605F103
:100E10000C000022BDE8384009F0DCB990F8283019
:100E2000002BF3D001200BF064F822462146204627
:100E30000BF06FF885F82840E8E710B5044649B193
:100E40000BF055F8A0B194F8290088B9BDE810401E
:100E50000BF04FB80BF04BF8044648B901200BF0EB
:100E600048F8224621462046BDE810400BF051B814
:100E700010BD38B50546E0B10478D4B183783A2B7B
:100E800017D10FF099F8042813D90A226878303C5A
:100E9000303802FB04042B79E878303B3038172CCB
:100EA00002FB003005D83B2803D83C2303FB040099
:100EB00038BD4FF0FF30FBE770B50D461646FFF723
:100EC000D8FF04462846FFF7D4FF05463046FFF713
:100ED000D0FF002C10DB002D0EDB00280CDB854240
:100EE00006DCAC4208DB8442ACBF0020012070BDB0
:100EF000AC42F8DB0120FAE70020F8E730B5054600
:100F0000364C8DB039B108F019FF95F829302060C2
:100F100063B10DB030BD08F011FF42F20F722368CB
:100F2000C01A9042EFD8002BEDD0F2E795F82B4095
:100F3000002CEED12A492B480DF10D028DF80D4001
:100F400005F0FAF99DF80D3053B92749274808AA4A
:100F500005F0F2F928469DF82010FFF76EFFD8E75C
:100F6000224623491F4804AB0494ADF8144006946C
:100F7000ADF81C4005F050F822461E49194806AB52
:100F800005F04AF8012318490DF10E0215488DF8B5
:100F90000E3005F0D1F90AF058FF174B02461749F9
:100FA0000093C31708A80AF0F1FE089806AA04A93E
:100FB000FFF782FF40B19DF80E102846FFF73DFF76
:100FC00008A809F094FBA4E7074908480DF10F02AF
:100FD00005F0B2F99DF80F10EFE700BFD402002032
:100FE000DC2F0B08E42F0B08F22F0B08F82F0B084F
:100FF00003300B0809300B080D300B088C03002060
:1010000013B50446084909480DF1070205F094F9A3
:101010009DF8073033B91121236884F82A1020463F
:101020001B68984702B010BDF22F0B08F82F0B0871
:1010300070B5154690F82B200446D2B9012680F8E9
:101040002F1080F82D5080F82E3080F8302080F856
:101050002C6008F073FE84F82B60606330460AF061
:1010600048FF002D0348BDE8704018BFFF200AF07C
:1010700063BF70BD0050FF0010B590F82B300446E0
:101080009BB308F05BFE636BC01AC7282DD908F02C
:1010900055FE94F82C306063D3B1002210461146FF
:1010A0000AF037FF002094F8303094F82F200133F5
:1010B000DBB29A4284F82C0084F8303015D894F8CA
:1010C0002E3084F82B0083B1BDE810400AF011BF28
:1010D000012384F82C3094F82D300448002B18BFDD
:1010E000FF20BDE810400AF027BF10BD0050FF00F0
:1010F000F0B54B1E04460D468DB0242B18D8DFE802
:1011000003F0131D7A7A7A17177A697A1717171767
:10111000174F1F17171717171792171717171717A4
:101120001717A3AAAEB2B60001212046FFF761FE51
:101130002946204600F03EFF0DB0F0BD0021F4E747
:101140000AF0D5FE064638B901200AF0D2FE324632
:10115000314630460AF0DDFE00224649464805F099
:10116000C7FF1123454984F82A30684609F009FB76
:10117000434904A809F005FB424908A809F001FB0E
:10118000694608AB04AA532003F072FC08A809F0D2
:10119000AEFA04A809F0ABFA684609F0A8FAC7E766
:1011A0000AF0A5FE20B194F8290008B90AF0A1FEC2
:1011B00001223049304805F09BFF1023324984F862
:1011C0002A30684609F0DDFA2D4904A809F0D9FA59
:1011D0002E49D2E7012780F829700AF088FE0646DA
:1011E0000028A5D138460AF084FE32463146304602
:1011F0000AF08FFE9CE7002390F82B6080F82930DE
:10120000002E95D11B491C4808AA05F095F89DF8B9
:101210002030002B8CD00AF06AFE002888D030469F
:101220000AF067FE84E7FFF75DFD0AF060FE10B18B
:1012300000200AF05EFE01220E490F4805F058FF1B
:10124000182384F82A3073E701231A4619462046EA
:10125000FFF7EEFE6CE7012302211A46F7E70123B0
:101260001A460321F3E7012304211A46EFE701237D
:101270000022F6E7F22F0B08F82F0B0813300B08AB
:1012800019300B0825300B0834300B083A300B08A6
:1012900010B5044600F094FE024B2046236015234F
:1012A000A36010BDC8300B0838B5064C23683BB9A5
:1012B0000C20FEF7F2FE054608B1FFF7E9FF2560B6
:1012C000206838BDD802002008B5012119200BF094
:1012D0008BFFBDE80840002119200BF096BF0000ED
:1012E000002213B511460DF107030446074804F028
:1012F0008CFF9DF80710A1F11603012B03D823687A
:1013000020461B68984702B010BD00BF68300B082C
:1013100030B54B1E04460D468DB01F2B3AD8DFE882
:1013200003F0A3A79D979D399D399D399D86869091
:1013300090393939393963103F3939393939399D5B
:101340009D9716230022037211464E4805F065FF53
:101350004D49684609F015FA4C4904A809F011FAFC
:101360004B4908A809F00DFA694608AB04AA5320B6
:1013700003F07EFB08A809F0BAF904A809F0B7F950
:10138000684609F0B4F9A37A23B90121E172192062
:101390000BF03BFF2946204600F00CFE0DB030BD9F
:1013A0001723002203721146364805F036FF3949EB
:1013B000684609F0E6F9354904A809F0E2F936492A
:1013C00008A809F0DEF9694608AB04AA532003F027
:1013D0004FFB08A809F08BF904A809F088F96846C2
:1013E00009F085F90021D1E7152300220372114687
:1013F000244805F012FF6846284909F0C2F923493C
:1014000004A809F0BEF9264908A809F0BAF9694606
:1014100008AB04AA532003F02BFB08A809F067F9D6
:1014200004A809F064F9684609F061F9B2E7037AA3
:10143000152BAFD1437A002BACD1837A002BA9D1E5
:10144000D0E7037A152BA5D1437A002BA2D19AE7D6
:1014500001234372037A152B9CD194E70023437236
:10146000037A152B96D1BDE70123002143818EE736
:1014700000238372037A162B87D0437A002B84D102
:1014800088E700BF68300B0873300B0879300B0811
:1014900085300B0893300B0899300B08A8300B08E7
:1014A000AE300B08D0B5044616461F4608F046FC81
:1014B000DDE90423C4E90623DDE90623C4E90823A2
:1014C000DDE90823C4E90A23DDE90A23C4E90C2382
:1014D00000220023A060C4E904672046C4E90E236B
:1014E000C4E91023D0BD2DE9F3471F468368824627
:1014F0004360164608F022FCDDE90A23044639461B
:10150000CAF8080030460CF0C1F9DAE908230646AB
:101510000F460CF073FB4FF47A73CDE90001DAF853
:101520000400B0FBF3F0201A0CF0EEFA32463B4612
:1015300004460D460CF062FBDAE910230CF0A8F922
:10154000DAE90E23804689463046CAE910893946D1
:101550000CF09CF922462B460CF07AFCDAE90A23BF
:101560000CF04CFBDAE90C2304460D464046494694
:101570000CF044FBDDE900230CF08AF902460B462F
:10158000204629460CF084F9DAE90445804689466C
:1015900002460B46204629460CF0A2FD50B9DAE976
:1015A000064542464B46204629460CF0B7FD08B991
:1015B00044464D4620462946CAE90E6702B0BDE8BA
:1015C000F0870000024A136801331360704700BFC0
:1015D000DC02002000000000D0B5044688B000F016
:1015E000EFFC20460026002700221B4B40F8503B12
:1015F0001A4BCDE90667CDE9022315A3D3E90023F1
:10160000CDE90467CDE900230022154BFFF74AFF1F
:10161000192384F898304FF448534FF49661C4E985
:101620000267C4E90467A38504F12C0204F11803DE
:1016300023F8021B9342FBD100232046C4E9123356
:10164000E3850123238608B0D0BD00BFAFF300803F
:101650000000000000407FC074310B080000E03F34
:1016600000407F4038B5064C23683BB9A020FEF708
:1016700014FD054608B1FFF7AFFF2560206838BDAF
:10168000E002002008B5012118200BF0ADFD00217B
:101690001B200BF0A9FD082118200BF03BFEBDE834
:1016A00008404FF47A72FF2118200BF017BE00009B
:1016B000002313B50B4C01220B49236000931B2020
:1016C0004FF0FF330BF0E8F84FF47A700AF006FCA5
:1016D0001B200BF00BF92068C0EB0010400080B21B
:1016E00002B010BDDC020020C5150A080000000091
:1016F000F7B5054608F022FBAB6CC01AB0F5FA6FDF
:101700002BD3284695F82D40FFF7D2FF0CF0FCF9BB
:10171000D5E9022305F15006CDE900013046FFF777
:10172000E2FE00223C4B06460F460CF0EDFCB0B149
:10173000103CE4B2042C38BF0424322C28BF3224DD
:1017400095F82D30A34205D0214618200BF0A0FDBE
:1017500085F82D4008F0F2FAA86403B0F0BD00222D
:10176000304639462D4B0CF0CFFC08B1083CE0E781
:10177000304625A3D3E9002339460CF0C5FC08B157
:10178000043CD6E7002230463946254B0CF0BCFC21
:1017900008B1023CCDE7002230463946214B0CF01F
:1017A000B3FC08B1013CC4E70022304639461E4B69
:1017B0000CF0A0FC08B10134BBE7002230463946EA
:1017C0001A4B0CF097FC08B10234B2E70022304605
:1017D0003946174B0CF08EFC08B10434A9E70022FF
:1017E00030463946134B0CF085FC08B10834A0E7AD
:1017F000304607A3D3E9002339460CF07BFC0028D0
:1018000098D0103495E700BF0000000000C072407F
:101810000000000000407FC000407F400000794091
:1018200000004E4000804640008046C000004EC090
:1018300000C072C0000079C0F8B51F469DF818308E
:101840000446164683B100220023304639460CF088
:101850003DFC70B34FF47A72FF2118200BF03EFD6F
:10186000002384F83030F8BD90F82C2039460A2A3D
:1018700008BF80F82C3090F82C506B1C80F82C306E
:1018800030460CF07DFC0C3580B224F8150094F83D
:101890002E30002BE7D194F82F30002BE3D104F148
:1018A000180304F12C0233F8021B8842DBD1934267
:1018B000F9D1C4E90267D6E738B590F82F3004466D
:1018C0000D4643B941B94FF47A72FF2118200BF04D
:1018D00005FD84F8305038BD80F830304FF47A720E
:1018E000BDE8384018200BF0F9BC10B5044694F858
:1018F0002F3008463BB9D4E90223C4E904230CF095
:1019000003F9C4E9020110BD2DE9F0434B1E044662
:101910000D468FB01F2B24D8DFE813F061006E0056
:10192000D200060106012300060123000601230060
:101930004C01730087009800B500230023002300AA
:1019400023002300230023002300D2009401C901B7
:101950006A0020005F00060106010601012384F8E9
:10196000313094F8303013B12046FFF7C1FE08F053
:10197000E5F9E36CC01AA44B984227D994F82F30AC
:101980000BBB94F83030F3B12046FFF791FED0B98D
:101990009E4902A808F0F5FE9D4906A808F0F1FE50
:1019A0009C490AA808F0EDFE0AAB06AA02A953203A
:1019B00003F05EF80AA808F09AFE06A808F097FE61
:1019C00002A808F094FE08F0B9F9E0642946204620
:1019D00000F0F0FA0FB0BDE8F0830023BFE7012369
:1019E00080F82F304FF47A72FF2118200BF076FC2C
:1019F000002384F83030B4E7002380F82F3001232F
:101A0000F7E794F83130002200F10801D1E9000134
:101A100023B3814B0CF05AFB0028A2D100227E4B4D
:101A200000902046FFF708FF9BE794F83130002232
:101A300000F10801D1E900016BB3784B0CF046FBD3
:101A400000288ED10022754B0090EAE794F83130DF
:101A5000002200F10801D1E9000153B1704B0CF0F4
:101A600035FB00287FF47DAF0023002200936C4BF0
:101A7000D7E76C4B0CF02AFB00287FF472AF0022F2
:101A8000684B0090CDE794F83130002200F1080156
:101A9000D1E9000153B1644B0CF018FB00287FF42E
:101AA00060AF0023002200935F4BBAE75F4B0CF05E
:101AB0000DFB00287FF455AF00225C4B0090B0E78F
:101AC000002380F82E3090F82F3013B9012380F8CE
:101AD00030300026D4E90489002732463B46404690
:101AE00049460CF0F3FA18B9C4E90289C4E904675D
:101AF0004F4902A808F045FE454906A808F041FEF6
:101B00004C490AA808F03DFE0AAB06AA02A95320D8
:101B100002F0AEFF0AA808F0EAFD06A808F0E7FD0B
:101B200002A808F0E4FD1CE70123414980F82E30AB
:101B300080F8303002A808F024FE354906A808F0E5
:101B400020FE3D490AA808F01CFE0AAB06AA02A91D
:101B5000532002F08DFF0AA808F0C9FD06A808F07E
:101B6000C6FD02A808F0C3FD042D04D100222F4BAE
:101B7000C4E90223F5E66B1F012B02D80022284B93
:101B8000F6E7072D02D10022234BF1E7092D02D100
:101B90000022224BECE71E2DFAD01F2D03D116A3F5
:101BA000D3E90023E4E7202D7FF4DBAE14A3D3E9CF
:101BB0000023DDE7214902A808F0E3FD144906A847
:101BC00008F0DFFD1E490AA808F0DBFD0AAB06AAF3
:101BD00002A9532002F04CFF0AA808F088FD06A8CD
:101BE00008F085FD02A808F082FD012384F82E305C
:101BF000F8E600BFAFF300800000000000709740DF
:101C0000000000000088A340002E93024C310B0816
:101C1000D2300B0852310B0800407F4000208C402E
:101C200000C0924000209C4000E0954000409F4052
:101C3000CC300B08DE300B08F7300B081E310B08D8
:101C400024310B081D4902A808F09BFD1C4906A879
:101C500008F097FD1B490AA808F093FD0AAB06AAF5
:101C600002A9532002F004FF0AA808F040FD06A8CC
:101C700008F03DFD02A808F03AFD94F82F3013B9A2
:101C8000012384F830304FF00008D4E904674FF0A6
:101C9000000942464B46304639460CF017FA0028F8
:101CA0007FF45FAEC4E90267C4E9048959E690F89D
:101CB0002F30002B7FF455AEA1E600BFCC300B08CF
:101CC000D2300B083A310B0810B5044600F078F911
:101CD000034B1222236000232046C4E9022310BDD7
:101CE00024320B0838B5064C23683BB91020FEF7A8
:101CF000D4F9054608B1FFF7E7FF2560206838BD35
:101D0000E402002008B5012102200BF06DFA002149
:101D10000B200BF069FABDE80840002102200BF00F
:101D200074BA0000002213B511460DF107030446F2
:101D3000074804F06AFA9DF80710A1F11303012B7C
:101D400003D8236820461B68984702B010BD00BF27
:101D500078310B0870B5C37ADBB9012102200BF092
:101D600054FA0A200AF0BAF801260F2400252DB9EA
:101D70000B200BF063FA051E18BF0125013C14F07F
:101D8000FF04F4D11EB1214602200BF03EFA284692
:101D900070BD0026E9E7000030B54B1E04460D4635
:101DA0008DB01F2B4AD8DFE813F0E000E400D90023
:101DB000D200D9004900D9004900D9004900D90012
:101DC000BF00BF00C900C900490049009C002000B5
:101DD000780049004900490049004900490049008C
:101DE00049004900D900D900D20013230022037210
:101DF0001146654805F011FA6449684608F0C1FCCF
:101E0000634904A808F0BDFC624908A808F0B9FCC1
:101E1000694608AB04AA532002F02AFE08A808F07D
:101E200066FC04A808F063FC684608F060FCA37A2E
:101E300023B90121E17202200BF0E7F907F07EFFE0
:101E4000E368C01A544B984221D92046FFF782FF1D
:101E5000D0B95249684608F094FC4D4904A808F0EE
:101E600090FC4F4908A808F08CFC694608AB04AA0E
:101E7000532002F0FDFD08A808F039FC04A808F082
:101E800036FC684608F033FC07F058FFE06029464E
:101E9000204600F08FF80DB030BD142300220372ED
:101EA0001146394805F0B9F93E49684608F069FC21
:101EB000374904A808F065FC3B4908A808F061FC14
:101EC000694608AB04AA532002F0D2FD08A808F026
:101ED0000EFC04A808F00BFC684608F008FC002182
:101EE000A8E71223002203721146274805F095F94E
:101EF00068462E4908F045FC254904A808F041FC35
:101F00002B4908A808F03DFC694608AB04AA5320F9
:101F100002F0AEFD08A808F0EAFB04A808F0E7FB11
:101F2000684608F0E4FB89E7037A122B86D1437AEE
:101F3000002B83D1837A002B80D1D0E7037A122B38
:101F40007FF47CAF437A002B7FF478AF6FE70123F7
:101F50004372037A122B7FF471AF68E70023437258
:101F6000037A122B7FF46AAFB9E701230021438182
:101F700061E700238372037A132B3FF45AAF437A4D
:101F8000002B7FF456AF59E778310B0886310B08E8
:101F90008C310B08A0310B08002E9302F1310B0895
:101FA000F7310B08B6310B08BC310B08D3310B08E5
:101FB000D9310B08406810B103681B681847704797
:101FC000024A026000224260704700BF30320B08B4
:101FD00041607047034640680028FBD15960704754
:101FE00038B5064C25683DB91420FEF756F810B1F7
:101FF0000223C56003802060206838BDE80200200D
:1020000000211C200BF0F0B8002370B586B00493BB
:102010008B6804460E4602AD33B10222284698472B
:10202000F3680593B36804936A4695E80300231D9B
:1020300082E8030093E8030085E8030092E80300C8
:1020400083E80300049AE3682169E260059A049337
:10205000059122611BB1032229462846984706B004
:1020600070BD07B582688DF807100AB90BF0F1F959
:10207000C3680DF10701984703B05DF804FB000049
:1020800010B504468CB01C200BF0D8F8012801468E
:102090002CD12378022B29D140F20113204620F8BD
:1020A000043BFFF7DEFF1D49684608F06AFB1C4948
:1020B00004A808F066FB1B4908A808F062FB694603
:1020C00008AB04AA532002F0D3FC08A808F00FFBC9
:1020D00004A808F00CFB684608F009FB0122002365
:1020E000A118114808F088F90CB010BD1C200BF0A5
:1020F000A5F80028F2D12378012BEFD10221204648
:1021000020F8041BFFF7ADFF0849684608F039FBCB
:10211000034904A808F035FB0549CDE734320B0824
:102120003B320B0849320B087E320B0860320B0839
:1021300067320B08436913B183690C301847704745
:1021400013B500210446084607F078FE0023204618
:1021500001A9019307F08AFE019C0CB101232371B0
:102160000021012007F06AFE2CB1236820469B68FD
:1021700098470023237102B010BD022A38B50446E7
:1021800007D0032A11D0012A01D10B682360002057
:1021900038BD0C200D68FDF780FF03460028F5D000
:1021A00095E8070083E80700F0E700680028EED014
:1021B0000C210BF048F9EAE710B403685A689968F3
:1021C000541001EB6200D20748BF0A591B6810BCCB
:1021D00048BFD3581847000037B5134B0446036077
:1021E0008068C8B100256FF000430221CDE90035B9
:1021F0002A462B4607F042FE2946A06807F08EFECD
:10220000237903F0FF0513B107F010FEF8E7294624
:10221000A06807F023FEA56004F10C00FEF7F2F8B9
:10222000204603B030BD00BF78340B0810B504461B
:10223000FFF7D2FF20461C210BF005F9204610BD08
:1022400010B5044601F056FA0023236102232060F2
:102250002371204610BD000038B5064C23683BB9F9
:102260001820FDF71AFF054608B1FFF7E9FF2560C2
:10227000206838BDEC0200202DE9F04F04460068CC
:102280008FB00378002B00F0AC8001F043FA0025FA
:102290008046554FDFF874A1544E5FFA85F9C84562
:1022A00076D939460AA808F06CFA019501350A2258
:1022B000294606A808F0E5FA06A90AA808F01EFBB8
:1022C0002268019B01684FEA830B02EB83035B6882
:1022D000524693F90430304604F0F1FF06A808F0A6
:1022E00006FA0AA808F003FA39460AA808F049FADB
:1022F0000A22294606A808F0C4FA06A90AA808F086
:10230000FDFA00233A4A0168304604F0D8FF06A8D7
:1023100008F0EDF90AA808F0EAF939460AA808F029
:1023200030FA0A22294606A808F0ABFA06A90AA83C
:1023300008F0E4FA236801685B445B6830465B6937
:102340002C4A05F00EF806A808F0D1F90AA808F002
:10235000CEF9B9F1000FA0D139460AA808F011FA58
:102360000A22294606A808F08CFA06A90AA808F04D
:10237000C5FA236801685B6830469B691E4A04F011
:10238000F0FF06A808F0B3F90AA808F0B0F984E74E
:10239000236800221B781949144804F03EFF0022EC
:1023A000236817491A7702A808F0EBF9154906A81F
:1023B00008F0E7F914490AA808F0E3F90AAB06AAFD
:1023C00002A9532002F054FB0AA808F090F906A8CD
:1023D00008F08DF902A808F08AF901200FB0BDE8D5
:1023E000F08F0520FAE700BF89320B08E82F0B08B1
:1023F00096320B08A5320B08A1320B08AC320B0841
:10240000B1320B08B8320B08C6320B088F320B08FA
:10241000006803785BB1437800EB83035B681B7F44
:102420000BB901F0CDB9037F0BB101F0A7B970472B
:1024300030B5032904460D4695B000F0CA800B461E
:10244000017100226449654804F039FF23685A7815
:1024500003EB82035B681B7F002B2FD16B1E082BC5
:1024600026D8DFE803F0055C25256B897A98A7005C
:10247000042104F10800FFF7F4FD594908A808F009
:1024800080F958490CA808F07CF9574910A808F0C1
:1024900078F910AB0CAA08A9532002F0E9FA10A8A9
:1024A00008F025F90CA808F022F908A808F01FF98F
:1024B0002B4600224D49494804F001FF4C4908A829
:1024C00008F05FF947490CA808F05BF9494904A8EE
:1024D00008F057F90A222946684608F0D2F96946F9
:1024E00004A808F00BFA014610A808F094F910AB04
:1024F0000CAA08A9532002F0BBFA10A808F0F7F8BC
:10250000684608F0F4F804A808F0F1F80CA808F000
:10251000EEF808A808F0EBF8012015B030BD052151
:1025200004F10800FFF79DFD334908A808F029F9D8
:102530002C490CA808F025F93049A7E7072104F138
:102540000800FFF78EFD2E4908A808F01AF9254962
:102550000CA808F016F92B4998E70B2104F10800A4
:10256000FFF77FFD284908A808F00BF91D490CA8C2
:1025700008F007F9254989E71E2104F10800FFF753
:1025800070FD234908A808F0FCF816490CA808F0CB
:10259000F8F820497AE71F2104F10800FFF761FDF0
:1025A0001D4908A808F0EDF80E490CA808F0E9F854
:1025B0001A496BE7202104F10800FFF752FD184982
:1025C00008A808F0DEF807490CA808F0DAF8154961
:1025D0005CE70220A1E700BFE3320B08EB320B08F7
:1025E000F7320B08B8320B08FD320B08A2330B0888
:1025F000AA330B08B0330B080D330B0813330B0849
:1026000022330B0829330B083B330B0842330B08EA
:1026100051330B0858330B086C330B0873330B081A
:1026200087330B088E330B0830B590F9043004461D
:102630008FB0092B51D8DFE803F005677550508340
:102640009F91ADBB0DF1070300226049604803F084
:1026500025FE9DF8073004F10805002B46D01C210B
:102660002846FFF7FEFC5B490AA808F08AF85A4999
:1026700006A808F086F8594902A808F082F802ABCB
:1026800006AA0AA9532002F0F3F902A808F02FF8CD
:1026900006A808F02CF80AA808F029F80321284613
:1026A000FFF7DFFC4E490AA808F06BF84A4906A874
:1026B00008F067F84B4902A808F063F802AB06AAD5
:1026C0000AA9532002F0D4F902A808F010F806A8CD
:1026D00008F00DF80AA808F00AF8002294F904306E
:1026E00041493B4804F0EBFD0FB030BD1D212846A9
:1026F000FFF7B7FC3D490AA808F043F8364906A899
:1027000008F03FF83A49B7E704210830FFF7A9FC81
:1027100038490AA808F035F82F4906A808F031F81A
:102720003549C8E705210830FFF79BFC33490AA863
:1027300008F027F8284906A808F023F83049BAE736
:1027400007210830FFF78DFC2E490AA808F019F878
:10275000214906A808F015F82B49ACE70B210830F1
:10276000FFF77FFC29490AA808F00BF81A4906A8C8
:1027700008F007F826499EE71E210830FFF771FC94
:1027800014490AA807F0FDFF134906A807F0F9FF4E
:10279000204990E71F210830FFF763FC1E490AA873
:1027A00007F0EFFF0C4906A807F0EBFF1B4982E793
:1027B00020210830FFF755FC19490AA807F0E1FF6E
:1027C000054906A807F0DDFF164974E7CA330B0870
:1027D000EB320B0851330B08B8320B08DD330B0812
:1027E00015340B081B340B08A2330B08F5330B0808
:1027F000FC330B08F7320B08FD320B080D330B08C6
:1028000013330B0822330B0829330B083B330B0817
:1028100042330B0858330B086C330B0873330B0827
:1028200087330B088E330B0813B50131044609D1E9
:102830000DF1070300220949094803F092FC9DF8B5
:102840000730237123685A7803EB82035B681B7F90
:1028500013B92046FFF7E8FE02B010BDE3320B08C3
:10286000EB320B0830B50D468FB00DF1070304466F
:1028700000221A491A4803F074FC9DF90730AB4254
:1028800029D1002315491A462371154804F017FD74
:10289000204694F90410FFF7C7FF124902A807F079
:1028A00070FF114906A807F06CFF10490AA807F04D
:1028B00068FF0AAB06AA02A9532002F0D9F80AA8B9
:1028C00007F015FF06A807F012FF02A807F00FFF98
:1028D00001200FB030BD0320FBE700BFE3320B083F
:1028E000EB320B082B340B08B8320B0831340B08D1
:1028F00013B56C460B46024603C884E8030093E810
:10290000030082E8030094E8030083E8030002B0B8
:1029100010BD000070B58CB00E4605AD02A981E86F
:102920000C0085E80C00002304460C200A93FDF7F8
:10293000B4FB034628B195E80300109A83E803002E
:102940009A6000250893134B04F10C010B93124B72
:1029500008A80A93114B25712360A5606561FFF7F4
:10296000C7FF0A9B626963610B9B0A92A269A3611C
:102970009DF8443031460B920093094A2346019555
:1029800004F1080007F062FA08A8FDF73BFD2046B5
:102990000CB070BDB9210A087B210A0878340B08F5
:1029A00041210A08000000002DE9F04FA9B00DF107
:1029B0001D0304460022C049C04803F026FC9DF8D0
:1029C0001D30002B00F081822268BD491370BB4886
:1029D00000220DF11E0303F018FC23689DF81E2051
:1029E00000255A700023049320689DF810A00378F6
:1029F000534540F268820AF10106B2491BA807F06C
:102A0000C0FE0A2231461FA807F03BFF1FA91BA8E2
:102A100007F074FF0DF11F03AB4A0168A74803F0EC
:102A2000A0FB1FA807F063FE1BA807F060FEA549E6
:102A30001BA807F0A6FE0A2231461FA807F021FFB7
:102A40001FA91BA807F05AFF09ABA04A01689B48C1
:102A500003F0E2FA1FA807F04AFE1BA807F047FEA2
:102A600098491BA807F08DFE0A2231461FA807F0DF
:102A700008FF1FA91BA807F041FF08AB0168944A93
:102A80008E4803F023FB1FA807F031FE1BA807F0B8
:102A90002EFE23685B78534540F0408109F0E6F94B
:102AA0000A2201460FA807F0ECFE0F9F09F0EAF991
:102AB0000A22014613A807F0E4FEDDF84CB009F045
:102AC000E9F90A22014617A807F0DBFE38460DF0A7
:102AD00073FA064658460DF06FFADDF85C900290E6
:102AE00048460DF069FA804609A80DF065FA029B88
:102AF0001E440636B0444044FDF7D1FA80463946BC
:102B00000CF0D4FC734940460CF0A0FC59464046FA
:102B10000CF09CFC6F4940460CF098FC494640463E
:102B20000CF094FC6B4940460CF090FC09A940461F
:102B30000CF08CFC684940460CF088FC1FAA6749E1
:102B400040460DF00DFE1FA80CF0B4FA0E460746E5
:102B500009F0ACF90246C317CDE90223DDE9020111
:102B60003A4633460CF0A0F851A3D3E900230BF00A
:102B70006FF90022002306460F460BF0B1FA002839
:102B800055D009F073F90A22411E1BA807F079FEFF
:102B90001B99084605910DF00FFA064658460DF0B0
:102BA0000BFA804648460DF007FA074609A80DF0D3
:102BB00003FA4644063637443844FDF770FA804637
:102BC00005990CF073FC434940460CF03FFC594614
:102BD00040460CF03BFC3F4940460CF037FC494670
:102BE00040460CF033FC3B4940460CF02FFC09A951
:102BF00040460CF02BFC384940460CF027FC1FAA3D
:102C0000364940460DF0ACFD1FA80CF053FA0246C1
:102C10000B46DDE902010CF047F825A3D3E90023B8
:102C20000BF016F906461BA80F4607F060FD40465C
:102C3000FDF739FA00220023304639460BF050FAEE
:102C400000284DD04FF07C5108980BF017FC0AF08B
:102C50007DFF32463B46804689460BF05FFA0028EE
:102C60003ED032463B46404649460AF011FE0BF044
:102C7000A7FA064617A807F03AFD13A807F037FD94
:102C80000FA807F034FD9DF91F304FEA8A0A013B77
:102C9000082B56D8DFE813F044008A00A600550040
:102CA0009800C200B400D000DF0000BFAFF3008086
:102CB000000000000020AC40AC320B08E82F0B08ED
:102CC00050340B0889320B088F320B0896320B08F0
:102CD000A5320B081D370B0859340B085D340B085F
:102CE00000220023304639460BF018FAA0B14FF00D
:102CF0007C5108980BF0C2FB0AF028FF32463B4695
:102D0000804689460BF00AFA30B132463B464046CF
:102D100049460AF0BBFDAAE72E46ABE72E46B2E7CE
:102D20002420FDF7BAF9074640B1089B012100961F
:102D300009AA01F0CBFC664B3B603C62236853441C
:102D40005F602368294653443046D3F804800BF073
:102D500051FD0746002800F08D805E49D8F8180024
:102D60000BF08CFB5B490BF089FB5B490BF086FB9E
:102D70000BF04AFD07461C20FDF78FF9064660B1AF
:102D8000564B39460B9300230C9301230193236880
:102D9000524A00930023FFF7BDFD23689A44DAF8F6
:102DA00004309E60049B013304931DE62420FDF74C
:102DB00074F907460028C1D0089B0221009609AA91
:102DC00001F084FC464BB7E72420FDF766F907467F
:102DD0000028B3D0089B0521009609AA01F076FCD3
:102DE000404BA9E72420FDF758F907460028A5D055
:102DF000089B0321009609AA01F068FC3A4B9BE767
:102E00002420FDF74AF90746002897D0089B0721A0
:102E1000009609AA01F05AFC344B8DE72420FDF7F7
:102E20003CF90746002889D0089B0621009609AA8C
:102E300001F04CFC2E4B7FE72420FDF72EF90746CE
:102E400000283FF47BAF089B0821009609AA01F0F7
:102E50003DFC284B70E72420FDF71FF907460028AA
:102E60003FF46CAF089B0921009609AA01F02EFCE3
:102E7000214B61E7D8F814000AF068FE00221F4BCE
:102E80000AF0BCFE00221E4B0AF0B8FE00221C4BCA
:102E90000AF0B4FE00221B4B0AF0B0FE0BF048F91A
:102EA00080461C20FDF7F9F8064600283FF475AF70
:102EB0000A4B4146CDE90D37012301932368074AA8
:102EC00000933B4667E700F0ABFC29B0BDE8F08F0C
:102ED000C0350B080000704200007A444D380A08E3
:102EE00058350B08E8350B08FC340B0820360B0866
:102EF00034350B08BC340B0898350B080000E03F54
:102F000000004E4000408F402DE9F04F91B01F4629
:102F10009DF86C300546039303680E461B78904677
:102F2000DDF868900BB1FFF7A7F90024039B5FFA67
:102F300084FA9C4200F0408257F824B000215846A1
:102F40000BF044FC30B95846B1490BF053FC002853
:102F500000F08B800AF1FF3ADFF8DC82DFF8DC92C8
:102F60005FFA8AF42420FDF798F8074618B101F0BB
:102F70009FFBA84B3B602B68414603EB84035F60DB
:102F80000CA8671C07F0FDFB0A22394608A807F0C9
:102F900078FC08A90CA807F0B1FC2B68A600334404
:102FA0005B689D4A93F904300168484604F087F94C
:102FB00008A807F09CFB0CA807F099FB41460CA859
:102FC00007F0DFFB0A22394608A807F05AFC08A9D7
:102FD0000CA807F093FC2B68904A33445B680168A7
:102FE0000C33484604F015FA08A807F080FB0CA83B
:102FF00007F07DFB41460CA807F0C3FB0A223946C7
:1030000008A807F03EFC08A90CA807F077FC2B687D
:1030100001681E44736848465B69814A04F0A1F95F
:1030200008A807F064FB0CA807F061FBD4B941467F
:103030000CA807F0A6FB0A22394608A807F021FCD5
:1030400008A90CA807F05AFC2B6801685B68484681
:103050009B69744A04F085F908A807F048FB0CA89E
:1030600007F045FB013CE4B27CE73357013B082BFA
:1030700024D8DFE813F00900E5000D012300F90072
:103080003501210149015D012420FDF706F8824642
:1030900078B1062259F8243002FB0482009357F8D5
:1030A0002430315701F012FB5F4BCAF80030CAF8E8
:1030B00020502B6803EB8403C3F804A0D5F800A0CC
:1030C000002C40F049810021D9F800000BF092FB60
:1030D000002800F04181DAF80430544998690BF077
:1030E000CDF952490BF0CAF951490BF0C7F90BF071
:1030F0008BFB83461C20FCF7D0FF824658B14D4B1A
:103100005946CDE90434012301932B68494A0093C1
:103110002346FFF7FFFB2B685B684749C3F808A00D
:103120000CA804F1010A07F02CFB0A22514608A85A
:1031300007F0A7FB08A90CA807F0E0FB2B68364AAC
:1031400003EB84035B68016893F904303B4804F0A7
:10315000B6F808A807F0CBFA0CA807F0C8FA364969
:103160000CA807F00EFB0A22514608A807F089FBBD
:1031700008A90CA807F0C2FB2B684FEA840B5B443C
:103180005B68264A0C3301682C4804F042F908A811
:1031900007F0ADFA0CA807F0AAFA27490CA807F027
:1031A000F0FA0A22514608A807F06BFB08A90CA800
:1031B00007F0A4FB2B6801685B445B68184A5B69F5
:1031C0001E4804F0CEF808A807F091FA0CA807F002
:1031D0008EFAD4B918490CA807F0D3FA0A2251463E
:1031E00008A807F04EFB08A90CA807F087FB2B687E
:1031F00001685B680B4A9B69104804F0B2F808A8A4
:1032000007F075FA0CA807F072FA54468EE600BF74
:103210000000C041FC340B088F320B0896320B08BB
:10322000A5320B08A1320B08C0350B080000704214
:1032300000007A444D380A0889320B08E82F0B0841
:103240002420FCF72AFF824600283FF432AF0622F2
:1032500059F8243002FB0482009357F82430315788
:1032600001F034FA5C4B20E72420FCF716FF82467D
:1032700000283FF41EAF062259F8243002FB0482D6
:10328000009357F82430315701F020FA534B0CE7E4
:103290002420FCF702FF824600283FF40AAF0622F2
:1032A00059F8243002FB0482009357F82430315738
:1032B00001F00CFA4A4BF8E62420FCF7EEFE8246B9
:1032C00000283FF4F6AE062259F8243002FB0482AF
:1032D000009357F82430315701F0F8F9414BE4E6F8
:1032E0002420FCF7DAFE824600283FF4E2AE0622F4
:1032F00059F8243002FB0482009357F824303157E8
:1033000001F0E4F9384BD0E62420FCF7C6FE8246F3
:1033100000283FF4CEAE062259F8243002FB048286
:10332000009357F82430315701F0D0F92F4BBCE609
:103330002420FCF7B2FE824600283FF4BAAE0622F3
:1033400059F8243002FB0482009357F82430315797
:1033500001F0BCF9264BA8E60AEB840ADAF804303F
:1033600058690AF0F3FB0022224B0AF047FC0022C6
:10337000214B0AF043FC00221F4B0AF03FFC0022C5
:103380001E4B0AF03BFC0AF0D3FE83461C20FCF7E0
:1033900084FE824660B11A4B594606930023079378
:1033A000012301932B68164A00930023FFF7B2FA1A
:1033B0002B6803EB8403AFE62B6800221C702B689C
:1033C00010491B78104803F028FF286800F028FAFD
:1033D000012011B0BDE8F08F58350B08E8350B0817
:1033E000FC340B0820360B0834350B08BC340B08B2
:1033F00098350B080000E03F00004E4000408F4031
:103400004D380A08AC320B08E82F0B087FB50023B3
:1034100002938B6804460D4600F1080633B1022280
:1034200068469847EB680393AB6802933146684659
:10343000FFF75EFA029B22692361039B0292626995
:10344000684663610392FCF7DDFF4FF0FF312046D1
:10345000FFF7EAF904B070BD012130B58368017748
:10346000044698688FB038B16FF000420023CDE970
:1034700000231A4606F002FD0023256A0C932B69EF
:1034800043B1022205F108010AA898476B690D9320
:103490002B690C931F238DF818300C9B0BB909F086
:1034A000D8FF0D9B06A90AA898470C9B1BB10AA937
:1034B00003220846984794F9043000221049114825
:1034C00003F0FDFE104902A807F05BF90F4906A8BA
:1034D00007F057F90E490AA807F053F90AAB06AAF4
:1034E00002A9532001F0C4FA0AA807F000F906A8BF
:1034F00007F0FDF802A807F0FAF80FB030BD00BFE2
:10350000A2330B08EB320B086C330B08B8320B08F4
:1035100084340B0830B50025036A85611B680446B6
:103520005B788DB0002B3DD1304908A8039507F09A
:1035300028F9236A0A221B6804A85978013107F088
:10354000A0F904A908A807F0D9F9294A016803AB32
:10355000284802F0BBFD04A807F0C9F808A807F046
:10356000C6F8294603980BF045F9D8B11F4908A8B9
:1035700007F007F9236A0A221B6804A85978013169
:1035800007F07FF904A908A807F0B8F9A369016852
:10359000174A184803F0E5FE04A807F0A8F808A8A1
:1035A00007F0A5F8A3689D68F5B160690AF0CEFA46
:1035B0000022114B0AF022FB0022104B0AF01EFBE6
:1035C00000220E4B0AF01AFB00220D4B0AF016FBEC
:1035D0000AF0AEFD6FF0004100220346CDE9001273
:1035E0002846032106F04AFC0DB030BD89320B0895
:1035F000A1320B08E82F0B080000E03F00004E400E
:1036000000408F4070B58368044698688EB000B360
:10361000002106F073FCE0B1A568A868C8B10026D7
:103620006FF000430221CDE900363246334606F002
:1036300025FC3146A86806F071FC2B7903F0FF06E3
:1036400013B106F0F3FBF8E73146A86806F006FC74
:10365000AE6000230021A06923770BF0CBF810B1F6
:103660002046FFF757FF206A4FF0FF31FFF7DCF8E5
:103670000E4902A807F085F80D4906A807F081F861
:103680000C490AA807F07DF80AAB06AA02A9532044
:1036900001F0EEF90AA807F02AF806A807F027F8C3
:1036A00002A807F024F80EB070BD00BF98340B08D4
:1036B000B8320B089F340B0800232DE9F041044673
:1036C000DFF82C8003800377061D00F11C072420FF
:1036D000FCF7E3FC054618B100F0EAFFC5F80080EE
:1036E00046F8045BBE42F2D12046BDE8F08100BF3F
:1036F000FC340B0838B5064C23683BB92020FCF796
:10370000CCFC054608B1FFF7D7FF2560206838BD1F
:10371000F00200202DE9F0414378044600EB8303DA
:103720005868037F13B103685B6898470027DFF888
:1037300048802378FEB2B3420DD92420FCF7ADFCBB
:10374000054618B100F0B4FFC5F8008004EB86060A
:1037500075600137EDE7002505492B462A460548E7
:10376000657003F05AFD20782570BDE8F08100BF38
:1037700050340B08E82F0B08FC340B0870B50025FB
:1037800004464378057700EB8303586803685B6859
:103790009847207801280ED063782A46591CB1FB3F
:1037A000F0F300FB1313DBB2637003490348BDE879
:1037B000704003F032BD70BD50340B08E82F0B0889
:1037C00030B543788BB000EB8303596804460C3165
:1037D00002A806F0D6FF08F038FB0F4B02460F494F
:1037E0000093C31706A808F0D1FA06A902A807F0AB
:1037F000BAF8054606A806F07AFF02A806F077FF99
:1038000045B100236078237704EB80046068036887
:103810001B6898470BB030BD0D300B088C0300209F
:1038200070B54378044600EB83035D680021A86906
:103830000AF0E0FF28B12B682846BDE870401B68FD
:1038400018472046BDE87040FFF7BABF10B543786F
:10385000044600EB83035B689B68986810B90123FA
:10386000237710BD002106F049FB0028F7D0F8E7C8
:1038700030B50025036A85611B6804465B788DB00E
:10388000002B3DD1304908A8039506F07AFF236A42
:103890000A221B6804A85978013106F0F2FF04A936
:1038A00008A807F02BF8294A016803AB284802F062
:1038B0000DFC04A806F01BFF08A806F018FF294617
:1038C00003980AF097FFD8B11F4908A806F059FFDE
:1038D000236A0A221B6804A85978013106F0D1FF37
:1038E00004A908A807F00AF8A3690168174A18484C
:1038F00003F037FD04A806F0FAFE08A806F0F7FE6C
:10390000A3689D68F5B160690AF020F90022114BA7
:103910000AF074F90022104B0AF070F900220E4BE5
:103920000AF06CF900220D4B0AF068F90AF000FC6D
:103930006FF0004100220346CDE900122846032122
:1039400006F09CFA0DB030BD89320B08A1320B088D
:10395000E82F0B080000E03F00004E4000408F4081
:1039600038B5002383608B6804460D462BB10222D4
:103970009847EB68E360AB68A360204638BD000061
:10398000012110B583680177044698688EB038B17C
:103990006FF000420023CDE900231A4606F06EFACC
:1039A000216A0AA80831FFF7DBFF09210AA8FEF700
:1039B00058FB0AA8FCF726FD94F9043000221049B0
:1039C000104803F07CFC104902A806F0DAFE0F490B
:1039D00006A806F0D6FE0E490AA806F0D2FE0AABEB
:1039E00006AA02A9532001F043F80AA806F07FFEB8
:1039F00006A806F07CFE02A806F079FE0EB010BD07
:103A0000A2330B08EB320B08C4340B08B8320B0896
:103A1000CA340B0870B58368044698688EB000B34A
:103A2000002106F06BFAE0B1A568A868C8B10026CD
:103A30006FF000430221CDE900363246334606F0EE
:103A40001DFA3146A86806F069FA2B7903F0FF06E3
:103A500013B106F0EBF9F8E73146A86806F0FEF975
:103A6000AE6000230021A06923770AF0C3FE10B1E5
:103A70002046FFF7FDFE216A0AA80831FFF770FF14
:103A80000A210AA8FEF7EDFA0AA8FCF7BBFC206A97
:103A90004FF0FF31FEF7C8FE0E4902A806F071FE96
:103AA0000D4906A806F06DFE0C490AA806F069FE4D
:103AB0000AAB06AA02A9532000F0DAFF0AA806F012
:103AC00016FE06A806F013FE02A806F010FE0EB0C1
:103AD00070BD00BFDB340B08B8320B08E1340B08B3
:103AE000012130B583680177044698688FB038B1FA
:103AF0006FF000420023CDE900231A4606F0BEF91C
:103B00000023256A0C932B6943B1022205F10801B9
:103B10000AA898476B690D932B690C931E238DF8A7
:103B200018300C9B0BB909F094FC0D9B06A90AA850
:103B300098470C9B1BB10AA903220846984794F9A1
:103B4000043000221049114803F0B9FB104902A8C3
:103B500006F017FE0F4906A806F013FE0E490AA844
:103B600006F00FFE0AAB06AA02A9532000F080FF60
:103B70000AA806F0BCFD06A806F0B9FD02A806F0EA
:103B8000B6FD0FB030BD00BFA2330B08EB320B08FF
:103B900051330B08B8320B0804350B0830B500253B
:103BA000036A85611B6804465B788DB0002B3DD1AC
:103BB000304908A8039506F0E4FD236A0A221B6831
:103BC00004A85978013106F05CFE04A908A806F0A3
:103BD00095FE294A016803AB284802F077FA04A849
:103BE00006F085FD08A806F082FD294603980AF034
:103BF00001FED8B11F4908A806F0C3FD236A0A22B6
:103C00001B6804A85978013106F03BFE04A908A8F6
:103C100006F074FEA3690168174A184803F0A1FB77
:103C200004A806F064FD08A806F061FDA3689D687D
:103C3000F5B1606909F08AFF0022114B09F0DEFF3F
:103C40000022104B09F0DAFF00220E4B09F0D6FFDC
:103C500000220D4B09F0D2FF0AF06AFA6FF0004122
:103C600000220346CDE900122846032106F006F99A
:103C70000DB030BD89320B08A1320B08E82F0B08BC
:103C80000000E03F00004E4000408F4070B5836868
:103C9000044698688EB000B3002106F02FF9E0B119
:103CA000A568A868C8B100266FF000430221CDE9DD
:103CB00000363246334606F0E1F83146A86806F091
:103CC0002DF92B7903F0FF0613B106F0AFF8F8E7F2
:103CD0003146A86806F0C2F8AE6000230021A06952
:103CE00023770AF087FD10B12046FFF757FF206ABF
:103CF0004FF0FF31FEF798FD0E4902A806F041FD96
:103D00000D4906A806F03DFD0C490AA806F039FD4C
:103D10000AAB06AA02A9532000F0AAFE0AA806F0E0
:103D2000E6FC06A806F0E3FC02A806F0E0FC0EB0F4
:103D300070BD00BFF5330B08B8320B0818350B08FF
:103D4000012130B583680177044698688FB038B197
:103D50006FF000420023CDE900231A4606F08EF8EA
:103D60000023256A0C932B6943B1022205F1080157
:103D70000AA898476B690D932B690C9305238DF85E
:103D800018300C9B0BB909F064FB0D9B06A90AA81F
:103D900098470C9B1BB10AA903220846984794F93F
:103DA000043000221049114803F089FA104902A892
:103DB00006F0E7FC0F4906A806F0E3FC0E490AA846
:103DC00006F0DFFC0AAB06AA02A9532000F050FE61
:103DD0000AA806F08CFC06A806F089FC02A806F0EA
:103DE00086FC0FB030BD00BFA2330B08EB320B08CE
:103DF0000D330B08B8320B0813330B0830B5002510
:103E0000036A85611B6804465B788DB0002B3DD149
:103E1000304908A8039506F0B4FC236A0A221B68FF
:103E200004A85978013106F02CFD04A908A806F071
:103E300065FD294A016803AB284802F047F904A848
:103E400006F055FC08A806F052FC294603980AF033
:103E5000D1FCD8B11F4908A806F093FC236A0A22B6
:103E60001B6804A85978013106F00BFD04A908A8C5
:103E700006F044FDA3690168174A184803F071FA77
:103E800004A806F034FC08A806F031FCA3689D687D
:103E9000F5B1606909F05AFE0022114B09F0AEFE3F
:103EA0000022104B09F0AAFE00220E4B09F0A6FEDC
:103EB00000220D4B09F0A2FE0AF03AF96FF0004122
:103EC00000220346CDE900122846032105F0D6FF63
:103ED0000DB030BD89320B08A1320B08E82F0B085A
:103EE0000000E03F00004E4000408F4070B5836806
:103EF000044698688EB000B3002105F0FFFFE0B1E2
:103F0000A568A868C8B100266FF000430221CDE97A
:103F100000363246334605F0B1FF3146A86805F059
:103F2000FDFF2B7903F0FF0613B105F07FFFF8E7E3
:103F30003146A86805F092FFAE6000230021A06919
:103F400023770AF057FC10B12046FFF757FF206A8D
:103F50004FF0FF31FEF768FC0E4902A806F011FC95
:103F60000D4906A806F00DFC0C490AA806F009FC4C
:103F70000AAB06AA02A9532000F07AFD0AA806F0AF
:103F8000B6FB06A806F0B3FB02A806F0B0FB0EB025
:103F900070BD00BF3C350B08B8320B0842350B082A
:103FA000012130B583680177044698688FB038B135
:103FB0006FF000420023CDE900231A4605F05EFFB2
:103FC0000023256A0C932B6943B1022205F10801F5
:103FD0000AA898476B690D932B690C9320238DF8E1
:103FE00018300C9B0BB909F034FA0D9B06A90AA8EE
:103FF00098470C9B1BB10AA903220846984794F9DD
:10400000043000221049114803F059F9104902A860
:1040100006F0B7FB0F4906A806F0B3FB0E490AA845
:1040200006F0AFFB0AAB06AA02A9532000F020FD60
:104030000AA806F05CFB06A806F059FB02A806F0E9
:1040400056FB0FB030BD00BFA2330B08EB320B089C
:1040500087330B08B8320B0860350B0830B50025E4
:10406000036A85611B6804465B788DB0002B3DD1E7
:10407000304908A8039506F084FB236A0A221B68CE
:1040800004A85978013106F0FCFB04A908A806F041
:1040900035FC294A016803AB284802F017F804A848
:1040A00006F025FB08A806F022FB294603980AF033
:1040B000A1FBD8B11F4908A806F063FB236A0A22B6
:1040C0001B6804A85978013106F0DBFB04A908A895
:1040D00006F014FCA3690168174A184803F041F977
:1040E00004A806F004FB08A806F001FBA3689D687D
:1040F000F5B1606909F02AFD0022114B09F07EFD3F
:104100000022104B09F07AFD00220E4B09F076FDDB
:1041100000220D4B09F072FD0AF00AF86FF0004121
:1041200000220346CDE900122846032105F0A6FE31
:104130000DB030BD89320B08A1320B08E82F0B08F7
:104140000000E03F00004E4000408F4070B58368A3
:10415000044698688EB000B3002105F0CFFEE0B1B0
:10416000A568A868C8B100266FF000430221CDE918
:1041700000363246334605F081FE3146A86805F028
:10418000CDFE2B7903F0FF0613B105F04FFEF8E7E3
:104190003146A86805F062FEAE6000230021A069E8
:1041A00023770AF027FB10B12046FFF757FF206A5C
:1041B0004FF0FF31FEF738FB0E4902A806F0E1FA96
:1041C0000D4906A806F0DDFA0C490AA806F0D9FA4E
:1041D0000AAB06AA02A9532000F04AFC0AA806F07E
:1041E00086FA06A806F083FA02A806F080FA0EB056
:1041F00070BD00BF74350B08B8320B087B350B0857
:10420000012130B583680177044698688FB038B1D2
:104210006FF000420023CDE900231A4605F02EFE80
:104220000023256A0C932B6943B1022205F1080192
:104230000AA898476B690D932B690C9304238DF89A
:1042400018300C9B0BB909F004F90D9B06A90AA8BC
:1042500098470C9B1BB10AA903220846984794F97A
:10426000043000221049114803F029F8104902A82F
:1042700006F087FA0F4906A806F083FA0E490AA845
:1042800006F07FFA0AAB06AA02A9532000F0F0FB61
:104290000AA806F02CFA06A806F029FA02A806F0E9
:1042A00026FA0FB030BD00BFA2330B08EB320B086B
:1042B000F7320B08B8320B08FD320B0830B5002579
:1042C000036A85611B6804465B788DB0002B3DD185
:1042D000304908A8039506F054FA236A0A221B689D
:1042E00004A85978013106F0CCFA04A908A806F010
:1042F00005FB294A016803AB284801F0E7FE04A842
:1043000006F0F5F908A806F0F2F9294603980AF034
:1043100071FAD8B11F4908A806F033FA236A0A22B5
:104320001B6804A85978013106F0ABFA04A908A863
:1043300006F0E4FAA3690168174A184803F011F877
:1043400004A806F0D4F908A806F0D1F9A3689D687E
:10435000F5B1606909F0FAFB0022114B09F04EFC3F
:104360000022104B09F04AFC00220E4B09F046FCDB
:1043700000220D4B09F042FC09F0DAFE6FF000411B
:1043800000220346CDE900122846032105F076FD00
:104390000DB030BD89320B08A1320B08E82F0B0895
:1043A0000000E03F00004E4000408F4070B5836841
:1043B000044698688EB000B3002105F09FFDE0B17F
:1043C000A568A868C8B100266FF000430221CDE9B6
:1043D00000363246334605F051FD3146A86805F0F7
:1043E0009DFD2B7903F0FF0613B105F01FFDF8E7E3
:1043F0003146A86805F032FDAE6000230021A069B7
:1044000023770AF0F7F910B12046FFF757FF206A2B
:104410004FF0FF31FEF708FA0E4902A806F0B1F995
:104420000D4906A806F0ADF90C490AA806F0A9F94D
:104430000AAB06AA02A9532000F01AFB0AA806F04C
:1044400056F906A806F053F902A806F050F90EB086
:1044500070BD00BFA0350B08B8320B08A6350B089D
:1044600030B50025036A85611B6804465B788DB012
:10447000002B3DD1304908A8039506F082F9236A44
:104480000A221B6804A85978013106F0FAF904A938
:1044900008A806F033FA294A016803AB284801F05E
:1044A00015FE04A806F023F908A806F020F929460D
:1044B00003980AF09FF9D8B11F4908A806F061F9DE
:1044C000236A0A221B6804A85978013106F0D9F939
:1044D00004A908A806F012FAA3690168174A184847
:1044E00002F03FFF04A806F002F908A806F0FFF862
:1044F000A3689D68F5B1606909F028FB0022114BA3
:1045000009F07CFB0022104B09F078FB00220E4BD7
:1045100009F074FB00220D4B09F070FB09F008FE56
:104520006FF0004100220346CDE900122846032126
:1045300005F0A4FC0DB030BD89320B08A1320B0888
:10454000E82F0B080000E03F00004E4000408F4085
:10455000012110B583680177044698688EB038B1A0
:104560006FF000420023CDE900231A4605F086FCD7
:10457000216A0AA80831FFF7F3F907210AA8FDF715
:1045800070FD0AA8FBF73EFF94F9043000221049A1
:10459000104802F094FE104902A806F0F2F80F4904
:1045A00006A806F0EEF80E490AA806F0EAF80AABEB
:1045B00006AA02A9532000F05BFA0AA806F097F8B1
:1045C00006A806F094F802A806F091F80EB010BD07
:1045D000A2330B08EB320B0822330B08B8320B085E
:1045E00029330B0870B58368044698688EB000B311
:1045F000002105F083FCE0B1A568A868C8B10026D9
:104600006FF000430221CDE900363246334605F013
:1046100035FC3146A86805F081FC2B7903F0FF06D4
:1046200013B105F003FCF8E73146A86805F016FC65
:10463000AE6000230021A06923770AF0DBF810B1F7
:104640002046FFF70DFF216A0AA80831FFF788F915
:1046500008210AA8FDF705FD0AA8FBF7D3FE206A8A
:104660004FF0FF31FEF7E0F80E4902A806F089F896
:104670000D4906A806F085F80C490AA806F081F84D
:104680000AAB06AA02A9532000F0F2F90AA806F024
:104690002EF806A806F02BF802A806F028F80EB0AF
:1046A00070BD00BFC8350B08B8320B08CF350B08FA
:1046B000054A0260FF2202710022426182610022EB
:1046C00002778260704700BFF8350B0838B50446A2
:1046D00008461D46074B114623602071062204F14F
:1046E0000C000BF083FC049B2046A3610023656152
:1046F000237738BDF8350B08012130B58368017781
:10470000044698688FB038B16FF000420023CDE9BD
:1047100000231A4605F0B2FB0023256A0C932B698F
:1047200043B1022205F108010AA898476B690D936D
:104730002B690C930B238DF818300C9B0BB908F0E8
:1047400088FE0D9B06A90AA898470C9B1BB10AA9D5
:1047500003220846984794F9043000221049114872
:1047600002F0ADFD104902A806F00BF80F4906A8AB
:1047700006F007F80E490AA806F003F80AAB06AAE5
:1047800002A9532000F074F90AA805F0B0FF06A8AA
:1047900005F0ADFF02A805F0AAFF0FB030BD00BFC5
:1047A000A2330B08EB320B083B330B08B8320B0873
:1047B00042330B0830B50025036A85611B68044647
:1047C0005B788DB0002B3DD1304908A8039505F0EA
:1047D000D8FF236A0A221B6804A85978013106F021
:1047E00050F804A908A806F089F8294A016803AB23
:1047F000284801F06BFC04A805F079FF08A805F033
:1048000076FF2946039809F0F5FFD8B11F4908A89B
:1048100005F0B7FF236A0A221B6804A85978013102
:1048200006F02FF804A908A806F068F8A369016843
:10483000174A184802F095FD04A805F058FF08A88B
:1048400005F055FFA3689D68F5B1606909F07EF930
:104850000022114B09F0D2F90022104B09F0CEF9D9
:1048600000220E4B09F0CAF900220D4B09F0C6F9DF
:1048700009F05EFC6FF0004100220346CDE9001212
:104880002846032105F0FAFA0DB030BD89320B0835
:10489000A1320B08E82F0B080000E03F00004E405B
:1048A00000408F4070B58368044698688EB000B3AE
:1048B000002105F023FBE0B1A568A868C8B1002677
:1048C0006FF000430221CDE900363246334605F051
:1048D000D5FA3146A86805F021FB2B7903F0FF06D5
:1048E00013B105F0A3FAF8E73146A86805F0B6FA67
:1048F000AE6000230021A069237709F07BFF10B18F
:104900002046FFF757FF206A4FF0FF31FDF78CFF7D
:104910000E4902A805F035FF0D4906A805F031FF44
:104920000C490AA805F02DFF0AAB06AA02A95320DC
:1049300000F09EF80AA805F0DAFE06A805F0D7FEFA
:1049400002A805F0D4FE0EB070BD00BF00360B0803
:10495000B8320B0807360B0810B50446024B03604B
:1049600004F0BCFE204610BD80360B0810B504468E
:10497000FFF7F2FF2046382108F065FD204610BD04
:1049800037B59DF8185004688DF800308DF8045044
:104990003C23E468A04703B030BD7047F0B54E2813
:1049A0008BB00E4615461C46109F16D1394606A8F8
:1049B00005F0E7FE244B069A1B7824498DF8003059
:1049C000234B24481B78FFF7DBFF06A805F08FFE7A
:1049D000052007F083FA0BB0F0BD5328FBD11E4928
:1049E00002A805F0CEFE314602A805F087FF1B495C
:1049F00005F090FF294605F081FF194905F08AFF6F
:104A0000214605F07BFF174905F084FF044639462F
:104A100006A805F0B6FE06A9204605F06FFF12496C
:104A200005F078FF084B02681B7810498DF80030BC
:104A3000074B08481B78FFF7A3FF06A805F057FEB1
:104A400002A805F054FEC3E7F50200203A360B0831
:104A5000F4020020F802002041360B084B360B0808
:104A600057360B0863360B0872360B0828370B08CD
:104A700070B54E280E4615461C4686B00FD11C4B0D
:104A800022681B781B498DF800301B4B1B481B7894
:104A9000FFF776FF052007F021FA06B070BD532816
:104AA000FBD1174902A805F06CFE314602A805F0BB
:104AB00025FF144905F02EFF294605F01FFF124976
:104AC00005F028FF214605F019FF104905F022FFE7
:104AD000074B02681B780E498DF80030064B0748DB
:104AE0001B78FFF74DFF02A805F001FED2E700BFDB
:104AF000F50200203A360B08F4020020F8020020EC
:104B000041360B084B360B0863360B0872360B0820
:104B100028370B08014804F013BE00BFF80200203C
:104B200001220B4B10B51A7008220A4C0A4B204682
:104B30001A700A494FF4006204F0CEFE084B20467A
:104B40002360084A0849BDE8104008F077BC00BF60
:104B5000F4020020F8020020F5020020004002408C
:104B600080360B085002002059490A081FB500235F
:104B7000019303930C23ADF80430044B04220293F9
:104B800001AB05F039FC05B05DF804FBD1000A0863
:104B9000022A38B5044607D0032A11D0012A01D1D0
:104BA0000B682360002038BD0C200D68FBF775FAF8
:104BB00003460028F5D095E8070083E80700F0E7F2
:104BC00000680028EED00C2108F03DFCEAE710B4A4
:104BD00003685A689968541001EB6200D20748BF15
:104BE0000A591B6810BC48BFD358184710B5342267
:104BF0000446002104300AF07DF938232046236062
:104C000010BD002340681A46194605F09DBB0023DD
:104C100040681A46194605F09FBB002240681146BD
:104C200005F0AABB002340681A46194605F0BCBB34
:104C300007B58068002340B1CDE900131A46012171
:104C400005F01CF9B0FA80F0400903B05DF804FBF0
:104C500007B58068002338B1CDE90013022105F0C3
:104C60000DF9B0FA80F0400903B05DF804FB0000D4
:104C700010B5002204466FF000418069FFF7E8FF9D
:104C80000248FFF7BEFF0023637710BDB404002085
:104C9000F0B589B00446FDF7DFFA2060FCF712F8A2
:104CA0006060FDF71FF8A060FCF7FEFAE060FDF71A
:104CB00097F92061FBF7B8FE00262549606104F1F1
:104CC000200005F05EFD224904F1300005F059FD99
:104CD0001C20A683A677FBF7E0F90546002832D012
:104CE0000C200696FBF7D9F918B11A4B8460C0E97D
:104CF0000036194B04902B60002304AE02AF96E8F7
:104D0000030087E803002B71AB6005F10C0292E809
:104D1000030086E8030097E8030082E803000F4AD7
:104D200006936A61AA690E4907920E4A05F10800C6
:104D3000AA61019301230C4A00932B4605F086F8E3
:104D40003046FBF75FFB2046A56109B0F0BD00BF10
:104D500066370B08714C0A0878340B08914B0A0827
:104D6000C0D40100CF4B0A0841210A0838B5064CCF
:104D700023683BB94020FBF790F9054608B1FFF7DF
:104D800087FF2560206838BD3403002030B500243B
:104D9000CBB004AB18193834FFF728FFB4F58C7F7B
:104DA000F7D105220E4804A907F046FFC5B2012D30
:104DB00002D000204BB030BD05A9684605F0E1FCEB
:104DC0006846084905F0DCFD0446684605F08FFC9E
:104DD00024B10348FFF726FF2846EBE72046E9E722
:104DE000B4040020A0360B0810B5044600F12001E1
:104DF0000448FFF7BBFE04F130010348BDE8104052
:104E0000FFF7B4BEAD360B08B2360B082DE9FF47ED
:104E100000223A4E04461146706805F0B5FA37464E
:104E20000546002863D005F0FFFA002004F0C6FF15
:104E30004FF0000A0646002004F0C0FF00234EF6A3
:104E40005F22B0EB060861EB0A094B4508BF4245FB
:104E500005D305F0F1FA10B905F0DEFAEBE705F03D
:104E6000EBFA064648B300226FF00041A069FFF755
:104E7000EFFE00227868114605F03EFA00F15D0170
:104E8000684605F07EFC694604F1200005F0CEFC82
:104E9000684605F02CFCFFF73DFE237F4BB1002355
:104EA00020684FF0FF312377FDF7BEFC2068FDF747
:104EB0007BFD6068FBF768FF08E0237F53B1024683
:104EC00001462077786805F04FFA3546284604B049
:104ED000BDE8F0870948FFF7A0FE10B90748FFF7C3
:104EE00096FE6FF00041A069FFF7A2FEE1E70246DF
:104EF0000146706805F038FAE8E700BFB404002006
:104F000010B504460B48FFF788FE50B1237F43B924
:104F100001236068237703681821BDE810401B68EF
:104F200018470448FFF779FE10B9237F03B1607773
:104F300010BD00BFB404002030B5437F044685B0E7
:104F4000A3B9FFF723FF054680B901232046637705
:104F5000FFF75CFF00B363691A783AB14FF47A70D7
:104F60001D7006F0BBFF2068FDF71EFDA37F83B117
:104F7000002301A8A377CDE901338DF80C3007F0A9
:104F800003F90648FFF743FE6FF00041A069FFF701
:104F90004FFE2046FFF7B4FF05B030BDB40400203B
:104FA00010B504468CB01148FFF73CFEE0B1002379
:104FB0000F496377684605F0E4FB0E4904A805F045
:104FC000E0FB0D4908A805F0DCFB694608AB04AA24
:104FD0005320FFF74DFD08A805F089FB04A805F054
:104FE00086FB684605F083FB0CB010BDB4040020BE
:104FF000C0360B08C6360B08D4360B08F8B5044685
:105000000D460027A368FEB29E421BD231462046C1
:1050100005F0D1FC7E283146204604D005F0CBFCBB
:10502000A8550137EEE705F0C6FC7E28F9D100212E
:10503000721C204605F0FCFC0146204605F0DCFB16
:105040000023AB550023A168DFB28F4203F10106B4
:1050500007D23946204605F0AEFC2F443346787619
:10506000F1E700230D446B76F8BD00002DE9F04315
:1050700005460E460024EFB028AB18193834FFF768
:10508000B5FDB4F58C7FF7D131460DF1200815A898
:1050900005F0C1FB2F4E414615A8FFF7AFFF15A83D
:1050A00005F025FB3046FFF7ACFD40460AF084FFD3
:1050B0000DF13909074648460AF07EFF38220446BA
:1050C00000211AA809F016FF4C23CDE91538032357
:1050D000ADF8683000237068194615AA1994CDE917
:1050E000177905F059F9044668BB1B49684605F075
:1050F00048FB1A4904A805F044FB194915A805F016
:1051000040FB694615AB04AA5320FFF7B1FC15A874
:1051100005F0EDFA04A805F0EAFA684605F0E7FAAA
:1051200015A8CDE915448DF85C4007F02DF840F244
:10513000DC5006F0D3FE05F07FF9044618B930467E
:10514000FFF765FD6C77142006F0C8FE6FB0BDE870
:10515000F08300BFB4040020F5360B08C6360B08F8
:10516000FB360B082DE9F0470025D8B012AC281902
:105170003835FFF73BFDB5F58C7FF8D10522214688
:105180002E4807F059FD2E49C7B202A805F0F9FADA
:105190000025DFF8B8A0DFF8B890EBB2BB4204F10D
:1051A000380828D201350A22294606A805F069FBED
:1051B00006A90AA805F02FFB51460AA805F0AAFB8C
:1051C0000646211D0EA805F0DCFA0EA9304605F0B2
:1051D00095FB494605F09EFB014602A805F07BFBC6
:1051E0000EA805F084FA0AA805F081FA06A805F0D1
:1051F0007EFA4446D1E7134B029A1B7812498DF888
:1052000000300EA83C2307F0B3F80F9C7CB1636814
:10521000013B63605BB9236820469B689847A3689D
:10522000013BA3601BB923682046DB68984702A8AE
:1052300005F05DFA58B0BDE8F08700BFB404002067
:1052400066370B08300300201F370B081C370B088C
:105250001D370B081FB50446684600F015FA69466D
:1052600004F1300005F0E2FA684605F040FA04B0B7
:1052700010BD00000022014B1A707047300300205F
:1052800004F06CBD10B5044601464FF46172022073
:1052900004F07CFD204610BD10B5044601464FF4D5
:1052A0006172022004F06AFD204610BD28B1037A25
:1052B00003F0800311B903720120704743F0040327
:1052C00003720160F8E70346C06810B1182202FBC0
:1052D0000030704770B505460E46046824B120467C
:1052E000FFF7F1FF86420CD13046FFF7ECFF64B1C7
:1052F00048B1031BDA10064B5343E36000B96C60FE
:1053000070BD0446EAE70346F7E72860F6E700BF0A
:10531000ABAAAAAA884203D020B131B10AF0BCB826
:10532000002070474FF0FF3070470120704738B5BC
:105330000D46044640B101692846FFF7EBFF18B15E
:105340002046FFF7C0FFF4E7204638BD50B1037A8E
:10535000CAB223F07F0343F0060303720023C0E9BF
:1053600000230120704730B514461D4640B1037A32
:10537000C0E9004523F07F0343F00C0303720120D2
:1053800030BD000030B50346D1E901021830824239
:1053900003D2012300200B7430BDA2F118008860F5
:1053A000596869B1441AE510064C6C43CC605860EA
:1053B000002342F80C3C02F8103C42F8083CEBE7B2
:1053C0001860F4E7ABAAAAAA2DE9F04F03780446C7
:1053D0002B2B8B4685B037D02D2B36D101250134B0
:1053E0002378A3F13002092A02D92E2B40F0148130
:1053F000002000214FF099394FF00A08DFF828A269
:10540000A6461EF8013BA3F1300C5FFA8CFCBCF100
:10541000090F1CD88A4508BF814519D34FF0FF37C3
:105420006FEA0C0608FB01F3A0FB080119448F4248
:1054300008BF86424FF000035FFA8CF208D3801851
:10544000744643EB0101DBE701340025C8E77BB17B
:10545000002300264FF48017B94208BFB04203F181
:1054600001081CD300230A2209F014FA4346F3E78B
:105470009BF8083003F080034DB1CBE9000143F005
:105480000A038BF80830284605B0BDE8F08FCBE959
:10549000000143F008038BF808300125F3E71A1BDD
:1054A00002EB040C234614F8016B0FFA8CFCA6F1F6
:1054B0003007092FF4D92E2E1DD1A6464FF099366C
:1054C0004FF00A08554F73461C780EF1010E303C20
:1054D000E4B2092C0FD8B94208BFB042F3D2A0FB06
:1054E000082308FB013310190CF1FF3443F10001CC
:1054F0000FFA84FCE7E71A7802F0DF02452A70D140
:105500005A782D2A24D101269A1C00244FF00A0E25
:10551000134612F8017B303F5FFA87F8B8F1090FA4
:105520002DD80EFB047404EB0C03B3F59A7FEFDD6A
:1055300000209BF80830AEB18DB9002123F07F0325
:1055400043F00C033546CBE900018BF808309AE7AD
:105550002B2A4FF0000614BF5A1C9A1CD5E74FF0B7
:105560000041EBE74DB92E4923F07F0343F00C03D4
:10557000CBE900018BF808308FE72A49F4E706B140
:1055800064421F78002F47D1644408F001FB002CCF
:10559000064628DDDFF894A0E2070ED5FBB25B00DB
:1055A0005A1C5AF822205AF82330009201933046B0
:1055B000DDE9002308F022FB0646641007F101072D
:1055C000EAD10DB101F100419BF80830324623F0D9
:1055D0007F0343F00C038BF808300B46CBE9002324
:1055E0005BE70024CDE7DFF848A06442002CE8D058
:1055F000E3070ED5FBB25B005A1C5AF822205AF87A
:105600002330029203933046DDE9022308F0F6FAD4
:10561000064664100137E9E7002534E7999901004F
:105620000000F07F0000F0FF999999193C380B08B1
:10563000F4370B0838B500252C4607F091FE2846B4
:10564000FFF71EFEFF2818BF013405F1010518BF42
:10565000A4B2B5F5006FF0D1204638BD38B5046866
:1056600005467CB16368013B63605BB923682046F3
:105670009B689847A368013BA3601BB92368204639
:10568000DB689847284638BD30B5ADF56B7D0446DC
:1056900007F066FE0120FFF7F3FDFF28174D13D139
:1056A0002B781749174A8DF8003009A83C2306F0DB
:1056B0005FFE0AA8FFF7D2FF1349204605F061F804
:1056C00020460DF56B7D30BD07F04AFE09A8FFF7B7
:1056D000E3FD09A905A805F054F82B780849059AB7
:1056E0008DF8003003A83C2306F042FE04A8FFF723
:1056F000B5FF05A804F0FBFF09A9DEE73803002089
:105700001F370B0830370B0851370B08033138B5FA
:1057100021F003050446284604F0B6FE70B10544A6
:105720000023237694F82830C4E9020023F07F0395
:105730002046C4E9045584F8283038BD0546EFE713
:1057400008B570B1037A03F07F030C2B08D8DFE8AB
:1057500003F01907070707070907090709071000DA
:10576000012008BDD0E90023134314BF012000200D
:10577000F7E7002203C8002308F0A8FCB0FA80F085
:105780004009EEE70020ECE7806808B104F084BE31
:105790007047F8B5054608680F46E0B1D5E9003412
:1057A0009C420ED91A4600F1FF3C92F800E01CF82A
:1057B000016F1146764502F101020FD1002EF4D19E
:1057C000EBB90AF0F9FBAA68431C2344934206464E
:1057D0000AD901232B7400242046F8BD11F8013B9F
:1057E000002BFBD10B46DBE76B60002CF4D00246AC
:1057F0003968204609F056FB0023A355ECE71C4608
:10580000EAE750B1037ACAB223F07F0343F00803FA
:1058100003720023C0E900230120704730B568B14E
:10582000037A4CB200294FEAE47503F0800306DBEB
:1058300043F008030372C0E90045012030BD43F086
:105840000A036442037265EB4505F4E713B50446A9
:1058500080B1019129B9037A23F07F0303720120FB
:1058600008E0104601A9FFF794FF237A23F07F0395
:1058700010B9237202B010BD43F0050323722060FB
:10588000EDE770B5037A164613F07F0202BF23F0EE
:105890007F0343F020030372037A044608BFC0E984
:1058A000002213F020000D460FD0084669B1206891
:1058B000FFF73DFD48B931462046FFF763FD20B1B3
:1058C000037A056103F07F03037270BD037A024619
:1058D00013F0200002D01068FFF729BD704708B50B
:1058E000034610B1FFF7CDFF0346184608BD437CC1
:1058F00033B9C3685A1CC2601B7803740123437414
:10590000007C7047F8B50446012600250D4F20465F
:10591000FFF7EDFF50B1A0F10903DBB2172B0DD853
:1059200006FA03F33B4209D06574F0E7237A002BB3
:1059300014BF0223012384F85830F8BD01202072DF
:10594000FBE700BF1300800030B5037A85B003F099
:105950007F03043B082B33D8DFE803F00E0E05323B
:10596000053232321A0003C8002908BFB0F5807F23
:1059700000D30020C0B209E00023694600688DF81A
:105980000830FFF721FD6846FFF7DEFF05B030BDA8
:10599000D0E90045002200232046294608F0B4FB48
:1059A0000028F3D008A3D3E900232046294608F0B5
:1059B000A1FB0028EAD02046294608F0E1FBD9E700
:1059C0000020E3E7AFF300800000000000E06F403C
:1059D00030B5037A85B003F07F03043B082B39D838
:1059E000DFE803F01515053805380E38200003C828
:1059F000002908BF802800D3002040B205B030BD88
:105A000003C8002908BF812824D24042F5E70023BB
:105A1000694600688DF80830FFF7D6FC6846FFF746
:105A2000D7FFEBE7D0E900450022204629460C4B82
:105A300008F06AFB0028E1D007A3D3E90023204641
:105A4000294608F057FB0028D8D02046294608F000
:105A50006FFBD2E70020D1E70000000000C05F40EC
:105A6000000060C01FB5037A03F07F03043B082BDE
:105A700021D8DFE803F01111052005200B201C00C0
:105A800003C808F0B5FC05B05DF804FB03C808F0D6
:105A9000AFFC00F10040F6E70023694600688DF88E
:105AA0000830FFF791FC6846FFF7DCFFEBE703C81F
:105AB00008F086FBE7E70020E5E7000000000000B3
:105AC00030B5037A85B003F07F03043B082B39D847
:105AD000DFE803F01515053805380E38200003C837
