:02000004080AE8
:1000000000000A08F4510B08000006000800050172
:080010000402BD0B000000001A
:04001800242F0B087E
:1000200009480A4908B5884205D0094A824202D0E7
:10003000121A0EF07BFF0748074A0021121A0EF031
:100040009DFF064808BD00BF000000207C4F0B0844
:100050004C02002050020020CD040020CD040020DE
:1000600070B50CF051F80025054E064CA41BA408F1
:10007000A54200D170BD56F8043B98470135F7E71B
:100080003C470B086C470B0800F078BA08B500F045
:10009000EBF9BDE808400BF0F9BF0AF053BA0AF0DB
:1000A00051BA0AF057BA0AF055BA000000210C20E4
:1000B00008B5024A0AF0CCF8FEE700BFE99D0A083D
:1000C0000078B0FA80F04009704701230370704750
:1000D000106870477047006A0368DB6818470000C3
:1000E00002F00F02012A04BF014B1A70704700BFD3
:1000F000C802002003681268D1E900011847012AEC
:1001000003D0022A03D0002070470160FBE70B6890
:100110000360F8E70022F0B5144B87B05868114629
:100120000AF048F903466D46002453F8570F104E65
:100130009B88104F0090ADF804300A2215F8011B7F
:1001400002A80AF0EAFB02A930460AF022FC02A843
:100150000AF02BFB052C03D0394630460AF01DFC73
:100160000134062CE9D1012007B0F0BD4004002085
:1001700084020020382F0B081FB5014668460AF09C
:10018000A8FB6946044807F080FB044668460AF06D
:100190000CFB204604B010BD9402002008B50449B1
:1001A0000AF04CFC10B106F08DFF012008BD00BF25
:1001B0003A2F0B081FB5014668460AF08AFB6946CC
:1001C000044807F0D1FB044668460AF0EEFA2046E0
:1001D00004B010BD940200201FB5014668460AF025
:1001E00078FB6946044807F0C3FD044668460AF0F8
:1001F000DCFA204604B010BD940200201FB5014671
:1002000068460AF066FB6946044807F0E0FD0446CC
:1002100068460AF0CAFA204604B010BD94020020D5
:100220001FB5014668460AF054FB6946044807F0CA
:10023000D3FD044668460AF0B8FA204604B010BD63
:10024000940200201FB5014668460AF042FB694649
:10025000044807F0DBFD044668460AF0A6FA20468B
:1002600004B010BD940200201FB5014668460AF094
:1002700030FB6946044807F0EDFD044668460AF085
:1002800094FA204604B010BD940200201FB5014628
:1002900068460AF01EFB6946044807F0E1FD044683
:1002A00068460AF082FA204604B010BD940200208D
:1002B0001FB5014668460AF00CFB6946044807F082
:1002C000F3FD044668460AF070FA204604B010BDFB
:1002D0009402002008B50AF023FCC1170BF0FCFCC7
:1002E000012008BD1FB5014668460AF0F2FA6946CA
:1002F000044807F065FE044668460AF056FA2046B0
:1003000004B010BD940200201FB5014668460AF0F3
:10031000E0FA6946044807F075FE044668460AF0AC
:1003200044FA204604B010BD9402002008B50AF03B
:10033000BBF9012008BD05F095B930B51368006818
:1003400085B001938368D1E90045CDE902450BB939
:100350000DF0C3F8C36801AA02A9984705B030BDE3
:1003600030B585B00446089860B1406850B18568E2
:1003700045B1CDE90241CDE90023C4686A4601AB2D
:1003800002A9A04705B030BD10B50446006808B109
:100390000AF0E0F8204610BD10B50446094B036092
:1003A0000AF0A2FD21460AF0BBFF0CF079FA0CF02E
:1003B0006BFA2046044B40F8043B0AF09FFE2046AF
:1003C00010BD00BF54300B083C300B0810B504467C
:1003D000FFF7E2FF204624210DF079F8204610BDFA
:1003E0000A2A08B50AD10022054B114658680AF0BE
:1003F00021F818B904F0D2FC0123837708BD00BFAF
:100400004004002010B58368044613B1032201465E
:100410009847204610BD10B504462430FFF7F2FF80
:10042000204610BD024601480BF0FBBEF7C10A088A
:1004300008B50CF015FB4FF416510CF00BFB012026
:100440000BF0B5FD0022114610460BF0C0FD00F088
:1004500045FC01F013F901F0EBFD01F06BFCBDE888
:10046000084000F02DBF000008B509F0C5FC094B9D
:1004700018600AF02FF8084807F0CBF8074B1A78F5
:1004800032B100221A700448BDE8084007F0DCB819
:1004900008BD00BF6004002094020020C8020020B4
:1004A00038B5002383608B6804460D462BB10222C9
:1004B0009847EB68E360AB68A360204638BD000056
:1004C000F0B500248FB007460E4602A8114606ADCF
:1004D000FFF7E6FF02A92846FFF7E2FF10200C9481
:1004E000FFF7DBFD034698B195E803006A4682E812
:1004F000030093E8030085E8030092E80300089AEC
:1005000083E803009A60D968099A08940991DA602F
:100510000A93164B10200D93154B0C93FFF7BDFD5E
:100520000446B0B1002383600C9B33B102220AA9B8
:1005300098470D9BE3600C9BA3600E4B3846CDE9BA
:10054000003431466B460C4A09F0C4FE041E18BF45
:1005500001240AA8FFF756FF2846FFF753FF02A819
:10056000FFF750FF20460FB0F0BD00BF3B030A0865
:1005700039070A080100080061030A08F0B5434979
:1005800085B04348FFF74EFF42494348FFF74AFF13
:1005900042494348FFF746FF42494348FFF742FFBD
:1005A00042494348FFF73EFF42494348FFF73AFFBD
:1005B00042494348FFF736FF42494348FFF732FFBD
:1005C00042494348FFF72EFF42494348FFF72AFFBD
:1005D00042494348FFF726FF42494348FFF722FFBD
:1005E00042494348FFF71EFF42494348FFF71AFFBD
:1005F00042494348FFF716FF42494348FFF712FFBD
:1006000000240C230094ADF80030404B404D019382
:1006100004226B463F494048029409F04BFF2346B1
:1006200004223E493E4809F045FF284606F0EEFF09
:1006300004223C49032009F037FC3B4F3B4B3C4E26
:100640006A4600212020009303970296FFF738FFA7
:100650006846FFF7D7FE374B6A4600214FF400503B
:100660000093CDE90267FFF72BFF6846FFF7CAFE4C
:1006700022462146072009F03DFE20460BF097FC5C
:10068000284607F0C5FC05B0F0BD00BF79010A0897
:100690003F2F0B089D010A084B2F0B0837030A0850
:1006A000572F0B08B5010A086C2F0B08D9010A084F
:1006B0007A2F0B08FD010A08862F0B0821020A0871
:1006C000902F0B0845020A089A2F0B0869020A08A6
:1006D000A72F0B088D020A08B82F0B08B1020A08D1
:1006E000C22F0B08D5020A08CE2F0B08E5020A0814
:1006F000D62F0B0809030A08E52F0B082D030A085B
:10070000F02F0B0815010A08F62F0B08D1000A0874
:10071000940200208402002006300B080F300B08E2
:1007200015300B081C300B08F5000A08E1030A0815
:10073000FF000A08E1000A08022A70B5044607D043
:10074000032A10D0012A01D10B680360002070BD7C
:1007500010200E68FFF7A1FC054610B13146FFF7E7
:100760009FFE2560F2E70468002CEFD02046FFF7DB
:1007700049FE102120460CF0AAFEE7E770B51426CA
:10078000D0E90053044606FB0356AE4204D0284687
:100790000AF00BF81435F8E7206809F0DBFE204674
:1007A00070BD2DE9F843B1F10008074635DD4FF083
:1007B000140909FB08F009F0C5FE0546A8B3D7E9FE
:1007C0000046844209FB064615D2864214D9143EDF
:1007D000A4F11409341B0444B1451FD02CB1314697
:1007E00020460AF05CF8337C2374304609F0DDFFC4
:1007F000143E143CF0E711D0A946A6420ED0214683
:1008000048460AF04CF8237C204689F8103009F05D
:10081000CCFF143409F11409EFE70025386809F01A
:1008200099FE01203D60C7F80880BDE8F8830023E9
:100830002DE9F041C0E9003383600D464968044664
:10084000994217DDFFF7ADFFA0B1D5E900634FF086
:10085000140808FB03682768B04509D02FB131465A
:1008600038460AF036F8337C3B7414361437F3E715
:100870006B6863602046BDE8F081000030B597B03A
:100880000CF090FC002342F216511A460CF092FC38
:100890000CF088FC002300241A4638210CF092FC4E
:1008A0000021012009F01EFD464D474B0120AB60A1
:1008B0002C60AC80AC7109F0FDFC28460125434A50
:1008C00043490CF0FFFD0121042009F0F5FAFFF780
:1008D000AFFD4049404809F0B2FF3C4A3F493E481D
:1008E0000CF0F0FD3E490CA809F0A9FF3D4911A804
:1008F0008DF8405009F0A3FF02216846CDE900447D
:100900008DF854500294FFF74CFF98B1009C34B11D
:1009100020460CA909F0DDFF9DF84030237411A991
:1009200004F1140009F0D5FF9DF8543084F8243008
:10093000022301930BF0B4FF0546694603A8FFF7B5
:1009400076FF03A906A8284CFFF771FF274B06A9DD
:10095000236009A8FFF76BFF09AA0121201D0AF0F7
:1009600031FE09A8FFF70AFF06A8FFF707FF204B93
:100970002562236003A8FFF701FF1E4B23600BF0E5
:100980008FFF4FF416510BF07BFF0AF0ADFA2146B2
:100990000AF0ABFD6846FFF7F1FE11A809F005FF6C
:1009A0000CA809F002FF094A134920460CF08AFD01
:1009B000124806F0D1FD054A114910480CF082FD9D
:1009C00017B030BD540200200000FFFF500200208D
:1009D00089030A08EE370B0884020020ABA70A0837
:1009E00021300B0825300B08600200203C300B083A
:1009F000EC3E0B0854300B0899030A0894020020BF
:100A000017040A0807B5002201A81146019209F04F
:100A10005BFA019803B05DF804FB09F005BA000029
:100A200038B5054C25682DB90120FFF736FB00B11C
:100A300005702060206838BDCC02002013B50CF092
:100A4000D3FC4FF47A7009F0E7F904460CF0CCFCC3
:100A50000422694640F2E93009F0EEF9631EDBB288
:100A6000FD2B13D90CF0C0FC01214FF47A70FFF775
:100A7000D4FF0CF0B9FC0BF046FA042201900DEB08
:100A8000020140F2E93009F0DFF919E0042C19D92C
:100A90000CF0AAFC00214FF47A70FFF7BEFF0CF0B7
:100AA000A3FC0422002440F2E9300DEB0201019482
:100AB00009F0CAF905200BF06FFA204609F0F7FD9E
:100AC00002B010BD0BF01FFA009BC01AB0F5167FE4
:100AD000F6D80CF089FC611CC9B2C6E713B50CF05E
:100AE00083FC40F2ED3009F097F904460CF07CFCF1
:100AF0000422694640F2EE3009F09EF9631EDBB233
:100B0000FD2B13D90CF070FC012140F2ED30FFF702
:100B100084FF0CF069FC0BF0F6F9042201900DEB58
:100B2000020140F2EE3009F08FF919E0042C19D9D6
:100B30000CF05AFC002140F2ED30FFF76EFF0CF094
:100B400053FC0422002440F2EE300DEB020101942C
:100B500009F07AF905200BF01FFA204609F0A7FDED
:100B600002B010BD0BF0CFF9009BC01A7828F7D85F
:100B70000CF03AFC611CC9B2C7E710B50446FFF798
:100B800041FF822804D12046BDE81040FFF756BF40
:100B9000FFF738FF8C2804D12046BDE81040FFF74E
:100BA0009DBFFFF72FFF282802D10123237010BD1E
:100BB000BDE81040FFF726BF70470000002210B5C7
:100BC0000446044B114640F8043B09F061FB204603
:100BD00010BD00BFD8300B0810B50446FFF7EEFF7C
:100BE000204620210CF073FC204610BD10B56C226D
:100BF000002104460EF0C2F90123002220461146CE
:100C0000236009F0A7FB204610BD2DE9F041054601
:100C10000E4617469DF81810002218461C4609F08B
:100C2000A1FB234606903A4631462846BDE8F041EE
:100C300009F010BDF0B5044626468BB001F0D8F996
:100C40001C4B002246F8083B1421012009F08AFBC6
:100C50000125142703462A46CDE900756FF07F4130
:100C6000304609F0D5FC39460022022009F07AFB13
:100C70001E220346019500920F49022202A804F1A8
:100C80000C0503AE09F0C4FC0FCE0FC596E80700B3
:100C900085E8070002A8FFF791FF4FF480124FF498
:100CA00080732046C4E90A23002384F8303063634C
:100CB0000BB0F0BDEC300B080060FF0038B5064CFF
:100CC00023683BB93820FFF7E8F9054608B1FFF77C
:100CD000B1FF2560206838BDD002002030B5142453
:100CE0009FB003A8FFF782FF03A803236FF07F42A2
:100CF00000210094FFF789FF03A803236FF07F42D0
:100D000001210094FFF781FF02231E25194603A845
:100D1000FF220094FFF779FF03A80223FF2203219B
:100D20000094FFF772FF03A80323FF22042100941D
:100D3000FFF76BFF03A80223FF2205210095FFF7B1
:100D400064FF03A80223FF2206210095FFF75DFF41
:100D500003A803236FF07F4207210094FFF755FF9C
:100D60000A2303A800934FF47F4202230921FFF7CF
:100D70004CFF002203A8114609F0E4FA1FB030BD71
:100D800010B514249EB003A8FFF730FF03A8032377
:100D90006FF07F4202210094FFF737FF032303A87F
:100DA00019466FF07F420094FFF72FFF03A803233B
:100DB0006FF07F4204210094FFF727FF03A803236D
:100DC0006FF07F4205210094FFF71FFF032303A864
:100DD0006FF07F4206210094FFF717FF002203A85F
:100DE000114609F0AFFA1EB010BD38B505460C46E5
:100DF00081B10BF0DAF828B100200BF0D8F801230C
:100E000085F82830214605F10C000022BDE8384065
:100E100009F03EBA90F82830002BF3D001200BF0F7
:100E2000C6F82246214620460BF0D1F885F8284026
:100E3000E8E710B5044649B10BF0B7F8A0B194F853
:100E4000290088B9BDE810400BF0B1B80BF0ADF83F
:100E5000044648B901200BF0AAF822462146204654
:100E6000BDE810400BF0B3B810BD38B50546E0B191
:100E70000478D4B183783A2B17D10FF0E1F8042825
:100E800013D90A226878303C303802FB04042B79ED
:100E9000E878303B3038172C02FB003005D83B286F
:100EA00003D83C2303FB040038BD4FF0FF30FBE7C1
:100EB00070B50D461646FFF7D8FF04462846FFF7E3
:100EC000D4FF05463046FFF7D0FF002C10DB002D85
:100ED0000EDB00280CDB854206DCAC4208DB8442DA
:100EE000ACBF0020012070BDAC42F8DB0120FAE766
:100EF0000020F8E730B50546364C8DB039B108F022
:100F00007BFF95F82930206063B10DB030BD08F04B
:100F100073FF42F20F722368C01A9042EFD8002B81
:100F2000EDD0F2E795F82B40002CEED12A492B4862
:100F30000DF10D028DF80D4005F016FA9DF80D30FB
:100F400053B92749274808AA05F00EFA28469DF804
:100F50002010FFF76EFFD8E7224623491F4804AB55
:100F60000494ADF814400694ADF81C4005F06CF8FC
:100F700022461E49194806AB05F066F801231849B8
:100F80000DF10E0215488DF80E3005F0EDF90AF05E
:100F9000BAFF174B024617490093C31708A80AF077
:100FA00053FF089806AA04A9FFF782FF40B19DF8F5
:100FB0000E102846FFF73DFF08A809F0F6FBA4E74E
:100FC000074908480DF10F0205F0CEF99DF80F1002
:100FD000EFE700BFD402002064300B086C300B0830
:100FE0007A300B0880300B088B300B0891300B08DF
:100FF00095300B089403002013B5044608490948AE
:101000000DF1070205F0B0F99DF8073033B9112151
:10101000236884F82A1020461B68984702B010BD48
:101020007A300B0880300B0870B5154690F82B20ED
:101030000446D2B9012680F82F1080F82D5080F890
:101040002E3080F8302080F82C6008F0D5FE84F82F
:101050002B60606330460AF0AAFF002D0348BDE80C
:10106000704018BFFF200AF0C5BF70BD0050FF00E0
:1010700010B590F82B3004469BB308F0BDFE636BAF
:10108000C01AC7282DD908F0B7FE94F82C30606339
:10109000D3B10022104611460AF099FF002094F8BF
:1010A000303094F82F200133DBB29A4284F82C00C0
:1010B00084F8303015D894F82E3084F82B0083B1A2
:1010C000BDE810400AF073BF012384F82C3094F877
:1010D0002D300448002B18BFFF20BDE810400AF057
:1010E00089BF10BD0050FF00F0B54B1E04460D46F1
:1010F0008DB0242B18D8DFE803F0131D7A7A7A1705
:10110000177A697A17171717174F1F171717171717
:1011100017921717171717171717A3AAAEB2B6000B
:1011200001212046FFF761FE2946204600F05AFFC4
:101130000DB0F0BD0021F4E70AF037FF064638B9DC
:1011400001200AF034FF3246314630460AF03FFFB4
:1011500000224649464805F0E1FF1123454984F83D
:101160002A30684609F06BFB434904A809F067FB85
:10117000424908A809F063FB694608AB04AA53205A
:1011800003F092FC08A809F010FB04A809F00DFB7D
:10119000684609F00AFBC7E70AF007FF20B194F898
:1011A000290008B90AF003FF01223049304805F050
:1011B000B5FF1023324984F82A30684609F03FFB16
:1011C0002D4904A809F03BFB2E49D2E7012780F8FE
:1011D00029700AF0EAFE06460028A5D138460AF032
:1011E000E6FE3246314630460AF0F1FE9CE7002327
:1011F00090F82B6080F82930002E95D11B491C48AF
:1012000008AA05F0B1F89DF82030002B8CD00AF028
:10121000CCFE002888D030460AF0C9FE84E7FFF7EC
:101220005DFD0AF0C2FE10B100200AF0C0FE0122EE
:101230000E490F4805F072FF182384F82A3073E72F
:1012400001231A4619462046FFF7EEFE6CE70123FC
:1012500002211A46F7E701231A460321F3E7012387
:1012600004211A46EFE701230022F6E77A300B0843
:1012700080300B089B300B08A1300B08AD300B08F9
:10128000BC300B08C2300B0810B5044600F0B0FEAD
:10129000024B204623601523A36010BD50310B087C
:1012A00038B5064C23683BB90C20FEF7F6FE054620
:1012B00008B1FFF7E9FF2560206838BDD80200209B
:1012C00008B5012119200BF0D3FFBDE8084000212B
:1012D00019200BF0DEBF0000002213B511460DF1FE
:1012E00007030446074804F0A8FF9DF80710A1F182
:1012F0001603012B03D8236820461B68984702B0C9
:1013000010BD00BFF0300B0830B54B1E04460D4633
:101310008DB01F2B3AD8DFE803F0A3A79D979D3926
:101320009D399D399D8686909039393939396310B8
:101330003F3939393939399D9D9716230022037277
:1013400011464E4805F07FFF4D49684609F077FA8F
:101350004C4904A809F073FA4B4908A809F06FFA40
:10136000694608AB04AA532003F09EFB08A809F0C5
:101370001CFA04A809F019FA684609F016FAA37ACB
:1013800023B90121E17219200BF083FF2946204681
:1013900000F028FE0DB030BD172300220372114665
:1013A000364805F050FF3949684609F048FA354992
:1013B00004A809F044FA364908A809F040FA694639
:1013C00008AB04AA532003F06FFB08A809F0EDF95D
:1013D00004A809F0EAF9684609F0E7F90021D1E725
:1013E0001523002203721146244805F02CFF68469D
:1013F000284909F024FA234904A809F020FA2649CB
:1014000008A809F01CFA694608AB04AA532003F0A7
:101410004BFB08A809F0C9F904A809F0C6F9684609
:1014200009F0C3F9B2E7037A152BAFD1437A002B49
:10143000ACD1837A002BA9D1D0E7037A152BA5D1A3
:10144000437A002BA2D19AE701234372037A152B2A
:101450009CD194E700234372037A152B96D1BDE704
:101460000123002143818EE700238372037A162B28
:1014700087D0437A002B84D188E700BFF0300B0877
:10148000FB300B0801310B080D310B081B310B0829
:1014900021310B0830310B0836310B08D0B504462A
:1014A00016461F4608F0A8FCDDE90423C4E906231C
:1014B000DDE90623C4E90823DDE90823C4E90A239A
:1014C000DDE90A23C4E90C2300220023A060C4E95B
:1014D00004672046C4E90E23C4E91023D0BD2DE9DA
:1014E000F3471F46836882464360164608F084FC33
:1014F000DDE90A2304463946CAF8080030460CF0F4
:1015000009FADAE9082306460F460CF0BBFB4FF454
:101510007A73CDE90001DAF80400B0FBF3F0201A89
:101520000CF036FB32463B4604460D460CF0AAFB57
:10153000DAE910230CF0F0F9DAE90E238046894647
:101540003046CAE9108939460CF0E4F922462B46A8
:101550000CF0C2FCDAE90A230CF094FBDAE90C2364
:1015600004460D46404649460CF08CFBDDE900235D
:101570000CF0D2F902460B46204629460CF0CCF975
:10158000DAE904458046894602460B46204629464C
:101590000CF0EAFD50B9DAE9064542464B462046D2
:1015A00029460CF0FFFD08B944464D462046294621
:1015B000CAE90E6702B0BDE8F0870000024A13686E
:1015C00001331360704700BFDC0200200000000000
:1015D000D0B5044688B000F00BFD20460026002759
:1015E00000221B4B40F8503B1A4BCDE90667CDE972
:1015F000022315A3D3E90023CDE90467CDE9002335
:101600000022154BFFF74AFF192384F898304FF456
:1016100048534FF49661C4E90267C4E90467A3859F
:1016200004F12C0204F1180323F8021B9342FBD1AE
:1016300000232046C4E91233E3850123238608B042
:10164000D0BD00BFAFF300800000000000407FC0AD
:10165000FC310B080000E03F00407F4038B5064CED
:1016600023683BB9A020FEF718FD054608B1FFF737
:10167000AFFF2560206838BDE802002007B50121D2
:1016800018200BF0F5FD00211B200BF0F1FD0821C7
:1016900018200BF083FE4FF47A72FF2118200BF014
:1016A00061FE00230122074900931B204FF0FF3306
:1016B0000BF050F908F0A0FB034B186003B05DF885
:1016C00004FB00BFBD150A08E002002038B508F091
:1016D00093FB0949094A0B68C31AB3F57A7F08D30B
:1016E0000023074C0860256823603C236B435B089C
:1016F0001380108838BD00BFE0020020E402002003
:10170000DC02002000000000F7B5054608F074FB7D
:10171000AB6CC01AB0F5FA6F2BD3284695F82D4064
:10172000FFF7D4FF0CF034FAD5E9022305F1500697
:10173000CDE900013046FFF7D2FE00223C4B0646C1
:101740000F460CF025FDB0B1103CE4B2042C38BFBC
:101750000424322C28BF322495F82D30A34205D022
:10176000214618200BF0D8FD85F82D4008F044FBE9
:10177000A86403B0F0BD0022304639462D4B0CF072
:1017800007FD08B1083CE0E7304625A3D3E9002374
:1017900039460CF0FDFC08B1043CD6E70022304687
:1017A0003946254B0CF0F4FC08B1023CCDE7002291
:1017B00030463946214B0CF0EBFC08B1013CC4E744
:1017C0000022304639461E4B0CF0D8FC08B10134DB
:1017D000BBE70022304639461A4B0CF0CFFC08B16B
:1017E0000234B2E7002230463946174B0CF0C6FCF3
:1017F00008B10434A9E7002230463946134B0CF0F7
:10180000BDFC08B10834A0E7304607A3D3E90023A4
:1018100039460CF0B3FC002898D0103495E700BF8F
:101820000000000000C072400000000000407FC0C7
:1018300000407F400000794000004E40008046405C
:10184000008046C000004EC000C072C0000079C0D9
:1018500090F830300BB1FFF757BF7047F8B51F460F
:101860009DF818300446164683B100220023304606
:1018700039460CF06FFC70B34FF47A72FF211820D8
:101880000BF070FD002384F83030F8BD90F82C2068
:1018900039460A2A08BF80F82C3090F82C506B1C6F
:1018A00080F82C3030460CF0AFFC0C3580B224F8B8
:1018B000150094F82E30002BE7D194F82F30002B30
:1018C000E3D104F1180304F12C0233F8021B88421F
:1018D000DBD19342F9D1C4E90267D6E738B590F875
:1018E0002F3004460D4643B941B94FF47A72FF21B7
:1018F00018200BF037FD84F8305038BD90F83030A8
:1019000013B9012380F830302946BDE838404FF440
:101910007A7218200BF026BD10B5044694F82F30CB
:1019200008463BB9D4E90223C4E904230CF030F99A
:10193000C4E9020110BD00002DE9F0434B1E04462E
:101940000D468FB01F2B24D8DFE813F061006E0026
:10195000D200060106012300060123000601230030
:101960004C01730087009800B5002300230023007A
:1019700023002300230023002300D2009401C90187
:101980006A0020005F00060106010601012384F8B9
:10199000313094F8303013B12046FFF7B5FE08F02F
:1019A0002BFAE36CC01AA44B984227D994F82F3035
:1019B0000BBB94F83030F3B12046FFF787FED0B967
:1019C0009E4902A808F03BFF9D4906A808F037FF92
:1019D0009C490AA808F033FF0AAB06AA02A95320C3
:1019E00003F062F80AA808F0E0FE06A808F0DDFEA1
:1019F00002A808F0DAFE08F0FFF9E0642946204664
:101A000000F0F0FA0FB0BDE8F0830023BFE7012338
:101A100080F82F304FF47A72FF2118200BF0A2FCCF
:101A2000002384F83030B4E7002380F82F300123FE
:101A3000F7E794F83130002200F10801D1E9000104
:101A400023B3814B0CF086FB0028A2D100227E4BF1
:101A500000902046FFF702FF9BE794F83130002208
:101A600000F10801D1E900016BB3784B0CF072FB77
:101A700000288ED10022754B0090EAE794F83130AF
:101A8000002200F10801D1E9000153B1704B0CF0C4
:101A900061FB00287FF47DAF0023002200936C4B94
:101AA000D7E76C4B0CF056FB00287FF472AF002296
:101AB000684B0090CDE794F83130002200F1080126
:101AC000D1E9000153B1644B0CF044FB00287FF4D2
:101AD00060AF0023002200935F4BBAE75F4B0CF02E
:101AE00039FB00287FF455AF00225C4B0090B0E733
:101AF000002380F82E3090F82F3013B9012380F89E
:101B000030300026D4E90489002732463B4640465F
:101B100049460CF01FFB18B9C4E90289C4E90467FF
:101B20004F4902A808F08BFE454906A808F087FE39
:101B30004C490AA808F083FE0AAB06AA02A9532062
:101B400002F0B2FF0AA808F030FE06A808F02DFE49
:101B500002A808F02AFE1CE70123414980F82E3034
:101B600080F8303002A808F06AFE354906A808F06F
:101B700066FE3D490AA808F062FE0AAB06AA02A961
:101B8000532002F091FF0AA808F00FFE06A808F003
:101B90000CFE02A808F009FE042D04D100222F4BF0
:101BA000C4E90223F5E66B1F012B02D80022284B63
:101BB000F6E7072D02D10022234BF1E7092D02D1D0
:101BC0000022224BECE71E2DFAD01F2D03D116A3C5
:101BD000D3E90023E4E7202D7FF4DBAE14A3D3E99F
:101BE0000023DDE7214902A808F029FE144906A8D0
:101BF00008F025FE1E490AA808F021FE0AAB06AA35
:101C000002A9532002F050FF0AA808F0CEFD06A852
:101C100008F0CBFD02A808F0C8FD012384F82E309F
:101C2000F8E600BFAFF300800000000000709740AE
:101C3000000000000088A340002E9302D4310B085E
:101C40005A310B08DA310B0800407F4000208C40ED
:101C500000C0924000209C4000E0954000409F4022
:101C600054310B0866310B087F310B08A6310B0885
:101C7000AC310B081D4902A808F0E1FD1C4906A87B
:101C800008F0DDFD1B490AA808F0D9FD0AAB06AA39
:101C900002A9532002F008FF0AA808F086FD06A852
:101CA00008F083FD02A808F080FD94F82F3013B9E6
:101CB000012384F830304FF00008D4E904674FF076
:101CC000000942464B46304639460CF043FA00289C
:101CD0007FF45FAEC4E90267C4E9048959E690F86D
:101CE0002F30002B7FF455AEA1E600BF54310B0816
:101CF0005A310B08C2310B0810B5044600F078F9D0
:101D0000034B1222236000232046C4E9022310BDA6
:101D1000AC320B0838B5064C23683BB91020FEF7EF
:101D2000BCF9054608B1FFF7E7FF2560206838BD1C
:101D3000EC02002008B5012102200BF099FA0021E5
:101D40000B200BF095FABDE80840002102200BF0B3
:101D5000A0BA0000002213B511460DF10703044696
:101D6000074804F06AFA9DF80710A1F11303012B4C
:101D700003D8236820461B68984702B010BD00BFF7
:101D800000320B0870B5C37ADBB9012102200BF0D9
:101D900080FA0A200AF000F901260F2400252DB947
:101DA0000B200BF08FFA051E18BF0125013C14F023
:101DB000FF04F4D11EB1214602200BF06AFA284636
:101DC00070BD0026E9E7000030B54B1E04460D4605
:101DD0008DB01F2B4AD8DFE813F0E000E400D900F3
:101DE000D200D9004900D9004900D9004900D900E2
:101DF000BF00BF00C900C900490049009C00200085
:101E0000780049004900490049004900490049005B
:101E100049004900D900D900D200132300220372DF
:101E20001146654805F00FFA6449684608F007FD59
:101E3000634904A808F003FD624908A808F0FFFC04
:101E4000694608AB04AA532002F02EFE08A808F049
:101E5000ACFC04A808F0A9FC684608F0A6FCA37A2C
:101E600023B90121E17202200BF013FA07F0C4FF3D
:101E7000E368C01A544B984221D92046FFF782FFED
:101E8000D0B95249684608F0DAFC4D4904A808F078
:101E9000D6FC4F4908A808F0D2FC694608AB04AA52
:101EA000532002F001FE08A808F07FFC04A808F007
:101EB0007CFC684608F079FC07F09EFFE06029464C
:101EC000204600F08FF80DB030BD142300220372BD
:101ED0001146394805F0B7F93E49684608F0AFFCAD
:101EE000374904A808F0ABFC3B4908A808F0A7FC58
:101EF000694608AB04AA532002F0D6FD08A808F0F2
:101F000054FC04A808F051FC684608F04EFC00217F
:101F1000A8E71223002203721146274805F093F91F
:101F200068462E4908F08BFC254904A808F087FC78
:101F30002B4908A808F083FC694608AB04AA532083
:101F400002F0B2FD08A808F030FC04A808F02DFC4F
:101F5000684608F02AFC89E7037A122B86D1437A77
:101F6000002B83D1837A002B80D1D0E7037A122B08
:101F70007FF47CAF437A002B7FF478AF6FE70123C7
:101F80004372037A122B7FF471AF68E70023437228
:101F9000037A122B7FF46AAFB9E701230021438152
:101FA00061E700238372037A132B3FF45AAF437A1D
:101FB000002B7FF456AF59E700320B080E320B08A6
:101FC00014320B0828320B08002E930279320B08CA
:101FD0007F320B083E320B0844320B085B320B0891
:101FE00061320B08406810B103681B6818477047DE
:101FF000024A026000224260704700BFB8320B08FC
:1020000041607047034640680028FBD15960704723
:1020100038B5064C25683DB91420FEF73EF810B1DE
:102020000223C56003802060206838BDF0020020D4
:1020300000211C200BF01CB9002370B586B004935E
:102040008B6804460E4602AD33B1022228469847FB
:10205000F3680593B36804936A4695E80300231D6B
:1020600082E8030093E8030085E8030092E8030098
:1020700083E80300049AE3682169E260059A049307
:10208000059122611BB1032229462846984706B0D4
:1020900070BD07B582688DF807100AB90BF01DFAFC
:1020A000C3680DF10701984703B05DF804FB000019
:1020B00010B504468CB01C200BF004F90128014631
:1020C0002CD12378022B29D140F20113204620F88D
:1020D000043BFFF7DEFF1D49684608F0B0FB1C49D2
:1020E00004A808F0ACFB1B4908A808F0A8FB694647
:1020F00008AB04AA532002F0D7FC08A808F055FB4F
:1021000004A808F052FB684608F04FFB01220023A8
:10211000A118114808F0CEF90CB010BD1C200BF02E
:10212000D1F80028F2D12378012BEFD102212046EB
:1021300020F8041BFFF7ADFF0849684608F07FFB55
:10214000034904A808F07BFB0549CDE7BC320B0826
:10215000C3320B08D1320B0806330B08E8320B08E8
:10216000EF320B08436913B183690C30184770478D
:1021700013B500210446084607F0BEFE00232046A2
:1021800001A9019307F0D0FE019C0CB1012323713A
:102190000021012007F0B0FE2CB1236820469B6887
:1021A00098470023237102B010BD022A38B50446B7
:1021B00007D0032A11D0012A01D10B682360002027
:1021C00038BD0C200D68FDF768FF03460028F5D0E8
:1021D00095E8070083E80700F0E700680028EED0E4
:1021E0000C210BF074F9EAE710B403685A68996897
:1021F000541001EB6200D20748BF0A591B6810BC9B
:1022000048BFD3581847000037B5134B0446036046
:102210008068C8B100256FF000430221CDE9003588
:102220002A462B4607F088FE2946A06807F0D4FE10
:10223000237903F0FF0513B107F056FEF8E72946AE
:10224000A06807F069FEA56004F10C00FEF7DAF85B
:10225000204603B030BD00BF00350B0810B5044662
:10226000FFF7D2FF20461C210BF031F9204610BDAC
:1022700010B5044601F056FA0023236102232060C2
:102280002371204610BD000038B5064C23683BB9C9
:102290001820FDF702FF054608B1FFF7E9FF2560AA
:1022A000206838BDF40200202DE9F04F0446006894
:1022B0008FB00378002B00F0AC8001F043FA0025CA
:1022C0008046554FDFF874A1544E5FFA85F9C84532
:1022D00076D939460AA808F0B2FA019501350A22E2
:1022E000294606A808F02BFB06A90AA808F064FBFB
:1022F0002268019B01684FEA830B02EB83035B6852
:10230000524693F90430304604F0EFFF06A808F077
:102310004CFA0AA808F049FA39460AA808F08FFAD8
:102320000A22294606A808F00AFB06A90AA808F00E
:1023300043FB00233A4A0168304604F0D6FF06A862
:1023400008F033FA0AA808F030FA39460AA808F06B
:1023500076FA0A22294606A808F0F1FA06A90AA880
:1023600008F02AFB236801685B445B6830465B69C0
:102370002C4A05F00CF806A808F017FA0AA808F08D
:1023800014FAB9F1000FA0D139460AA808F057FA9B
:102390000A22294606A808F0D2FA06A90AA808F0D7
:1023A0000BFB236801685B6830469B691E4A04F09A
:1023B000EEFF06A808F0F9F90AA808F0F6F984E794
:1023C000236800221B781949144804F03CFF0022BE
:1023D000236817491A7702A808F031FA154906A8A8
:1023E00008F02DFA14490AA808F029FA0AAB06AA3F
:1023F00002A9532002F058FB0AA808F0D6F906A853
:1024000008F0D3F902A808F0D0F901200FB0BDE818
:10241000F08F0520FAE700BF11330B0870300B086E
:102420001E330B082D330B0829330B0834330B08EC
:1024300039330B0840330B084E330B0817330B08A6
:10244000006803785BB1437800EB83035B681B7F14
:102450000BB901F0CDB9037F0BB101F0A7B97047FB
:1024600030B5032904460D4695B000F0CA800B46EE
:10247000017100226449654804F037FF23685A78E7
:1024800003EB82035B681B7F002B2FD16B1E082B95
:1024900026D8DFE803F0055C25256B897A98A7002C
:1024A000042104F10800FFF7F4FD594908A808F0D9
:1024B000C6F958490CA808F0C2F9574910A808F005
:1024C000BEF910AB0CAA08A9532002F0EDFA10A82F
:1024D00008F06BF90CA808F068F908A808F065F98D
:1024E0002B4600224D49494804F0FFFE4C4908A8FC
:1024F00008F0A5F947490CA808F0A1F9494904A832
:1025000008F09DF90A222946684608F018FA69463B
:1025100004A808F051FA014610A808F0DAF910AB47
:102520000CAA08A9532002F0BFFA10A808F03DF940
:10253000684608F03AF904A808F037F90CA808F042
:1025400034F908A808F031F9012015B030BD052193
:1025500004F10800FFF79DFD334908A808F06FF962
:102560002C490CA808F06BF93049A7E7072104F1C2
:102570000800FFF78EFD2E4908A808F060F92549EC
:102580000CA808F05CF92B4998E70B2104F108002E
:10259000FFF77FFD284908A808F051F91D490CA84C
:1025A00008F04DF9254989E71E2104F10800FFF7DD
:1025B00070FD234908A808F042F916490CA808F054
:1025C0003EF920497AE71F2104F10800FFF761FD79
:1025D0001D4908A808F033F90E490CA808F02FF996
:1025E0001A496BE7202104F10800FFF752FD184952
:1025F00008A808F024F907490CA808F020F91549A3
:102600005CE70220A1E700BF6B330B0873330B08B4
:102610007F330B0840330B0885330B082A340B0833
:1026200032340B0838340B0895330B089B330B08F6
:10263000AA330B08B1330B08C3330B08CA330B089A
:10264000D9330B08E0330B08F4330B08FB330B08CA
:102650000F340B0816340B0830B590F904300446DB
:102660008FB0092B51D8DFE803F005677550508310
:102670009F91ADBB0DF1070300226049604803F054
:1026800025FE9DF8073004F10805002B46D01C21DB
:102690002846FFF7FEFC5B490AA808F0D0F85A4923
:1026A00006A808F0CCF8594902A808F0C8F802AB0F
:1026B00006AA0AA9532002F0F7F902A808F075F853
:1026C00006A808F072F80AA808F06FF80321284657
:1026D000FFF7DFFC4E490AA808F0B1F84A4906A8FE
:1026E00008F0ADF84B4902A808F0A9F802AB06AA19
:1026F0000AA9532002F0D8F902A808F056F806A853
:1027000008F053F80AA808F050F8002294F90430B1
:1027100041493B4804F0E9FD0FB030BD1D2128467A
:10272000FFF7B7FC3D490AA808F089F8364906A822
:1027300008F085F83A49B7E704210830FFF7A9FC0B
:1027400038490AA808F07BF82F4906A808F077F85E
:102750003549C8E705210830FFF79BFC33490AA833
:1027600008F06DF8284906A808F069F83049BAE77A
:1027700007210830FFF78DFC2E490AA808F05FF802
:10278000214906A808F05BF82B49ACE70B2108307B
:10279000FFF77FFC29490AA808F051F81A4906A852
:1027A00008F04DF826499EE71E210830FFF771FC1E
:1027B00014490AA808F043F8134906A808F03FF89E
:1027C000204990E71F210830FFF763FC1E490AA843
:1027D00008F035F80C4906A808F031F81B4982E7E3
:1027E00020210830FFF755FC19490AA808F027F8FE
:1027F000054906A808F023F8164974E752340B0877
:1028000073330B08D9330B0840330B0865340B08BE
:102810009D340B08A3340B082A340B087D340B08B5
:1028200084340B087F330B0885330B0895330B0872
:102830009B330B08AA330B08B1330B08C3330B08C7
:10284000CA330B08E0330B08F4330B08FB330B08D7
:102850000F340B0816340B0813B50131044609D1A7
:102860000DF1070300220949094803F092FC9DF885
:102870000730237123685A7803EB82035B681B7F60
:1028800013B92046FFF7E8FE02B010BD6B330B080A
:1028900073330B0830B50D468FB00DF107030446B6
:1028A00000221A491A4803F074FC9DF90730AB4224
:1028B00029D1002315491A462371154804F015FD46
:1028C000204694F90410FFF7C7FF124902A807F049
:1028D000B6FF114906A807F0B2FF10490AA807F091
:1028E000AEFF0AAB06AA02A9532002F0DDF80AA83F
:1028F00007F05BFF06A807F058FF02A807F055FF96
:1029000001200FB030BD0320FBE700BF6B330B0885
:1029100073330B08B3340B0840330B08B9340B087E
:1029200013B56C460B46024603C884E8030093E8DF
:10293000030082E8030094E8030083E8030002B088
:1029400010BD000070B58CB00E4605AD02A981E83F
:102950000C0085E80C00002304460C200A93FDF7C8
:102960009CFB034628B195E80300109A83E8030016
:102970009A6000250893134B04F10C010B93124B42
:1029800008A80A93114B25712360A5606561FFF7C4
:10299000C7FF0A9B626963610B9B0A92A269A361EC
:1029A0009DF8443031460B920093094A2346019525
:1029B00004F1080007F0A8FA08A8FDF723FD204657
:1029C0000CB070BDE9210A08AB210A0800350B08DC
:1029D00071210A08000000002DE9F04FA9B00DF1A7
:1029E0001D0304460022C049C04803F026FC9DF8A0
:1029F0001D30002B00F081822268BD491370BB4856
:102A000000220DF11E0303F018FC23689DF81E2020
:102A100000255A700023049320689DF810A00378C5
:102A2000534540F268820AF10106B2491BA807F03B
:102A300006FF0A2231461FA807F081FF1FA91BA825
:102A400007F0BAFF0DF11F03AB4A0168A74803F076
:102A5000A0FB1FA807F0A9FE1BA807F0A6FEA5492A
:102A60001BA807F0ECFE0A2231461FA807F067FFFB
:102A70001FA91BA807F0A0FF09ABA04A01689B484B
:102A800003F0E2FA1FA807F090FE1BA807F08DFEE6
:102A900098491BA807F0D3FE0A2231461FA807F069
:102AA0004EFF1FA91BA807F087FF08AB0168944AD7
:102AB0008E4803F023FB1FA807F077FE1BA807F042
:102AC00074FE23685B78534540F0408109F02CFA8E
:102AD0000A2201460FA807F032FF0F9F09F030FAD3
:102AE0000A22014613A807F02AFFDDF84CB009F0CE
:102AF0002FFA0A22014617A807F021FF38460DF0E9
:102B00009FFA064658460DF09BFADDF85C9002905D
:102B100048460DF095FA804609A80DF091FA029BFF
:102B20001E440636B0444044FDF7B9FA80463946A3
:102B30000CF000FD734940460CF0CCFC5946404671
:102B40000CF0C8FC6F4940460CF0C4FC49464046B6
:102B50000CF0C0FC6B4940460CF0BCFC09A9404697
:102B60000CF0B8FC684940460CF0B4FC1FAA674959
:102B700040460DF039FE1FA80CF0E0FA0E4607465D
:102B800009F0F2F90246C317CDE90223DDE902019B
:102B90003A4633460CF0CCF851A3D3E900230BF0AE
:102BA0009BF90022002306460F460BF0DDFA0028B1
:102BB00055D009F0B9F90A22411E1BA807F0BFFE43
:102BC0001B99084605910DF03BFA064658460DF054
:102BD00037FA804648460DF033FA074609A80DF04B
:102BE0002FFA4644063637443844FDF758FA8046F3
:102BF00005990CF09FFC434940460CF06BFC59468C
:102C000040460CF067FC3F4940460CF063FC4946E7
:102C100040460CF05FFC3B4940460CF05BFC09A9C8
:102C200040460CF057FC384940460CF053FC1FAAB4
:102C3000364940460DF0D8FD1FA80CF07FFA024639
:102C40000B46DDE902010CF073F825A3D3E900235C
:102C50000BF042F906461BA80F4607F0A6FD4046BA
:102C6000FDF721FA00220023304639460BF07CFAAA
:102C700000284DD04FF07C5108980BF043FC0AF02F
:102C8000A9FF32463B46804689460BF08BFA002866
:102C90003ED032463B46404649460AF03DFE0BF0E8
:102CA000D3FA064617A807F080FD13A807F07DFDAC
:102CB0000FA807F07AFD9DF91F304FEA8A0A013B01
:102CC000082B56D8DFE813F044008A00A600550010
:102CD0009800C200B400D000DF0000BFAFF3008056
:102CE000000000000020AC4034330B0870300B08AB
:102CF000D8340B0811330B0817330B081E330B089D
:102D00002D330B08A5370B08E1340B08E5340B080D
:102D100000220023304639460BF044FAA0B14FF0B0
:102D20007C5108980BF0EEFB0AF054FF32463B460C
:102D3000804689460BF036FA30B132463B46404673
:102D400049460AF0E7FDAAE72E46ABE72E46B2E772
:102D50002420FDF7A2F9074640B1089B0121009607
:102D600009AA01F0CBFC664B3B603C6223685344EC
:102D70005F602368294653443046D3F804800BF043
:102D80007DFD0746002800F08D805E49D8F81800C8
:102D90000BF0B8FB5B490BF0B5FB5B490BF0B2FBEA
:102DA0000BF076FD07461C20FDF777F9064660B16B
:102DB000564B39460B9300230C9301230193236850
:102DC000524A00930023FFF7BDFD23689A44DAF8C6
:102DD00004309E60049B013304931DE62420FDF71C
:102DE0005CF907460028C1D0089B0221009609AA79
:102DF00001F084FC464BB7E72420FDF74EF9074667
:102E00000028B3D0089B0521009609AA01F076FCA2
:102E1000404BA9E72420FDF740F907460028A5D03C
:102E2000089B0321009609AA01F068FC3A4B9BE736
:102E30002420FDF732F90746002897D0089B072188
:102E4000009609AA01F05AFC344B8DE72420FDF7C7
:102E500024F90746002889D0089B0621009609AA74
:102E600001F04CFC2E4B7FE72420FDF716F90746B6
:102E700000283FF47BAF089B0821009609AA01F0C7
:102E80003DFC284B70E72420FDF707F90746002892
:102E90003FF46CAF089B0921009609AA01F02EFCB3
:102EA000214B61E7D8F814000AF094FE00221F4B72
:102EB0000AF0E8FE00221E4B0AF0E4FE00221C4B42
:102EC0000AF0E0FE00221B4B0AF0DCFE0BF074F966
:102ED00080461C20FDF7E1F8064600283FF475AF58
:102EE0000A4B4146CDE90D37012301932368074A78
:102EF00000933B4667E700F0ABFC29B0BDE8F08FDC
:102F000048360B080000704200007A447D380A08F9
:102F1000E0350B0870360B0884350B08A8360B0813
:102F2000BC350B0844350B0820360B080000E03F89
:102F300000004E4000408F402DE9F04F91B01F46F9
:102F40009DF86C300546039303680E461B78904647
:102F5000DDF868900BB1FFF7A7F90024039B5FFA37
:102F600084FA9C4200F0408257F824B00021584671
:102F70000BF070FC30B95846B1490BF07FFC0028CB
:102F800000F08B800AF1FF3ADFF8DC82DFF8DC9298
:102F90005FFA8AF42420FDF780F8074618B101F0A3
:102FA0009FFBA84B3B602B68414603EB84035F60AB
:102FB0000CA8671C07F043FC0A22394608A807F052
:102FC000BEFC08A90CA807F0F7FC2B68A600334448
:102FD0005B689D4A93F904300168484604F085F91E
:102FE00008A807F0E2FB0CA807F0DFFB41460CA89D
:102FF00007F025FC0A22394608A807F0A0FC08A91A
:103000000CA807F0D9FC2B68904A33445B68016830
:103010000C33484604F013FA08A807F0C6FB0CA8C6
:1030200007F0C3FB41460CA807F009FC0A22394609
:1030300008A807F084FC08A90CA807F0BDFC2B68C1
:1030400001681E44736848465B69814A04F09FF931
:1030500008A807F0AAFB0CA807F0A7FBD4B94146C3
:103060000CA807F0ECFB0A22394608A807F067FC19
:1030700008A90CA807F0A0FC2B6801685B6848460B
:103080009B69744A04F083F908A807F08EFB0CA82A
:1030900007F08BFB013CE4B27CE73357013B082B84
:1030A00024D8DFE813F00900E5000D012300F90042
:1030B0003501210149015D012420FCF7EEFF824624
:1030C00078B1062259F8243002FB0482009357F8A5
:1030D0002430315701F012FB5F4BCAF80030CAF8B8
:1030E00020502B6803EB8403C3F804A0D5F800A09C
:1030F000002C40F049810021D9F800000BF0BEFB04
:10310000002800F04181DAF80430544998690BF046
:10311000F9F952490BF0F6F951490BF0F3F90BF0BC
:10312000B7FB83461C20FCF7B8FF824658B14D4BD5
:103130005946CDE90434012301932B68494A009391
:103140002346FFF7FFFB2B685B684749C3F808A0DD
:103150000CA804F1010A07F072FB0A22514608A8E4
:1031600007F0EDFB08A90CA807F026FC2B68364AEF
:1031700003EB84035B68016893F904303B4804F077
:10318000B4F808A807F011FB0CA807F00EFB3649AD
:103190000CA807F054FB0A22514608A807F0CFFB01
:1031A00008A90CA807F008FC2B684FEA840B5B44C5
:1031B0005B68264A0C3301682C4804F040F908A8E3
:1031C00007F0F3FA0CA807F0F0FA27490CA807F06B
:1031D00036FB0A22514608A807F0B1FB08A90CA843
:1031E00007F0EAFB2B6801685B445B68184A5B697F
:1031F0001E4804F0CCF808A807F0D7FA0CA807F08E
:10320000D4FAD4B918490CA807F019FB0A22514680
:1032100008A807F094FB08A90CA807F0CDFB2B68C1
:1032200001685B680B4A9B69104804F0B0F808A875
:1032300007F0BBFA0CA807F0B8FA54468EE600BFB8
:103240000000C04184350B0817330B081E330B08F0
:103250002D330B0829330B0848360B080000704249
:1032600000007A447D380A0811330B0870300B08CF
:103270002420FCF712FF824600283FF432AF0622DA
:1032800059F8243002FB0482009357F82430315758
:1032900001F034FA5C4B20E72420FCF7FEFE824666
:1032A00000283FF41EAF062259F8243002FB0482A6
:1032B000009357F82430315701F020FA534B0CE7B4
:1032C0002420FCF7EAFE824600283FF40AAF0622DB
:1032D00059F8243002FB0482009357F82430315708
:1032E00001F00CFA4A4BF8E62420FCF7D6FE8246A1
:1032F00000283FF4F6AE062259F8243002FB04827F
:10330000009357F82430315701F0F8F9414BE4E6C7
:103310002420FCF7C2FE824600283FF4E2AE0622DB
:1033200059F8243002FB0482009357F824303157B7
:1033300001F0E4F9384BD0E62420FCF7AEFE8246DB
:1033400000283FF4CEAE062259F8243002FB048256
:10335000009357F82430315701F0D0F92F4BBCE6D9
:103360002420FCF79AFE824600283FF4BAAE0622DB
:1033700059F8243002FB0482009357F82430315767
:1033800001F0BCF9264BA8E60AEB840ADAF804300F
:1033900058690AF01FFC0022224B0AF073FC00223D
:1033A000214B0AF06FFC00221F4B0AF06BFC00223D
:1033B0001E4B0AF067FC0AF0FFFE83461C20FCF758
:1033C0006CFE824660B11A4B594606930023079360
:1033D000012301932B68164A00930023FFF7B2FAEA
:1033E0002B6803EB8403AFE62B6800221C702B686C
:1033F00010491B78104803F026FF286800F028FACF
:10340000012011B0BDE8F08FE0350B0870360B08D5
:1034100084350B08A8360B08BC350B0844350B085F
:1034200020360B080000E03F00004E4000408F4077
:103430007D380A0834330B0870300B087FB5002341
:1034400002938B6804460D4600F1080633B1022250
:1034500068469847EB680393AB6802933146684629
:10346000FFF75EFA029B22692361039B0292626965
:10347000684663610392FCF7C5FF4FF0FF312046B9
:10348000FFF7EAF904B070BD012130B58368017718
:10349000044698688FB038B16FF000420023CDE940
:1034A00000231A4606F048FD0023256A0C932B6979
:1034B00043B1022205F108010AA898476B690D93F0
:1034C0002B690C931F238DF818300C9B0BB90AF055
:1034D00004F80D9B06A90AA898470C9B1BB10AA9E2
:1034E00003220846984794F90430002210491148F5
:1034F00003F0FBFE104902A807F0A1F90F4906A846
:1035000007F09DF90E490AA807F099F90AAB06AA37
:1035100002A9532001F0C8FA0AA807F046F906A844
:1035200007F043F902A807F040F90FB030BD00BF23
:103530002A340B0873330B08F4330B0840330B08A1
:103540000C350B0830B50025036A85611B680446FD
:103550005B788DB0002B3DD1304908A8039507F06A
:103560006EF9236A0A221B6804A85978013107F012
:10357000E6F904A908A807F01FFA294A016803AB75
:10358000284802F0BBFD04A807F00FF908A807F0CF
:103590000CF9294603980BF071F9D8B11F4908A816
:1035A00007F04DF9236A0A221B6804A859780131F3
:1035B00007F0C5F904A908A807F0FEF9A369016896
:1035C000174A184803F0E3FE04A807F0EEF808A82D
:1035D00007F0EBF8A3689D68F5B160690AF0FAFAA4
:1035E0000022114B0AF04EFB0022104B0AF04AFB5E
:1035F00000220E4B0AF046FB00220D4B0AF042FB64
:103600000AF0DAFD6FF0004100220346CDE9001216
:103610002846032106F090FC0DB030BD11330B0895
:1036200029330B0870300B080000E03F00004E40CB
:1036300000408F4070B58368044698688EB000B330
:10364000002106F0B9FCE0B1A568A868C8B1002661
:103650006FF000430221CDE900363246334606F0D2
:103660006BFC3146A86806F0B7FC2B7903F0FF0627
:1036700013B106F039FCF8E73146A86806F04CFCB7
:10368000AE6000230021A06923770BF0F7F810B19A
:103690002046FFF757FF206A4FF0FF31FFF7DCF8B5
:1036A0000E4902A807F0CBF80D4906A807F0C7F8A5
:1036B0000C490AA807F0C3F80AAB06AA02A95320CE
:1036C00001F0F2F90AA807F070F806A807F06DF803
:1036D00002A807F06AF80EB070BD00BF20350B08D5
:1036E00040330B0827350B0800232DE9F041044631
:1036F000DFF82C8003800377061D00F11C072420CF
:10370000FCF7CBFC054618B100F0EAFFC5F80080D5
:1037100046F8045BBE42F2D12046BDE8F08100BF0E
:1037200084350B0838B5064C23683BB92020FCF7DC
:10373000B4FC054608B1FFF7D7FF2560206838BD07
:10374000F80200202DE9F0414378044600EB8303A2
:103750005868037F13B103685B6898470027DFF858
:1037600048802378FEB2B3420DD92420FCF795FCA3
:10377000054618B100F0B4FFC5F8008004EB8606DA
:1037800075600137EDE7002505492B462A460548B7
:10379000657003F058FD20782570BDE8F08100BF0A
:1037A000D8340B0870300B0884350B0870B5002531
:1037B00004464378057700EB8303586803685B6829
:1037C0009847207801280ED063782A46591CB1FB0F
:1037D000F0F300FB1313DBB2637003490348BDE849
:1037E000704003F030BD70BDD8340B0870300B084A
:1037F00030B543788BB000EB8303596804460C3135
:1038000002A807F01CF808F07EFB0F4B02460F4998
:103810000093C31706A808F017FB06A902A807F033
:1038200000F9054606A806F0C0FF02A806F0BDFF95
:1038300045B100236078237704EB80046068036857
:103840001B6898470BB030BD95300B0894030020DF
:1038500070B54378044600EB83035D680021A869D6
:103860000BF00CF828B12B682846BDE870401B68A7
:1038700018472046BDE87040FFF7BABF10B543783F
:10388000044600EB83035B689B68986810B90123CA
:10389000237710BD002106F08FFB0028F7D0F8E752
:1038A00030B50025036A85611B6804465B788DB0DE
:1038B000002B3DD1304908A8039506F0C0FF236ACC
:1038C0000A221B6804A85978013107F038F804A9C6
:1038D00008A807F071F8294A016803AB284802F0EC
:1038E0000DFC04A806F061FF08A806F05EFF29465B
:1038F00003980AF0C3FFD8B11F4908A806F09FFF3C
:10390000236A0A221B6804A85978013107F017F8C6
:1039100004A908A807F050F8A3690168174A1848D5
:1039200003F035FD04A806F040FF08A806F03DFFAF
:10393000A3689D68F5B160690AF04CF90022114B4B
:103940000AF0A0F90022104B0AF09CF900220E4B5D
:103950000AF098F900220D4B0AF094F90AF02CFCB9
:103960006FF0004100220346CDE9001228460321F2
:1039700006F0E2FA0DB030BD11330B0829330B0805
:1039800070300B080000E03F00004E4000408F40C8
:1039900038B5002383608B6804460D462BB10222A4
:1039A0009847EB68E360AB68A360204638BD000031
:1039B000012110B583680177044698688EB038B14C
:1039C0006FF000420023CDE900231A4606F0B4FA56
:1039D000216A0AA80831FFF7DBFF09210AA8FEF7D0
:1039E00058FB0AA8FCF70EFD94F904300022104998
:1039F000104803F07AFC104902A806F020FF0F4996
:103A000006A806F01CFF0E490AA806F018FF0AAB2C
:103A100006AA02A9532001F047F80AA806F0C5FE3D
:103A200006A806F0C2FE02A806F0BFFE0EB010BD4A
:103A30002A340B0873330B084C350B0840330B0842
:103A400052350B0870B58368044698688EB000B391
:103A5000002106F0B1FAE0B1A568A868C8B1002657
:103A60006FF000430221CDE900363246334606F0BE
:103A700063FA3146A86806F0AFFA2B7903F0FF0627
:103A800013B106F031FAF8E73146A86806F044FAB7
:103A9000AE6000230021A06923770AF0EFFE10B189
:103AA0002046FFF7FDFE216A0AA80831FFF770FFE4
:103AB0000A210AA8FEF7EDFA0AA8FCF7A3FC206A7F
:103AC0004FF0FF31FEF7C8FE0E4902A806F0B7FE20
:103AD0000D4906A806F0B3FE0C490AA806F0AFFE91
:103AE0000AAB06AA02A9532000F0DEFF0AA806F0DE
:103AF0005CFE06A806F059FE02A806F056FE0EB0BF
:103B000070BD00BF63350B0840330B0869350B08E7
:103B1000012130B583680177044698688FB038B1C9
:103B20006FF000420023CDE900231A4606F004FAA4
:103B30000023256A0C932B6943B1022205F1080189
:103B40000AA898476B690D932B690C931E238DF877
:103B500018300C9B0BB909F0C0FC0D9B06A90AA8F4
:103B600098470C9B1BB10AA903220846984794F971
:103B7000043000221049114803F0B7FB104902A895
:103B800006F05DFE0F4906A806F059FE0E490AA888
:103B900006F055FE0AAB06AA02A9532000F084FFE6
:103BA0000AA806F002FE06A806F0FFFD02A806F02D
:103BB000FCFD0FB030BD00BF2A340B0873330B0877
:103BC000D9330B0840330B088C350B0830B5002572
:103BD000036A85611B6804465B788DB0002B3DD17C
:103BE000304908A8039506F02AFE236A0A221B68BA
:103BF00004A85978013106F0A2FE04A908A806F02D
:103C0000DBFE294A016803AB284802F077FA04A8D2
:103C100006F0CBFD08A806F0C8FD294603980AF077
:103C20002DFED8B11F4908A806F009FE236A0A2212
:103C30001B6804A85978013106F081FE04A908A880
:103C400006F0BAFEA3690168174A184803F09FFB03
:103C500004A806F0AAFD08A806F0A7FDA3689D68C1
:103C6000F5B1606909F0B6FF0022114B0AF00AF8BD
:103C70000022104B0AF006F800220E4B0AF002F860
:103C800000220D4B09F0FEFF0AF096FA6FF000419A
:103C900000220346CDE900122846032106F04CF924
:103CA0000DB030BD11330B0829330B0870300B08F1
:103CB0000000E03F00004E4000408F4070B5836838
:103CC000044698688EB000B3002106F075F9E0B1A3
:103CD000A568A868C8B100266FF000430221CDE9AD
:103CE00000363246334606F027F93146A86806F01A
:103CF00073F92B7903F0FF0613B106F0F5F8F8E736
:103D00003146A86806F008F9AE6000230021A069DA
:103D100023770AF0B3FD10B12046FFF757FF206A62
:103D20004FF0FF31FEF798FD0E4902A806F087FD1F
:103D30000D4906A806F083FD0C490AA806F07FFD90
:103D40000AAB06AA02A9532000F0AEFE0AA806F0AC
:103D50002CFD06A806F029FD02A806F026FD0EB0EF
:103D600070BD00BF7D340B0840330B08A0350B0835
:103D7000012130B583680177044698688FB038B167
:103D80006FF000420023CDE900231A4606F0D4F874
:103D90000023256A0C932B6943B1022205F1080127
:103DA0000AA898476B690D932B690C9305238DF82E
:103DB00018300C9B0BB909F090FB0D9B06A90AA8C3
:103DC00098470C9B1BB10AA903220846984794F90F
:103DD000043000221049114803F087FA104902A864
:103DE00006F02DFD0F4906A806F029FD0E490AA888
:103DF00006F025FD0AAB06AA02A9532000F054FEE6
:103E00000AA806F0D2FC06A806F0CFFC02A806F02D
:103E1000CCFC0FB030BD00BF2A340B0873330B0845
:103E200095330B0840330B089B330B0830B5002546
:103E3000036A85611B6804465B788DB0002B3DD119
:103E4000304908A8039506F0FAFC236A0A221B6889
:103E500004A85978013106F072FD04A908A806F0FB
:103E6000ABFD294A016803AB284802F047F904A8D2
:103E700006F09BFC08A806F098FC294603980AF077
:103E8000FDFCD8B11F4908A806F0D9FC236A0A2214
:103E90001B6804A85978013106F051FD04A908A84F
:103EA00006F08AFDA3690168174A184803F06FFA03
:103EB00004A806F07AFC08A806F077FCA3689D68C1
:103EC000F5B1606909F086FE0022114B09F0DAFEB7
:103ED0000022104B09F0D6FE00220E4B09F0D2FE54
:103EE00000220D4B09F0CEFE0AF066F96FF000419A
:103EF00000220346CDE900122846032106F01CF8F3
:103F00000DB030BD11330B0829330B0870300B088E
:103F10000000E03F00004E4000408F4070B58368D5
:103F2000044698688EB000B3002106F045F8E0B171
:103F3000A568A868C8B100266FF000430221CDE94A
:103F400000363246334605F0F7FF3146A86806F0E2
:103F500043F82B7903F0FF0613B105F0C5FFF8E72E
:103F60003146A86805F0D8FFAE6000230021A069A3
:103F700023770AF083FC10B12046FFF757FF206A31
:103F80004FF0FF31FEF768FC0E4902A806F057FC1F
:103F90000D4906A806F053FC0C490AA806F04FFC90
:103FA0000AAB06AA02A9532000F07EFD0AA806F07B
:103FB000FCFB06A806F0F9FB02A806F0F6FB0EB023
:103FC00070BD00BFC4350B0840330B08CA350B0861
:103FD000012130B583680177044698688FB038B105
:103FE0006FF000420023CDE900231A4605F0A4FF3C
:103FF0000023256A0C932B6943B1022205F10801C5
:104000000AA898476B690D932B690C9320238DF8B0
:1040100018300C9B0BB909F060FA0D9B06A90AA891
:1040200098470C9B1BB10AA903220846984794F9AC
:10403000043000221049114803F057F9104902A832
:1040400006F0FDFB0F4906A806F0F9FB0E490AA889
:1040500006F0F5FB0AAB06AA02A9532000F024FDE6
:104060000AA806F0A2FB06A806F09FFB02A806F02D
:104070009CFB0FB030BD00BF2A340B0873330B0814
:104080000F340B0840330B08E8350B0830B500251A
:10409000036A85611B6804465B788DB0002B3DD1B7
:1040A000304908A8039506F0CAFB236A0A221B6858
:1040B00004A85978013106F042FC04A908A806F0CA
:1040C0007BFC294A016803AB284802F017F804A8D2
:1040D00006F06BFB08A806F068FB294603980AF077
:1040E000CDFBD8B11F4908A806F0A9FB236A0A2214
:1040F0001B6804A85978013106F021FC04A908A81E
:1041000006F05AFCA3690168174A184803F03FF902
:1041100004A806F04AFB08A806F047FBA3689D68C0
:10412000F5B1606909F056FD0022114B09F0AAFDB6
:104130000022104B09F0A6FD00220E4B09F0A2FD53
:1041400000220D4B09F09EFD0AF036F86FF0004199
:1041500000220346CDE900122846032105F0ECFEBB
:104160000DB030BD11330B0829330B0870300B082C
:104170000000E03F00004E4000408F4070B5836873
:10418000044698688EB000B3002105F015FFE0B139
:10419000A568A868C8B100266FF000430221CDE9E8
:1041A00000363246334605F0C7FE3146A86805F0B2
:1041B00013FF2B7903F0FF0613B105F095FEF8E726
:1041C0003146A86805F0A8FEAE6000230021A06972
:1041D00023770AF053FB10B12046FFF757FF206A00
:1041E0004FF0FF31FEF738FB0E4902A806F027FB1F
:1041F0000D4906A806F023FB0C490AA806F01FFB90
:104200000AAB06AA02A9532000F04EFC0AA806F049
:10421000CCFA06A806F0C9FA02A806F0C6FA0EB053
:1042200070BD00BFFC350B0840330B0803360B088C
:10423000012130B583680177044698688FB038B1A2
:104240006FF000420023CDE900231A4605F074FE0A
:104250000023256A0C932B6943B1022205F1080162
:104260000AA898476B690D932B690C9304238DF86A
:1042700018300C9B0BB909F030F90D9B06A90AA860
:1042800098470C9B1BB10AA903220846984794F94A
:10429000043000221049114803F027F8104902A801
:1042A00006F0CDFA0F4906A806F0C9FA0E490AA889
:1042B00006F0C5FA0AAB06AA02A9532000F0F4FBE7
:1042C0000AA806F072FA06A806F06FFA02A806F02D
:1042D0006CFA0FB030BD00BF2A340B0873330B08E3
:1042E0007F330B0840330B0885330B0830B50025AE
:1042F000036A85611B6804465B788DB0002B3DD155
:10430000304908A8039506F09AFA236A0A221B6826
:1043100004A85978013106F012FB04A908A806F098
:104320004BFB294A016803AB284801F0E7FE04A8CB
:1043300006F03BFA08A806F038FA294603980AF076
:104340009DFAD8B11F4908A806F079FA236A0A2213
:104350001B6804A85978013106F0F1FA04A908A8ED
:1043600006F02AFBA3690168174A184803F00FF802
:1043700004A806F01AFA08A806F017FAA3689D68C0
:10438000F5B1606909F026FC0022114B09F07AFCB6
:104390000022104B09F076FC00220E4B09F072FC53
:1043A00000220D4B09F06EFC09F006FF6FF0004192
:1043B00000220346CDE900122846032105F0BCFD8A
:1043C0000DB030BD11330B0829330B0870300B08CA
:1043D0000000E03F00004E4000408F4070B5836811
:1043E000044698688EB000B3002105F0E5FDE0B109
:1043F000A568A868C8B100266FF000430221CDE986
:1044000000363246334605F097FD3146A86805F080
:10441000E3FD2B7903F0FF0613B105F065FDF8E726
:104420003146A86805F078FDAE6000230021A06940
:1044300023770AF023FA10B12046FFF757FF206ACE
:104440004FF0FF31FEF708FA0E4902A806F0F7F91F
:104450000D4906A806F0F3F90C490AA806F0EFF991
:104460000AAB06AA02A9532000F01EFB0AA806F018
:104470009CF906A806F099F902A806F096F90EB084
:1044800070BD00BF28360B0840330B082E360B08D2
:1044900030B50025036A85611B6804465B788DB0E2
:1044A000002B3DD1304908A8039506F0C8F9236ACE
:1044B0000A221B6804A85978013106F040FA04A9C1
:1044C00008A806F079FA294A016803AB284801F0E8
:1044D00015FE04A806F069F908A806F066F9294651
:1044E00003980AF0CBF9D8B11F4908A806F0A7F93C
:1044F000236A0A221B6804A85978013106F01FFAC2
:1045000004A908A806F058FAA3690168174A1848D0
:1045100002F03DFF04A806F048F908A806F045F9A6
:10452000A3689D68F5B1606909F054FB0022114B46
:1045300009F0A8FB0022104B09F0A4FB00220E4B4F
:1045400009F0A0FB00220D4B09F09CFB09F034FEA2
:104550006FF0004100220346CDE9001228460321F6
:1045600005F0EAFC0DB030BD11330B0829330B0800
:1045700070300B080000E03F00004E4000408F40CC
:10458000012110B583680177044698688EB038B170
:104590006FF000420023CDE900231A4605F0CCFC61
:1045A000216A0AA80831FFF7F3F907210AA8FDF7E5
:1045B00070FD0AA8FBF726FF94F904300022104989
:1045C000104802F092FE104902A806F038F90F498F
:1045D00006A806F034F90E490AA806F030F90AAB2D
:1045E00006AA02A9532000F05FFA0AA806F0DDF837
:1045F00006A806F0DAF802A806F0D7F80EB010BD4B
:104600002A340B0873330B08AA330B0840330B080A
:10461000B1330B0870B58368044698688EB000B358
:10462000002105F0C9FCE0B1A568A868C8B1002662
:104630006FF000430221CDE900363246334605F0E3
:104640007BFC3146A86805F0C7FC2B7903F0FF0618
:1046500013B105F049FCF8E73146A86805F05CFCA9
:10466000AE6000230021A06923770AF007F910B19A
:104670002046FFF70DFF216A0AA80831FFF788F9E5
:1046800008210AA8FDF705FD0AA8FBF7BBFE206A72
:104690004FF0FF31FEF7E0F80E4902A806F0CFF820
:1046A0000D4906A806F0CBF80C490AA806F0C7F891
:1046B0000AAB06AA02A9532000F0F6F90AA806F0F0
:1046C00074F806A806F071F802A806F06EF80EB0AD
:1046D00070BD00BF50360B0840330B0857360B082F
:1046E000054A0260FF2202710022426182610022BB
:1046F00002778260704700BF80360B0838B50446E9
:1047000008461D46074B114623602071062204F11E
:104710000C000BF0AFFC049B2046A36100236561F5
:10472000237738BD80360B08012130B583680177C7
:10473000044698688FB038B16FF000420023CDE98D
:1047400000231A4605F0F8FB0023256A0C932B6919
:1047500043B1022205F108010AA898476B690D933D
:104760002B690C930B238DF818300C9B0BB908F0B8
:10477000B4FE0D9B06A90AA898470C9B1BB10AA979
:1047800003220846984794F9043000221049114842
:1047900002F0ABFD104902A806F051F80F4906A837
:1047A00006F04DF80E490AA806F049F80AAB06AA29
:1047B00002A9532000F078F90AA805F0F6FF06A830
:1047C00005F0F3FF02A805F0F0FF0FB030BD00BF09
:1047D0002A340B0873330B08C3330B0840330B0820
:1047E000CA330B0830B50025036A85611B6804468F
:1047F0005B788DB0002B3DD1304908A8039506F0B9
:104800001EF8236A0A221B6804A85978013106F0B1
:1048100096F804A908A806F0CFF8294A016803AB66
:10482000284801F06BFC04A805F0BFFF08A805F0BC
:10483000BCFF294603980AF021F8D8B11F4908A8FF
:1048400005F0FDFF236A0A221B6804A8597801318C
:1048500006F075F804A908A806F0AEF8A369016887
:10486000174A184802F093FD04A805F09EFF08A817
:1048700005F09BFFA3689D68F5B1606909F0AAF98E
:104880000022114B09F0FEF90022104B09F0FAF951
:1048900000220E4B09F0F6F900220D4B09F0F2F957
:1048A00009F08AFC6FF0004100220346CDE90012B6
:1048B0002846032105F040FB0DB030BD11330B0835
:1048C00029330B0870300B080000E03F00004E4019
:1048D00000408F4070B58368044698688EB000B37E
:1048E000002105F069FBE0B1A568A868C8B1002601
:1048F0006FF000430221CDE900363246334605F021
:104900001BFB3146A86805F067FB2B7903F0FF0617
:1049100013B105F0E9FAF8E73146A86805F0FCFAAA
:10492000AE6000230021A069237709F0A7FF10B132
:104930002046FFF757FF206A4FF0FF31FDF78CFF4D
:104940000E4902A805F07BFF0D4906A805F077FF88
:104950000C490AA805F073FF0AAB06AA02A9532066
:1049600000F0A2F80AA805F020FF06A805F01DFF38
:1049700002A805F01AFF0EB070BD00BF88360B0804
:1049800040330B088F360B0810B50446024B03600A
:1049900004F002FF204610BD08370B0810B504468E
:1049A000FFF7F2FF2046382108F091FD204610BDA8
:1049B00037B59DF8185004688DF800308DF8045014
:1049C0003C23E468A04703B030BD0000014805F077
:1049D0005DB800BF00030020F0B54E288BB00E4636
:1049E00015461C46109F13D1394606A805F027FF2F
:1049F000234B069A1B7823498DF80030224B23481D
:104A00001B78FFF7D5FF06A805F0CFFE0BB0F0BD71
:104A10005328FBD11E4902A805F011FF314602A818
:104A200005F0CAFF1B4905F0D3FF294605F0C4FF76
:104A3000194905F0CDFF214605F0BEFF174905F0E5
:104A4000C7FF0446394606A805F0F9FE06A9204628
:104A500005F0B2FF124905F0BBFF094B02681B7855
:104A600010498DF80030084B08481B78FFF7A0FF6D
:104A700006A805F09AFE02A805F097FEC6E700BF5B
:104A8000FD020020C2360B08FC02002000030020BB
:104A9000C9360B08D3360B08DF360B08EB360B088C
:104AA000FA360B08B0370B0870B54E280E4615467F
:104AB0001C4686B00CD11A4B22681B7819498DF818
:104AC0000030194B19481B78FFF772FF06B070BD14
:104AD0005328FBD1164902A805F0B1FE314602A8C1
:104AE00005F06AFF134905F073FF294605F064FFDE
:104AF000114905F06DFF214605F05EFF0F4905F0F5
:104B000067FF074B02681B780D498DF80030064B94
:104B100006481B78FFF74CFF02A805F046FED5E7D4
:104B2000FD020020C2360B08FC020020000300201A
:104B3000C9360B08D3360B08EB360B08FA360B08D0
:104B4000B0370B08014804F059BE00BF0003002035
:104B500001220B4B10B51A7008220A4C0A4B204652
:104B60001A700A494FF4006204F014FF084B204603
:104B70002360084A0849BDE8104008F0A3BC00BF04
:104B8000FC02002000030020FD0200200040024043
:104B900008370B085002002089490A081FB5002376
:104BA000019303930C23ADF80430044B04220293C9
:104BB00001AB05F07FFC05B05DF804FBD1000A08ED
:104BC000022A38B5044607D0032A11D0012A01D1A0
:104BD0000B682360002038BD0C200D68FBF75DFAE0
:104BE00003460028F5D095E8070083E80700F0E7C2
:104BF00000680028EED00C2108F069FCEAE710B448
:104C000003685A689968541001EB6200D20748BFE4
:104C10000A591B6810BC48BFD358184710B5342236
:104C20000446002104300AF0A9F938232046236005
:104C300010BD002340681A46194605F0E3BB002367
:104C400040681A46194605F0E5BB00224068114647
:104C500005F0F0BB002340681A46194605F002BC77
:104C600007B58068002340B1CDE900131A46012141
:104C700005F062F9B0FA80F0400903B05DF804FB7A
:104C800007B58068002338B1CDE90013022105F093
:104C900053F9B0FA80F0400903B05DF804FB00005E
:104CA00010B5002204466FF000418069FFF7E8FF6D
:104CB0000248FFF7BEFF0023637710BD40040020C9
:104CC000F0B589B00446FBF7F9FF2060FDF722F844
:104CD0006060FCF7E5FAA060FDF79AF9E060FBF789
:104CE0009FFE2061FDF7D0FA00262549606104F19E
:104CF000200005F0A4FD224904F1300005F09FFDDD
:104D00001C20A683A677FBF7C8F90546002832D0F9
:104D10000C200696FBF7C1F918B11A4B8460C0E964
:104D20000036194B04902B60002304AE02AF96E8C6
:104D3000030087E803002B71AB6005F10C0292E8D9
:104D4000030086E8030097E8030082E803000F4AA7
:104D500006936A61AA690E4907920E4A05F1080096
:104D6000AA61019301230C4A00932B4605F0CCF86D
:104D70003046FBF747FB2046A56109B0F0BD00BFF8
:104D8000EE370B08A14C0A0800350B08C14B0A0886
:104D9000C0D40100FF4B0A0871210A0838B5064C3F
:104DA00023683BB94020FBF778F9054608B1FFF7C7
:104DB00087FF2560206838BD3C03002030B5002403
:104DC000CBB004AB18193834FFF728FFB4F58C7F4B
:104DD000F7D105220E4804A907F072FFC5B2012DD4
:104DE00002D000204BB030BD05A9684605F027FD74
:104DF0006846084905F022FE0446684605F0D5FCE1
:104E000024B10348FFF726FF2846EBE72046E9E7F1
:104E10004004002028370B0810B5044600F120019B
:104E20000448FFF7BBFE04F130010348BDE8104021
:104E3000FFF7B4BE35370B083A370B082DE9FF47AB
:104E400000223A4E04461146706805F0FBFA3746D8
:104E50000546002863D005F045FB002005F00CF85E
:104E60004FF0000A0646002005F006F800234EF633
:104E70005F22B0EB060861EB0A094B4508BF4245CB
:104E800005D305F037FB10B905F024FBEBE705F07F
:104E900031FB064648B300226FF00041A069FFF7DE
:104EA000EFFE00227868114605F084FA00F15D01FA
:104EB000684605F0C4FC694604F1200005F014FDC5
:104EC000684605F072FCFFF73DFE237F4BB10023DF
:104ED00060694FF0FF312377FDF7BEFC6069FDF795
:104EE0007BFD2068FBF74CFF08E0237F53B10246AF
:104EF00001462077786805F095FA3546284604B0D3
:104F0000BDE8F0870948FFF7A0FE10B90748FFF792
:104F100096FE6FF00041A069FFF7A2FEE1E70246AE
:104F20000146706805F07EFAE8E700BF4004002003
:104F300010B504460B48FFF788FE50B1237F43B9F4
:104F400001232068237703681821BDE810401B68FF
:104F500018470448FFF779FE10B9237F03B1607743
:104F600010BD00BF4004002030B5437F044685B02B
:104F7000A3B9FFF723FF054680B9012320466377D5
:104F8000FFF75CFF00B323691A783AB14FF47A70E7
:104F90001D7007F001F86069FDF71EFDA37F83B166
:104FA000002301A8A377CDE901338DF80C3007F079
:104FB00049F90648FFF743FE6FF00041A069FFF78B
:104FC0004FFE2046FFF7B4FF05B030BD400400207F
:104FD00010B504468CB01148FFF73CFEE0B1002349
:104FE0000F496377684605F02AFC0E4904A805F0CE
:104FF00026FC0D4908A805F022FC694608AB04AA66
:105000005320FFF751FD08A805F0CFFB04A805F0D9
:10501000CCFB684605F0C9FB0CB010BD4004002075
:1050200048370B084E370B085C370B08F8B50446B9
:105030000D460027A368FEB29E421BD23146204691
:1050400005F017FD7E283146204604D005F011FDFD
:10505000A8550137EEE705F00CFD7E28F9D10021B7
:10506000721C204605F042FD0146204605F022FC58
:105070000023AB550023A168DFB28F4203F1010684
:1050800007D23946204605F0F4FC2F4433467876A3
:10509000F1E700230D446B76F8BD00002DE9F043E5
:1050A00005460E460024EFB028AB18193834FFF738
:1050B000B5FDB4F58C7FF7D131460DF1200815A868
:1050C00005F007FC2F4E414615A8FFF7AFFF15A8C6
:1050D00005F06BFB3046FFF7ACFD40460AF0B0FF31
:1050E0000DF13909074648460AF0AAFF382204465E
:1050F00000211AA809F042FF4C23CDE915380323FB
:10510000ADF8683000237068194615AA1994CDE9E6
:10511000177905F09FF9044668BB1B49684605F0FE
:105120008EFB1A4904A805F08AFB194915A805F059
:1051300086FB694615AB04AA5320FFF7B5FC15A8FA
:1051400005F033FB04A805F030FB684605F02DFBA5
:1051500015A8CDE915448DF85C4007F073F840F2CE
:10516000DC5006F019FF05F0C5F9044618B93046C1
:10517000FFF765FD6C77142006F00EFF6FB0BDE8F9
:10518000F08300BF400400207D370B084E370B082A
:1051900083370B082DE9F0470025D8B012AC281949
:1051A0003835FFF73BFDB5F58C7FF8D10522214658
:1051B0002E4807F085FD2E49C7B202A805F03FFB37
:1051C0000025DFF8B8A0DFF8B890EBB2BB4204F1DD
:1051D000380828D201350A22294606A805F0AFFB77
:1051E00006A90AA805F075FB51460AA805F0F0FBD0
:1051F0000646211D0EA805F022FB0EA9304605F03B
:10520000DBFB494605F0E4FB014602A805F0C1FBC3
:105210000EA805F0CAFA0AA805F0C7FA06A805F014
:10522000C4FA4446D1E7134B029A1B7812498DF811
:1052300000300EA83C2307F0F9F80F9C7CB163689E
:10524000013B63605BB9236820469B689847A3686D
:10525000013BA3601BB923682046DB68984702A87E
:1052600005F0A3FA58B0BDE8F08700BF4004002065
:10527000EE370B0838030020A7370B08A4370B08BC
:10528000A5370B081FB50446684600F015FA6946B5
:1052900004F1300005F028FB684605F086FA04B0FA
:1052A00010BD00000022014B1A7070473803002027
:1052B00004F0B2BD10B5044601464FF461720220FD
:1052C00004F0C2FD204610BD10B5044601464FF45F
:1052D0006172022004F0B0FD204610BD28B1037AAF
:1052E00003F0800311B903720120704743F00403F7
:1052F00003720160F8E70346C06810B1182202FB90
:105300000030704770B505460E46046824B120464B
:10531000FFF7F1FF86420CD13046FFF7ECFF64B196
:1053200048B1031BDA10064B5343E36000B96C60CD
:1053300070BD0446EAE70346F7E72860F6E700BFDA
:10534000ABAAAAAA884203D020B131B10AF0E8B8CA
:10535000002070474FF0FF3070470120704738B58C
:105360000D46044640B101692846FFF7EBFF18B12E
:105370002046FFF7C0FFF4E7204638BD50B1037A5E
:10538000CAB223F07F0343F0060303720023C0E98F
:1053900000230120704730B514461D4640B1037A02
:1053A000C0E9004523F07F0343F00C0303720120A2
:1053B00030BD000030B50346D1E901021830824209
:1053C00003D2012300200B7430BDA2F118008860C5
:1053D000596869B1441AE510064C6C43CC605860BA
:1053E000002342F80C3C02F8103C42F8083CEBE782
:1053F0001860F4E7ABAAAAAA2DE9F04F0378044697
:105400002B2B8B4685B037D02D2B36D1012501347F
:105410002378A3F13002092A02D92E2B40F01481FF
:10542000002000214FF099394FF00A08DFF828A238
:10543000A6461EF8013BA3F1300C5FFA8CFCBCF1D0
:10544000090F1CD88A4508BF814519D34FF0FF3793
:105450006FEA0C0608FB01F3A0FB080119448F4218
:1054600008BF86424FF000035FFA8CF208D3801821
:10547000744643EB0101DBE701340025C8E77BB14B
:10548000002300264FF48017B94208BFB04203F151
:1054900001081CD300230A2209F040FA4346F3E72F
:1054A0009BF8083003F080034DB1CBE9000143F0D5
:1054B0000A038BF80830284605B0BDE8F08FCBE929
:1054C000000143F008038BF808300125F3E71A1BAD
:1054D00002EB040C234614F8016B0FFA8CFCA6F1C6
:1054E0003007092FF4D92E2E1DD1A6464FF099363C
:1054F0004FF00A08554F73461C780EF1010E303CF0
:10550000E4B2092C0FD8B94208BFB042F3D2A0FBD5
:10551000082308FB013310190CF1FF3443F100019B
:105520000FFA84FCE7E71A7802F0DF02452A70D10F
:105530005A782D2A24D101269A1C00244FF00A0EF5
:10554000134612F8017B303F5FFA87F8B8F1090F74
:105550002DD80EFB047404EB0C03B3F59A7FEFDD3A
:1055600000209BF80830AEB18DB9002123F07F03F5
:1055700043F00C033546CBE900018BF808309AE77D
:105580002B2A4FF0000614BF5A1C9A1CD5E74FF087
:105590000041EBE74DB92E4923F07F0343F00C03A4
:1055A000CBE900018BF808308FE72A49F4E706B110
:1055B00064421F78002F47D1644408F02DFB002C73
:1055C000064628DDDFF894A0E2070ED5FBB25B00AB
:1055D0005A1C5AF822205AF8233000920193304680
:1055E000DDE9002308F04EFB0646641007F10107D1
:1055F000EAD10DB101F100419BF80830324623F0A9
:105600007F0343F00C038BF808300B46CBE90023F3
:105610005BE70024CDE7DFF848A06442002CE8D027
:10562000E3070ED5FBB25B005A1C5AF822205AF849
:105630002330029203933046DDE9022308F022FB77
:10564000064664100137E9E7002534E7999901001F
:105650000000F07F0000F0FF99999919C4380B08F9
:105660007C380B0838B500252C4607F0BDFE2846CF
:10567000FFF71EFEFF2818BF013405F1010518BF12
:10568000A4B2B5F5006FF0D1204638BD38B5046836
:1056900005467CB16368013B63605BB923682046C3
:1056A0009B689847A368013BA3601BB92368204609
:1056B000DB689847284638BD30B5ADF56B7D0446AC
:1056C00007F092FE0120FFF7F3FDFF28174D13D1DD
:1056D0002B781749174A8DF8003009A83C2306F0AB
:1056E000A5FE0AA8FFF7D2FF1349204605F0A7F848
:1056F00020460DF56B7D30BD07F076FE09A8FFF75B
:10570000E3FD09A905A805F09AF82B780849059A40
:105710008DF8003003A83C2306F088FE04A8FFF7AC
:10572000B5FF05A805F041F809A9DEE74003002010
:10573000A7370B08B8370B08D9370B08033138B532
:1057400021F003050446284604F0FCFE70B1054430
:105750000023237694F82830C4E9020023F07F0365
:105760002046C4E9045584F8283038BD0546EFE7E3
:1057700008B570B1037A03F07F030C2B08D8DFE87B
:1057800003F01907070707070907090709071000AA
:10579000012008BDD0E90023134314BF01200020DD
:1057A000F7E7002203C8002308F0D4FCB0FA80F029
:1057B0004009EEE70020ECE7806808B104F0CABEBB
:1057C0007047F8B5054608680F46E0B1D5E90034E2
:1057D0009C420ED91A4600F1FF3C92F800E01CF8FA
:1057E000016F1146764502F101020FD1002EF4D16E
:1057F000EBB90AF025FCAA68431C234493420646F1
:105800000AD901232B7400242046F8BD11F8013B6E
:10581000002BFBD10B46DBE76B60002CF4D002467B
:105820003968204609F082FB0023A355ECE71C46AB
:10583000EAE750B1037ACAB223F07F0343F00803CA
:1058400003720023C0E900230120704730B568B11E
:10585000037A4CB200294FEAE47503F0800306DBBB
:1058600043F008030372C0E90045012030BD43F056
:105870000A036442037265EB4505F4E713B5044679
:1058800080B1019129B9037A23F07F0303720120CB
:1058900008E0104601A9FFF794FF237A23F07F0365
:1058A00010B9237202B010BD43F0050323722060CB
:1058B000EDE770B5037A164613F07F0202BF23F0BE
:1058C0007F0343F020030372037A044608BFC0E954
:1058D000002213F020000D460FD0084669B1206861
:1058E000FFF73DFD48B931462046FFF763FD20B183
:1058F000037A056103F07F03037270BD037A0246E9
:1059000013F0200002D01068FFF729BD704708B5DA
:10591000034610B1FFF7CDFF0346184608BD437C90
:1059200033B9C3685A1CC2601B78037401234374E3
:10593000007C7047F8B50446012600250D4F20462F
:10594000FFF7EDFF50B1A0F10903DBB2172B0DD823
:1059500006FA03F33B4209D06574F0E7237A002B83
:1059600014BF0223012384F85830F8BD01202072AF
:10597000FBE700BF1300800030B5037A85B003F069
:105980007F03043B082B33D8DFE803F00E0E05320B
:10599000053232321A0003C8002908BFB0F5807FF3
:1059A00000D30020C0B209E00023694600688DF8EA
:1059B0000830FFF721FD6846FFF7DEFF05B030BD78
:1059C000D0E90045002200232046294608F0E0FBEC
:1059D0000028F3D008A3D3E900232046294608F085
:1059E000CDFB0028EAD02046294608F00DFCD9E777
:1059F0000020E3E7AFF300800000000000E06F400C
:105A000030B5037A85B003F07F03043B082B39D807
:105A1000DFE803F01515053805380E38200003C8F7
:105A2000002908BF802800D3002040B205B030BD57
:105A300003C8002908BF812824D24042F5E700238B
:105A4000694600688DF80830FFF7D6FC6846FFF716
:105A5000D7FFEBE7D0E900450022204629460C4B52
:105A600008F096FB0028E1D007A3D3E900232046E5
:105A7000294608F083FB0028D8D02046294608F0A4
:105A80009BFBD2E70020D1E70000000000C05F4090
:105A9000000060C01FB5037A03F07F03043B082BAE
:105AA00021D8DFE803F01111052005200B201C0090
:105AB00003C808F0E1FC05B05DF804FB03C808F07A
:105AC000DBFC00F10040F6E70023694600688DF832
:105AD0000830FFF791FC6846FFF7DCFFEBE703C8EF
