:02000004080AE8
:1000000000000A08B49B0B08000006000800050168
:080010000402BD0B000000001A
:04001800DC6C0B0889
:1000200009480A4908B5884205D0094A824202D0E7
:10003000121A12F023FE0748074A0021121A12F082
:1000400045FE064808BD00BF000000203C990B0893
:100050004C020020500200208D1100208D11002044
:1000600070B50FF011FD0025054E064CA41BA40829
:10007000A54200D170BD56F8043B98470135F7E71B
:10008000FC980B0830990B0804F0AABE08B504F0E0
:1000900029FEBDE808400FF0B9BC0DF031BF0DF0EE
:1000A0002FBF0DF035BF0DF033BF000000210C2035
:1000B00008B5024A0DF09AFDFEE700BF85D70A0891
:1000C0000078B0FA80F04009704701230370704750
:1000D0002DE9F0430E68002301274FF0030E07FAC5
:1000E00003F202EA060C944531D15D000EFA05F2E6
:1000F000D2430468144004600C79D0F8008004FAFC
:1001000005F9013C49EA0808012CC0F8008016D81E
:10011000846891F8058014408460846808FA05F8C2
:1001200048EA04048460446824EA0C0444608C793E
:10013000D0F804C09C40A4B244EA0C044460C468F3
:100140002240C260CA79C468AA402243C260013317
:10015000102BC4D1BDE8F083018370474183704701
:1001600001F00703C90800EB810010B59B00046A89
:100170000F21994024EA01010162016A9A4011436A
:10018000016210BD044B1A6B09B1104301E022EA71
:1001900000001863704700BF00380240044B1A6C1F
:1001A00009B1104301E022EA00001864704700BF63
:1001B0000038024003884A8810B503F441540B8884
:1001C00013438A881343CA8813430A8913434A890D
:1001D00013438A891343CA89134323439BB2038081
:1001E000838B23F400631B041B0C83830B8A038221
:1001F00010BD038819B19BB243F0400303E023F024
:1002000040031B041B0C03807047808980B2704739
:10021000818170470389194214BF01200020704773
:100220002DE9F04190B004AC0F461E46C169036948
:1002300001942D2401FB07330094162105469046B6
:1002400004F058FA041E04DA6C64204610B0BDE8CD
:10025000F081D5E906C4BCFBF4F2B7FBF2F1B4EBD4
:10026000420F4FEA420302FB117094BFB3FBF4F359
:1002700001230DF10E0201920222D5F810E0C31AFB
:100280000CFB01E1009201EB430342461421284696
:1002900004F030FA041ED7DBBDF80E307781C3F3CB
:1002A0000E0333809DF81C300DF11D013372069B47
:1002B00006F10C005A1C08BF00232022736013F0C3
:1002C000B5FDC2E72DE9F04184681D46631C074671
:1002D0000E4690461BD0944219D9A41AAC42A8BF2E
:1002E0002C460A462346414602F042FA00280CDB1F
:1002F0002B1B2644A044002B06DD324641463846DF
:1003000001F0A8FE002800DB2846BDE8F0812B465E
:10031000F1E773B501AA054603F0F2FA041E03DA09
:100320006C64204602B070BD019EB38B9B06F8D46E
:10033000336A23B93146284604F0B0FA3062019896
:10034000026A002AEDD0E969EC6D01F114035178DD
:10035000246959431431138A2144D268FFF7B2FF4C
:10036000019B041EB8BF6C642846196A04F0C8FAE1
:10037000D7E7000070B5144BC26F05469A4202D011
:100380001248686470BD90F8744024B1104B436407
:100390004FF0FF30F6E70DF0F7F826462A6AA1B2D3
:1003A000914203D30DF0F6F80020EBE72846A5F8BC
:1003B000566001F041F801340028EFD0054C6C6420
:1003C0000DF0E8F82046DDE715030920D8D8FFFF37
:1003D000D6D8FFFFD5D8FFFF2DE9F04F04460E46D3
:1003E00087B0129FDDE91089CDE903871D460369B7
:1003F0005A49029343699246019383690093C36902
:10040000C26857480DF0A4F80DF0BEF88022002114
:100410002046D4F878B012F059FC3146234606F154
:10042000200251F8040B914243F8040BF9D1A26960
:10043000E3680021B3FBF2F3E269284652442362E9
:100440006263C4F878B04246C4F838A012F03EFCAB
:10045000302215F003031CBFC3F10403A8EB03080B
:10046000B8FBF2F218BFED1819F003031EBFC3F179
:100470000403FF1A9944BB07E36918BF27F0030779
:100480005B01BB4294BF2366276620462264E56376
:10049000C4F85C9004F04EFAD4E90632B3FBF2F3F0
:1004A000B2EB430F4FEA430194BFB1FBF2F10121DC
:1004B00050085B1AB3FBF0F100FB1133043AB2EBC6
:1004C000430F0DD3274B2046E36701F027F8051EA5
:1004D00008DA65640DF05EF8284607B0BDE8F08FD5
:1004E000214DF6E7E16921480DF016F8D4E906320E
:1004F000B3FBF2F3B2EB430F4FEA430194BFB1FBFE
:10050000F2F101211A480DF007F8D4E90613194851
:10051000B1FBF3F10DF000F8052117480CF0FCFFDA
:10052000E16916482D3949080CF0F6FFE1691448D5
:10053000083949080CF0F0FF216C12480CF0ECFF70
:10054000A16C11480CF0E8FF139B0025E366012322
:1005500084F874300DF01EF8BEE700BF906E0B08F3
:10056000006D0B0815030920D4D8FFFF496D0B0857
:100570006A6D0B088B6D0B08AC6D0B08CD6D0B080D
:10058000EE6D0B080F6E0B08306E0B082DE9F04373
:100590000546884616461F464448134685B00A4617
:1005A00043490CF0D5FFEA6F424B9A4204D04248CF
:1005B000686405B0BDE8F08395F874300BB93F4826
:1005C000F6E7404613F018FC1F2801D93C48EFE736
:1005D0000CF0DAFF4246284603A903F001F9041E95
:1005E00004DA6C640CF0D6FF20B2E2E70DF10809E2
:1005F0004A464146284602F091FB7207044637D42A
:10060000002824DA039B2846B3F9041003F05CF9B0
:10061000E7E7002CF6DB33462846039ABDF80810BE
:10062000009701F0A5FC041EECDBB30706D5002201
:100630000398114602F0AEFB041EE3DB0022039B8D
:100640009A610CF0A7FF039BB3F90400B1E7E2D174
:1006500006F04403442BDED1039B1A4CB3F904107B
:10066000284603F031F96C640CF094FF2046A0E7B3
:100670000028EDD0144B9C42CBD1002228460DF12E
:100680000A0102F0AFFF041EBCDB012342460093C7
:1006900028460023BDF80A10CDF8049001F026FB8F
:1006A000041EAFDB26F00206B6B2B4E7516E0B08AB
:1006B0009D6E0B0815030920D8D8FFFFF0D8FFFF67
:1006C000CCD8FFFFD2D8FFFFEED8FFFF2DE9F341D2
:1006D00005460E46904638480A4638491C460CF0F6
:1006E00037FFEA6F364B9A4205D0364C6C64204691
:1006F00002B0BDE8F08195F874300BB9324CF5E7E3
:100700000CF042FF3146284601AA03F0F9F8071E13
:1007100008DA6F640CF03EFF3C462C4B9C4208BF4D
:100720000024E4E7019B9A8B120704D4284C6C64E4
:100730000CF030FFDBE79B68013307D1002C05DDAF
:10074000224B00246B640CF025FFD0E7314628468D
:10075000FFF7DFFD0198816983680A199A4219D36E
:100760005C1A002CECDD4346224602F017FE174BC4
:100770000646984208D1019A26469369234493611C
:100780000CF008FF3446B2E700280EDA68640CF07B
:1007900001FFF7E74346224602F000FE061E04DA98
:1007A0006E640CF0F7FE3446B7E7019A9369234470
:1007B00093610CF0EFFEB0E75F6E0B08A96E0B08BB
:1007C00015030920D8D8FFFFF0D8FFFFEDD8FFFFB1
:1007D000DAD8FFFF2DE9F34105460C469046614803
:1007E0000A4661491F460CF0B3FEEA6F5F4B9A421E
:1007F00005D05F4C6C64204602B0BDE8F08195F8EE
:1008000074300BB95B4CF5E70CF0BEFE2146284670
:1008100001AA03F075F8041E03DA6C640CF0BAFE4A
:10082000E9E7019CA38BDA0601D4534CF5E7DB071B
:1008300004D5A3685E1C08BF0023A361236AA669D0
:1008400023B92146284604F029F820620198818BBB
:10085000CC070BD58668721C026A08BF00262AB135
:10086000138AD26813449E4238BF1E468B0674D446
:10087000E969026AB9425BDDFAB1D2F80CC0138AA9
:10088000B44508D803EB0C04B44204D3BC1901EB03
:100890000C0E74451ED9527814315143EC6D14314D
:1008A000246962462144FFF70DFD0446019B28465A
:1008B000196A04F025F8002CAFDB019C284621467C
:1008C00004F00FF8019B20621A6A1AB1D660002268
:1008D0001B6A1A820198026AEAB1D3685078F61A44
:1008E000EB69E96D143300FB0363086914333A467E
:1008F0004146184412F0C2F9019B3E441A6A3C4634
:10090000118A8E4238BF0E4616829A693A449A611D
:100910000CF040FE6FE73B4632464146FFF7D2FC03
:10092000041EFFF67AAF019A93693B44936175E721
:100930009AB1547814316143EB6D14311C69138AF8
:100940002144D268FFF7BEFC0446019B2846196A81
:1009500003F0D6FF002CFFF660AF3B46324641461F
:100960000198DBE75F6E0B08B56E0B0815030920D5
:10097000D8D8FFFFF0D8FFFFDBD8FFFF2DE9F0410B
:100980001E4688B0424B032E08AC054688461746E3
:100990000FCB04E90F003346A8BF032304EB830306
:1009A00053F8103C424600933A493B463A480CF013
:1009B000CFFDEA6F394B9A4205D0394C6C64204622
:1009C00008B0BDE8F08195F874300BB9354CF5E707
:1009D0000CF0DAFD4146284603AA02F091FF041EFE
:1009E00003DA6C640CF0D6FDE9E741462846FFF7D0
:1009F00090FC03998A68531C08BF0022012E05D081
:100A0000022E06D0002F06DA274CEAE78B691F4436
:100A1000F8E71744F6E7974202DD244C8A61E0E7E5
:100A2000002F32D07E1EEB695A1FB6FBF2F6A3F1FF
:100A30002D02B6B2B6EB520F28BF083B4FEA520068
:100A400023BF361A5B08B6FBF3F6002628BF013633
:100A50000B8A28BFB6B2B34211D0C9880DF10A0380
:100A6000009332460023284641F4004100F05EFE28
:100A7000041EB6DB039BBDF80A201E82DA81039BAD
:100A80003C469F610CF086FD99E73E46CBE700BFF0
:100A9000806E0B08C26E0B08696E0B0815030920E7
:100AA000D8D8FFFFF0D8FFFFC8D8FFFFEDD8FFFF71
:100AB00073B505460C4616461A480A461A490CF004
:100AC00047FDEA6F194B9A4204D0194C6C642046DA
:100AD00002B070BD95F874300BB9164CF6E70CF007
:100AE00053FD2146284601AA02F00AFF041E03DA3C
:100AF0006C640CF04FFDEAE7019B9A8BD20601D49F
:100B00000D4CF5E7196A284603F0FAFE002231463B
:100B1000019802F03FF9041EEADB0CF03BFD0024D3
:100B2000D5E700BF766E0B08CF6E0B0815030920C2
:100B3000D8D8FFFFF0D8FFFFDBD8FFFFF7B5054699
:100B40000E46174616480A4616490CF001FDEA6F94
:100B5000154B9A4204D0154C6C64204603B0F0BD8E
:100B600095F874300BB9124CF6E70CF00DFD3146D8
:100B7000284601AA02F0C4FE041E03DA6C640CF0DD
:100B800009FDEAE731462846FFF7C3FB01993B46DA
:100B9000324628468989FFF743FB0446EFE700BF4A
:100BA000766E0B08E06E0B0815030920D8D8FFFFFE
:100BB000F0D8FFFF38B505460A460C460E480F49E7
:100BC0000CF0C6FCEA6F0E4B9A4203D00D4C6C64DD
:100BD000204638BD95F874300BB90B4CF7E70CF094
:100BE000D3FC21462846FFF794FB041EB8BF6C6473
:100BF0000CF0D0FCECE700BF766E0B08ED6E0B0836
:100C000015030920D8D8FFFFF0D8FFFF70B50546BF
:100C10000A460E46114812490CF09AFCEA6F114B35
:100C20009A4203D0104C6C64204670BD95F8743025
:100C30000BB90E4CF7E70CF0A7FC31462846FFF73E
:100C400068FB041E01DA6C6405E03146284602F0B8
:100C50003BFE041EF7DB0CF09DFCE5E7766E0B080F
:100C6000FB6E0B0815030920D8D8FFFFF0D8FFFF53
:100C700073B505460A460E46134814490CF068FC45
:100C8000EA6F134B9A4204D0124C6C64204602B0B7
:100C900070BD95F874300BB90F4CF6E70CF074FC8E
:100CA0003146284601AA02F02BFE041E03DA6C64CA
:100CB0000CF070FCEAE731462846FFF72AFB041ED9
:100CC000F5DB019B9C69F3E7766E0B08086F0B0858
:100CD00015030920D8D8FFFFF0D8FFFFF0B50D4667
:100CE000D0E90617B1FBF7F1B7EB410F4FEA41042A
:100CF00094BFB4FBF7F4012401FB02F292B285B079
:100D000098BFA4B21A44144402AA036901920522AE
:100D1000A4B200920021152207FB04330A9E03F0BF
:100D2000E9FC00281ADBBDF80830AB4218D10B9B58
:100D3000BDF80A201B88934212D19DF80C2002F0C6
:100D4000830180290CD1290402D5520600D43BB17D
:100D500046B133880448A34218BF002005B0F0BD57
:100D60000148FBE73046F9E7AAD8FFFFF0B51E4679
:100D70004FF6FF739A420D4685B039D0D0E906434D
:100D8000B4FBF3F4B2FBF4F76100B3EB440F94BF90
:100D9000B1FBF3F1012104FB17278F422AD3C1686D
:100DA000B1FBF3F18A4227D802AC01690194052412
:100DB00003FB021300941621B5F9042003F09AFCFA
:100DC000002813DB9DF80C30DC0717D4190617D563
:100DD0009A0717D45B0717D4B5F90630002B13DA3E
:100DE000BDF80A20094BB24218BF184605B0F0BD45
:100DF0000748FBE70748F9E70748F7E70748F5E73B
:100E00000748F3E70748F1E70748EFE7E3D8FFFFB4
:100E1000DED8FFFFDDD8FFFFDCD8FFFFE4D8FFFFFF
:100E2000ECD8FFFFEBD8FFFFEAD8FFFF70B5D0E9A1
:100E30000656B5FBF6F56A436C00B6EB450F98BF56
:100E4000B4FBF6F492B288BF01241A4447F6FE734D
:100E500098BFA4B281F40041144499428EB0A4B268
:100E600002D911480EB070BD02AA036901922D2269
:100E70001521009206FB0433002203F03BFC0028FE
:100E8000F0DBBDF80A30002BEBD19DF80C3003F0FD
:100E9000C203C02BE5D112980DF1150112F01CFA16
:100EA0000028DFD0DDE700BFAAD8FFFFF0B5054678
:100EB0004FF6FD700C46013989B28FB08142149F04
:100EC00001D9274837E015990E88002F35D0210425
:100ED00033D5D5E90610B1FBF0FCB0EB4C0F0CFBA1
:100EE00002F14FEA4C0294BFB2FBF0F2012289B248
:100EF00098BF92B219440A4402A901912D212B698D
:100F000092B200FB0233009100221521284603F023
:100F1000F1FB00280FDBBDF80A3073B99DF80C30E7
:100F200003F0C203C02B08D138460DF1150112F0B1
:100F3000D3F910B90B480FB0F0BDC4F30E04A41BD5
:100F4000E210BED4EB699342BBD90123A96B04F034
:100F5000070403FA04F48B5C1C438C54B1E700BF14
:100F6000AAD8FFFFD9D8FFFF4FF6FF72914205D1F3
:100F700013B9836C013383640548704719B9036D55
:100F800001330365F8E7C36C0133C364F4E700BFC2
:100F9000AAD8FFFF421E00F11F0341F2055012F8CC
:100FA000011F09B19A4200D1704700EB4010484040
:100FB000F5E70000F0B51E464FF6FF739A4285B084
:100FC00035D0D0E90645B4FBF5F4B2FBF4F7630085
:100FD000B5EB440F94BFB3FBF5F3012304FB1727D4
:100FE0009F4226D3C368B3FBF5F39A4223D802ACE1
:100FF000036901940524009405FB0233B1F9002034
:10100000172103F077FB00280FDB9DF80C30DC077D
:1010100013D4190613D59A0713D45B0713D5BDF85B
:101020000A200A4BB24218BF184605B0F0BD084866
:10103000FBE70848F9E70848F7E70848F5E70848F4
:10104000F3E70848F1E70848EFE700BFE2D8FFFF01
:10105000E1D8FFFFE0D8FFFFDFD8FFFFE4D8FFFFB4
:10106000ECD8FFFFEBD8FFFFE5D8FFFF2DE9F04FED
:10107000CE6A8046006834891546A0F12D02B4EB93
:10108000520F1F464FEA520321BFA0F10802520837
:10109000A4EB030CBCFBF2FC894671892ABF0CF15E
:1010A000010C4FF0000C1FFA8CFC8B429FBFA0F18B
:1010B000080ECA1A4FEA5E0EB2FBFEF296BF01326C
:1010C000002292B2AC4587B01FD895421DD89BB282
:1010D000F5B10838C0F34F006A1E02FB00339AB224
:1010E000034613449BB201318B42A8BF0B46944286
:1010F00038BF14464FF6FF7B9BB2059307F12D0ACC
:10110000059AA3B29A421A4804D807B0BDE8F08FF6
:101110002A46E6E7ADB93AF814205A45F5D03389A6
:101120003168E31A21F81320338902927A88B9F8DA
:101130000610019272890092E21A0CF0EDF9013466
:10114000DEE7D8F80020A2F12D01B4EB510F4FEAF1
:10115000510303D263000833FA5ADEE7083AE11A72
:101160005208B1FBF2F302FB131304335B00F3E705
:10117000286F0B08F0B505460C4681F4004047F691
:10118000FE718FB08842149E3FD8D5E90670B7FB38
:10119000F0FCB0EB4C0F4FEA4C0194BFB1FBF0F107
:1011A0000121194402AB01932D23D5F810E00093DF
:1011B00007FB02E200FB012300221521284603F071
:1011C00099FA10BBBDF80A30FBB99DF80C3003F05A
:1011D0008603802B19D1B06838B10DF1150112F0DA
:1011E0007BF810B90A480FB0F0BD3388C4F30E0184
:1011F00099420AD372888A4207D3C91A7368AA6BC4
:10120000B1FBF3F1535C013353540248EBE700BFE9
:10121000D9D8FFFFAAD8FFFF2DE9F04781468A46BB
:1012200015461F4692B01A9C02AE1CB9204612B059
:10123000BDE8F087402CA04628BF4FF040083B4651
:1012400052460B214846CDE9008603F053FA0028A8
:10125000EDDB2B4652460F214846CDE9008603F0D0
:10126000D5FA0028E3DBA4EB080447444544DCE757
:101270002DE9F04F05468BB00393BDF8503014466E
:10128000D5E906720893B7FBF2F30E46B2EB430FB3
:101290004FEA430194BFB1FBF2F10121006A5B1AEE
:1012A00003FB00F10591696BA34207914FEA520BD2
:1012B00000F3B5800136B6B2B0421FD9002406FB58
:1012C00007F30293039B03F001030993059B002B93
:1012D00019DD94FBFBF9274609FB0BF30693D5E9CF
:1012E0000612B1FBF2F14B00B2EB410F94BFB3FB1E
:1012F000F2F301234B450BDC002439E0039B13F090
:10130000040400F090804A4C20460BB0BDE8F08FFA
:1013100002992B6928460B44696B09FB0233CDE91E
:1013200000210022142103F0E5F9B8460446059B8C
:101330000493069BA7EB030A049B47460593AB69FE
:101340007CB9D3450DDDE969B3FBF1F3B1EB430F94
:101350004FEA430294BFB2FBF1F201229B1A4345CC
:1013600013DC069B09F101095B440693002CB6D0FF
:101370002A6A0136B6B29642AB6948D2029A1A443A
:101380000292002CA2D0BFDBBDE7099B2BB1079BCB
:10139000089A33F81A30934231D1189B03B11E805A
:1013A000199B0BB1C3F80080159B002BACD0039B9D
:1013B00032469B0756BF079B089933F81A10179BB4
:1013C00028460193169B159F00934346B84700F5A6
:1013D0001D531733012B29D8164B98420FD1029970
:1013E0002A69EB690A44696B2846CDE9003109FB9B
:1013F00003231421002203F07DF9002816DB049B4F
:1014000008F10108013B04930AF1010A94E7039BE8
:1014100013F004077FF477AF3E460297B1E707FB6E
:1014200006F302934EE7264602944BE704466BE729
:10143000A8D8FFFFA9D8FFFF2DE9FF4104460D46BC
:1014400086690769DFF8D08006FB0177002E54DC3F
:10145000D4E90621B2FBF1F6A36C2069013302380E
:10146000B1EB460F02FB0502A36404F156004FEAFC
:10147000460394BFB3FBF1F301230190022003FB69
:101480000123009000221921204603F0BFF9002813
:1014900030DBD4E90702521B424082F4A56282F09D
:1014A0000102ADF80E20A2692169B2FBF0F6043901
:1014B000B0EB460F02FB05154FEA46030DF10E0295
:1014C00094BFB3FBF0F301230192022203FB00530C
:1014D000009219210022204603F098F9002809DB28
:1014E000B4F8563001339BB2B3F5004F08BF002368
:1014F000A4F8563004B0BDE8F08139464046626930
:101500000CF00AF83946A368204662699847636977
:101510001F44F61A9AE700BF606F0B082DE9F043ED
:101520004FF6FF760025044637464FF0020889B093
:10153000ADF818500DF11A09BDF81810236A994238
:1015400023D3AB1BB3F5004F4FF6FF73ACBF751C35
:101550000135ADB29F42A4F8565079D1002307AAB5
:10156000059206AACDE903323F4A1946CDE9003279
:10157000C4E912331A46236502932046FFF778FE2A
:101580003A4B984208BF00205FE0D4E90620B2FB46
:10159000F0FEB0EB4E0F4FEA4E0394BFB3FBF0F3F7
:1015A0000123D4F810C0CDE90089ACF1040C01FB93
:1015B00002C2152103FB00230022204603F09AF803
:1015C000002842DBBDF81810226AE069521A424036
:1015D00082F4A562BDF81A3082F0010292B2934201
:1015E00004D04FF6FF739F422ED10F46D4F818C097
:1015F0002269BCFBF0FEB0EB4E0F4FEA4E0394BFE6
:10160000B3FBF0F30123023A0CFB012107AA03FB11
:101610000013CDE9008215210022204603F06AF86C
:10162000002812DB4FF6FF72BDF81C30934205D044
:101630009E4228BF1E469D4238BF1D46BDF8183049
:101640000133ADF8183077E7094809B0BDE8F083F9
:1016500008480BF061FF39462046FFF7EDFE0028F1
:10166000BFF67CAFF1E700BF690F0A08A8D8FFFFFB
:10167000D7D8FFFF6F6F0B0810B586B0099C059493
:10168000089C04940024CDE90034CDE902440123F0
:10169000FFF7EEFD034A044B904208BF184606B020
:1016A00010BD00BFA8D8FFFFEED8FFFF2DE9F7431C
:1016B000884690F85410054691461E460A9F89B107
:1016C0004FF6FF734A4641462846CDE90067FFF7CB
:1016D000D3FF0446B0B1124B98421DD111480BF014
:1016E0001BFF19E0836C012BEAD802F043F90E4B83
:1016F0000446984201D000280EDBAB6C012BDFD8EA
:10170000074C09E03388AB843B680133AB623B682C
:1017100013B9AB6C013BAB64204603B0BDE8F0836A
:10172000EFD8FFFF886F0B08D3D8FFFFF0B5044652
:101730008BB00846ADF81E20109DA18D226BADF830
:101740001C3003B107AB09AE05960DF122060496D5
:101750000DF11E06CDE90236144BCDE9000301233D
:101760002046FFF785FD124B98421CD0002818DB5D
:10177000BDF82270099E95B1D4E9061CB1FBFCF1BD
:101780004B00BCEB410F94BFB3FBFCF3012301FB07
:1017900007F292B298BF9BB2324413442B80A785C4
:1017A00026630BB0F0BD0348FBE700BFDD0C0A0861
:1017B000A8D8FFFFEED8FFFF2DE9F04387B01F4602
:1017C00005AB0093ADF80E101546818C826A0DF1C1
:1017D000120304469DF84080119EFFF767FF002822
:1017E000C0F2A1800DF10E0001900220059A23693C
:1017F000A16903EB4203BDF81220009001FB023304
:1018000020460022042103F001F80028C0F28B805A
:10181000E36C0133E3642B7923F001032B71D4E9EA
:101820000601B0FBF1FCB1EB4C0F4FEA4C0294BF48
:10183000B2FBF1F20122059BD4F810E01A44BDF886
:101840001230019500FB03E3052001FB02330090F9
:1018500000220721204602F0D9FF002863DB17B3DE
:10186000D4E906C0BCFBF0FEB0EB4E0F4FEA4E02CF
:1018700094BFB2FBF0F201220F99D4F81090BDF89A
:101880001230053149440CFB0313059901970A44B2
:101890000E9900FB0233009100220721204602F03E
:1018A000B5FF00283FDBB8F1000F26D02B799A074F
:1018B00023D523F002032B71D4E90671B7FBF1F3B2
:1018C000B1EB430F4FEA430294BFB2FBF1F20122A6
:1018D0002069BDF81230043007FB03030598043576
:1018E0000244012001FB0233009000220721204620
:1018F000019502F08BFF002815DBA6B1D4E906158F
:10190000B1FBF5F14B00B5EB410F94BFB3FBF5F321
:101910000123BDF8122098BF9BB24A43059992B2A9
:101920000A441344338007B0BDE8F083F0B50D4698
:10193000D0E90676B7FBF6F10023B5FBF1F285B0EE
:10194000B6EB410FADF80E304FEA410394BFB3FB45
:10195000F6F30123D0F810C0044601FB125007FB38
:1019600002C2C31A0DF10E01019102EB43030221E1
:10197000002200912046114602F048FF002817DBA4
:10198000236D0DF10D0101332365E36C0191013BE2
:10199000E3647E23012122698DF80D30E36904326E
:1019A00003FB0523009100220321204602F02EFFB5
:1019B00005B0F0BD2DE9F04786B0ADF80E3005ABAF
:1019C00000930F469046818C826A0DF11203044603
:1019D000BDF83C60DDF84090FFF768FE0028C0F2DB
:1019E0008A80D4E90621B2FBF1F25500B1EB420F37
:1019F00094BFB5FBF1F50125BDF8123098BFADB22B
:101A00005343059A9BB213441D44ADB2B9F1000F84
:101A100001D0A9F80050B8F1000F26D12169E26980
:101A2000204602FB0613009205FB02123946FFF71F
:101A3000F3FB4FF00009DDF838802DE0424698F8BE
:101A40000430204623F0030302F8043F01920122F0
:101A50002169E369043103FB0513009207213A462B
:101A600002F0D4FE002842DA45E098F8043007215D
:101A700083F0020923F0010343F0020388F80430E5
:101A8000E3692269CDE90038204605FB03230022E3
:101A9000C9F3400902F0BAFE00282CDBD4E906ECB9
:101AA000BEFBFCF1B5FBF1F2BCEB410F4FEA410389
:101AB00001FB125094BFB3FBFCF301230DF10E01A7
:101AC00001910221D4F810A0C31A0EFB02A20091CA
:101AD00002EB430304210022204602F097FE002877
:101AE00009DBE36C0133E364B9F1000FA6D13146A1
:101AF0002046FFF71BFF06B0BDE8F0872DE9F04F49
:101B000014468FB0DFF8DCC1069308AFC3F30E03B1
:101B1000D0F83CB0079105930546BCE80F000FC70D
:101B20009CE80300052C87E803002146A8BF052197
:101B3000BDF86480DDF86890BDF86060CDE900898B
:101B40000EAB03EB8101069A334651F8181C60482E
:101B50000BF0E2FC4FF0000A0BF104072B6C53452D
:101B600012D8012C09D84FF00009DFF87CA15F469C
:101B700005F11C0B2B6C4B456FD82F6F002F40F0DD
:101B800085800FB0BDE8F08F7A88059922F4004374
:101B90008B4242D1002E30D1022C46D0BB8C002B80
:101BA0003BD0B7F90010CDE901893B694948009362
:101BB0007B690BF0B1FCA7F80880B9F1000F1CD0CD
:101BC000B9F1FF3FF969C7F804902AD059B30B8ADD
:101BD000CA6813444B4538BF4B463A699A427A6902
:101BE00088BF3B619A4288BF7B6131B1CA680133CB
:101BF0009A4202D9284602F083FEBB89B3420CD137
:101C0000022C27D07A88B7F9001033463248CDF835
:101C100000800BF081FCA7F80A800AF1010A303736
:101C20009CE73346D9E74B46D7E7B7F9003023B1F5
:101C3000F96911B1284602F063FE00237A88B7F9EA
:101C400000102648CDF800800BF066FC00233B8096
:101C50007B80D2E700237B81DFE7B7F9041089B1ED
:101C6000FB6A7BB1FA88059822F40043834209D1CC
:101C7000334650460BF050FC324639465846079BD7
:101C8000FFF7F4F909F10109303773E7002E7FF40B
:101C900078AF069B1B047FF574AF012C0CD0A4B168
:101CA000E31E012B11D9022C214606D00C480FB09F
:101CB000BDE8F04F0BF030BC314643462846BC46E9
:101CC000059A0FB0BDE8F04F60470121F5E700BF6E
:101CD000916F0B08CD6F0B0865700B0824700B0813
:101CE000DB700B08D47B0B08A6700B08F0B595B021
:101CF000ADF81610C1690446053917461B9E02F05F
:101D000065FB051EC0F2B680BDF8163020466FEAAE
:101D100043436FEA5343ADF8163007AB0093A26A12
:101D2000A18C0DF11A03FFF7C1FC051EC0F2A280C1
:101D3000D4E90635B3FBF5F3B5EB430F4FEA4301A6
:101D400094BFB1FBF5F10121BDF81A2098BF89B20B
:101D500003FB02F0079B80B21844014489B2474854
:101D60000BF0DAFB0DF1160001900220079A2369AF
:101D7000A16903EB4203BDF81A20009001FB023376
:101D800020460022042102F041FD051E72DBE36CB7
:101D900039460133E364BDF816302022ADF8203017
:101DA0000023ADF82230F8238DF824309DF86830F8
:101DB0000DF12D008DF82C304FF0FF330A9312F007
:101DC00035F8D4E90601B0FBF1F5B1EB450F4FEA68
:101DD000450294BFB2FBF1F20122079B27691A4426
:101DE000BDF81A3000FB03732D2008AF01FB02334E
:101DF0000090002207212046019702F007FD051EF2
:101E000038DBD4E9060CB0FBFCF0BDF81A10420038
:101E1000BCEB400F00FB01F14FF0FF3094BFB2FB71
:101E2000FCF201220290079889B2014498BF92B255
:101E30000A4492B2019200223946009220460122C1
:101E4000BDF81630FFF75AFEA6B1D4E90610B1FB73
:101E5000F0F14B00B0EB410F94BFB3FBF0F3012363
:101E6000BDF81A2098BF9BB24A43079992B20A4420
:101E700013443380284615B0F0BD00BF0F710B0826
:101E80002DE9F04F87B00746DDE910AB0E469946C5
:101E900042F40048BAF1000F52D10269C369816B64
:101EA000CDE9003103FB09231621B6F9042002F025
:101EB00021FC041E40DBBD6B2B79D80744D41906E6
:101EC00044D59A0744D45B0744D46B88002B43D194
:101ED000BBF1000F05D02022594605F10D0011F08D
:101EE000A5FF139B03B1AB6066B3B6F904100DF107
:101EF0001603CDE9019300232A4600933846434652
:101F0000FFF758FD0446B8B9149ABDF8163002B16F
:101F10001380AA68BAF1000FCDE901326B880CBFBB
:101F2000042200220093294643463846FFF7E6FD87
:101F300016B1BDF81630B381204607B0BDE8F08F6A
:101F40005546B9E73146D2E7044CF5E7044CF3E7D0
:101F5000044CF1E7044CEFE7044CEDE7E4D8FFFF55
:101F6000ECD8FFFFEBD8FFFFEAD8FFFFE3D8FFFF75
:101F70002DE9F04190B00F4604A915469846C26974
:101F8000036901912D2102FB07330091B5F904206B
:101F90001621064602F0AEFB041E41DBD6E90624FC
:101FA000B2FBF4F0B7FBF0FCB4EB400F4FEA40019A
:101FB00094BFB1FBF4F1012100FB1C735B1A0DF11E
:101FC0000E013069019102210CFB0202009102EB2B
:101FD000430314210022304602F08CFB069BBDF81F
:101FE0000E20AB6000236B612B829DF81430AF8113
:101FF000EF81DF0704462E60EA80A5F81C8013D429
:102000001E0613D5980713D4590713D4130411D5FA
:10201000BDF8123083B9B5F9041008480BF07CFA0A
:10202000204610B0BDE8F081054CF9E7054CF7E714
:10203000054CF5E7054CF3E7054CF1E743710B0858
:10204000E4D8FFFFECD8FFFFEBD8FFFFEAD8FFFF93
:10205000E3D8FFFF2DE9F04F05468B4691B0CDE95F
:102060000A32066883680A4677480A990BF054FAE0
:10207000AB685B4504D275480BF04EFAD5F808B052
:102080000A9B3046591FF369194402F09FF9044630
:1020900000286ED1B36B00270793AB894FF6FF7A08
:1020A000ADF83030F369B846053BBBFBF3F203FBF8
:1020B00012B31FFA82F90893002C00F08581BDF855
:1020C00030200BEB0809C5F80890C5F81490EA8198
:1020D0002F82002F00F0DF823B46E9885C48CDF874
:1020E00000800BF019FA3B4629463046BDF83020F7
:1020F000FEF73CFE0028C0F22A83F269BDF83010DA
:102100003369B06B02FB0133CDE900200621304674
:10211000B5F9042002F07AFB0028C0F218830027EA
:10212000BDF8303002970193079B30465B883A46F2
:102130000093B16BEB88FFF7E1FC0DF13203294608
:102140003046CDE90393EA88AB89CDE90177009762
:10215000FFF796FE0646CDE901804A46BDF83230CB
:10216000E9883C4800970BF0D7F9BE42B8BF344627
:1021700005E0014638480BF0CFF9002C8ADA2046FA
:1021800011B0BDE8F08F0DF13202CDE90332CDE997
:1021900001AAB36B294600933046AB89EA88FFF762
:1021A0006FFE041EEBDB5346BDF83220E9882B4856
:1021B000CDF800800BF0B0F952E153462946304685
:1021C000BDF83020FEF7D2FD041ED8DBF269BDF861
:1021D00030103369B06B02FB0133CDE900200621DA
:1021E0003046B5F9042002F011FB041EC7DB4FF0A6
:1021F000000ABDF83030CDF808A00193079B524685
:102200005B8830460093B16BEB88FFF777FC0BEBF4
:10221000080309930DF132030493099B2946CDE984
:1022200002A33046CDE900AAAB89EA88FFF728FE71
:10223000041EA4DBCDE900A8BDF83230099AE98874
:1022400007480BF069F90BE15F710B0886710B0809
:1022500047740B087D740B08A7710B08F1710B080C
:102260002A720B08F269AB68501F013BB3FBF0F315
:10227000A2F12D00B3EB500F4FEA50040CD3B8F18C
:10228000000F09D1083A1B1B5208B3FBF2F30133CC
:102290009BB29F4240F22081F9238DF83C300CAB79
:1022A0004FF0000A0393012341F40041CDE901A35B
:1022B00030465346CDF800A00EAAADF83810ADF860
:1022C0003A70FFF779FA041EFFF659AFFF21F26961
:1022D000B06B10F0FBFCB36B0E9818609DF83C20BF
:1022E00030461A71BDF83030CDF808A0CDE9007342
:1022F0000122EB88B16BFFF701FC3B46BDF83020B3
:10230000E988B748CDF800800BF006F9BA46BDF869
:1023100030302F82EB810BEB08036B61AB60F2690D
:102320000899531F591A0A9BA3EB0803994228BF27
:102330001946089B0991002B40F01E81FD238DF862
:102340003C300DAB039301230293089BE988019372
:10235000099BC1F30E0100930B9B0EAA4344304628
:10236000ADF83810ADF83A90FFF726FA099B04460D
:102370000193089BBDF8342000934B46E9889948A7
:10238000CDF808800BF0C8F8002C7FF498AEBDF8AB
:102390003420002F40F04E81079B934803EB490304
:1023A000A3F82D20BDF834204B46E9880BF0B4F893
:1023B000079A0BEB08039360099B09F10109984404
:1023C00000231FFA89F908930A9B9845BFF477AE5A
:1023D000F369A3F12D02B9EB520F4FEA520721BF67
:1023E000083BA9EB07075B08B7FBF3F732BF0027F1
:1023F0000137BFB2BA4592D0B8F1000F34D053467E
:10240000BDF83020E9887948CDF800800BF084F8D9
:10241000BAF1000F7FF4D1AE079A0BEB080393607B
:10242000BBF1000F7FF4AFAE5B4629463046BDF8E6
:102430003020FEF79BFC041EFFF6A1AEF269BDF84A
:1024400030103369B06B02FB0133CDE90020062167
:102450003046B5F9042002F0D9F9041EFFF68FAE1C
:102460000BEB0803AB606B61E988002F7FF4FAAED9
:102470003B46BDF830205E480BF04EF8F269BDF8DF
:1024800030103369B06B02FB0133CDE90020162117
:102490003046B5F9042002F02DF9041EFFF66FAEA8
:1024A000079B1B79D80700F14A81190640F1498141
:1024B0009A0700F148815C0700F14781B5F90630C1
:1024C000002B80F24281079BB3F802A0BAF1000F03
:1024D0003FF425AF474C52E63A4647480BF01CF80C
:1024E0002B8ABB4237D1EB89ADF83630AB68BDF8EB
:1024F0003620E98841480BF00FF8F269BDF8361034
:102500003369B06B02FB0133CDE900201621304660
:10251000B5F9042002F0EEF8041EFFF630AE079B7A
:102520001B79D80700F10B81190640F10A819A073F
:1025300000F109815B0700F10881B5F90630002B35
:1025400080F20381079B5B88BB42C3D1BDF8363064
:10255000ADF83030DAE6E9880DF136036FEA414133
:102560006FEA514100933A464346304689B2FFF73D
:10257000DDF8041EBADA02E6002F43D1079B03EB15
:102580004903B3F82D30ADF8343030464B46BDF832
:102590003420291DFEF70EFD041EFFF6F0AD326952
:1025A000F169BDF83430053201FB03230B9A072192
:1025B00042440192099A30460092089A1344B5F9B0
:1025C000042002F023F9099B04460193089BBDF8FF
:1025D00034200093E9884B460948CDF80880D1E6BD
:1025E0009B720B0833730B08D1730B08C1710B0876
:1025F00070720B08E3D8FFFFD2720B08F8720B0859
:102600007E730B08A2F12D01B9EB510F4FEA510374
:1026100021BF083AA9EB03015208B1FBF2F32CBF2A
:1026200002FB131309F10403079A28BF04335B006C
:10263000D35AA8E7F169A1F12D00B9EB500F4FEA89
:10264000500321BF0839A9EB03004908B0FBF1F39F
:102650002CBF01FB130309F10403079928BF0433BE
:102660005B00CA52F369E988A3F12D0CB9EB5C0F4A
:102670004FEA5C0021BF083BA9EB00005B08B0FB00
:10268000F3FC2CBF03FB1C034B46324828BF9BB214
:102690000AF042FF90E6BBF1000F33D1079B2E48B2
:1026A000C3F80880E9885B46CDF800800AF034FF63
:1026B0005B4629463046BDF83020FEF757FB002820
:1026C00045DBF269BDF830103369B06B02FB0133B2
:1026D000CDE9002006213046B5F9042002F096F835
:1026E000002834DB079B04229B6830460293BDF828
:1026F00030300193079B5B880093B16BEB88FFF749
:10270000FDF93CE50DF13203CDE90393CDE9017705
:10271000B36B29463046EA880093AB89FFF7B0FBDC
:1027200006463B46BDF83220E9880C48CDF80080CB
:102730000AF0F2FE34EA260428BF34461FE5084CAE
:102740001DE5084C1BE5084C19E5084C17E5044647
:1027500015E500BF0E740B08CC740B080C750B0844
:10276000E4D8FFFFECD8FFFFEBD8FFFFEAD8FFFF6C
:102770002DE9F04F056891B0CDE90A320991591F52
:10278000EB6906461944284601F020FE041EC0F2FB
:102790009081B389099A0793EB694FF00007A3F181
:1027A0000503B2FBF3F209994FF6FF7B03FB12130B
:1027B000B946D5F838A01FFA82F8069300F0408198
:1027C000099B37824B447361079BF381002F00F014
:1027D00073823B4631462846079AFEF7C7FAB0F1A6
:1027E0000008C0F267824FF0000B0DF13603029330
:1027F000079B5246B6F9041001932846F388CDF89A
:1028000000B0FFF7D7F880464B463A46BDF8361081
:10281000BE480AF081FEBDF83630D845F3813782D4
:10282000C0F24882CDE9013BBAF802305A46009323
:1028300051462846F388FFF761F93AE15B46314695
:102840002846079AFEF792FA041EC0F232814FF032
:10285000000B0DF136030293079B5246B6F90410A4
:1028600001932846F388CDF800B0FFF7A3F804469B
:102870004B46BAF80220BDF83610A5480AF04CFEC7
:102880005C45C0F21681BDF83630CDF808B0019332
:10289000BAF802305A46009351462846F388FFF7AB
:1028A0002DF977BB3A4607999A480AF035FEEB694D
:1028B000A96B2A69CDE900310799284603FB01235A
:1028C0001621B6F9042001F015FF041EC0F2F180B4
:1028D0009AF80430D80700F10A82190640F10982FB
:1028E0009A0700F108825C0700F10782B6F906300A
:1028F000002B80F20282BAF80230002B3DD0864CC9
:10290000D7E0394685480AF007FE338ABB4240F0DB
:10291000D480F389ADF83630BDF8361080480AF01F
:10292000FBFDEA69BDF836102B69A86B02FB013389
:10293000CDE9002016212846B6F9042001F0DAFE80
:10294000041EC0F2B6809AF80430D80700F1CF8197
:10295000190640F1CE819A0700F1CD815B0700F1A5
:10296000CC81B6F90630002B80F2C781BAF802306C
:10297000BB42C4D1BDF836300793079B3782F38141
:10298000099B4B447361E969069B4A1FD01A0A9B55
:10299000A3EB0903984228BF18460890002F40F087
:1029A0009E800AEB4803B3F82DB0FF23F1888DF821
:1029B0003C30069BC1F30E01ADF83810ADF83A80FB
:1029C000002B40F0B580089B9A4240F0B1800DABDF
:1029D000039301230293069B0EAA0193089B2846AA
:1029E00000930B9B4B44FEF7E7FE089B4246009387
:1029F000BDF83410069B4B48CDF804900AF08CFDCE
:102A000059462846FEF792FF044600287FF4D8AEC8
:102A1000BDF83410002F40F0208142460AEB4803F5
:102A2000A3F82D10BDF834103F480AF075FD089B3F
:102A3000BB469944002308F101081FFA88F8069361
:102A40000A9B9945BFF4BCAEEB69A3F12D02B8EB2C
:102A5000520F4FEA520721BF083BA8EB07075B085C
:102A6000B7FBF3F732BF00270137BFB2BB458AD0AF
:102A7000B9F1000F3FF415AFBBF1000F7FF4DEAEEC
:102A80000DF13203CDE903B3CDE901BBAB6B3146A8
:102A9000F28800932846B389FFF7F2F904464B46C3
:102AA0005A46BDF8321021480AF036FD002CBFF618
:102AB000F8AE204611B0BDE8F08FF1880DF1360375
:102AC0006FEA41416FEA514100933A46002328469C
:102AD00089B2FEF72BFE041EBFF61EAFE9E7A1F197
:102AE0002D00B8EB500F4FEA500321BF0839A8EB77
:102AF00003004908B0FBF1F32ABF01FB130308F1FF
:102B0000040304335B003AF803B04EE74E770B083A
:102B10008D750B08D0750B08E3D8FFFFF6750B0811
:102B200017760B0840760B08E2760B084F750B08FA
:102B300043465A462846311DFEF73CFA041EB8DBD0
:102B40000DAB03930023F1882846CDE901330093B0
:102B50000EAAC1F30E01FEF72FFE044600287FF4F3
:102B60002FAE069B002B48D1069B089AE8699C185B
:102B7000A0F1050E744554D32A69E969BDF83430D3
:102B8000053201FB03230B9A07214A440192089A5C
:102B900028460092069A1344B6F9042001F036FE46
:102BA000044600287FF40CAE0FA8E9692A69019059
:102BB00001209DF83C30043223F002038DF83C30B4
:102BC000BDF83430009001FB032328460721B6F9F5
:102BD000042001F01BFE044600287FF4F1AD089BA1
:102BE00059460193069BBDF8342000934448434660
:102BF000CDF808900AF090FC02E72969EA69BDF86F
:102C00003400069B0531009302FB0B1302FB0012FC
:102C10002846B6F90410FEF7FFFA04460028A3D0B0
:102C2000CEE52A69069BBDF834C0053208991344E5
:102C300000FB0C220B44069900FB0B330A44AEEB5D
:102C400004010091089928460A44B6F90410FEF7D9
:102C5000E3FA044600288FD0B2E5EA69A2F12D001C
:102C6000B8EB500F4FEA500321BF083AA8EB03001E
:102C70005208B0FBF2F32ABF02FB130308F104036E
:102C800004335B002AF80310EA69A2F12D03B8EBC4
:102C9000530F4FEA530021BF083AA8EB0000520837
:102CA000B0FBF2F32CBF02FB13024246154828BFCB
:102CB00092B2BAE64446FCE60DF13203CDE9037365
:102CC000CDE90177AB6B31462846F2880093B38992
:102CD000FFF7D6F805464B463A46BDF832100A488B
:102CE0000AF01AFC34EA250428BF2C46E1E6074C1A
:102CF000DFE6074CDDE6074CDBE6074CD9E600BF14
:102D000086760B081A770B084F750B08E4D8FFFF7F
:102D1000ECD8FFFFEBD8FFFFEAD8FFFFF0B589B092
:102D200007AB05930DF11A03049300231546164AC9
:102D3000CDE90213CDE90032026B818D0446FEF726
:102D400097FA124B98421CD0002818DBBDF81A7075
:102D5000079E95B1D4E9062CB2FBFCF25300BCEB04
:102D6000420F94BFB3FBFCF3012302FB07F189B2CE
:102D700098BF9BB231440B442B80A785266309B0D2
:102D8000F0BD0348FBE700BF2D0E0A08A8D8FFFFDF
:102D9000EED8FFFF2DE9F04F83688FB0013B03337E
:102DA000054691460468079140F2B180002A00F080
:102DB0005D82AB89AE68ADF82A30002E40F0B88055
:102DC0003746E1694A1FB7FBF2F7721CA26B08BFD6
:102DD0000026BFB20692B9F1000F16D0079AA2B929
:102DE000B8220CA88DF8302022690190012004320D
:102DF00001FB0323009006212046B5F9042001F0D1
:102E000005FDB0F1000AC0F28F804FF6FF7B4FF056
:102E10000008079B9E424BD9E369A3F12D02B7EB53
:102E2000520F4FEA5208C0F03282083BA7EB080865
:102E30005B08B8FBF3F808F101081FFA88F8C345EE
:102E400040F02B82B8F1000F40F09F80069A7B0083
:102E50002D3332F803B04FF6FF724FF00008069999
:102E6000CA525946C4480AF057FB079B5BB1B9F1F7
:102E7000000F08D1E369053B0893079B089AF31AF2
:102E80009342C0F0BE803B46291D5A462046FEF7BD
:102E900091F8BA4B0146984200F09B80002800F060
:102EA00090800B3B984200F09480B5480AF034FBC8
:102EB000B8F1000F40F09C81002E40F09081BDF8E9
:102EC0002A10B9F1000F00F06B81AE480AF024FB24
:102ED000334629462046BDF82A20FDF747FFB0F1CA
:102EE000000A21DB2046BDF82A10FEF71FFDB0F1D5
:102EF000000A19DBBDF82A300222CDE90063314611
:102F00002046EB880296FEF7F9FDAE600CE0002A41
:102F10007FF44FAFE16920460539490001F056FAC8
:102F2000B0F1000ABFF645AF50460FB0BDE8F08FD4
:102F3000771E46E733465A46A98993480AF0ECFAC9
:102F40000BABCDE9036329462046CDE90199AB8956
:102F5000EA88CDF80090FEF793FFB0F1000A80F206
:102F6000CE81E1E7E9880DF12A036FEA41416FEA7A
:102F70005141009342460023204689B2FEF7D6FB1A
:102F8000B0F1000A80F2C381CEE7E269A2F12D011F
:102F9000B7EB510F4FEA510321BF083AF91A520813
:102FA000B1FBF2F32CBF02FB13133B1D069A28BFA3
:102FB00004335B0032F803B04FF6FF720699CA5231
:102FC0004FE759462046FEF7B1FC014608B16F486D
:102FD0006CE7E269511FB6FBF1F301FB136373B9B0
:102FE000C2F1050216443A46594633466848AE6077
:102FF0006E61013F0AF090FAC346BFB209E7F61AC4
:10300000F1E7DDE90732B3FBF2F30799009602FB23
:1030100013130993DDE908103B46091A5A465D4827
:103020000AF07AFA3B465A462046291DBA46FDF771
:10303000C1FF00287FF43CAFFF23E9888DF83430CE
:103040000DF12E03CDE90293C1F30E014B4620464C
:10305000CDE900990CAAADF83010ADF83270FEF74A
:10306000ABFB00287FF424AFE069099A431F216974
:103070001344089ABDF82EC005319B1A009300FB3B
:103080000C1200FB0B1349462046FEF7C5F800283A
:103090007FF40EAF59462046FEF748FC00287FF427
:1030A00007AF9DF834300DA823F002038DF83430BB
:1030B000E169226901900120BDF82E30043201FB44
:1030C0000323009007212046B5F9042001F09EFB60
:1030D00000287FF4EDAEBDF82E10B8F1000F20D11E
:1030E000069B03EB4703A3F82D10E369BDF82E10F0
:1030F000A3F12D00B7EB500F4FEA500208D3083B65
:10310000BF1A5B08B7FBF3FA03FB1A771FFA87FABB
:10311000524621480AF000FA079B1E46AB606B61DD
:10312000C6E6E269A2F12D00B7EB500F4FEA50035B
:1031300021BF083AF81A5208B0FBF2F32CBF02FB89
:1031400013033B1D069A28BF04335B00D152E36989
:10315000A3F12D00B7EB500F4FEA500208D3083B04
:10316000BF1A5B08B7FBF3FA03FB1A771FFA87FA5B
:1031700052460A48CEE700BF1D780B08ECD8FFFF87
:103180003A780B0884790B08AF770B0860780B0846
:1031900084780B08C5780B0814790B084E790B0856
:1031A00074480AF0B9F9E269A06BFF212D3A2D307D
:1031B0000FF08CFD0BAB04934FF0FF33CDE90263AE
:1031C0000196A36B0093BDF82A3029462046EA8871
:1031D000FEF756FEB0F1000ABFF697AEA4E66648C9
:1031E0000AF09AF90BABCDE90363CDE90188E8E772
:1031F000434629462046BDF82A20FDF7B7FDB0F129
:10320000000AFFF691AE00270CAB0293BDF82A30FE
:1032100020460193069AEB88B5F904100097FEF753
:10322000C9FBB0F1000AFFF67FAEBDF8303002975F
:103230000193069B3A465B88204606990093EB88EB
:10324000FEF75CFC4246BDF830104C480AF064F9C9
:10325000BDF83030CDE90177EB810BABCDE90363ED
:10326000A5F81080AB896E610097AEE792465BE6E9
:10327000DFF814A158E6DFF814A155E6DFF810A135
:1032800052E6DFF810A14FE6DFF80CA14CE6BBF1E7
:10329000000F3FF4DBAD4FF000084FF6FF739B4586
:1032A0002ED05A46BDF82A1035480AF035F95B464B
:1032B00029462046BDF82A20FDF758FDB0F1000A46
:1032C000FFF632AE2046BDF82A10FEF72FFBB0F114
:1032D000000AFFF629AE0021BDF82A3002910193C1
:1032E000069B02225B8820460093EB88FEF706FCD3
:1032F000BBF1000F04D0B9F1000F3FF41BAEAE607C
:10330000B8F1000F7FF42EAEAB89ADF82A303B4602
:103310004246BDF82A101B480AF0FEF8E269BDF8E3
:103320002A102369A06B02FB0133CDE9002016218E
:103330002046B5F9042001F0DDF9B0F1000AFFF6EE
:10334000F3AD069B1B79D80792D4190693D59A073B
:1033500094D45B0795D4B5F90630002B91DA069B1F
:103360005B88434590D1BDF82A30A5F81080EB81E9
:103370006E6167E5B4790B08D9790B081A7A0B08E6
:1033800088770B08E5770B08E4D8FFFFECD8FFFF40
:10339000EBD8FFFFEAD8FFFFE3D8FFFF2DE9F04F9E
:1033A00007680646FC698846053CB1FBF4F44FF615
:1033B000FF7B002089B0CDE90432BB6B0391A4B23E
:1033C0000293039B059A03EB020AC24540F2CB80AD
:1033D000F26A62B11389A34209D85189A14206D386
:1033E0001268E31A32F81390B9F1000F58D1FB6953
:1033F000A3F12D02B4EB520F4FEA5205C0F0DB806F
:10340000083B651B5B08B5FBF3F50135ADB2AB4579
:103410003DD0002D40F08A800025B389ADF81E30E4
:1034200023462A46BDF81E1065480AF075F8FA6969
:10343000BDF81E103B69B86B02FB0133CDE90020DB
:1034400016213846B6F9042001F054F90028C0F2DC
:103450008A80029B1B79D80700F1A180190640F1F0
:10346000A0809A0700F19F805B0700F19E80B6F96B
:103470000630002B80F29980029B5B88AB4240F0C3
:103480009680BDF81E30C6F81480F3813582002D79
:103490006CD14FF0000B029B03EB4403B3F82D906B
:1034A000F969AAEB080A4A1FB8FBF2F302FB138082
:1034B000B368151A9A4528BF9A46554528BF554600
:1034C0003B692A460533034409FB01333D48CDE9F6
:1034D0000093414623460AF01FF8002D69D0234689
:1034E0004A463846311DFDF765FD00283BDBF8698B
:1034F0003969431FB8FBF3F203FB128205315318FD
:10350000049A00FB0933CDE9005217213846B6F979
:10351000042001F0EFF8002825DB049BA8442B448D
:1035200001340493C6F81480A4B24AE72A46F1880D
:10353000254809F0F1FF338AAB4203D1F389ADF896
:103540001E306DE7F1880DF11E036FEA41416FEA0D
:10355000514100932A460023384689B2FEF7E6F827
:103560000028BFF65DAF09B0BDE8F08FFA69AB4641
:10357000A2F12D01B4EB510F4FEA510321BF083ADC
:10358000E11A5208B1FBF2F32CBF02FB1313231D07
:10359000029A28BF04335B0032F8039080E70B489F
:1035A000E1E70B48DFE70B48DDE70B48DBE70B48BB
:1035B000D9E70B48D7E7BBF1000F7FF42DAF68E7E1
:1035C000667A0B089A7A0B084A7A0B08E4D8FFFF50
:1035D000ECD8FFFFEBD8FFFFEAD8FFFFE3D8FFFFEF
:1035E000EDD8FFFF2DE9F04F05469046D5E90703DA
:1035F000AA690124B2FBF0F20F46B0EB420F4FEA8A
:10360000420194BFB1FBF0F12146521A53435B08CB
:1036100001339AB21B0448BF47F6FF738DB048BF11
:10362000ADF826304FF00003CDE90A38DFF8A49159
:10363000DFF8A4A1DFF8A4B1ADF8244058BFADF87D
:103640002620BDF82620BDF82430D5F81CE0D11A7C
:103650001FFA8EF0B1EBC00F39DC1946574809F05C
:103660005BFF0021EA69A86B0FF030FB002309AA79
:10367000CDE90282524A1946CDE90032CDE9043340
:103680001A462846FDF7F4FD4E4B984201D000281B
:1036900015DB0021EA698A4201D14B480FE0AB6B90
:1036A0005E5CFF2E11D0002346FA03F010F00100FB
:1036B00008D1BDF82420134403EBC1033B800DB0B7
:1036C000BDE8F08F0133082BEED10131E3E7DDF8DF
:1036D00028C0BCF1000F24D1BDF82620BDF824106D
:1036E000E869531AB3FBF0F3002658460A9309F031
:1036F00013FF0021EA69A86B0FF0E8FA09AB029307
:10370000324B3246CDE90063314633462846CDE997
:1037100004660396FDF7ACFD2A4CA04247D10B96F8
:103720008FE7A96BFF26079100210846864505D142
:10373000B4451FD1264809F0EFFEAEE7079C245C94
:10374000B44202D21CB1264601460130EEE70146E2
:103750004846CDE9002C2246079109F0DDFE079985
:103760000A988EB244B9BDF8241000FB0616204614
:103770003E80A4E73446EBE7BDF8242001FB00239C
:103780000146504609F0C8FEBDF82830BDF82410A7
:10379000AA8B06FB0316B6B233449BB2ADF82630B3
:1037A0009B1BB3EBC20FADF8246095DC49E7002802
:1037B00085DB0B963FF445AF81E700BFDB7A0B0852
:1037C000AD0E0A08A8D8FFFFEFD8FFFF75110A0851
:1037D000307B0B08567B0B08A37B0B08007B0B0888
:1037E0002DE9F84304468946154610460AB1FDF70F
:1037F000D1FBE36B25B11A460027216CB9420DD8E5
:103800001F464FF0FF324FF6FF7C0021D4F8408076
:1038100088450FD1511C20D12A484CE0B2F9041040
:1038200029B9118D012984BF01F1FF3111850137BB
:103830003032E2E7B7F904E0BEF1000F09D115B16B
:103840007E6A864208D0B7F828E0E6453CBF0A46C3
:10385000F44601313037DBE70A46302101FB023301
:1038600025B3596A814228D1198D31B3D4E90607AD
:10387000B0FBF7F09989B7EB400FB1FBF0F1A185F0
:103880009D89B5FBF0F100FB11514FEA400594BF53
:10389000B5FBF7F00120081A20634FF6FA70198D76
:1038A00081428CBF4FF6FF7104311985002001322F
:1038B0009A80C9F80030BDE8F88304215862198560
:1038C000F4E700BFE9D8FFFF002910DDB0F9403070
:1038D0008B420CDB30234B43A3F13001C36B0B4411
:1038E000B3F904202AB100209880D86270470248BA
:1038F00070470248704700BFE6D8FFFFE8D8FFFFD7
:103900000B1E10DDB0F9401099420CDB30215943F9
:10391000C36B303919441160B1F904300348002BEE
:1039200018BF002070470248704700BFE8D8FFFF6B
:10393000E6D8FFFFF8B504460F460D4809F008FE2B
:1039400039462046FDF778FD051E0FDA2846F8BDFA
:1039500003FB0763204699B200F0BFFE0136D4E9AD
:103960000631B3FBF1F3B342F2D8EFE70026F6E7F6
:10397000EC7B0B082DE9F04F4FF000080446C146E0
:10398000036A89B00493436B4C480593039109F093
:10399000DFFDA36D0133A365E3695B0802931FFAA2
:1039A00088F30793049B98454ED1454882E0029BDB
:1039B000616B05FB03FB2369CDE900214B4402FB4E
:1039C000053314210022204600F094FEA369AAEBDF
:1039D0000B0C06930BEB0C0A50BB029B9C4527DAA1
:1039E000E369069AB2FBF3F2B3EB420F4FEA4201EE
:1039F00094BFB1FBF3FE4FF0010EA2EB0E02524555
:103A000016DD059A32F81C2022B90137BFB20CF13D
:103A1000010CDFE74FF6FF7E72450ED1039A0136A7
:103A2000B6B29642F3D98B420CD8B1FBF3F5012024
:103A3000013568B1012818D035E08B42F5D9012550
:103A40002846F5E70125F2E700252E462F46AA462F
:103A5000D4E90612B1FBF2F14B00B2EB410F94BF77
:103A6000B3FBF2F30123AB42A1DCD4E90630B3FB94
:103A7000F0F3B0EB430F4FEA430294BFB2FBF0F216
:103A80000122B9199B1A99420CD1039BB34209D365
:103A90002046236D0799DF1B276509B0BDE8F04F6D
:103AA000FFF748BF0020A36908F1010899440028E6
:103AB0003FF475AF09B0BDE8F08F00BF027C0B0882
:103AC000D3D8FFFF2DE9F04F002504462F462E46A0
:103AD000AA46A8464FF6FF7BC36985B04FEA530953
:103AE000436B03910293D4E90632B3FBF2F0410039
:103AF000B2EB400F94BFB1FBF2F10121414501DC73
:103B0000002318E02169039803FB0013616B02FB9B
:103B10000833CDE9002120461421002200F0EAFDFF
:103B20000346AAEB050101EB050ABBB108F1010848
:103B30004D44002BD7D0324639461648029309F03F
:103B400007FD029BE26C1846D71B226DE764961BAB
:103B5000266505B0BDE8F08F013718E08945E5DD41
:103B6000D4E9062CB2FBFCF2BCEB420F4FEA420058
:103B700094BFB0FBFCF00120121A5245D6DD029A28
:103B800032F811205A4502D0002AE5D10136013120
:103B9000C9E700BF157C0B082DE9F04F91B00692E4
:103BA00006221D46036A00260993436B04460D93C3
:103BB000C3690F46083BB3FBF2F3099AFF219A420F
:103BC00028BF1A469346069B1E60C269806B0FF0A1
:103BD0007DF8A36BB542039303EB4B03079303F10B
:103BE000030323F003030293039B04963B60E36902
:103BF0004FEA5303089314BF334632230C93029BBE
:103C000003EB8B030B93B3B20A93099BB34243D1EB
:103C10000025ABE0049920460B44616B02FB0A339C
:103C2000CDE900210022142100F064FD059B05462A
:103C3000A069DA1BBB1805938DB9089B93420EDD72
:103C4000D4F81CC0B0FBFCF35900BCEB430F94BF8D
:103C5000B1FBFCF101215B1A05998B4207DC089B43
:103C60000AF1010A1F44E5B1012D77D127E04FF693
:103C7000FF710D9B33F812308B420BD02BB908F13A
:103C800001081FFA88F80132D4E709F101091FFA87
:103C900089F9F8E70125E2E70027BA46B946B846B0
:103CA0000597D4E90632B3FBF2F35900B2EB430FA8
:103CB00094BFB1FBF2F1012151452369AADCD4E99B
:103CC0000651B5FBF1F22069B1EB420F4FEA420316
:103CD000A0F10200B2B205FB02020DF13E0094BF5A
:103CE000B3FBF1F301230190022003FB01230090B9
:103CF00000221521204600F0FDFC051E36DBBDF834
:103D00003E30B4F856700C9A9F4296BFDB43FF1AC0
:103D1000FF1808EB8803A3EB0903BFB202FB0737C8
:103D200022484B4642460097B1B209F011FC0023ED
:103D300003985B450DDA01464FF6FF7C029A02308C
:103D400002EB830E0A88624514D10A9B0B80CEF8E1
:103D50000070069B069A1B6801331360049AA369DE
:103D600001361A440492002D3FF44DAF284611B09D
:103D7000BDE8F08F029A52F82320BA4214DADDF837
:103D80001CC00B9AABF1020A5345A2F10408DCDC1B
:103D90003CF8049C0AF1FF3A2CF8029D52F8080CFA
:103DA00042F8040C4246EFE70133C2E7377C0B08C8
:103DB0002DE9F04FC36995B05B080893436B054646
:103DC0000B93836BBF480693079109F0C1FB142244
:103DD00000210FA80EF07AFF0022AB8C07998DF816
:103DE0003C208B420CD1286A01310B46B1FBF0F12B
:103DF00000FB1131AA62A984B34889B209F0A8FB7B
:103E00004FF00008464682E032464946AF4809F086
:103E10009FFB00238DF84C30089B96FBF3FB0BFBBC
:103E200003F30A93D5E90632B3FBF2F04100B2EB9B
:103E3000400F94BFB1FBF2F101218B456FDBB9F16B
:103E4000010F00F05C82B9F1020F00F09F82B9F11E
:103E5000000F40F051829DF84C30002B00F0498259
:103E600001230DA901910521EA698DF83C302B69E8
:103E7000009102FB083315214A462846129600F0AD
:103E800039FC041EC0F21981EA69BDF83630A2F18E
:103E90002D01B3EB510F4FEA510009D3083AA3EBC0
:103EA00000095308B9FBF3F909F101091FFA89F96F
:103EB00049468748ADF8409009F04AFBBDF83E10EE
:103EC0000DF1320300934A460023284641F4004195
:103ED000FDF72CFC7F4B0446984240F0D481BDF89E
:103EE00044407D48214609F033FB21462846FDF732
:103EF0001DFD041EC0F2E18000238DF83C309DF8CA
:103F00003C10764809F024FB002C40F0D6809DF848
:103F10003C90B9F1030F7FF477AF0024CDE029691D
:103F2000079803FB0013696B0BFB0233CDE90021FB
:103F300028460022142100F0DDFB04460A9BF31AF8
:103F4000099394B9DDE9082393420EDAD5E90623F3
:103F5000B2FBF3F2B3EB420F4FEA420194BFB1FB65
:103F6000F3F00120101AB04201DC012334E08B424F
:103F700094BFB1FBF3F101210B98099F98BF89B25F
:103F800030F817A00798B9F1010F02FB00F292B2C6
:103F9000324401EB02081FFA88F82AD0B9F1020F67
:103FA00000F0FF80B9F1000F0FD10FFA8AF3002B58
:103FB00052DD524649464A4809F0CAFA0123ADF893
:103FC0003EA08DF84C30ADF844800023099A0136AC
:103FD00001320992002BB4D10BF1010B002B00F040
:103FE0004E810A9B089A13440A93002C3FF41AAF9F
:103FF00063E0BDF83E2052452ED10DA90191052167
:104000002A69009103FB082315210022284600F0AD
:1040100071FB041E51DB43465146BDF83620314842
:1040200009F096FAE969BDF83620A1F12D00B2EB4E
:10403000500F4FEA500321BF0839D31A4908B3FB88
:10404000F1F338BF0023BDF8407028BF01339F4211
:1040500004D0254809F07CFA0123B7E79DF93830F0
:10406000002B45DA00220DF13203CDE901830DABBF
:104070001146009328465346FDF79CFC0446BDF8C4
:10408000323051460093BDF836204346174809F0B8
:104090005FFA002C11DBD5E906232969079802FB9A
:1040A0000012696B2846CDE900310BFB0323142174
:1040B000002200F01FFB041E29DA204615B0BDE8DF
:1040C000F08F00BF627C0B08817C0B08AB7C0B0877
:1040D000D67E0B08EED8FFFF037F0B08E97F0B08A5
:1040E000CA7C0B08FC7C0B08327D0B08707D0B082A
:1040F00043465146A84809F02BFA41462846FDF7A9
:1041000015FC041ED9DB4FF6FF73ADF83230BDF855
:104110003630BDF83210E7B9069A02EB4303A3F834
:104120002D10EB69BDF83620A3F12D00B2EB500F36
:10413000BDF832104FEA500707D3083BD21B5B088B
:10414000B2FBF3F003FB102292B2944809F000FA9C
:1041500082E7E869A0F12D02B3EB520F28BF0838BF
:104160004FEA520721BFDB1B4008B3FBF0F200FB14
:104170001233069A04335B00D152EB69BDF8362046
:10418000A3F12D00B2EB500F4FEA500707D3083BC5
:10419000D21B5B08B2FBF3F003FB102292B2804803
:1041A000D4E747F6FE728AF4004191423FF654AFDD
:1041B00005212A690DAF03FB082300910022152178
:1041C0002846019700F096FA041EFFF676AF9DF997
:1041D0003830002B3ADA00220DF132031146CDE9D6
:1041E0000183284653460097FDF7E4FB0446BDF8DB
:1041F000323051460093BDF836204346694809F0F5
:10420000A7F9002CFFF659AF0024BDF83230032285
:104210000193BDF836303946284602940093534640
:10422000FDF76CFCD5E906232969079802FB00120B
:10423000696B2846CDE900310BFB0323142122468C
:1042400000F058FA041EBFF607AF36E74346514662
:10425000BDF83620544809F07BF941462846FDF761
:1042600065FB041EEFD1BDF836304A460093214667
:1042700053462846CDE90184FDF740FCECE6002CCE
:104280003FF4DDAD19E70028FFF617AFBDF8321097
:10429000464809F05DF9EA69BDF83210A86B2B6950
:1042A000CDE9002002FB013328460022152100F051
:1042B00021FA041EFFF601AF069B1E79F0070ED40B
:1042C00031060ED5B2070ED416F004060DD15B8868
:1042D0004B450CD1BDF83230ADF842300FE6344CCE
:1042E000EBE6344CE9E6344CE7E6344CE5E6344C96
:1042F000E3E602238DF83C3000263446FFE5002734
:10430000BDF83E90BDF840A0129EAA6BBDF84230A9
:104310008DF83C7049F400410DA8BAF1000F14D19A
:10432000CDE903A0009228460A46CDE901AA5146EC
:10433000FDF7A6FD04465246BDF83410214809F0A9
:1043400007F9BC42BFF6DBADB7E6CDE90130009717
:104350000B4628463946FDF72DFB0446069BBDF863
:1043600034105A88184809F0F3F8002CFFF6A5AE6F
:10437000BDF8343002970193069B3A465B88284685
:104380000093A96B4B46FDF7B9FBB8E50323002466
:104390008DF83C30B3E500BFAC7D0B08E07D0B0829
:1043A000247E0B08647E0B08A17E0B083C7F0B0863
:1043B000E4D8FFFFECD8FFFFEBD8FFFFEAD8FFFF00
:1043C000E3D8FFFF717F0B08AF7F0B082DE9F04F9B
:1043D000D0E90632B3FBF2F30F46B2EB430F4FEADC
:1043E000430194BFB1FBF2F101210446006A5B1A5C
:1043F00002384343E16C206D5B1AA16C89B003293C
:10440000A3EB0006A2F1050504D906FB05FCBC459B
:1044100000F3B180A7F106089044B8FBF5F84345D6
:104420000ADA009033464246544809F091F8544D58
:10443000284609B0BDE8F08F4FF0000971E04FF059
:10444000010AA36D20460133A365069BB3F800B0B3
:1044500084F854A05946FFF7ABFC0023051E2A46FA
:104460005946484884F8543002DA09F071F8DFE719
:1044700009F06EF859462046FFF724FB051ED7DBEE
:1044800059462046FFF756FA051ED1DBD4E906321D
:10449000B3FBF2F35900B2EB430F98BFB1FBF2FA52
:1044A000216AA3EB0A0A02390AFB01FAD4E91331A3
:1044B000002E0B44AAEB030A25DC564523D13248D3
:1044C00009F046F8D4E90632D4E91301B3FBF2F35C
:1044D000B2EB430F4FEA430694BFB6FBF2F6012658
:1044E0000144206A9B1B02384343053A5B1A5A4336
:1044F0002348BA42B8BF0546A26CCDE900952348CF
:1045000009F026F894E709F10109B9F1050FD9D0AE
:10451000A36C022B04D9053A0AFB02F2BA42D1DAA3
:104520005646D4E91321E3691948053B7343CDE9A5
:10453000037353183344CDE90113009233464946BF
:10454000A26C09F005F8002ECCBF00230123204601
:1045500007AA06A9FFF720FB051EFFF669AF079D16
:10456000002D7FF46CAF0B4808F0F2FF044BB04510
:10457000A8BF1D465CE700255AE700BFFF7F0B0878
:10458000EFD8FFFFA8800B08D0800B0808810B082C
:1045900034800B0887800B08F0B5C46D0546D4E95C
:1045A000026316EA030019D000224FF0010E94F8BE
:1045B00000C0944501DC002010E00EFA02F3334203
:1045C0000DD0EB69276914335343F818FB56002BC1
:1045D00005DB03898B4202D163684360F0BD013281
:1045E000E7E72DE9F0410E460124C56DB440AB6804
:1045F0001146234025D0C2692F6902F114035E439E
:1046000007EB060EC9B1B957BB5D002915DB13F0E6
:10461000010314D0BEF808E0016906F1140302FB9F
:104620000E11D0F804803B44C047AB6823EA040471
:104630000023AC60BB55BDE8F0810020F5E71846CB
:10464000F3E71846F7E770B5C16D8A68531C04D0CC
:10465000002301260D789D4201DC00200CE006FAC3
:1046600003F4224209D1C0690D69143003FB0050E4
:104670004B6822438A60436070BD0133EBE72DE94C
:10468000F041C46DD4E90223934323D100254FF0B8
:10469000FF312A4694F800C0624506DB4B1C19D056
:1046A000BDE8F0410122FFF79CBFC36927691433BD
:1046B00002FB03F807EB080EDEF8046063689E1B3C
:1046C000AE4205D917F90830002BA4BF3546114674
:1046D0000132E1E70020BDE8F08110B50446FFF7A4
:1046E0005BFF30B1417800222046BDE81040FFF763
:1046F00078BF10BD2DE9F14F0E46DDE90AAB016927
:104700001D46591AC369D0F85C90B1FBF3F189B228
:104710000446FFF741FFD9F804300133C9F80430EB
:10472000E8B1636E002601336366D9F80430436054
:104730002169E2696D1AB5FBF2F102FB115145786E
:104740001432143102FB0511D9F810305246584684
:1047500019440EF093FA304601B0BDE8F08F06F030
:104760000306012E09D126685B465246294620469B
:10477000B44601B0BDE8F04F6047A36E2046013358
:10478000A366FFF77CFF06462046FFF75CFF8046E6
:1047900090B3022303702369E269EB1AB3FBF2F3CF
:1047A0000381E269417802F114034B432169D9F88E
:1047B0001000691AB1FBF2F702FB1711143303441E
:1047C000691A20462768B8472169E2696D1AB5FB66
:1047D000F2F102FB115198F801501432143102FB2E
:1047E0000511D9F81030002818BF06465246584621
:1047F00019440EF043FAAEE75B465246294620467E
:104800002768B847002818BF0646A4E72DE9F14FEE
:104810001D46DDE90A8903698B46C169EB1AB3FBC2
:10482000F1F189B20446D0F85CA0FFF7B5FE074667
:1048300058B10BF01C02182A07D041787AB91BF046
:10484000030F0CD02046FFF7CCFE66684B4642466D
:1048500029462046B44601B0BDE8F04F60472669BE
:10486000E269A81BB0FBF2F602FB160614321436FE
:1048700001FB0266DAF810004246494630440EF069
:10488000FDF9DAF804300133CAF8043038787B6077
:1048900010F00200D9D101B0BDE8F08FF0B5C46DC1
:1048A0000546D4E9026316EA030007D000224FF060
:1048B000010E94F800C0944501DC0020F0BD0EFA12
:1048C00002F333420BD0EB69276914335343F818D2
:1048D000FB56002B03DA0789CB889F42EED00132CA
:1048E000E9E738B505460C46FFF7C9FE2846FFF74D
:1048F000AAFE20B180230370E3880381206238BDC3
:1049000038B50C4659B100221546C36B016C914273
:1049100006D800226178FFF764FE0023238138BDAA
:10492000B3F9041019B1196AA14208BF1D6201321E
:104930003033EBE7F0B5C36D054687B0002B3AD0B6
:10494000046EC269143C1432B4FBF2F4002C32DD64
:1049500000210A46013152008C4242F00102F9D195
:104960000021CDE9011103F1140105914FF0FF3150
:104970008DF80440CDE9031205AF01AA164603CE17
:10498000BE4218605960324603F10803F6D1306820
:1049900000211860EE6DEA69337814325A433069A9
:1049A0000EF094F9D6E9023223EA0203B360002341
:1049B000E4B29C4201DC07B0F0BDEA69316914320F
:1049C00003FB021253700133F3E77047006A036878
:1049D000DB68184703681268D1E900011847012A0B
:1049E00003D0022A03D0002070470160FBE70B6868
:1049F0000360F8E71FB50146684609F043FC6946C5
:104A0000044806F0BAFC0446684609F0A7FB2046B5
:104A100004B010BD8402002008B5044909F0D7FC99
:104A200010B104F02BFC012008BD00BF57810B081A
:104A30001FB50146684609F025FC6946044806F0A2
:104A4000A3FC0446684609F089FB204604B010BD6B
:104A5000840200201FB50146684609F013FC694630
:104A6000044806F0F3FD0446684609F077FB20464B
:104A700004B010BD840200201FB50146684609F04D
:104A800001FC6946044806F010FE0446684609F039
:104A900065FB204604B010BD840200201FB501460E
:104AA000684609F0EFFB6946044806F003FE044639
:104AB000684609F053FB204604B010BD8402002074
:104AC0001FB50146684609F0DDFB6946044806F05B
:104AD0000BFE0446684609F041FB204604B010BDB9
:104AE000840200201FB50146684609F0CBFB6946E9
:104AF000044806F01DFE0446684609F02FFB2046D8
:104B000004B010BD840200201FB50146684609F0BC
:104B1000B9FB6946044806F011FE0446684609F0F0
:104B20001DFB204604B010BD840200201FB50146C5
:104B3000684609F0A7FB6946044806F023FE0446D0
:104B4000684609F00BFB204604B010BD840200202B
:104B500008B509F0ADFCC1170AF086FD012008BDBB
:104B60001FB50146684609F08DFB6946044806F00A
:104B700095FE0446684609F0F1FA204604B010BDDF
:104B8000840200201FB50146684609F07BFB694698
:104B9000044806F0A5FE0446684609F0DFFA204600
:104BA00004B010BD8402002008B509F05BFA0120B2
:104BB00008BD04F08DBB30B51368006885B0019363
:104BC0008368D1E90045CDE902450BB90CF02BFB18
:104BD000C36801AA02A9984705B030BD30B585B0B9
:104BE0000446089860B1406850B1856845B1CDE988
:104BF0000241CDE90023C4686A4601AB02A9A0477F
:104C000005B030BD10B50446006808B109F080F960
:104C1000204610BD10B50446094B036009F02CFE78
:104C200021460AF045F80BF009FB0BF0EDFA20469F
:104C3000044B40F8043B09F029FF204610BD00BF9B
:104C400050820B0838820B0810B50446FFF7E2FFCC
:104C5000204624210CF0E1FA204610BD0A2A08B5AE
:104C60000AD10022054B1146586809F0C1F818B95D
:104C700003F0A6FE0123837708BD00BF00110020CA
:104C800010B58368044613B10322014698472046B5
:104C900010BD10B504462430FFF7F2FF204610BDCA
:104CA000024601480AF07DBF77FB0A0808B50BF001
:104CB000CDFB4FF416510BF0C3FB01200AF03FFE71
:104CC0000022114610460AF04AFE00F0E5FB00F013
:104CD00049FF01F009FB01F095F9BDE8084000F03B
:104CE0006BBD000008B5054806F0A2FA08F052FDB9
:104CF000034B1860BDE8084009F0CAB884020020E0
:104D00002011002038B5002383608B6804460D46CF
:104D10002BB102229847EB68E360AB68A3602046A2
:104D200038BD0000F0B500248FB007460E4602A83B
:104D3000114606ADFFF7E6FF02A92846FFF7E2FF9E
:104D400010200C94FBF7A9F9034698B195E80300ED
:104D50006A4682E8030093E8030085E8030092E8CE
:104D60000300089A83E803009A60D968099A0894B6
:104D70000991DA600A93164B10200D93154B0C9392
:104D8000FBF78BF90446B0B1002383600C9B33B171
:104D900002220AA998470D9BE3600C9BA3600E4B6F
:104DA0003846CDE9003431466B460C4A08F070FFB6
:104DB000041E18BF01240AA8FFF762FF2846FFF768
:104DC0005FFF02A8FFF75CFF20460FB0F0BD00BFF9
:104DD000B74B0A083D4F0A0801000800DD4B0A08DE
:104DE0001FB531493148FFF75BFF31493148FFF7C3
:104DF00057FF31493148FFF753FF31493148FFF739
:104E00004FFF31493148FFF74BFF31493148FFF738
:104E100047FF31493148FFF743FF31493148FFF738
:104E20003FFF31493148FFF73BFF31493148FFF738
:104E300037FF31493148FFF733FF31493148FFF738
:104E40002FFF31493148FFF72BFF31493148FFF738
:104E500027FF31493148FFF723FF0023042230495F
:104E6000304809F005F804222F49032008F0EAFC35
:104E70002E4B6A4600932E4B002103932D4B20208E
:104E80000293FFF74FFF6846FFF7FAFE0022072064
:104E9000114608F00DFF00200AF051FD264806F0EB
:104EA00025FD05B05DF804FBF5490A085C810B0897
:104EB000194A0A0868810B08B34B0A0874810B0869
:104EC000314A0A0889810B08554A0A0897810B085C
:104ED000794A0A08A3810B089D4A0A08AD810B088C
:104EE000C14A0A08B7810B08E54A0A08C4810B08C1
:104EF000094B0A08D5810B082D4B0A08DF810B08E6
:104F0000514B0A08EB810B08614B0A08F3810B082F
:104F1000854B0A0802820B08A94B0A0874820B0809
:104F20000D820B0813820B081A820B085D4C0A08CD
:104F3000D5490A08DF490A0884020020022A70B510
:104F4000044607D0032A10D0012A01D10B68036060
:104F5000002070BD10200E68FBF79FF8054610B1C9
:104F60003146FFF7CFFE2560F2E70468002CEFD052
:104F70002046FFF785FE102120460CF04EF9E7E7AA
:104F800070B51426D0E90053044606FB0356AE4222
:104F900004D0284609F0E2F81435F8E7206808F054
:104FA000B7FF204670BD2DE9F843B1F10008074670
:104FB00035DD4FF0140909FB08F008F0A1FF0546A4
:104FC000A8B3D7E90046844209FB064615D28642BB
:104FD00014D9143EA4F11409341B0444B1451FD064
:104FE0002CB13146204609F033F9337C2374304626
:104FF00009F0B4F8143E143CF0E711D0A946A642DB
:105000000ED02146484609F023F9237C204689F832
:10501000103009F0A3F8143409F11409EFE7002562
:10502000386808F075FF01203D60C7F80880BDE8CA
:10503000F88300232DE9F041C0E9003383600D4679
:1050400049680446994217DDFFF7ADFFA0B1D5E9E5
:1050500000634FF0140808FB03682768B04509D0C7
:105060002FB13146384609F00DF9337C3B741436C4
:105070001437F3E76B6863602046BDE8F0810000F9
:1050800030B597B00BF080FD002342F216511A465E
:105090000BF082FD0BF078FD002300241A46282136
:1050A0000BF082FD0021012008F0FAFD424D434B38
:1050B0000320AB602C60AC80AC7108F0D9FD2846B1
:1050C00001253F4A3F490CF0A3F80121042008F0D4
:1050D000C1FBFFF7EBFD3C490CA809F089F83B49FF
:1050E00011A88DF8405009F083F802216846CDE9F7
:1050F00000448DF854500294FFF755FF98B1009C7E
:1051000034B120460CA909F0BDF89DF84030237455
:1051100011A904F1140009F0B5F89DF8543084F891
:105120002430022301930BF089F80546694603A851
:10513000FFF77FFF03A906A8254CFFF77AFF254B51
:1051400006A9236009A8FFF774FF09AA0121201D01
:1051500009F000FF09A8FFF713FF06A8FFF710FFEB
:105160001D4B2562236003A8FFF70AFF1B4B23603A
:105170000BF064F84FF416510BF042F809F07CFB89
:10518000214609F07AFE6846FFF7FAFE11A808F0FA
:10519000E5FF0CA808F0E2FF094A114920460CF08F
:1051A00037F8104805F0EAFF054A0F490D480CF0A2
:1051B0002FF817B030BD00BF540200200000FFFFE1
:1051C00050020020054C0A081F820B0823820B089E
:1051D0006002002038820B08B8900B0850820B0840
:1051E000154C0A0884020020934C0A0807B50022D7
:1051F00001A81146019208F035FB019803B05DF853
:1052000004FB000038B5054C25682DB90120FAF7DC
:1052100044FF00B105702060206838BDB80200204E
:1052200013B500221F4920480DF1030304F0CCFE02
:1052300000221E491C4801AB04F070FD9DF803409C
:1052400074B9012300221749174805F0BCFD0AF084
:1052500022FB002203461549134805F002FF13E024
:10526000042C13D900230F491A460F4805F0ABFD53
:1052700000230E491A460C4805F0F3FE05200AF0FB
:1052800053FB002008F0F1FE02B010BD0AF003FB52
:10529000019BC01AB0F5167FF6D89DF80330013394
:1052A000DBB2CFE760820B086E820B087A820B08B4
:1052B00013B500221F4920480DF1030304F084FEBA
:1052C00000221E491C4801AB04F028FD9DF8034054
:1052D00074B9012300221749174805F074FD0AF03C
:1052E000DAFA002203461549134805F0BAFE13E026
:1052F000042C13D900230F491A460F4805F063FD0B
:1053000000230E491A460C4805F0ABFE05200AF0B2
:105310000BFB002008F0A9FE02B010BD0AF0BBFA9A
:10532000019BC01A7828F7D89DF803300133DBB20F
:10533000D0E700BF8B820B0899820B08A4820B0870
:1053400010B50446FFF752FF822804D12046BDE87D
:105350001040FFF765BFFFF749FF8C2804D12046B6
:10536000BDE81040FFF7A4BFFFF740FF282802D197
:105370000123237010BDBDE81040FFF737BF704711
:10538000002210B50446044B114640F8043B08F0D7
:105390005DFC204610BD00BF04830B0810B5044619
:1053A000FFF7EEFF204620210BF037FF204610BD0F
:1053B00010B56C22002104460DF088FC0123002268
:1053C00020461146236008F0A3FC204610BD2DE9BD
:1053D000F04105460E4617469DF818100022184663
:1053E0001C4608F09DFC234606903A463146284666
:1053F000BDE8F04108F00CBEF0B5064635468BB06E
:1054000000F052FF1A4B002245F8083B14210120FE
:1054100008F086FC0124142703462246CDE90074D7
:105420006FF07F41284608F0D1FD39460022022066
:1054300008F076FC1E220346019400920D490222D8
:1054400002A806F10C0403AD08F0C0FD0FCD0FC497
:1054500095E8070084E8070002A8FFF791FF002302
:1054600030463385102386F82A300BB0F0BD00BFDC
:1054700018830B080060FF0038B5064C23683BB961
:105480002C20FAF70AFE054608B1FFF7B5FF2560A4
:10549000206838BDBC02002030B514249FB003A89A
:1054A000FFF786FF03A803236FF07F4200210094DB
:1054B000FFF78DFF03A803236FF07F4201210094C3
:1054C000FFF785FF02231E25194603A8FF2200943B
:1054D000FFF77DFF03A80223FF2203210094FFF7BB
:1054E00076FF03A80323FF2204210094FFF76FFF38
:1054F00003A80223FF2205210095FFF768FF03A8F8
:105500000223FF2206210095FFF761FF03A8032372
:105510006FF07F4207210094FFF759FF0A2303A889
:1055200000934FF47F4202230921FFF750FF00222E
:1055300003A8114608F0E4FB1FB030BD10B51424D9
:105540009EB003A8FFF734FF03A803236FF07F4248
:1055500002210094FFF73BFF032303A819466FF0D5
:105560007F420094FFF733FF03A803236FF07F42CD
:1055700004210094FFF72BFF03A803236FF07F4261
:1055800005210094FFF723FF032303A86FF07F4258
:1055900006210094FFF71BFF002203A8114608F024
:1055A000AFFB1EB010BD38B505460C4681B10AF000
:1055B000C4F928B100200AF0C2F9012385F8283087
:1055C000214605F10C000022BDE8384008F03EBB42
:1055D00090F82830002BF3D001200AF0B0F92246D1
:1055E000214620460AF0BBF985F82840E8E700008C
:1055F00013B50446084909480DF1070204F02DFDD2
:105600009DF8073033B91121236884F82A10204609
:105610001B68984702B010BDB5820B08BB820B080F
:10562000F0B54B1E04460D468DB0172B11D8DFE8A0
:1056300003F00C1673737310107362731010101054
:105640001048181010101010108701212046FFF785
:10565000AAFF2946204600F021FE0DB0F0BD002132
:10566000F4E70AF06AF9064638B901200AF067F94A
:105670003246314630460AF072F9002239493A483A
:1056800005F05EFB1123394984F82A30684608F09A
:10569000AFFD374904A808F0ABFD364908A808F06B
:1056A000A7FD694608AB04AA532002F047FF08A8EB
:1056B00008F054FD04A808F051FD684608F04EFDBE
:1056C000C7E70AF03AF920B194F8290008B90AF0BE
:1056D00036F901222349244805F032FB10232649DC
:1056E00084F82A30684608F083FD214904A808F0B0
:1056F0007FFD2249D2E7012780F829700AF01DF9C1
:1057000006460028A5D138460AF019F93246314636
:1057100030460AF024F99CE70026124980F82960F7
:1057200008AA114804F099FC9DF82030002B90D075
:105730000AF003F900288CD030460AF000F988E717
:10574000FFF7AAFE0AF0F9F810B100200AF0F7F806
:1057500001220449044805F0F3FA182384F82A309A
:1057600077E700BFB5820B08BB820B08C6820B0827
:10577000CC820B08D8820B08E7820B08ED820B085D
:1057800010B5044600F090FD024B2046236015231F
:10579000A36010BD7C830B0838B5064C23683BB969
:1057A0000C20FAF77AFC054608B1FFF7E9FF2560FF
:1057B000206838BDC002002008B5012119200BF077
:1057C000FDFBBDE80840002119200BF008BC0000DB
:1057D000002213B511460DF107030446074804F0F3
:1057E000F3FB9DF80710A1F11603012B03D82368E2
:1057F00020461B68984702B010BD00BF1C830B08F1
:1058000030B54B1E04460D468DB0162B36D8DFE85A
:1058100003F09FA399939935993599359982828C94
:105820008C35353535355F0C3B001623002203726D
:1058300011464E4805F0C7FA4D49684608F0D8FCB5
:105840004C4904A808F0D4FC4B4908A808F0D0FC47
:10585000694608AB04AA532002F070FE08A808F0BD
:105860007DFC04A808F07AFC684608F077FCA37A6F
:1058700023B90121E17219200BF0B1FB2946204622
:1058800000F00CFD0DB030BD17230022037211464D
:10589000364805F098FA3949684608F0A9FC3549B8
:1058A00004A808F0A5FC364908A808F0A1FC694640
:1058B00008AB04AA532002F041FE08A808F04EFCF1
:1058C00004A808F04BFC684608F048FC0021D1E72A
:1058D0001523002203721146244805F074FA684625
:1058E000284908F085FC234904A808F081FC2649D2
:1058F00008A808F07DFC694608AB04AA532002F012
:105900001DFE08A808F02AFC04A808F027FC684639
:1059100008F024FCB2E7037A152BAFD1437A002BB1
:10592000ACD1837A002BA9D1D0E7037A152BA5D16E
:10593000437A002BA2D19AE701234372037A152BF5
:105940009CD194E700234372037A152B96D1BDE7CF
:105950000123002143818EE700238372037A162BF3
:1059600087D0437A002B84D188E700BF1C830B08C3
:1059700027830B082D830B0839830B0847830B08FB
:105980004D830B085C830B0862830B08D0B504467B
:1059900016461F4607F0FEFEDDE90423C4E9062390
:1059A000DDE90623C4E90823DDE90823C4E90A2365
:1059B000DDE90A23C4E90C2300220023A060C4E926
:1059C00004672046C4E90E23C4E91023D0BD2DE9A5
:1059D000F3471F46836882464360164607F0DAFEA7
:1059E000DDE90A2304463946CAF8080030460BF0C0
:1059F00039FEDAE9082306460F460BF0EBFF4FF4B9
:105A00007A73CDE90001DAF80400B0FBF3F0201A54
:105A10000BF066FF32463B4604460D460BF0DAFFBC
:105A2000DAE910230BF020FEDAE90E2380468946DE
:105A30003046CAE9108939460BF014FE22462B463F
:105A40000CF0F2F8DAE90A230BF0C4FFDAE90C23D0
:105A500004460D46404649460BF0BCFFDDE90023F5
:105A60000BF002FE02460B46204629460BF0FCFDD9
:105A7000DAE904458046894602460B462046294617
:105A80000CF01AFA50B9DAE9064542464B46204670
:105A900029460CF02FFA08B944464D4620462946BF
:105AA000CAE90E6702B0BDE8F0870000024A136839
:105AB00001331360704700BFC402002000000000E3
:105AC000D0B5044688B000F0EFFB20460026002742
:105AD0000022194B40F8503B184BCDE90667CDE941
