:02000004080AE8
:1000000000000A08F4510B08000006000800050172
:080010000402BD0B000000001A
:040018001C2F0B0886
:1000200009480A4908B5884205D0094A824202D0E7
:10003000121A0EF077FF0748074A0021121A0EF035
:1000400099FF064808BD00BF000000207C4F0B0848
:100050004C02002050020020CD040020CD040020DE
:1000600070B50CF04DF80025054E064CA41BA408F5
:10007000A54200D170BD56F8043B98470135F7E71B
:1000800034470B0864470B0800F07CBA08B500F051
:10009000EBF9BDE808400BF0F5BF0AF04FBA0AF0E3
:1000A0004DBA0AF053BA0AF051BA000000210C20F0
:1000B00008B5024A0AF0C8F8FEE700BFE19D0A0849
:1000C0000078B0FA80F04009704701230370704750
:1000D000106870477047006A0368DB6818470000C3
:1000E00002F00F02012A04BF014B1A70704700BFD3
:1000F000C802002003681268D1E900011847012AEC
:1001000003D0022A03D0002070470160FBE70B6890
:100110000360F8E70022F0B5144B87B05868114629
:100120000AF044F903466D46002453F8570F104E69
:100130009B88104F0090ADF804300A2215F8011B7F
:1001400002A80AF0E6FB02A930460AF01EFC02A84B
:100150000AF027FB052C03D0394630460AF019FC7B
:100160000134062CE9D1012007B0F0BD4004002085
:1001700084020020302F0B081FB5014668460AF0A4
:10018000A4FB6946044807F078FB044668460AF079
:1001900008FB204604B010BD9402002008B50449B5
:1001A0000AF048FC10B106F085FF012008BD00BF31
:1001B000322F0B081FB5014668460AF086FB6946D8
:1001C000044807F0C9FB044668460AF0EAFA2046EC
:1001D00004B010BD940200201FB5014668460AF025
:1001E00074FB6946044807F0BBFD044668460AF004
:1001F000D8FA204604B010BD940200201FB5014675
:1002000068460AF062FB6946044807F0D8FD0446D8
:1002100068460AF0C6FA204604B010BD94020020D9
:100220001FB5014668460AF050FB6946044807F0CE
:10023000CBFD044668460AF0B4FA204604B010BD6F
:10024000940200201FB5014668460AF03EFB69464D
:10025000044807F0D3FD044668460AF0A2FA204697
:1002600004B010BD940200201FB5014668460AF094
:100270002CFB6946044807F0E5FD044668460AF091
:1002800090FA204604B010BD940200201FB501462C
:1002900068460AF01AFB6946044807F0D9FD04468F
:1002A00068460AF07EFA204604B010BD9402002091
:1002B0001FB5014668460AF008FB6946044807F086
:1002C000EBFD044668460AF06CFA204604B010BD07
:1002D0009402002008B50AF01FFCC1170BF0F8FCCF
:1002E000012008BD1FB5014668460AF0EEFA6946CE
:1002F000044807F05DFE044668460AF052FA2046BC
:1003000004B010BD940200201FB5014668460AF0F3
:10031000DCFA6946044807F06DFE044668460AF0B8
:1003200040FA204604B010BD9402002008B50AF03F
:10033000B7F9012008BD05F08DB930B51368006824
:1003400085B001938368D1E90045CDE902450BB939
:100350000DF0BFF8C36801AA02A9984705B030BDE7
:1003600030B585B00446089860B1406850B18568E2
:1003700045B1CDE90241CDE90023C4686A4601AB2D
:1003800002A9A04705B030BD10B50446006808B109
:100390000AF0DCF8204610BD10B50446094B036096
:1003A0000AF09EFD21460AF0B7FF0CF075FA0CF03A
:1003B00067FA2046044B40F8043B0AF09BFE2046B7
:1003C00010BD00BF4C300B0834300B0810B504468C
:1003D000FFF7E2FF204624210DF075F8204610BDFE
:1003E0000A2A08B50AD10022054B114658680AF0BE
:1003F0001DF818B904F0D6FC0123837708BD00BFAF
:100400004004002010B58368044613B1032201465E
:100410009847204610BD10B504462430FFF7F2FF80
:10042000204610BD024601480BF0F7BEEFC10A0896
:1004300008B50CF011FB4FF416510CF007FB01202E
:100440000BF0B1FD0022114610460BF0BCFD00F090
:1004500049FC01F017F901F0EFFD01F06FFCBDE878
:10046000084000F031BF000010B509F0C1FC0B4C92
:100470000B4B18600AF02AF8204607F0C2F8094B27
:100480001A784AB1226892F82B202AB91A702046AD
:10049000BDE8104007F0D0B810BD00BF94020020A6
:1004A00060040020C802002038B5002383608B68F8
:1004B00004460D462BB102229847EB68E360AB6817
:1004C000A360204638BD0000F0B500248FB0074679
:1004D0000E4602A8114606ADFFF7E6FF02A9284620
:1004E000FFF7E2FF10200C94FFF7D7FD034698B109
:1004F00095E803006A4682E8030093E8030085E874
:10050000030092E80300089A83E803009A60D96820
:10051000099A08940991DA600A93164B10200D93FA
:10052000154B0C93FFF7B9FD0446B0B1002383606F
:100530000C9B33B102220AA998470D9BE3600C9BE8
:10054000A3600E4B3846CDE9003431466B460C4A69
:1005500009F0BCFE041E18BF01240AA8FFF752FFD1
:100560002846FFF74FFF02A8FFF74CFF20460FB0C9
:10057000F0BD00BF3B030A0841070A08010008005C
:1005800061030A08F0B5434985B04348FFF74AFFC5
:1005900042494348FFF746FF42494348FFF742FFBD
:1005A00042494348FFF73EFF42494348FFF73AFFBD
:1005B00042494348FFF736FF42494348FFF732FFBD
:1005C00042494348FFF72EFF42494348FFF72AFFBD
:1005D00042494348FFF726FF42494348FFF722FFBD
:1005E00042494348FFF71EFF42494348FFF71AFFBD
:1005F00042494348FFF716FF42494348FFF712FFBD
:1006000042494348FFF70EFF00240C230094ADF845
:100610000030404B404D019304226B463F49404817
:10062000029409F043FF234604223E493E4809F064
:100630003DFF284606F0E2FF04223C49032009F072
:100640002FFC3B4F3B4B3C4E6A4600212020009341
:1006500003970296FFF738FF6846FFF7D3FE374B44
:100660006A4600214FF400500093CDE90267FFF77E
:100670002BFF6846FFF7C6FE22462146072009F0F9
:1006800035FE20460BF08FFC284607F0B9FC05B07C
:10069000F0BD00BF79010A08372F0B089D010A0839
:1006A000432F0B0837030A084F2F0B08B5010A0820
:1006B000642F0B08D9010A08722F0B08FD010A08E4
:1006C0007E2F0B0821020A08882F0B0845020A0812
:1006D000922F0B0869020A089F2F0B088D020A0847
:1006E000B02F0B08B1020A08BA2F0B08D5020A086E
:1006F000C62F0B08E5020A08CE2F0B0809030A08CB
:10070000DD2F0B082D030A08E82F0B0815010A0836
:10071000EE2F0B08D1000A0894020020840200206A
:10072000FE2F0B0807300B080D300B0814300B0898
:10073000F5000A08E1030A08FF000A08E1000A08B8
:10074000022A70B5044607D0032A10D0012A01D12D
:100750000B680360002070BD10200E68FFF79DFC41
:10076000054610B13146FFF79FFE2560F2E70468A9
:10077000002CEFD02046FFF745FE102120460CF05C
:10078000A2FEE7E770B51426D0E90053044606FB45
:100790000356AE4204D028460AF003F81435F8E7B1
:1007A000206809F0D3FE204670BD2DE9F843B1F171
:1007B0000008074635DD4FF0140909FB08F009F081
:1007C000BDFE0546A8B3D7E90046844209FB0646AC
:1007D00015D2864214D9143EA4F11409341B0444E2
:1007E000B1451FD02CB1314620460AF054F8337C75
:1007F0002374304609F0D5FF143E143CF0E711D0C5
:10080000A946A6420ED0214648460AF044F8237C69
:10081000204689F8103009F0C4FF143409F1140996
:10082000EFE70025386809F091FE01203D60C7F828
:100830000880BDE8F88300232DE9F041C0E90033CA
:1008400083600D4649680446994217DDFFF7ADFF06
:10085000A0B1D5E900634FF0140808FB03682768CE
:10086000B04509D02FB1314638460AF02EF8337C16
:100870003B7414361437F3E76B6863602046BDE8B9
:10088000F081000030B597B00CF088FC002342F2F4
:1008900016511A460CF08AFC0CF080FC0023002450
:1008A0001A4638210CF08AFC0021012009F016FDBF
:1008B000464D474B0120AB602C60AC80AC7109F019
:1008C000F5FC28460125434A43490CF0F7FD012178
:1008D000042009F0EDFAFFF7ABFD4049404809F06C
:1008E000AAFF3C4A3F493E480CF0E8FD3E490CA8AF
:1008F00009F0A1FF3D4911A88DF8405009F09BFF78
:1009000002216846CDE900448DF854500294FFF767
:100910004CFF98B1009C34B120460CA909F0D5FFDA
:100920009DF84030237411A904F1140009F0CDFFA3
:100930009DF8543084F82430022301930BF0ACFF6F
:100940000546694603A8FFF776FF03A906A8284CC9
:10095000FFF771FF274B06A9236009A8FFF76BFF7C
:1009600009AA0121201D0AF029FE09A8FFF70AFFA4
:1009700006A8FFF707FF204B2562236003A8FFF7B7
:1009800001FF1E4B23600BF087FF4FF416510BF055
:1009900073FF0AF0A5FA21460AF0A3FD6846FFF7A7
:1009A000F1FE11A809F0FDFE0CA809F0FAFE094AB3
:1009B000134920460CF082FD124806F0C5FD054A99
:1009C000114910480CF07AFD17B030BD54020020D8
:1009D0000000FFFF5002002089030A08E6370B08D9
:1009E00084020020A3A70A0819300B081D300B0849
:1009F0006002002034300B08E43E0B084C300B083A
:100A000099030A089402002017040A0807B5002277
:100A100001A81146019209F053FA019803B05DF85C
:100A200004FB09F0FDB9000038B5054C25682DB967
:100A30000120FFF732FB00B105702060206838BD4F
:100A4000CC02002013B50CF0CBFC4FF47A7009F007
:100A5000DFF904460CF0C4FC0422694640F2E93098
:100A600009F0E6F9631EDBB2FD2B13D90CF0B8FCDC
:100A700001214FF47A70FFF7D4FF0CF0B1FC0BF0BA
:100A80003EFA042201900DEB020140F2E93009F038
:100A9000D7F919E0042C19D90CF0A2FC00214FF46D
:100AA0007A70FFF7BEFF0CF09BFC0422002440F29A
:100AB000E9300DEB0201019409F0C2F905200BF0B9
:100AC00067FA204609F0EFFD02B010BD0BF017FAEF
:100AD000009BC01AB0F5167FF6D80CF081FC611CA3
:100AE000C9B2C6E713B50CF07BFC40F2ED3009F05B
:100AF0008FF904460CF074FC0422694640F2EE3093
:100B000009F096F9631EDBB2FD2B13D90CF068FCDB
:100B1000012140F2ED30FFF784FF0CF061FC0BF097
:100B2000EEF9042201900DEB020140F2EE3009F0E3
:100B300087F919E0042C19D90CF052FC002140F27D
:100B4000ED30FFF76EFF0CF04BFC0422002440F266
:100B5000EE300DEB0201019409F072F905200BF063
:100B600017FA204609F09FFD02B010BD0BF0C7F93F
:100B7000009BC01A7828F7D80CF032FC611CC9B26F
:100B8000C7E710B50446FFF741FF822804D120468D
:100B9000BDE81040FFF756BFFFF738FF8C2804D19F
:100BA0002046BDE81040FFF79DBFFFF72FFF282824
:100BB00002D10123237010BDBDE81040FFF726BF0E
:100BC00070470000002210B50446044B114640F85F
:100BD000043B09F059FB204610BD00BFD0300B0884
:100BE00010B50446FFF7EEFF204620210CF06BFC09
:100BF000204610BD10B56C22002104460EF0BAF953
:100C00000123002220461146236009F09FFB204665
:100C100010BD2DE9F04105460E4617469DF8181007
:100C2000002218461C4609F099FB234606903A46D6
:100C300031462846BDE8F04109F008BDF0B504464C
:100C400026468BB001F0D8F91C4B002246F8083B31
:100C50001421012009F082FB0125142703462A46AE
:100C6000CDE900756FF07F41304609F0CDFC394683
:100C70000022022009F072FB1E2203460195009219
:100C80000F49022202A804F10C0503AE09F0BCFCD6
:100C90000FCE0FC596E8070085E8070002A8FFF70A
:100CA00091FF4FF480124FF480732046C4E90A2369
:100CB000002384F8303063630BB0F0BDE4300B08E0
:100CC0000060FF0038B5064C23683BB93820FFF7B9
:100CD000E4F9054608B1FFF7B1FF2560206838BD8B
:100CE000D002002030B514249FB003A8FFF782FF84
:100CF00003A803236FF07F4200210094FFF789FFD0
:100D000003A803236FF07F4201210094FFF781FFC6
:100D100002231E25194603A8FF220094FFF779FF3E
:100D200003A80223FF2203210094FFF772FF03A808
:100D30000323FF2204210094FFF76BFF03A8022383
:100D4000FF2205210095FFF764FF03A80223FF227D
:100D500006210095FFF75DFF03A803236FF07F4294
:100D600007210094FFF755FF0A2303A800934FF4CF
:100D70007F4202230921FFF74CFF002203A81146FE
:100D800009F0DCFA1FB030BD10B514249EB003A8E2
:100D9000FFF730FF03A803236FF07F420221009486
:100DA000FFF737FF032303A819466FF07F42009433
:100DB000FFF72FFF03A803236FF07F420421009465
:100DC000FFF727FF03A803236FF07F42052100945C
:100DD000FFF71FFF032303A86FF07F420621009453
:100DE000FFF717FF002203A8114609F0A7FA1EB06B
:100DF00010BD38B505460C4681B10BF0D2F828B1CC
:100E000000200BF0D0F8012385F82830214605F1A9
:100E10000C000022BDE8384009F036BA90F82830BE
:100E2000002BF3D001200BF0BEF8224621462046CD
:100E30000BF0C9F885F82840E8E710B5044649B139
:100E40000BF0AFF8A0B194F8290088B9BDE81040C4
:100E50000BF0A9B80BF0A5F8044648B901200BF037
:100E6000A2F8224621462046BDE810400BF0ABB860
:100E700010BD38B50546E0B10478D4B183783A2B7B
:100E800017D10FF0D9F8042813D90A226878303C1A
:100E9000303802FB04042B79E878303B3038172CCB
:100EA00002FB003005D83B2803D83C2303FB040099
:100EB00038BD4FF0FF30FBE770B50D461646FFF723
:100EC000D8FF04462846FFF7D4FF05463046FFF713
:100ED000D0FF002C10DB002D0EDB00280CDB854240
:100EE00006DCAC4208DB8442ACBF0020012070BDB0
:100EF000AC42F8DB0120FAE70020F8E730B5054600
:100F0000364C8DB039B108F073FF95F82930206068
:100F100063B10DB030BD08F06BFF42F20F72236871
:100F2000C01A9042EFD8002BEDD0F2E795F82B4095
:100F3000002CEED12A492B480DF10D028DF80D4001
:100F400005F00AFA9DF80D3053B92749274808AA39
:100F500005F002FA28469DF82010FFF76EFFD8E74B
:100F6000224623491F4804AB0494ADF8144006946C
:100F7000ADF81C4005F060F822461E49194806AB42
:100F800005F05AF8012318490DF10E0215488DF8A5
:100F90000E3005F0E1F90AF0B2FF174B024617498F
:100FA0000093C31708A80AF04BFF089806AA04A9E3
:100FB000FFF782FF40B19DF80E102846FFF73DFF76
:100FC00008A809F0EEFBA4E7074908480DF10F0255
:100FD00005F0C2F99DF80F10EFE700BFD402002022
:100FE0005C300B0864300B0872300B0878300B084B
:100FF00083300B0889300B088D300B0894030020D8
:1010000013B50446084909480DF1070205F0A4F993
:101010009DF8073033B91121236884F82A1020463F
:101020001B68984702B010BD72300B0878300B086F
:1010300070B5154690F82B200446D2B9012680F8E9
:101040002F1080F82D5080F82E3080F8302080F856
:101050002C6008F0CDFE84F82B60606330460AF007
:10106000A2FF002D0348BDE8704018BFFF200AF022
:10107000BDBF70BD0050FF0010B590F82B30044686
:101080009BB308F0B5FE636BC01AC7282DD908F0D2
:10109000AFFE94F82C306063D3B1002210461146A5
:1010A0000AF091FF002094F8303094F82F2001339B
:1010B000DBB29A4284F82C0084F8303015D894F8CA
:1010C0002E3084F82B0083B1BDE810400AF06BBFCE
:1010D000012384F82C3094F82D300448002B18BFDD
:1010E000FF20BDE810400AF081BF10BD0050FF0096
:1010F000F0B54B1E04460D468DB0242B18D8DFE802
:1011000003F0131D7A7A7A17177A697A1717171767
:10111000174F1F17171717171792171717171717A4
:101120001717A3AAAEB2B60001212046FFF761FE51
:101130002946204600F05AFF0DB0F0BD0021F4E72B
:101140000AF02FFF064638B901200AF02CFF32467C
:10115000314630460AF037FF00224649464805F03E
:10116000D5FF1123454984F82A30684609F063FB0E
:10117000434904A809F05FFB424908A809F05BFB5A
:10118000694608AB04AA532003F092FC08A809F0B2
:1011900008FB04A809F005FB684609F002FBC7E755
:1011A0000AF0FFFE20B194F8290008B90AF0FBFE0E
:1011B00001223049304805F0A9FF1023324984F854
:1011C0002A30684609F037FB2D4904A809F033FBA3
:1011D0002E49D2E7012780F829700AF0E2FE064680
:1011E0000028A5D138460AF0DEFE324631463046A8
:1011F0000AF0E9FE9CE7002390F82B6080F8293084
:10120000002E95D11B491C4808AA05F0A5F89DF8A9
:101210002030002B8CD00AF0C4FE002888D0304645
:101220000AF0C1FE84E7FFF75DFD0AF0BAFE10B1D7
:1012300000200AF0B8FE01220E490F4805F066FFB3
:10124000182384F82A3073E701231A4619462046EA
:10125000FFF7EEFE6CE7012302211A46F7E70123B0
:101260001A460321F3E7012304211A46EFE701237D
:101270000022F6E772300B0878300B0893300B0829
:1012800099300B08A5300B08B4300B08BA300B08A6
:1012900010B5044600F0B0FE024B20462360152333
:1012A000A36010BD48310B0838B5064C23683BB924
:1012B0000C20FEF7F2FE054608B1FFF7E9FF2560B6
:1012C000206838BDD802002008B5012119200BF094
:1012D000CBFFBDE80840002119200BF0D6BF00006D
:1012E000002213B511460DF107030446074804F028
:1012F0009CFF9DF80710A1F11603012B03D823686A
:1013000020461B68984702B010BD00BFE8300B08AC
:1013100030B54B1E04460D468DB01F2B3AD8DFE882
:1013200003F0A3A79D979D399D399D399D86869091
:1013300090393939393963103F3939393939399D5B
:101340009D9716230022037211464E4805F073FF45
:101350004D49684609F06FFA4C4904A809F06BFA48
:101360004B4908A809F067FA694608AB04AA53205C
:1013700003F09EFB08A809F014FA04A809F011FA7A
:10138000684609F00EFAA37A23B90121E172192007
:101390000BF07BFF2946204600F028FE0DB030BD43
:1013A0001723002203721146364805F044FF3949DD
:1013B000684609F040FA354904A809F03CFA364974
:1013C00008A809F038FA694608AB04AA532003F0CC
:1013D0006FFB08A809F0E5F904A809F0E2F96846EE
:1013E00009F0DFF90021D1E715230022037211462D
:1013F000244805F020FF6846284909F01CFA2349D3
:1014000004A809F018FA264908A809F014FA694650
:1014100008AB04AA532003F04BFB08A809F0C1F95C
:1014200004A809F0BEF9684609F0BBF9B2E7037AEF
:10143000152BAFD1437A002BACD1837A002BA9D1E5
:10144000D0E7037A152BA5D1437A002BA2D19AE7D6
:1014500001234372037A152B9CD194E70023437236
:10146000037A152B96D1BDE70123002143818EE736
:1014700000238372037A162B87D0437A002B84D102
:1014800088E700BFE8300B08F3300B08F9300B0891
:1014900005310B0813310B0819310B0828310B08E3
:1014A0002E310B08D0B5044616461F4608F0A0FCA6
:1014B000DDE90423C4E90623DDE90623C4E90823A2
:1014C000DDE90823C4E90A23DDE90A23C4E90C2382
:1014D00000220023A060C4E904672046C4E90E236B
:1014E000C4E91023D0BD2DE9F3471F468368824627
:1014F0004360164608F07CFCDDE90A2304463946C1
:10150000CAF8080030460CF001FADAE9082306466A
:101510000F460CF0B3FB4FF47A73CDE90001DAF813
:101520000400B0FBF3F0201A0CF02EFB32463B46D1
:1015300004460D460CF0A2FBDAE910230CF0E8F9A2
:10154000DAE90E23804689463046CAE910893946D1
:101550000CF0DCF922462B460CF0BAFCDAE90A233F
:101560000CF08CFBDAE90C2304460D464046494654
:101570000CF084FBDDE900230CF0CAF902460B46AF
:10158000204629460CF0C4F9DAE90445804689462C
:1015900002460B46204629460CF0E2FD50B9DAE936
:1015A000064542464B46204629460CF0F7FD08B951
:1015B00044464D4620462946CAE90E6702B0BDE8BA
:1015C000F0870000024A136801331360704700BFC0
:1015D000DC02002000000000D0B5044688B000F016
:1015E0000BFD20460026002700221B4B40F8503BF5
:1015F0001A4BCDE90667CDE9022315A3D3E90023F1
:10160000CDE90467CDE900230022154BFFF74AFF1F
:10161000192384F898304FF448534FF49661C4E985
:101620000267C4E90467A38504F12C0204F11803DE
:1016300023F8021B9342FBD100232046C4E9123356
:10164000E3850123238608B0D0BD00BFAFF300803F
:101650000000000000407FC0F4310B080000E03FB4
:1016600000407F4038B5064C23683BB9A020FEF708
:1016700014FD054608B1FFF7AFFF2560206838BDAF
:10168000E802002007B5012118200BF0EDFD002134
:101690001B200BF0E9FD082118200BF07BFE4FF416
:1016A0007A72FF2118200BF059FE0023012207490E
:1016B00000931B204FF0FF330BF048F908F098FB24
:1016C000034B186003B05DF804FB00BFC5150A08A2
:1016D000E002002038B508F08BFB0949094A0B6885
:1016E000C31AB3F57A7F08D30023074C0860256836
:1016F00023603C236B435B081380108838BD00BF18
:10170000E0020020E4020020DC02002000000000D3
:10171000F7B5054608F06CFBAB6CC01AB0F5FA6F74
:101720002BD3284695F82D40FFF7D4FF0CF02CFA68
:10173000D5E9022305F15006CDE900013046FFF757
:10174000D2FE00223C4B06460F460CF01DFDB0B108
:10175000103CE4B2042C38BF0424322C28BF3224BD
:1017600095F82D30A34205D0214618200BF0D0FD6E
:1017700085F82D4008F03CFBA86403B0F0BD0022C2
:10178000304639462D4B0CF0FFFC08B1083CE0E731
:10179000304625A3D3E9002339460CF0F5FC08B107
:1017A000043CD6E7002230463946254B0CF0ECFCD1
:1017B00008B1023CCDE7002230463946214B0CF0FF
:1017C000E3FC08B1013CC4E70022304639461E4B19
:1017D0000CF0D0FC08B10134BBE70022304639469A
:1017E0001A4B0CF0C7FC08B10234B2E700223046B5
:1017F0003946174B0CF0BEFC08B10434A9E70022AF
:1018000030463946134B0CF0B5FC08B10834A0E75C
:10181000304607A3D3E9002339460CF0ABFC00287F
:1018200098D0103495E700BF0000000000C072405F
:101830000000000000407FC000407F400000794071
:1018400000004E4000804640008046C000004EC070
:1018500000C072C0000079C090F830300BB1FFF7C3
:1018600057BF7047F8B51F469DF818300446164616
:1018700083B100220023304639460CF067FC70B378
:101880004FF47A72FF2118200BF068FD002384F8D2
:101890003030F8BD90F82C2039460A2A08BF80F86D
:1018A0002C3090F82C506B1C80F82C3030460CF00B
:1018B000A7FC0C3580B224F8150094F82E30002BCC
:1018C000E7D194F82F30002BE3D104F1180304F191
:1018D0002C0233F8021B8842DBD19342F9D1C4E9D0
:1018E0000267D6E738B590F82F3004460D4643B965
:1018F00041B94FF47A72FF2118200BF02FFD84F8C4
:10190000305038BD90F8303013B9012380F83030B2
:101910002946BDE838404FF47A7218200BF01EBDFE
:1019200010B5044694F82F3008463BB9D4E9022399
:10193000C4E904230CF028F9C4E9020110BD000039
:101940002DE9F0434B1E04460D468FB01F2B24D8C3
:10195000DFE813F061006E00D200060106012300EB
:1019600006012300060123004C0173008700980044
:10197000B5002300230023002300230023002300BD
:101980002300D2009401C9016A0020005F00060113
:1019900006010601012384F8313094F8303013B188
:1019A0002046FFF7B5FE08F023FAE36CC01AA44BFB
:1019B000984227D994F82F300BBB94F83030F3B10C
:1019C0002046FFF787FED0B99E4902A808F033FFF2
:1019D0009D4906A808F02FFF9C490AA808F02BFF94
:1019E0000AAB06AA02A9532003F062F80AA808F07D
:1019F000D8FE06A808F0D5FE02A808F0D2FE08F02E
:101A0000F7F9E0642946204600F0F0FA0FB0BDE88F
:101A1000F0830023BFE7012380F82F304FF47A7260
:101A2000FF2118200BF09AFC002384F83030B4E733
:101A3000002380F82F300123F7E794F8313000229B
:101A400000F10801D1E9000123B3814B0CF07EFBCA
:101A50000028A2D100227E4B00902046FFF702FF13
:101A60009BE794F83130002200F10801D1E9000130
:101A70006BB3784B0CF06AFB00288ED10022754BBB
:101A80000090EAE794F83130002200F10801D1E932
:101A9000000153B1704B0CF059FB00287FF47DAF6F
:101AA0000023002200936C4BD7E76C4B0CF04EFBED
:101AB00000287FF472AF0022684B0090CDE794F8C5
:101AC0003130002200F10801D1E9000153B1644B2B
:101AD0000CF03CFB00287FF460AF00230022009351
:101AE0005F4BBAE75F4B0CF031FB00287FF455AF3A
:101AF00000225C4B0090B0E7002380F82E3090F875
:101B00002F3013B9012380F830300026D4E904893E
:101B1000002732463B46404649460CF017FB18B9B1
:101B2000C4E90289C4E904674F4902A808F083FEAA
:101B3000454906A808F07FFE4C490AA808F07BFE3C
:101B40000AAB06AA02A9532002F0B2FF0AA808F0C5
:101B500028FE06A808F025FE02A808F022FE1CE7D1
:101B60000123414980F82E3080F8303002A808F077
:101B700062FE354906A808F05EFE3D490AA808F055
:101B80005AFE0AAB06AA02A9532002F091FF0AA846
:101B900008F007FE06A808F004FE02A808F001FEFF
:101BA000042D04D100222F4BC4E90223F5E66B1F5C
:101BB000012B02D80022284BF6E7072D02D1002284
:101BC000234BF1E7092D02D10022224BECE71E2D19
:101BD000FAD01F2D03D116A3D3E90023E4E7202D6B
:101BE0007FF4DBAE14A3D3E90023DDE7214902A88B
:101BF00008F021FE144906A808F01DFE1E490AA897
:101C000008F019FE0AAB06AA02A9532002F050FF01
:101C10000AA808F0C6FD06A808F0C3FD02A808F04F
:101C2000C0FD012384F82E30F8E600BFAFF300803A
:101C30000000000000709740000000000088A340F2
:101C4000002E9302CC310B0852310B08D2310B0815
:101C500000407F4000208C4000C0924000209C400B
:101C600000E0954000409F404C310B085E310B086E
:101C700077310B089E310B08A4310B081D4902A8CF
:101C800008F0D9FD1C4906A808F0D5FD1B490AA893
:101C900008F0D1FD0AAB06AA02A9532002F008FF02
:101CA0000AA808F07EFD06A808F07BFD02A808F04F
:101CB00078FD94F82F3013B9012384F830304FF0B9
:101CC0000008D4E904674FF0000942464B4630460D
:101CD00039460CF03BFA00287FF45FAEC4E9026796
:101CE000C4E9048959E690F82F30002B7FF455AEF3
:101CF000A1E600BF4C310B0852310B08BA310B087A
:101D000010B5044600F078F9034B1222236000233B
:101D10002046C4E9022310BDA4320B0838B5064C96
:101D200023683BB91020FEF7B8F9054608B1FFF764
:101D3000E7FF2560206838BDEC02002008B50121CE
:101D400002200BF091FA00210B200BF08DFABDE878
:101D50000840002102200BF098BA0000002213B5C1
:101D600011460DF107030446074804F05EFA9DF89A
:101D70000710A1F11303012B03D8236820461B6829
:101D8000984702B010BD00BFF8310B0870B5C37A98
:101D9000DBB9012102200BF078FA0A200AF0F8F8EA
:101DA00001260F2400252DB90B200BF087FA051E04
:101DB00018BF0125013C14F0FF04F4D11EB12146E7
:101DC00002200BF062FA284670BD0026E9E7000009
:101DD00030B54B1E04460D468DB01F2B4AD8DFE8A8
:101DE00013F0E000E400D900D200D9004900D90086
:101DF0004900D9004900D900BF00BF00C900C9008F
:101E0000490049009C002000780049004900490031
:101E1000490049004900490049004900D900D9005A
:101E2000D2001323002203721146654805F003FA1D
:101E30006449684608F0FFFC634904A808F0FBFC0D
:101E4000624908A808F0F7FC694608AB04AA5320C9
:101E500002F02EFE08A808F0A4FC04A808F0A1FCDB
:101E6000684608F09EFCA37A23B90121E1720220A2
:101E70000BF00BFA07F0BCFFE368C01A544B984212
:101E800021D92046FFF782FFD0B95249684608F0B1
:101E9000D2FC4D4904A808F0CEFC4F4908A808F030
:101EA000CAFC694608AB04AA532002F001FE08A848
:101EB00008F077FC04A808F074FC684608F071FC90
:101EC00007F096FFE0602946204600F08FF80DB03D
:101ED00030BD1423002203721146394805F0ABF9D6
:101EE0003E49684608F0A7FC374904A808F0A3FC5F
:101EF0003B4908A808F09FFC694608AB04AA532098
:101F000002F0D6FD08A808F04CFC04A808F049FC33
:101F1000684608F046FC0021A8E71223002203725D
:101F20001146274805F087F968462E4908F083FCDA
:101F3000254904A808F07FFC2B4908A808F07BFC81
:101F4000694608AB04AA532002F0B2FD08A808F0C5
:101F500028FC04A808F025FC684608F022FC89E764
:101F6000037A122B86D1437A002B83D1837A002BFC
:101F700080D1D0E7037A122B7FF47CAF437A002B19
:101F80007FF478AF6FE701234372037A122B7FF45B
:101F900071AF68E700234372037A122B7FF46AAFB4
:101FA000B9E701230021438161E700238372037AAB
:101FB000132B3FF45AAF437A002B7FF456AF59E707
:101FC000F8310B0806320B080C320B0820320B08D4
:101FD000002E930271320B0877320B0836320B0851
:101FE0003C320B0853320B0859320B08406810B1D1
:101FF00003681B6818477047024A0260002242606B
:10200000704700BFB0320B0841607047034640681C
:102010000028FBD15960704738B5064C25683DB99A
:102020001420FEF73AF810B10223C5600380206047
:10203000206838BDF002002000211C200BF014B9EC
:10204000002370B586B004938B6804460E4602AD3B
:1020500033B1022228469847F3680593B368049386
:102060006A4695E80300231D82E8030093E8030015
:1020700085E8030092E8030083E80300049AE3681C
:102080002169E260059A0493059122611BB1032244
:1020900029462846984706B070BD07B582688DF876
:1020A00007100AB90BF015FAC3680DF1070198473C
:1020B00003B05DF804FB000010B504468CB01C2092
:1020C0000BF0FCF8012801462CD12378022B29D1F2
:1020D00040F20113204620F8043BFFF7DEFF1D49C4
:1020E000684608F0A8FB1C4904A808F0A4FB1B499B
:1020F00008A808F0A0FB694608AB04AA532002F028
:10210000D7FC08A808F04DFB04A808F04AFB684675
:1021100008F047FB01220023A118114808F0C6F976
:102120000CB010BD1C200BF0C9F80028F2D12378A8
:10213000012BEFD10221204620F8041BFFF7ADFF51
:102140000849684608F077FB034904A808F073FBC8
:102150000549CDE7B4320B08BB320B08C9320B0876
:10216000FE320B08E0320B08E7320B08436913B16B
:1021700083690C301847704713B5002104460846A0
:1021800007F0B6FE0023204601A9019307F0C8FE20
:10219000019C0CB1012323710021012007F0A8FE4E
:1021A0002CB1236820469B6898470023237102B016
:1021B00010BD022A38B5044607D0032A11D0012ADF
:1021C00001D10B682360002038BD0C200D68FDF79D
:1021D00064FF03460028F5D095E8070083E8070070
:1021E000F0E700680028EED00C210BF06CF9EAE76C
:1021F00010B403685A689968541001EB6200D20762
:1022000048BF0A591B6810BC48BFD3581847000084
:1022100037B5134B044603608068C8B100256FF0E2
:1022200000430221CDE900352A462B4607F080FE07
:102230002946A06807F0CCFE237903F0FF0513B10F
:1022400007F04EFEF8E72946A06807F061FEA5609A
:1022500004F10C00FEF7D6F8204603B030BD00BFF5
:10226000F8340B0810B50446FFF7D2FF20461C21B6
:102270000BF029F9204610BD10B5044601F056FABE
:1022800000232361022320602371204610BD00003B
:1022900038B5064C23683BB91820FDF7FEFE05460D
:1022A00008B1FFF7E9FF2560206838BDF40200207F
:1022B0002DE9F04F044600688FB00378002B00F042
:1022C000AC8001F043FA00258046554FDFF874A139
:1022D000544E5FFA85F9C84576D939460AA808F000
:1022E000AAFA019501350A22294606A808F023FB1F
:1022F00006A90AA808F05CFB2268019B01684FEA66
:10230000830B02EB83035B68524693F9043030463B
:1023100004F0E3FF06A808F044FA0AA808F041FA1E
:1023200039460AA808F087FA0A22294606A808F0C2
:1023300002FB06A90AA808F03BFB00233A4A016801
:10234000304604F0CAFF06A808F02BFA0AA808F0E5
:1023500028FA39460AA808F06EFA0A22294606A881
:1023600008F0E9FA06A90AA808F022FB2368016828
:102370005B445B6830465B692C4A05F000F806A8B0
:1023800008F00FFA0AA808F00CFAB9F1000FA0D172
:1023900039460AA808F04FFA0A22294606A808F08A
:1023A000CAFA06A90AA808F003FB236801685B685B
:1023B00030469B691E4A04F0E2FF06A808F0F1F9D6
:1023C0000AA808F0EEF984E7236800221B7819496F
:1023D000144804F030FF0022236817491A7702A836
:1023E00008F029FA154906A808F025FA14490AA8A0
:1023F00008F021FA0AAB06AA02A9532002F058FB02
:102400000AA808F0CEF906A808F0CBF902A808F04F
:10241000C8F901200FB0BDE8F08F0520FAE700BF32
:1024200009330B0868300B0816330B0825330B08EB
:1024300021330B082C330B0831330B0838330B08CE
:1024400046330B080F330B08006803785BB1437801
:1024500000EB83035B681B7F0BB901F0CDB9037FF1
:102460000BB101F0A7B9704730B5032904460D46FA
:1024700095B000F0CA800B4601710022644965489E
:1024800004F02BFF23685A7803EB82035B681B7F01
:10249000002B2FD16B1E082B26D8DFE803F0055C3C
:1024A00025256B897A98A700042104F10800FFF71D
:1024B000F4FD594908A808F0BEF958490CA808F0DD
:1024C000BAF9574910A808F0B6F910AB0CAA08A938
:1024D000532002F0EDFA10A808F063F90CA808F0F8
:1024E00060F908A808F05DF92B4600224D494948DB
:1024F00004F0F3FE4C4908A808F09DF947490CA8E0
:1025000008F099F9494904A808F095F90A222946E2
:10251000684608F010FA694604A808F049FA01462E
:1025200010A808F0D2F910AB0CAA08A9532002F0A9
:10253000BFFA10A808F035F9684608F032F904A887
:1025400008F02FF90CA808F02CF908A808F029F9D0
:10255000012015B030BD052104F10800FFF79DFDF5
:10256000334908A808F067F92C490CA808F063F96A
:102570003049A7E7072104F10800FFF78EFD2E4937
:1025800008A808F058F925490CA808F054F92B4977
:1025900098E70B2104F10800FFF77FFD284908A800
:1025A00008F049F91D490CA808F045F9254989E7C3
:1025B0001E2104F10800FFF770FD234908A808F068
:1025C0003AF916490CA808F036F920497AE71F2194
:1025D00004F10800FFF761FD1D4908A808F02BF978
:1025E0000E490CA808F027F91A496BE7202104F1DD
:1025F0000800FFF752FD184908A808F01CF9074920
:102600000CA808F018F915495CE70220A1E700BF03
:1026100063330B086B330B0877330B0838330B0825
:102620007D330B0822340B082A340B0830340B0896
:102630008D330B0893330B08A2330B08A9330B0817
:10264000BB330B08C2330B08D1330B08D8330B084C
:10265000EC330B08F3330B0807340B080E340B086C
:1026600030B590F9043004468FB0092B51D8DFE81B
:1026700003F00567755050839F91ADBB0DF10703C3
:1026800000226049604803F019FE9DF8073004F10C
:102690000805002B46D01C212846FFF7FEFC5B49AD
:1026A0000AA808F0C8F85A4906A808F0C4F8594919
:1026B00002A808F0C0F802AB06AA0AA9532002F04B
:1026C000F7F902A808F06DF806A808F06AF80AA859
:1026D00008F067F803212846FFF7DFFC4E490AA8F7
:1026E00008F0A9F84A4906A808F0A5F84B4902A83D
:1026F00008F0A1F802AB06AA0AA9532002F0D8F903
:1027000002A808F04EF806A808F04BF80AA808F04E
:1027100048F8002294F9043041493B4804F0DDFDBB
:102720000FB030BD1D212846FFF7B7FC3D490AA870
:1027300008F081F8364906A808F07DF83A49B7E76D
:1027400004210830FFF7A9FC38490AA808F073F8FB
:102750002F4906A808F06FF83549C8E70521083069
:10276000FFF79BFC33490AA808F065F8284906A83A
:1027700008F061F83049BAE707210830FFF78DFC0F
:102780002E490AA808F057F8214906A808F053F87E
:102790002B49ACE70B210830FFF77FFC29490AA839
:1027A00008F049F81A4906A808F045F826499EE7B6
:1027B0001E210830FFF771FC14490AA808F03BF805
:1027C000134906A808F037F8204990E71F21083080
:1027D000FFF763FC1E490AA808F02DF80C4906A86B
:1027E00008F029F81B4982E720210830FFF755FC43
:1027F00019490AA808F01FF8054906A808F01BF8AF
:10280000164974E74A340B086B330B08D1330B08B5
:1028100038330B085D340B0895340B089B340B08D8
:1028200022340B0875340B087C340B0877330B0803
:102830007D330B088D330B0893330B08A2330B0841
:10284000A9330B08BB330B08C2330B08D8330B0872
:10285000EC330B08F3330B0807340B080E340B086A
:1028600013B50131044609D10DF1070300220949CE
:10287000094803F086FC9DF80730237123685A78D5
:1028800003EB82035B681B7F13B92046FFF7E8FE6A
:1028900002B010BD63330B086B330B0830B50D4627
:1028A0008FB00DF10703044600221A491A4803F0BD
:1028B00068FC9DF90730AB4229D1002315491A461F
:1028C0002371154804F009FD204694F90410FFF720
:1028D000C7FF124902A807F0AEFF114906A807F08A
:1028E000AAFF10490AA807F0A6FF0AAB06AA02A988
:1028F000532002F0DDF80AA807F053FF06A807F0FE
:1029000050FF02A807F04DFF01200FB030BD03209B
:10291000FBE700BF63330B086B330B08AB340B08CA
:1029200038330B08B1340B0813B56C460B4602461E
:1029300003C884E8030093E8030082E8030094E8F6
:10294000030083E8030002B010BD000070B58CB036
:102950000E4605AD02A981E80C0085E80C000023B5
:1029600004460C200A93FDF798FB034628B195E82E
:102970000300109A83E803009A6000250893134B24
:1029800004F10C010B93124B08A80A93114B25710B
:102990002360A5606561FFF7C7FF0A9B62696361F9
:1029A0000B9B0A92A269A3619DF8443031460B92B9
:1029B0000093094A2346019504F1080007F0A0FAA4
:1029C00008A8FDF71FFD20460CB070BDF1210A08D4
:1029D000B3210A08F8340B0879210A080000000026
:1029E0002DE9F04FA9B00DF11D0304460022C049A6
:1029F000C04803F01AFC9DF81D30002B00F08182C6
:102A00002268BD491370BB4800220DF11E0303F07C
:102A10000CFC23689DF81E2000255A7000230493A7
:102A200020689DF810A00378534540F268820AF1AF
:102A30000106B2491BA807F0FEFE0A2231461FA874
:102A400007F079FF1FA91BA807F0B2FF0DF11F03C4
:102A5000AB4A0168A74803F094FB1FA807F0A1FE4A
:102A60001BA807F09EFEA5491BA807F0E4FE0A225A
:102A700031461FA807F05FFF1FA91BA807F098FFAA
:102A800009ABA04A01689B4803F0D6FA1FA807F0DB
:102A900088FE1BA807F085FE98491BA807F0CBFE0F
:102AA0000A2231461FA807F046FF1FA91BA807F0FE
:102AB0007FFF08AB0168944A8E4803F017FB1FA8FC
:102AC00007F06FFE1BA807F06CFE23685B78534588
:102AD00040F0408109F024FA0A2201460FA807F0CD
:102AE0002AFF0F9F09F028FA0A22014613A807F0CF
:102AF00022FFDDF84CB009F027FA0A22014617A898
:102B000007F019FF38460DF097FA064658460DF0C3
:102B100093FADDF85C90029048460DF08DFA8046FD
:102B200009A80DF089FA029B1E440636B0444044C1
:102B3000FDF7B5FA804639460CF0F8FC734940467B
:102B40000CF0C4FC594640460CF0C0FC6F494046AE
:102B50000CF0BCFC494640460CF0B8FC6B494046C2
:102B60000CF0B4FC09A940460CF0B0FC68494046A2
:102B70000CF0ACFC1FAA674940460DF031FE1FA8BF
:102B80000CF0D8FA0E46074609F0EAF90246C317D8
:102B9000CDE90223DDE902013A4633460CF0C4F8E0
:102BA00051A3D3E900230BF093F90022002306463A
:102BB0000F460BF0D5FA002855D009F0B1F90A22DA
:102BC000411E1BA807F0B7FE1B99084605910DF0A2
:102BD00033FA064658460DF02FFA804648460DF067
:102BE0002BFA074609A80DF027FA46440636374463
:102BF0003844FDF754FA804605990CF097FC434998
:102C000040460CF063FC594640460CF05FFC3F49DF
:102C100040460CF05BFC494640460CF057FC3B49F3
:102C200040460CF053FC09A940460CF04FFC3849D3
:102C300040460CF04BFC1FAA364940460DF0D0FD33
:102C40001FA80CF077FA02460B46DDE902010CF0F2
:102C50006BF825A3D3E900230BF03AF906461BA82D
:102C60000F4607F09EFD4046FDF71DFA00220023A7
:102C7000304639460BF074FA00284DD04FF07C51A5
:102C800008980BF03BFC0AF0A1FF32463B46804619
:102C900089460BF083FA00283ED032463B46404638
:102CA00049460AF035FE0BF0CBFA064617A807F0A6
:102CB00078FD13A807F075FD0FA807F072FD9DF9C8
:102CC0001F304FEA8A0A013B082B56D8DFE813F081
:102CD00044008A00A60055009800C200B400D0004D
:102CE000DF0000BFAFF30080000000000020AC4018
:102CF0002C330B0868300B08D0340B0809330B0851
:102D00000F330B0816330B0825330B089D370B08C0
:102D1000D9340B08DD340B08002200233046394635
:102D20000BF03CFAA0B14FF07C5108980BF0E6FB99
:102D30000AF04CFF32463B46804689460BF02EFA9D
:102D400030B132463B46404649460AF0DFFDAAE72D
:102D50002E46ABE72E46B2E72420FDF79EF9074644
:102D600040B1089B0121009609AA01F0CBFC664BFB
:102D70003B603C62236853445F60236829465344A8
:102D80003046D3F804800BF075FD0746002800F0AC
:102D90008D805E49D8F818000BF0B0FB5B490BF052
:102DA000ADFB5B490BF0AAFB0BF06EFD07461C2048
:102DB000FDF773F9064660B1564B39460B93002375
:102DC0000C93012301932368524A00930023FFF7D9
:102DD000BDFD23689A44DAF804309E60049B0133F9
:102DE00004931DE62420FDF758F907460028C1D0BA
:102DF000089B0221009609AA01F084FC464BB7E724
:102E00002420FDF74AF907460028B3D0089B052186
:102E1000009609AA01F076FC404BA9E72420FDF7B3
:102E20003CF907460028A5D0089B0321009609AA73
:102E300001F068FC3A4B9BE72420FDF72EF907468A
:102E4000002897D0089B0721009609AA01F05AFC98
:102E5000344B8DE72420FDF720F90746002889D060
:102E6000089B0621009609AA01F04CFC2E4B7FE737
:102E70002420FDF712F9074600283FF47BAF089B9A
:102E80000821009609AA01F03DFC284B70E7242098
:102E9000FDF703F9074600283FF46CAF089B0921B2
:102EA000009609AA01F02EFC214B61E7D8F8140026
:102EB0000AF08CFE00221F4B0AF0E0FE00221E4B9F
:102EC0000AF0DCFE00221C4B0AF0D8FE00221B4B4D
:102ED0000AF0D4FE0BF06CF980461C20FDF7DDF8FB
:102EE000064600283FF475AF0A4B4146CDE90D3741
:102EF000012301932368074A00933B4667E700F0EC
:102F0000ABFC29B0BDE8F08F40360B0800007042E2
:102F100000007A4485380A08D8350B0868360B0853
:102F20007C350B08A0360B08B4350B083C350B0874
:102F300018360B080000E03F00004E4000408F4074
:102F40002DE9F04F91B01F469DF86C300546039374
:102F500003680E461B789046DDF868900BB1FFF7CA
:102F6000A7F90024039B5FFA84FA9C4200F0408298
:102F700057F824B0002158460BF068FC30B9584689
:102F8000B1490BF077FC002800F08B800AF1FF3A82
:102F9000DFF8DC82DFF8DC925FFA8AF42420FDF7A8
:102FA0007CF8074618B101F09FFBA84B3B602B68EB
:102FB000414603EB84035F600CA8671C07F03BFCF1
:102FC0000A22394608A807F0B6FC08A90CA807F0A1
:102FD000EFFC2B68A60033445B689D4A93F90430EC
:102FE0000168484604F079F908A807F0DAFB0CA854
:102FF00007F0D7FB41460CA807F01DFC0A22394612
:1030000008A807F098FC08A90CA807F0D1FC2B68C9
:10301000904A33445B6801680C33484604F007FA71
:1030200008A807F0BEFB0CA807F0BBFB41460CA8A4
:1030300007F001FC0A22394608A807F07CFC08A921
:103040000CA807F0B5FC2B6801681E44736848465D
:103050005B69814A04F093F908A807F0A2FB0CA869
:1030600007F09FFBD4B941460CA807F0E4FB0A2205
:10307000394608A807F05FFC08A90CA807F098FCDF
:103080002B6801685B6848469B69744A04F077F9CD
:1030900008A807F086FB0CA807F083FB013CE4B20C
:1030A0007CE73357013B082B24D8DFE813F00900F5
:1030B000E5000D012300F9003501210149015D0101
:1030C0002420FCF7EAFF824678B1062259F8243022
:1030D00002FB0482009357F82430315701F012FBB1
:1030E0005F4BCAF80030CAF820502B6803EB84030A
:1030F000C3F804A0D5F800A0002C40F049810021BD
:10310000D9F800000BF0B6FB002800F04181DAF896
:103110000430544998690BF0F1F952490BF0EEF97B
:1031200051490BF0EBF90BF0AFFB83461C20FCF789
:10313000B4FF824658B14D4B5946CDE904340123C2
:1031400001932B68494A00932346FFF7FFFB2B6846
:103150005B684749C3F808A00CA804F1010A07F00E
:103160006AFB0A22514608A807F0E5FB08A90CA84B
:1031700007F01EFC2B68364A03EB84035B6801688A
:1031800093F904303B4804F0A8F808A807F009FBBD
:103190000CA807F006FB36490CA807F04CFB0A22E6
:1031A000514608A807F0C7FB08A90CA807F000FCC7
:1031B0002B684FEA840B5B445B68264A0C3301683A
:1031C0002C4804F034F908A807F0EBFA0CA807F033
:1031D000E8FA27490CA807F02EFB0A22514608A856
:1031E00007F0A9FB08A90CA807F0E2FB2B6801680F
:1031F0005B445B68184A5B691E4804F0C0F808A885
:1032000007F0CFFA0CA807F0CCFAD4B918490CA8EB
:1032100007F011FB0A22514608A807F08CFB08A909
:103220000CA807F0C5FB2B6801685B680B4A9B691B
:10323000104804F0A4F808A807F0B3FA0CA807F0A7
:10324000B0FA54468EE600BF0000C0417C350B0842
:103250000F330B0816330B0825330B0821330B08EB
:1032600040360B080000704200007A4485380A0896
:1032700009330B0868300B082420FCF70EFF824648
:1032800000283FF432AF062259F8243002FB0482B2
:10329000009357F82430315701F034FA5C4B20E7A3
:1032A0002420FCF7FAFE824600283FF41EAF0622D7
:1032B00059F8243002FB0482009357F82430315728
:1032C00001F020FA534B0CE72420FCF7E6FE82467F
:1032D00000283FF40AAF062259F8243002FB04828A
:1032E000009357F82430315701F00CFA4A4BF8E6B6
:1032F0002420FCF7D2FE824600283FF4F6AE0622D8
:1033000059F8243002FB0482009357F824303157D7
:1033100001F0F8F9414BE4E62420FCF7BEFE8246BA
:1033200000283FF4E2AE062259F8243002FB048262
:10333000009357F82430315701F0E4F9384BD0E6C8
:103340002420FCF7AAFE824600283FF4CEAE0622D7
:1033500059F8243002FB0482009357F82430315787
:1033600001F0D0F92F4BBCE62420FCF796FE8246F4
:1033700000283FF4BAAE062259F8243002FB04823A
:10338000009357F82430315701F0BCF9264BA8E6DA
:103390000AEB840ADAF8043058690AF017FC0022B4
:1033A000224B0AF06BFC0022214B0AF067FC002242
:1033B0001F4B0AF063FC00221E4B0AF05FFC0AF070
:1033C000F7FE83461C20FCF768FE824660B11A4B6C
:1033D0005946069300230793012301932B68164A4D
:1033E00000930023FFF7B2FA2B6803EB8403AFE6E8
:1033F0002B6800221C702B6810491B78104803F0C2
:103400001AFF286800F028FA012011B0BDE8F08FFB
:10341000D8350B0868360B087C350B08A0360B082E
:10342000B4350B083C350B0818360B080000E03F9C
:1034300000004E4000408F4085380A082C330B08AE
:1034400068300B087FB5002302938B6804460D4655
:1034500000F1080633B1022268469847EB680393EF
:10346000AB68029331466846FFF75EFA029B226919
:103470002361039B02926269684663610392FCF7D1
:10348000C1FF4FF0FF312046FFF7EAF904B070BDED
:10349000012130B583680177044698688FB038B150
:1034A0006FF000420023CDE900231A4606F040FDEC
:1034B0000023256A0C932B6943B1022205F1080110
:1034C0000AA898476B690D932B690C931F238DF8FD
:1034D00018300C9B0BB909F0FCFF0D9B06A90AA83C
:1034E00098470C9B1BB10AA903220846984794F9F8
:1034F000043000221049114803F0EFFE104902A8E1
:1035000007F099F90F4906A807F095F90E490AA89E
:1035100007F091F90AAB06AA02A9532001F0C8FAF4
:103520000AA807F03EF906A807F03BF902A807F041
:1035300038F90FB030BD00BF22340B086B330B08D5
:10354000EC330B0838330B0804350B0830B5002575
:10355000036A85611B6804465B788DB0002B3DD102
:10356000304908A8039507F066F9236A0A221B6808
:1035700004A85978013107F0DEF904A908A807F07A
:1035800017FA294A016803AB284802F0AFFD04A8E6
:1035900007F007F908A807F004F9294603980BF08B
:1035A00069F9D8B11F4908A807F045F9236A0A222A
:1035B0001B6804A85978013107F0BDF904A908A8CF
:1035C00007F0F6F9A3690168174A184803F0D7FE17
:1035D00004A807F0E6F808A807F0E3F8A3689D68D8
:1035E000F5B160690AF0F2FA0022114B0AF046FBCD
:1035F0000022104B0AF042FB00220E4B0AF03EFB69
:1036000000220D4B0AF03AFB0AF0D2FD6FF00041A8
:1036100000220346CDE900122846032106F088FC6B
:103620000DB030BD09330B0821330B0868300B088F
:103630000000E03F00004E4000408F4070B58368BE
:10364000044698688EB000B3002106F0B1FCE0B1EA
:10365000A568A868C8B100266FF000430221CDE933
:1036600000363246334606F063FC3146A86806F061
:10367000AFFC2B7903F0FF0613B106F031FCF8E73D
:103680003146A86806F044FCAE6000230021A06922
:1036900023770BF0EFF810B12046FFF757FF206AB1
:1036A0004FF0FF31FFF7DCF80E4902A807F0C3F82E
:1036B0000D4906A807F0BFF80C490AA807F0BBF8A7
:1036C0000AAB06AA02A9532001F0F2F90AA807F0F2
:1036D00068F806A807F065F802A807F062F80EB0CF
:1036E00070BD00BF18350B0838330B081F350B08A9
:1036F00000232DE9F0410446DFF82C800380037796
:10370000061D00F11C072420FCF7C7FC054618B174
:1037100000F0EAFFC5F8008046F8045BBE42F2D133
:103720002046BDE8F08100BF7C350B0838B5064C5B
:1037300023683BB92020FCF7B0FC054608B1FFF731
:10374000D7FF2560206838BDF80200202DE9F04140
:103750004378044600EB83035868037F13B1036882
:103760005B6898470027DFF848802378FEB2B342B1
:103770000DD92420FCF791FC054618B100F0B4FFE8
:10378000C5F8008004EB860675600137EDE700257B
:1037900005492B462A460548657003F04CFD207804
:1037A0002570BDE8F08100BFD0340B0868300B08ED
:1037B0007C350B0870B5002504464378057700EB8F
:1037C0008303586803685B689847207801280ED007
:1037D00063782A46591CB1FBF0F300FB1313DBB2EC
:1037E000637003490348BDE8704003F024BD70BD19
:1037F000D0340B0868300B0830B543788BB000EB41
:103800008303596804460C3102A807F014F808F045
:1038100076FB0F4B02460F490093C31706A808F02A
:103820000FFB06A902A807F0F8F8054606A806F05F
:10383000B8FF02A806F0B5FF45B1002360782377F2
:1038400004EB8004606803681B6898470BB030BDC8
:103850008D300B089403002070B54378044600EBCC
:1038600083035D680021A8690BF004F828B12B6878
:103870002846BDE870401B6818472046BDE87040E8
:10388000FFF7BABF10B54378044600EB83035B68CB
:103890009B68986810B90123237710BD002106F0BA
:1038A00087FB0028F7D0F8E730B50025036A85616B
:1038B0001B6804465B788DB0002B3DD1304908A8C9
:1038C000039506F0B8FF236A0A221B6804A85978FA
:1038D000013107F030F804A908A807F069F8294A6F
:1038E000016803AB284802F001FC04A806F059FF68
:1038F00008A806F056FF294603980AF0BBFFD8B186
:103900001F4908A806F097FF236A0A221B6804A82B
:103910005978013107F00FF804A908A807F048F812
:10392000A3690168174A184803F029FD04A806F0A6
:1039300038FF08A806F035FFA3689D68F5B16069F7
:103940000AF044F90022114B0AF098F90022104BBA
:103950000AF094F900220E4B0AF090F900220D4B68
:103960000AF08CF90AF024FC6FF0004100220346B3
:10397000CDE900122846032106F0DAFA0DB030BD79
:1039800009330B0821330B0868300B080000E03FB7
:1039900000004E4000408F4038B5002383608B68A4
:1039A00004460D462BB102229847EB68E360AB68F2
:1039B000A360204638BD0000012110B5836801775F
:1039C000044698688EB038B16FF000420023CDE90C
:1039D00000231A4606F0ACFA216A0AA80831FFF75C
:1039E000DBFF09210AA8FEF758FB0AA8FCF70AFD2D
:1039F00094F9043000221049104803F06EFC10497D
:103A000002A806F018FF0F4906A806F014FF0E4999
:103A10000AA806F010FF0AAB06AA02A9532001F07B
:103A200047F80AA806F0BDFE06A806F0BAFE02A8EE
:103A300006F0B7FE0EB010BD22340B086B330B0836
:103A400044350B0838330B084A350B0870B58368CA
:103A5000044698688EB000B3002106F0A9FAE0B1E0
:103A6000A568A868C8B100266FF000430221CDE91F
:103A700000363246334606F05BFA3146A86806F057
:103A8000A7FA2B7903F0FF0613B106F029FAF8E73D
:103A90003146A86806F03CFAAE6000230021A06918
:103AA00023770AF0E7FE10B12046FFF7FDFE216AFA
:103AB0000AA80831FFF770FF0A210AA8FEF7EDFAFD
:103AC0000AA8FCF79FFC206A4FF0FF31FEF7C8FE02
:103AD0000E4902A806F0AFFE0D4906A806F0ABFE9F
:103AE0000C490AA806F0A7FE0AAB06AA02A95320B1
:103AF00000F0DEFF0AA806F054FE06A806F051FE0C
:103B000002A806F04EFE0EB070BD00BF5B350B087C
:103B100038330B0861350B08012130B58368017714
:103B2000044698688FB038B16FF000420023CDE9A9
:103B300000231A4606F0FCF90023256A0C932B6932
:103B400043B1022205F108010AA898476B690D9359
:103B50002B690C931E238DF818300C9B0BB909F0C0
:103B6000B8FC0D9B06A90AA898470C9B1BB10AA993
:103B700003220846984794F904300022104911485E
:103B800003F0ABFB104902A806F055FE0F4906A84A
:103B900006F051FE0E490AA806F04DFE0AAB06AA31
:103BA00002A9532000F084FF0AA806F0FAFD06A837
:103BB00006F0F7FD02A806F0F4FD0FB030BD00BF1F
:103BC00022340B086B330B08D1330B0838330B0846
:103BD00084350B0830B50025036A85611B680446EF
:103BE0005B788DB0002B3DD1304908A8039506F0D5
:103BF00022FE236A0A221B6804A85978013106F0C4
:103C00009AFE04A908A806F0D3FE294A016803AB6E
:103C1000284802F06BFA04A806F0C3FD08A806F0D5
:103C2000C0FD294603980AF025FED8B11F4908A80F
:103C300006F001FE236A0A221B6804A859780131A4
:103C400006F079FE04A908A806F0B2FEA36901688F
:103C5000174A184803F093FB04A806F0A2FD08A831
:103C600006F09FFDA3689D68F5B1606909F0AEFF9D
:103C70000022114B0AF002F80022104B09F0FEFF5F
:103C800000220E4B09F0FAFF00220D4B09F0F6FF5F
:103C90000AF08EFA6FF0004100220346CDE90012CF
:103CA0002846032106F044F90DB030BD09330B0856
:103CB00021330B0868300B080000E03F00004E4045
:103CC00000408F4070B58368044698688EB000B39A
:103CD000002106F06DF9E0B1A568A868C8B100261A
:103CE0006FF000430221CDE900363246334606F03C
:103CF0001FF93146A86806F06BF92B7903F0FF062F
:103D000013B106F0EDF8F8E73146A86806F000F9BF
:103D1000AE6000230021A06923770AF0ABFD10B14B
:103D20002046FFF757FF206A4FF0FF31FEF798FD5E
:103D30000E4902A806F07FFD0D4906A806F07BFD9E
:103D40000C490AA806F077FD0AAB06AA02A953207F
:103D500000F0AEFE0AA806F024FD06A806F021FD3C
:103D600002A806F01EFD0EB070BD00BF75340B0832
:103D700038330B0898350B08012130B5836801777B
:103D8000044698688FB038B16FF000420023CDE947
:103D900000231A4606F0CCF80023256A0C932B6901
:103DA00043B1022205F108010AA898476B690D93F7
:103DB0002B690C9305238DF818300C9B0BB909F077
:103DC00088FB0D9B06A90AA898470C9B1BB10AA962
:103DD00003220846984794F90430002210491148FC
:103DE00003F07BFA104902A806F025FD0F4906A84A
:103DF00006F021FD0E490AA806F01DFD0AAB06AA31
:103E000002A9532000F054FE0AA806F0CAFC06A836
:103E100006F0C7FC02A806F0C4FC0FB030BD00BF1E
:103E200022340B086B330B088D330B0838330B0827
:103E300093330B0830B50025036A85611B6804467F
:103E40005B788DB0002B3DD1304908A8039506F072
:103E5000F2FC236A0A221B6804A85978013106F093
:103E60006AFD04A908A806F0A3FD294A016803AB6E
:103E7000284802F03BF904A806F093FC08A806F0D5
:103E800090FC294603980AF0F5FCD8B11F4908A810
:103E900006F0D1FC236A0A221B6804A85978013174
:103EA00006F049FD04A908A806F082FDA36901688F
:103EB000174A184803F063FA04A806F072FC08A831
:103EC00006F06FFCA3689D68F5B1606909F07EFE9D
:103ED0000022114B09F0D2FE0022104B09F0CEFE59
:103EE00000220E4B09F0CAFE00220D4B09F0C6FE5F
:103EF0000AF05EF96FF0004100220346CDE900129E
:103F00002846032106F014F80DB030BD09330B0824
:103F100021330B0868300B080000E03F00004E40E2
:103F200000408F4070B58368044698688EB000B337
:103F3000002106F03DF8E0B1A568A868C8B10026E8
:103F40006FF000430221CDE900363246334605F0DA
:103F5000EFFF3146A86806F03BF82B7903F0FF0627
:103F600013B105F0BDFFF8E73146A86805F0D0FFB2
:103F7000AE6000230021A06923770AF07BFC10B11A
:103F80002046FFF757FF206A4FF0FF31FEF768FC2D
:103F90000E4902A806F04FFC0D4906A806F04BFC9E
:103FA0000C490AA806F047FC0AAB06AA02A953204E
:103FB00000F07EFD0AA806F0F4FB06A806F0F1FB6F
:103FC00002A806F0EEFB0EB070BD00BFBC350B08BA
:103FD00038330B08C2350B08012130B583680177EF
:103FE000044698688FB038B16FF000420023CDE9E5
:103FF00000231A4605F09CFF0023256A0C932B69C9
:1040000043B1022205F108010AA898476B690D9394
:104010002B690C9320238DF818300C9B0BB909F0F9
:1040200058FA0D9B06A90AA898470C9B1BB10AA930
:1040300003220846984794F9043000221049114899
:1040400003F04BF9104902A806F0F5FB0F4906A84A
:1040500006F0F1FB0E490AA806F0EDFB0AAB06AA32
:1040600002A9532000F024FD0AA806F09AFB06A836
:1040700006F097FB02A806F094FB0FB030BD00BF1E
:1040800022340B086B330B0807340B0838330B084A
:10409000E0350B0830B50025036A85611B680446CE
:1040A0005B788DB0002B3DD1304908A8039506F010
:1040B000C2FB236A0A221B6804A85978013106F062
:1040C0003AFC04A908A806F073FC294A016803AB6E
:1040D000284802F00BF804A806F063FB08A806F0D5
:1040E00060FB294603980AF0C5FBD8B11F4908A810
:1040F00006F0A1FB236A0A221B6804A85978013143
:1041000006F019FC04A908A806F052FCA36901688E
:10411000174A184803F033F904A806F042FB08A830
:1041200006F03FFBA3689D68F5B1606909F04EFD9C
:104130000022114B09F0A2FD0022104B09F09EFD58
:1041400000220E4B09F09AFD00220D4B09F096FD5E
:104150000AF02EF86FF0004100220346CDE900126C
:104160002846032105F0E4FE0DB030BD09330B08ED
:1041700021330B0868300B080000E03F00004E4080
:1041800000408F4070B58368044698688EB000B3D5
:10419000002105F00DFFE0B1A568A868C8B10026B0
:1041A0006FF000430221CDE900363246334605F078
:1041B000BFFE3146A86805F00BFF2B7903F0FF0620
:1041C00013B105F08DFEF8E73146A86805F0A0FEB2
:1041D000AE6000230021A06923770AF04BFB10B1E9
:1041E0002046FFF757FF206A4FF0FF31FEF738FBFC
:1041F0000E4902A806F01FFB0D4906A806F01BFB9E
:104200000C490AA806F017FB0AAB06AA02A953201C
:1042100000F04EFC0AA806F0C4FA06A806F0C1FA9F
:1042200002A806F0BEFA0EB070BD00BFF4350B0850
:1042300038330B08FB350B08012130B58368017753
:10424000044698688FB038B16FF000420023CDE982
:1042500000231A4605F06CFE0023256A0C932B6997
:1042600043B1022205F108010AA898476B690D9332
:104270002B690C9304238DF818300C9B0BB909F0B3
:1042800028F90D9B06A90AA898470C9B1BB10AA9FF
:1042900003220846984794F9043000221049114837
:1042A00003F01BF8104902A806F0C5FA0F4906A84A
:1042B00006F0C1FA0E490AA806F0BDFA0AAB06AA32
:1042C00002A9532000F0F4FB0AA806F06AFA06A837
:1042D00006F067FA02A806F064FA0FB030BD00BF1E
:1042E00022340B086B330B0877330B0838330B0879
:1042F0007D330B0830B50025036A85611B680446D1
:104300005B788DB0002B3DD1304908A8039506F0AD
:1043100092FA236A0A221B6804A85978013106F030
:104320000AFB04A908A806F043FB294A016803AB6D
:10433000284801F0DBFE04A806F033FA08A806F0CE
:1043400030FA294603980AF095FAD8B11F4908A80F
:1043500006F071FA236A0A221B6804A85978013111
:1043600006F0E9FA04A908A806F022FBA36901688F
:10437000174A184803F003F804A806F012FA08A830
:1043800006F00FFAA3689D68F5B1606909F01EFC9C
:104390000022114B09F072FC0022104B09F06EFC58
:1043A00000220E4B09F06AFC00220D4B09F066FC5E
:1043B00009F0FEFE6FF0004100220346CDE9001235
:1043C0002846032105F0B4FD0DB030BD09330B08BC
:1043D00021330B0868300B080000E03F00004E401E
:1043E00000408F4070B58368044698688EB000B373
:1043F000002105F0DDFDE0B1A568A868C8B1002680
:104400006FF000430221CDE900363246334605F015
:104410008FFD3146A86805F0DBFD2B7903F0FF0620
:1044200013B105F05DFDF8E73146A86805F070FDB1
:10443000AE6000230021A06923770AF01BFA10B1B7
:104440002046FFF757FF206A4FF0FF31FEF708FACA
:104450000E4902A806F0EFF90D4906A806F0EBF99F
:104460000C490AA806F0E7F90AAB06AA02A95320EC
:1044700000F01EFB0AA806F094F906A806F091F9D0
:1044800002A806F08EF90EB070BD00BF20360B08F2
:1044900038330B0826360B0830B50025036A8561D2
:1044A0001B6804465B788DB0002B3DD1304908A8CD
:1044B000039506F0C0F9236A0A221B6804A85978FC
:1044C000013106F038FA04A908A806F071FA294A61
:1044D000016803AB284801F009FE04A806F061F961
:1044E00008A806F05EF9294603980AF0C3F9D8B186
:1044F0001F4908A806F09FF9236A0A221B6804A82E
:104500005978013106F017FA04A908A806F050FA04
:10451000A3690168174A184802F031FF04A806F0A1
:1045200040F908A806F03DF9A3689D68F5B16069F7
:1045300009F04CFB0022114B09F0A0FB0022104BAC
:1045400009F09CFB00220E4B09F098FB00220D4B5A
:1045500009F094FB09F02CFE6FF0004100220346A5
:10456000CDE900122846032105F0E2FC0DB030BD74
:1045700009330B0821330B0868300B080000E03FBB
:1045800000004E4000408F40012110B58368017744
:10459000044698688EB038B16FF000420023CDE930
:1045A00000231A4605F0C4FC216A0AA80831FFF767
:1045B000F3F907210AA8FDF770FD0AA8FBF722FF0F
:1045C00094F9043000221049104802F086FE104988
:1045D00002A806F030F90F4906A806F02CF90E499A
:1045E0000AA806F028F90AAB06AA02A9532000F08F
:1045F0005FFA0AA806F0D5F806A806F0D2F802A8D5
:1046000006F0CFF80EB010BD22340B086B330B0848
:10461000A2330B0838330B08A9330B0870B5836835
:10462000044698688EB000B3002105F0C1FCE0B1EB
:10463000A568A868C8B100266FF000430221CDE943
:1046400000363246334605F073FC3146A86805F063
:10465000BFFC2B7903F0FF0613B105F041FCF8E72E
:104660003146A86805F054FCAE6000230021A06923
:1046700023770AF0FFF810B12046FFF70DFF216AFB
:104680000AA80831FFF788F908210AA8FDF705FDF7
:104690000AA8FBF7B7FE206A4FF0FF31FEF7E0F8FB
:1046A0000E4902A806F0C7F80D4906A806F0C3F89F
:1046B0000C490AA806F0BFF80AAB06AA02A95320C3
:1046C00000F0F6F90AA806F06CF806A806F069F8FA
:1046D00002A806F066F80EB070BD00BF48360B08A1
:1046E00038330B084F360B08054A0260FF2202716F
:1046F000002242618261002202778260704700BF1F
:1047000078360B0838B5044608461D46074B114657
:1047100023602071062204F10C000BF0A7FC049B1F
:104720002046A36100236561237738BD78360B08E6
:10473000012130B583680177044698688FB038B19D
:104740006FF000420023CDE900231A4605F0F0FB8C
:104750000023256A0C932B6943B1022205F108015D
:104760000AA898476B690D932B690C930B238DF85E
:1047700018300C9B0BB908F0ACFE0D9B06A90AA8DB
:1047800098470C9B1BB10AA903220846984794F945
:10479000043000221049114802F09FFD104902A880
:1047A00006F049F80F4906A806F045F80E490AA890
:1047B00006F041F80AAB06AA02A9532000F078F9E6
:1047C0000AA805F0EEFF06A805F0EBFF02A805F029
:1047D000E8FF0FB030BD00BF22340B086B330B086D
:1047E000BB330B0838330B08C2330B0830B5002538
:1047F000036A85611B6804465B788DB0002B3DD150
:10480000304908A8039506F016F8236A0A221B68A7
:1048100004A85978013106F08EF804A908A806F01A
:10482000C7F8294A016803AB284801F05FFC04A8D7
:1048300005F0B7FF08A805F0B4FF294603980AF071
:1048400019F8D8B11F4908A805F0F5FF236A0A2214
:104850001B6804A85978013106F06DF804A908A86E
:1048600006F0A6F8A3690168174A184802F087FD08
:1048700004A805F096FF08A805F093FFA3689D68BB
:10488000F5B1606909F0A2F90022114B09F0F6F9BF
:104890000022104B09F0F2F900220E4B09F0EEF95C
:1048A00000220D4B09F0EAF909F082FC6FF000419B
:1048B00000220346CDE900122846032105F038FB0B
:1048C0000DB030BD09330B0821330B0868300B08DD
:1048D0000000E03F00004E4000408F4070B583680C
:1048E000044698688EB000B3002105F061FBE0B18A
:1048F000A568A868C8B100266FF000430221CDE981
:1049000000363246334605F013FB3146A86805F001
:104910005FFB2B7903F0FF0613B105F0E1FAF8E72E
:104920003146A86805F0F4FAAE6000230021A069C2
:10493000237709F09FFF10B12046FFF757FF206A49
:104940004FF0FF31FDF78CFF0E4902A805F073FF11
:104950000D4906A805F06FFF0C490AA805F06BFF8A
:104960000AAB06AA02A9532000F0A2F80AA805F093
:1049700018FF06A805F015FF02A805F012FF0EB0FB
:1049800070BD00BF80360B0838330B0887360B0824
:1049900010B50446024B036004F0FAFE204610BD39
:1049A00000370B0810B50446FFF7F2FF2046382108
:1049B00008F089FD204610BD37B59DF818500468F1
:1049C0008DF800308DF804503C23E468A04703B014
:1049D00030BD0000014805F055B800BF00030020BD
:1049E000F0B54E288BB00E4615461C46109F13D1CD
:1049F000394606A805F01FFF234B069A1B7823496A
:104A00008DF80030224B23481B78FFF7D5FF06A80E
:104A100005F0C7FE0BB0F0BD5328FBD11E4902A81C
:104A200005F009FF314602A805F0C2FF1B4905F059
:104A3000CBFF294605F0BCFF194905F0C5FF21460B
:104A400005F0B6FF174905F0BFFF0446394606A832
:104A500005F0F1FE06A9204605F0AAFF124905F06F
:104A6000B3FF094B02681B7810498DF80030084BE2
:104A700008481B78FFF7A0FF06A805F092FE02A8E1
:104A800005F08FFEC6E700BFFD020020BA360B0816
:104A9000FC02002000030020C1360B08CB360B08B7
:104AA000D7360B08E3360B08F2360B08A8370B088D
:104AB00070B54E280E4615461C4686B00CD11A4BD2
:104AC00022681B7819498DF80030194B19481B785A
:104AD000FFF772FF06B070BD5328FBD1164902A83C
:104AE00005F0A9FE314602A805F062FF134905F062
:104AF0006BFF294605F05CFF114905F065FF214673
:104B000005F056FF0F4905F05FFF074B02681B7861
:104B10000D498DF80030064B06481B78FFF74CFF17
:104B200002A805F03EFED5E7FD020020BA360B08CC
:104B3000FC02002000030020C1360B08CB360B0816
:104B4000E3360B08F2360B08A8370B08014804F0CF
:104B500051BE00BF0003002001220B4B10B51A709C
:104B600008220A4C0A4B20461A700A494FF4006288
:104B700004F00CFF084B20462360084A0849BDE8B2
:104B8000104008F09BBC00BFFC0200200003002086
:104B9000FD0200200040024000370B0850020020B8
:104BA00091490A081FB50023019303930C23ADF824
:104BB0000430044B0422029301AB05F077FC05B0EE
:104BC0005DF804FBD1000A08022A38B5044607D074
:104BD000032A11D0012A01D10B682360002038BDBF
:104BE0000C200D68FBF759FA03460028F5D095E82C
:104BF000070083E80700F0E700680028EED00C21EA
:104C000008F061FCEAE710B403685A689968541028
:104C100001EB6200D20748BF0A591B6810BC48BFAD
:104C2000D358184710B534220446002104300AF046
:104C3000A1F938232046236010BD002340681A469E
:104C4000194605F0DBBB002340681A46194605F0FB
:104C5000DDBB00224068114605F0E8BB0023406838
:104C60001A46194605F0FABB07B58068002340B123
:104C7000CDE900131A46012105F05AF9B0FA80F087
:104C8000400903B05DF804FB07B58068002338B124
:104C9000CDE90013022105F04BF9B0FA80F040098C
:104CA00003B05DF804FB000010B5002204466FF06D
:104CB00000418069FFF7E8FF0248FFF7BEFF0023CD
:104CC000637710BD40040020F0B589B00446FBF7BF
:104CD000F9FF2060FDF722F86060FCF7E5FAA060BC
:104CE000FDF79AF9E060FBF79FFE2061FDF7D0FA2F
:104CF00000262549606104F1200005F09CFD224951
:104D000004F1300005F097FD1C20A683A677FBF781
:104D1000C4F90546002832D00C200696FBF7BDF9F1
:104D200018B11A4B8460C0E90036194B04902B600F
:104D3000002304AE02AF96E8030087E803002B715E
:104D4000AB6005F10C0292E8030086E8030097E8E7
:104D5000030082E803000F4A06936A61AA690E49BC
:104D600007920E4A05F10800AA61019301230C4A3B
:104D700000932B4605F0C4F83046FBF743FB204672
:104D8000A56109B0F0BD00BFE6370B08A94C0A08C1
:104D9000F8340B08C94B0A08C0D40100074C0A08B4
:104DA00079210A0838B5064C23683BB94020FBF747
:104DB00074F9054608B1FFF787FF2560206838BD04
:104DC0003C03002030B50024CBB004AB18193834B4
:104DD000FFF728FFB4F58C7FF7D105220E4804A910
:104DE00007F06AFFC5B2012D02D000204BB030BDE4
:104DF00005A9684605F01FFD6846084905F01AFE3A
:104E00000446684605F0CDFC24B10348FFF726FFB1
:104E10002846EBE72046E9E74004002020370B084E
:104E200010B5044600F120010448FFF7BBFE04F171
:104E300030010348BDE81040FFF7B4BE2D370B0822
:104E400032370B082DE9FF4700223A4E044611463F
:104E5000706805F0F3FA37460546002863D005F080
:104E60003DFB002005F004F84FF0000A0646002044
:104E700004F0FEFF00234EF65F22B0EB060861EB64
:104E80000A094B4508BF424505D305F02FFB10B971
:104E900005F01CFBEBE705F029FB064648B30022B2
:104EA0006FF00041A069FFF7EFFE0022786811461D
:104EB00005F07CFA00F15D01684605F0BCFC69462E
:104EC00004F1200005F00CFD684605F06AFCFFF7D0
:104ED0003DFE237F4BB1002360694FF0FF31237704
:104EE000FDF7BEFC6069FDF77BFD2068FBF74CFF1A
:104EF00008E0237F53B1024601462077786805F029
:104F00008DFA3546284604B0BDE8F0870948FFF71A
:104F1000A0FE10B90748FFF796FE6FF00041A069A8
:104F2000FFF7A2FEE1E702460146706805F076FA57
:104F3000E8E700BF4004002010B504460B48FFF727
:104F400088FE50B1237F43B901232068237703688B
:104F50001821BDE810401B6818470448FFF779FE88
:104F600010B9237F03B1607710BD00BF400400205B
:104F700030B5437F044685B0A3B9FFF723FF05464C
:104F800080B9012320466377FFF75CFF00B32369F4
:104F90001A783AB14FF47A701D7006F0F9FF606923
:104FA000FDF71EFDA37F83B1002301A8A377CDE900
:104FB00001338DF80C3007F041F90648FFF743FE46
:104FC0006FF00041A069FFF74FFE2046FFF7B4FFE6
:104FD00005B030BD4004002010B504468CB0114827
:104FE000FFF73CFEE0B100230F496377684605F008
:104FF00022FC0E4904A805F01EFC0D4908A805F086
:105000001AFC694608AB04AA5320FFF751FD08A813
:1050100005F0C7FB04A805F0C4FB684605F0C1FB1A
:105020000CB010BD4004002040370B0846370B0879
:1050300054370B08F8B504460D460027A368FEB2A6
:105040009E421BD23146204605F00FFD7E28314698
:10505000204604D005F009FDA8550137EEE705F01C
:1050600004FD7E28F9D10021721C204605F03AFD8E
:105070000146204605F01AFC0023AB550023A16829
:10508000DFB28F4203F1010607D23946204605F010
:10509000ECFC2F4433467876F1E700230D446B7621
:1050A000F8BD00002DE9F043A9B00DF12008054638
:1050B00015A805F00AFC2F4E414615A8FFF7BAFFC8
:1050C00015A805F06EFB3046FFF7B7FD40460AF025
:1050D000B3FF0DF13909074648460AF0ADFF382203
:1050E000044600211AA809F045FF4C23CDE91538E4
:1050F0000323ADF8683000237068194615AA199487
:10510000CDE9177905F0A2F9044668BB1A4968464B
:1051100005F091FB194904A805F08DFB184915A865
:1051200005F089FB694615AB04AA5320FFF7C0FCC4
:1051300015A805F036FB04A805F033FB684605F01A
:1051400030FB15A8CDE915448DF85C4007F076F8E2
:1051500040F2DC5006F01CFF05F0C8F9044618B90F
:105160003046FFF770FD6C77142006F011FF29B070
:10517000BDE8F0834004002075370B0846370B0864
:105180007B370B082DE9F0470025D8B012AC281961
:105190003835FFF747FDB5F58C7FF8D1052221465C
:1051A0002E4807F089FD2E49C7B202A805F043FB3F
:1051B0000025DFF8B8A0DFF8B890EBB2BB4204F1ED
:1051C000380828D201350A22294606A805F0B3FB83
:1051D00006A90AA805F079FB51460AA805F0F4FBD8
:1051E0000646211D0EA805F026FB0EA9304605F047
:1051F000DFFB494605F0E8FB014602A805F0C5FBC8
:105200000EA805F0CEFA0AA805F0CBFA06A805F01C
:10521000C8FA4446D1E7134B029A1B7812498DF81D
:1052200000300EA83C2307F0FDF80F9C7CB16368AA
:10523000013B63605BB9236820469B689847A3687D
:10524000013BA3601BB923682046DB68984702A88E
:1052500005F0A7FA58B0BDE8F08700BF4004002071
:10526000E6370B08380300209F370B089C370B08E4
:105270009D370B081FB50446684600F015FA6946CD
:1052800004F1300005F02CFB684605F08AFA04B002
:1052900010BD00000022014B1A7070473803002037
:1052A00004F0B6BD10B5044601464FF46172022009
:1052B00004F0C6FD204610BD10B5044601464FF46B
:1052C0006172022004F0B4FD204610BD28B1037ABB
:1052D00003F0800311B903720120704743F0040307
:1052E00003720160F8E70346C06810B1182202FBA0
:1052F0000030704770B505460E46046824B120465C
:10530000FFF7F1FF86420CD13046FFF7ECFF64B1A6
:1053100048B1031BDA10064B5343E36000B96C60DD
:1053200070BD0446EAE70346F7E72860F6E700BFEA
:10533000ABAAAAAA884203D020B131B10AF0ECB8D6
:10534000002070474FF0FF3070470120704738B59C
:105350000D46044640B101692846FFF7EBFF18B13E
:105360002046FFF7C0FFF4E7204638BD50B1037A6E
:10537000CAB223F07F0343F0060303720023C0E99F
:1053800000230120704730B514461D4640B1037A12
:10539000C0E9004523F07F0343F00C0303720120B2
:1053A00030BD000030B50346D1E901021830824219
:1053B00003D2012300200B7430BDA2F118008860D5
:1053C000596869B1441AE510064C6C43CC605860CA
:1053D000002342F80C3C02F8103C42F8083CEBE792
:1053E0001860F4E7ABAAAAAA2DE9F04F03780446A7
:1053F0002B2B8B4685B037D02D2B36D10125013490
:105400002378A3F13002092A02D92E2B40F014810F
:10541000002000214FF099394FF00A08DFF828A248
:10542000A6461EF8013BA3F1300C5FFA8CFCBCF1E0
:10543000090F1CD88A4508BF814519D34FF0FF37A3
:105440006FEA0C0608FB01F3A0FB080119448F4228
:1054500008BF86424FF000035FFA8CF208D3801831
:10546000744643EB0101DBE701340025C8E77BB15B
:10547000002300264FF48017B94208BFB04203F161
:1054800001081CD300230A2209F044FA4346F3E73B
:105490009BF8083003F080034DB1CBE9000143F0E5
:1054A0000A038BF80830284605B0BDE8F08FCBE939
:1054B000000143F008038BF808300125F3E71A1BBD
:1054C00002EB040C234614F8016B0FFA8CFCA6F1D6
:1054D0003007092FF4D92E2E1DD1A6464FF099364C
:1054E0004FF00A08554F73461C780EF1010E303C00
:1054F000E4B2092C0FD8B94208BFB042F3D2A0FBE6
:10550000082308FB013310190CF1FF3443F10001AB
:105510000FFA84FCE7E71A7802F0DF02452A70D11F
:105520005A782D2A24D101269A1C00244FF00A0E05
:10553000134612F8017B303F5FFA87F8B8F1090F84
:105540002DD80EFB047404EB0C03B3F59A7FEFDD4A
:1055500000209BF80830AEB18DB9002123F07F0305
:1055600043F00C033546CBE900018BF808309AE78D
:105570002B2A4FF0000614BF5A1C9A1CD5E74FF097
:105580000041EBE74DB92E4923F07F0343F00C03B4
:10559000CBE900018BF808308FE72A49F4E706B120
:1055A00064421F78002F47D1644408F031FB002C7F
:1055B000064628DDDFF894A0E2070ED5FBB25B00BB
:1055C0005A1C5AF822205AF8233000920193304690
:1055D000DDE9002308F052FB0646641007F10107DD
:1055E000EAD10DB101F100419BF80830324623F0B9
:1055F0007F0343F00C038BF808300B46CBE9002304
:105600005BE70024CDE7DFF848A06442002CE8D037
:10561000E3070ED5FBB25B005A1C5AF822205AF859
:105620002330029203933046DDE9022308F026FB83
:10563000064664100137E9E7002534E7999901002F
:105640000000F07F0000F0FF99999919BC380B0811
:1056500074380B0838B500252C4607F0C1FE2846E3
:10566000FFF71EFEFF2818BF013405F1010518BF22
:10567000A4B2B5F5006FF0D1204638BD38B5046846
:1056800005467CB16368013B63605BB923682046D3
:105690009B689847A368013BA3601BB92368204619
:1056A000DB689847284638BD30B5ADF56B7D0446BC
:1056B00007F096FE0120FFF7F3FDFF28174D13D1E9
:1056C0002B781749174A8DF8003009A83C2306F0BB
:1056D000A9FE0AA8FFF7D2FF1349204605F0ABF850
:1056E00020460DF56B7D30BD07F07AFE09A8FFF767
:1056F000E3FD09A905A805F09EF82B780849059A4D
:105700008DF8003003A83C2306F08CFE04A8FFF7B8
:10571000B5FF05A805F045F809A9DEE7400300201C
:105720009F370B08B0370B08D1370B08033138B55A
:1057300021F003050446284604F000FF70B105443B
:105740000023237694F82830C4E9020023F07F0375
:105750002046C4E9045584F8283038BD0546EFE7F3
:1057600008B570B1037A03F07F030C2B08D8DFE88B
:1057700003F01907070707070907090709071000BA
:10578000012008BDD0E90023134314BF01200020ED
:10579000F7E7002203C8002308F0D8FCB0FA80F035
:1057A0004009EEE70020ECE7806808B104F0CEBEC7
:1057B0007047F8B5054608680F46E0B1D5E90034F2
:1057C0009C420ED91A4600F1FF3C92F800E01CF80A
:1057D000016F1146764502F101020FD1002EF4D17E
:1057E000EBB90AF029FCAA68431C234493420646FD
:1057F0000AD901232B7400242046F8BD11F8013B7F
:10580000002BFBD10B46DBE76B60002CF4D002468B
:105810003968204609F086FB0023A355ECE71C46B7
:10582000EAE750B1037ACAB223F07F0343F00803DA
:1058300003720023C0E900230120704730B568B12E
:10584000037A4CB200294FEAE47503F0800306DBCB
:1058500043F008030372C0E90045012030BD43F066
:105860000A036442037265EB4505F4E713B5044689
:1058700080B1019129B9037A23F07F0303720120DB
:1058800008E0104601A9FFF794FF237A23F07F0375
:1058900010B9237202B010BD43F0050323722060DB
:1058A000EDE770B5037A164613F07F0202BF23F0CE
:1058B0007F0343F020030372037A044608BFC0E964
:1058C000002213F020000D460FD0084669B1206871
:1058D000FFF73DFD48B931462046FFF763FD20B193
:1058E000037A056103F07F03037270BD037A0246F9
:1058F00013F0200002D01068FFF729BD704708B5EB
:10590000034610B1FFF7CDFF0346184608BD437CA0
:1059100033B9C3685A1CC2601B78037401234374F3
:10592000007C7047F8B50446012600250D4F20463F
:10593000FFF7EDFF50B1A0F10903DBB2172B0DD833
:1059400006FA03F33B4209D06574F0E7237A002B93
:1059500014BF0223012384F85830F8BD01202072BF
:10596000FBE700BF1300800030B5037A85B003F079
:105970007F03043B082B33D8DFE803F00E0E05321B
:10598000053232321A0003C8002908BFB0F5807F03
:1059900000D30020C0B209E00023694600688DF8FA
:1059A0000830FFF721FD6846FFF7DEFF05B030BD88
:1059B000D0E90045002200232046294608F0E4FBF8
:1059C0000028F3D008A3D3E900232046294608F095
:1059D000D1FB0028EAD02046294608F011FCD9E77F
:1059E0000020E3E7AFF300800000000000E06F401C
:1059F00030B5037A85B003F07F03043B082B39D818
:105A0000DFE803F01515053805380E38200003C807
:105A1000002908BF802800D3002040B205B030BD67
:105A200003C8002908BF812824D24042F5E700239B
:105A3000694600688DF80830FFF7D6FC6846FFF726
:105A4000D7FFEBE7D0E900450022204629460C4B62
:105A500008F09AFB0028E1D007A3D3E900232046F1
:105A6000294608F087FB0028D8D02046294608F0B0
:105A70009FFBD2E70020D1E70000000000C05F409C
:105A8000000060C01FB5037A03F07F03043B082BBE
:105A900021D8DFE803F01111052005200B201C00A0
:105AA00003C808F0E5FC05B05DF804FB03C808F086
:105AB000DFFC00F10040F6E70023694600688DF83E
:105AC0000830FFF791FC6846FFF7DCFFEBE703C8FF
:105AD00008F0B6FBE7E70020E5E700000000000063
