:02000004080AE8
:1000000000000A08A4510B080000060008000501C2
:080010000402BD0B000000001A
:04001800D42E0B08CF
:1000200009480A4908B5884205D0094A824202D0E7
:10003000121A0EF053FF0748074A0021121A0EF059
:1000400075FF064808BD00BF000000202C4F0B08BC
:100050004C02002050020020D5040020D5040020CE
:1000600070B50CF029F80025054E064CA41BA40819
:10007000A54200D170BD56F8043B98470135F7E71B
:10008000EC460B081C470B0800F078BA08B500F0E6
:10009000EBF9BDE808400BF0D1BF0AF02BBA0AF02B
:1000A00029BA0AF02FBA0AF02DBA000000210C205C
:1000B00008B5024A0AF0A4F8FEE700BF999D0A08B5
:1000C0000078B0FA80F04009704701230370704750
:1000D000106870477047006A0368DB6818470000C3
:1000E00002F00F02012A04BF014B1A70704700BFD3
:1000F000C802002003681268D1E900011847012AEC
:1001000003D0022A03D0002070470160FBE70B6890
:100110000360F8E70022F0B5144B87B05868114629
:100120000AF020F903466D46002453F8570F104E8D
:100130009B88104F0090ADF804300A2215F8011B7F
:1001400002A80AF0C2FB02A930460AF0FAFB02A894
:100150000AF003FB052C03D0394630460AF0F5FBC4
:100160000134062CE9D1012007B0F0BD480400207D
:1001700084020020E82E0B081FB5014668460AF0ED
:1001800080FB6946044807F068FB044668460AF0AD
:10019000E4FA204604B010BD9402002008B50449DA
:1001A0000AF024FC10B106F07DFF012008BD00BF5D
:1001B000EA2E0B081FB5014668460AF062FB694645
:1001C000044807F0B9FB044668460AF0C6FA204620
:1001D00004B010BD940200201FB5014668460AF025
:1001E00050FB6946044807F0ABFD044668460AF038
:1001F000B4FA204604B010BD940200201FB5014699
:1002000068460AF03EFB6946044807F0C8FD04460C
:1002100068460AF0A2FA204604B010BD94020020FD
:100220001FB5014668460AF02CFB6946044807F0F2
:10023000BBFD044668460AF090FA204604B010BDA3
:10024000940200201FB5014668460AF01AFB694671
:10025000044807F0C3FD044668460AF07EFA2046CB
:1002600004B010BD940200201FB5014668460AF094
:1002700008FB6946044807F0D5FD044668460AF0C5
:100280006CFA204604B010BD940200201FB5014650
:1002900068460AF0F6FA6946044807F0C9FD0446C4
:1002A00068460AF05AFA204604B010BD94020020B5
:1002B0001FB5014668460AF0E4FA6946044807F0AB
:1002C000DBFD044668460AF048FA204604B010BD3B
:1002D0009402002008B50AF0FBFBC1170BF0D4FC18
:1002E000012008BD1FB5014668460AF0CAFA6946F2
:1002F000044807F04DFE044668460AF02EFA2046F0
:1003000004B010BD940200201FB5014668460AF0F3
:10031000B8FA6946044807F05DFE044668460AF0EC
:100320001CFA204604B010BD9402002008B50AF063
:1003300093F9012008BD05F085B930B51368006850
:1003400085B001938368D1E90045CDE902450BB939
:100350000DF09BF8C36801AA02A9984705B030BD0B
:1003600030B585B00446089860B1406850B18568E2
:1003700045B1CDE90241CDE90023C4686A4601AB2D
:1003800002A9A04705B030BD10B50446006808B109
:100390000AF0B8F8204610BD10B50446094B0360BA
:1003A0000AF07AFD21460AF093FF0CF051FA0CF0A6
:1003B00043FA2046044B40F8043B0AF077FE2046FF
:1003C00010BD00BF04300B08EC2F0B0810B504461D
:1003D000FFF7E2FF204624210DF051F8204610BD22
:1003E0000A2A08B50AD10022054B1146586809F0BF
:1003F000F9FF18B904F0CEFC0123837708BD00BFD4
:100400004804002010B58368044613B10322014656
:100410009847204610BD10B504462430FFF7F2FF80
:10042000204610BD024601480BF0D3BEA7C10A0802
:1004300008B50CF0EDFA4FF416510CF0E3FA012078
:100440000BF08DFD0022114610460BF098FD00F0D8
:1004500045FC01F013F901F0E7FD01F067FCBDE890
:10046000084000F02DBF000008B509F09DFC094BC5
:1004700018600AF007F8084807F0BBF8074B1A782D
:1004800032B100221A700448BDE8084007F0C8B82D
:1004900008BD00BF6804002094020020C8020020AC
:1004A00038B5002383608B6804460D462BB10222C9
:1004B0009847EB68E360AB68A360204638BD000056
:1004C000F0B500248FB007460E4602A8114606ADCF
:1004D000FFF7E6FF02A92846FFF7E2FF10200C9481
:1004E000FFF7DBFD034698B195E803006A4682E812
:1004F000030093E8030085E8030092E80300089AEC
:1005000083E803009A60D968099A08940991DA602F
:100510000A93164B10200D93154B0C93FFF7BDFD5E
:100520000446B0B1002383600C9B33B102220AA9B8
:1005300098470D9BE3600C9BA3600E4B3846CDE9BA
:10054000003431466B460C4A09F09CFE041E18BF6D
:1005500001240AA8FFF756FF2846FFF753FF02A819
:10056000FFF750FF20460FB0F0BD00BF3B030A0865
:1005700039070A080100080061030A08F0B5434979
:1005800085B04348FFF74EFF42494348FFF74AFF13
:1005900042494348FFF746FF42494348FFF742FFBD
:1005A00042494348FFF73EFF42494348FFF73AFFBD
:1005B00042494348FFF736FF42494348FFF732FFBD
:1005C00042494348FFF72EFF42494348FFF72AFFBD
:1005D00042494348FFF726FF42494348FFF722FFBD
:1005E00042494348FFF71EFF42494348FFF71AFFBD
:1005F00042494348FFF716FF42494348FFF712FFBD
:1006000000240C230094ADF80030404B404D019382
:1006100004226B463F494048029409F023FF2346D9
:1006200004223E493E4809F01DFF284606F0DEFF41
:1006300004223C49032009F00FFC3B4F3B4B3C4E4E
:100640006A4600212020009303970296FFF738FFA7
:100650006846FFF7D7FE374B6A4600214FF400503B
:100660000093CDE90267FFF72BFF6846FFF7CAFE4C
:1006700022462146072009F015FE20460BF06FFCAC
:10068000284607F0ADFC05B0F0BD00BF79010A08AF
:10069000EF2E0B089D010A08FB2E0B0837030A08F2
:1006A000072F0B08B5010A081C2F0B08D9010A08EF
:1006B0002A2F0B08FD010A08362F0B0821020A0811
:1006C000402F0B0845020A084A2F0B0869020A0846
:1006D000572F0B088D020A08682F0B08B1020A0871
:1006E000722F0B08D5020A087E2F0B08E5020A08B4
:1006F000862F0B0809030A08952F0B082D030A08FB
:10070000A02F0B0815010A08A62F0B08D1000A0814
:100710009402002084020020B62F0B08BF2F0B0884
:10072000C52F0B08CC2F0B08F5000A08E1030A08B7
:10073000FF000A08E1000A08022A70B5044607D043
:10074000032A10D0012A01D10B680360002070BD7C
:1007500010200E68FFF7A1FC054610B13146FFF7E7
:100760009FFE2560F2E70468002CEFD02046FFF7DB
:1007700049FE102120460CF082FEE7E770B51426F2
:10078000D0E90053044606FB0356AE4204D0284687
:1007900009F0E3FF1435F8E7206809F0B3FE2046BE
:1007A00070BD2DE9F843B1F10008074635DD4FF083
:1007B000140909FB08F009F09DFE0546A8B3D7E926
:1007C0000046844209FB064615D2864214D9143EDF
:1007D000A4F11409341B0444B1451FD02CB1314697
:1007E00020460AF034F8337C2374304609F0B5FF14
:1007F000143E143CF0E711D0A946A6420ED0214683
:1008000048460AF024F8237C204689F8103009F085
:10081000A4FF143409F11409EFE70025386809F042
:1008200071FE01203D60C7F80880BDE8F883002311
:100830002DE9F041C0E9003383600D464968044664
:10084000994217DDFFF7ADFFA0B1D5E900634FF086
:10085000140808FB03682768B04509D02FB131465A
:1008600038460AF00EF8337C3B7414361437F3E73D
:100870006B6863602046BDE8F081000030B597B03A
:100880000CF068FC002342F216511A460CF06AFC88
:100890000CF060FC002300241A4638210CF06AFC9E
:1008A0000021012009F0F6FC464D474B0120AB60CA
:1008B0002C60AC80AC7109F0D5FC28460125434A78
:1008C00043490CF0D7FD0121042009F0CDFAFFF7D0
:1008D000AFFD4049404809F08AFF3C4A3F493E4845
:1008E0000CF0C8FD3E490CA809F081FF3D4911A854
:1008F0008DF8405009F07BFF02216846CDE90044A5
:100900008DF854500294FFF74CFF98B1009C34B11D
:1009100020460CA909F0B5FF9DF84030237411A9B9
:1009200004F1140009F0ADFF9DF8543084F8243030
:10093000022301930BF08CFF0546694603A8FFF7DD
:1009400076FF03A906A8284CFFF771FF274B06A9DD
:10095000236009A8FFF76BFF09AA0121201D0AF0F7
:1009600009FE09A8FFF70AFF06A8FFF707FF204BBB
:100970002562236003A8FFF701FF1E4B23600BF0E5
:1009800067FF4FF416510BF053FF0AF085FA21462A
:100990000AF083FD6846FFF7F1FE11A809F0DDFEBD
:1009A0000CA809F0DAFE094A134920460CF062FD52
:1009B000124806F0C1FD054A114910480CF05AFDD5
:1009C00017B030BD540200200000FFFF500200208D
:1009D00089030A089E370B08840200205BA70A08D7
:1009E000D12F0B08D52F0B0860020020EC2F0B082D
:1009F0009C3E0B0804300B0899030A08940200205F
:100A000017040A0807B5002201A81146019209F04F
:100A100033FA019803B05DF804FB09F0DDB900007A
:100A200038B5054C25682DB90120FFF736FB00B11C
:100A300005702060206838BDCC02002013B50CF092
:100A4000ABFC4FF47A7009F0BFF904460CF0A4FC3B
:100A50000422694640F2E93009F0C6F9631EDBB2B0
:100A6000FD2B13D90CF098FC01214FF47A70FFF79D
:100A7000D4FF0CF091FC0BF01EFA042201900DEB58
:100A8000020140F2E93009F0B7F919E0042C19D954
:100A90000CF082FC00214FF47A70FFF7BEFF0CF0DF
:100AA0007BFC0422002440F2E9300DEB02010194AA
:100AB00009F0A2F905200BF047FA204609F0CFFD16
:100AC00002B010BD0BF0F7F9009BC01AB0F5167F0D
:100AD000F6D80CF061FC611CC9B2C6E713B50CF086
:100AE0005BFC40F2ED3009F06FF904460CF054FC69
:100AF0000422694640F2EE3009F076F9631EDBB25B
:100B0000FD2B13D90CF048FC012140F2ED30FFF72A
:100B100084FF0CF041FC0BF0CEF9042201900DEBA8
:100B2000020140F2EE3009F067F919E0042C19D9FE
:100B30000CF032FC002140F2ED30FFF76EFF0CF0BC
:100B40002BFC0422002440F2EE300DEB0201019454
:100B500009F052F905200BF0F7F9204609F07FFD66
:100B600002B010BD0BF0A7F9009BC01A7828F7D887
:100B70000CF012FC611CC9B2C7E710B50446FFF7C0
:100B800041FF822804D12046BDE81040FFF756BF40
:100B9000FFF738FF8C2804D12046BDE81040FFF74E
:100BA0009DBFFFF72FFF282802D10123237010BD1E
:100BB000BDE81040FFF726BF70470000002210B5C7
:100BC0000446044B114640F8043B09F039FB20462B
:100BD00010BD00BF88300B0810B50446FFF7EEFFCC
:100BE000204620210CF04BFC204610BD10B56C2295
:100BF000002104460EF09AF90123002220461146F6
:100C0000236009F07FFB204610BD2DE9F041054629
:100C10000E4617469DF81810002218461C4609F08B
:100C200079FB234606903A4631462846BDE8F04116
:100C300009F0E8BCF0B5044626468BB001F0D4F9C3
:100C40001C4B002246F8083B1421012009F062FBEE
:100C50000125142703462A46CDE900756FF07F4130
:100C6000304609F0ADFC39460022022009F052FB63
:100C70001E220346019500920F49022202A804F1A8
:100C80000C0503AE09F09CFC0FCE0FC596E80700DB
:100C900085E8070002A8FFF791FF4FF480124FF498
:100CA00080732046C4E90A23002384F8303063634C
:100CB0000BB0F0BD9C300B080060FF0038B5064C4F
:100CC00023683BB93820FFF7E8F9054608B1FFF77C
:100CD000B1FF2560206838BDD002002030B5142453
:100CE0009FB003A8FFF782FF03A803236FF07F42A2
:100CF00000210094FFF789FF03A803236FF07F42D0
:100D000001210094FFF781FF02231E25194603A845
:100D1000FF220094FFF779FF03A80223FF2203219B
:100D20000094FFF772FF03A80323FF22042100941D
:100D3000FFF76BFF03A80223FF2205210095FFF7B1
:100D400064FF03A80223FF2206210095FFF75DFF41
:100D500003A803236FF07F4207210094FFF755FF9C
:100D60000A2303A800934FF47F4202230921FFF7CF
:100D70004CFF002203A8114609F0BCFA1FB030BD99
:100D800010B514249EB003A8FFF730FF03A8032377
:100D90006FF07F4202210094FFF737FF032303A87F
:100DA00019466FF07F420094FFF72FFF03A803233B
:100DB0006FF07F4204210094FFF727FF03A803236D
:100DC0006FF07F4205210094FFF71FFF032303A864
:100DD0006FF07F4206210094FFF717FF002203A85F
:100DE000114609F087FA1EB010BD38B505460C460D
:100DF00081B10BF0B2F828B100200BF0B0F801235C
:100E000085F82830214605F10C000022BDE8384065
:100E100009F016BA90F82830002BF3D001200BF01F
:100E20009EF82246214620460BF0A9F885F8284076
:100E3000E8E710B5044649B10BF08FF8A0B194F87B
:100E4000290088B9BDE810400BF089B80BF085F88F
:100E5000044648B901200BF082F82246214620467C
:100E6000BDE810400BF08BB810BD38B50546E0B1B9
:100E70000478D4B183783A2B17D10FF0B9F804284D
:100E800013D90A226878303C303802FB04042B79ED
:100E9000E878303B3038172C02FB003005D83B286F
:100EA00003D83C2303FB040038BD4FF0FF30FBE7C1
:100EB00070B50D461646FFF7D8FF04462846FFF7E3
:100EC000D4FF05463046FFF7D0FF002C10DB002D85
:100ED0000EDB00280CDB854206DCAC4208DB8442DA
:100EE000ACBF0020012070BDAC42F8DB0120FAE766
:100EF0000020F8E730B50546364C8DB039B108F022
:100F000053FF95F82930206063B10DB030BD08F073
:100F10004BFF42F20F722368C01A9042EFD8002BA9
:100F2000EDD0F2E795F82B40002CEED12A492B4862
:100F30000DF10D028DF80D4005F006FA9DF80D300B
:100F400053B92749274808AA05F0FEF928469DF815
:100F50002010FFF76EFFD8E7224623491F4804AB55
:100F60000494ADF814400694ADF81C4005F05CF80C
:100F700022461E49194806AB05F056F801231849C8
:100F80000DF10E0215488DF80E3005F0DDF90AF06E
:100F900092FF174B024617490093C31708A80AF09F
:100FA0002BFF089806AA04A9FFF782FF40B19DF81D
:100FB0000E102846FFF73DFF08A809F0CEFBA4E776
:100FC000074908480DF10F0205F0BEF99DF80F1012
:100FD000EFE700BFD402002014300B081C300B08D0
:100FE0002A300B0830300B083B300B0841300B081F
:100FF00045300B089803002013B5044608490948FA
:101000000DF1070205F0A0F99DF8073033B9112161
:10101000236884F82A1020461B68984702B010BD48
:101020002A300B0830300B0870B5154690F82B208D
:101030000446D2B9012680F82F1080F82D5080F890
:101040002E3080F8302080F82C6008F0ADFE84F857
:101050002B60606330460AF082FF002D0348BDE834
:10106000704018BFFF200AF09DBF70BD0050FF0008
:1010700010B590F82B3004469BB308F095FE636BD7
:10108000C01AC7282DD908F08FFE94F82C30606361
:10109000D3B10022104611460AF071FF002094F8E7
:1010A000303094F82F200133DBB29A4284F82C00C0
:1010B00084F8303015D894F82E3084F82B0083B1A2
:1010C000BDE810400AF04BBF012384F82C3094F89F
:1010D0002D300448002B18BFFF20BDE810400AF057
:1010E00061BF10BD0050FF00F0B54B1E04460D4619
:1010F0008DB0242B18D8DFE803F0131D7A7A7A1705
:10110000177A697A17171717174F1F171717171717
:1011100017921717171717171717A3AAAEB2B6000B
:1011200001212046FFF761FE2946204600F056FFC8
:101130000DB0F0BD0021F4E70AF00FFF064638B904
:1011400001200AF00CFF3246314630460AF017FF04
:1011500000224649464805F0D1FF1123454984F84D
:101160002A30684609F043FB434904A809F03FFBD5
:10117000424908A809F03BFB694608AB04AA532082
:1011800003F08AFC08A809F0E8FA04A809F0E5FAD7
:10119000684609F0E2FAC7E70AF0DFFE20B194F8EA
:1011A000290008B90AF0DBFE01223049304805F079
:1011B000A5FF1023324984F82A30684609F017FB4E
:1011C0002D4904A809F013FB2E49D2E7012780F826
:1011D00029700AF0C2FE06460028A5D138460AF05A
:1011E000BEFE3246314630460AF0C9FE9CE7002377
:1011F00090F82B6080F82930002E95D11B491C48AF
:1012000008AA05F0A1F89DF82030002B8CD00AF038
:10121000A4FE002888D030460AF0A1FE84E7FFF73C
:101220005DFD0AF09AFE10B100200AF098FE01223E
:101230000E490F4805F062FF182384F82A3073E73F
:1012400001231A4619462046FFF7EEFE6CE70123FC
:1012500002211A46F7E701231A460321F3E7012387
:1012600004211A46EFE701230022F6E72A300B0893
:1012700030300B084B300B0851300B085D300B0839
:101280006C300B0872300B0810B5044600F0ACFE51
:10129000024B204623601523A36010BD00310B08CC
:1012A00038B5064C23683BB90C20FEF7F6FE054620
:1012B00008B1FFF7E9FF2560206838BDD80200209B
:1012C00008B5012119200BF0ABFFBDE80840002153
:1012D00019200BF0B6BF0000002213B511460DF126
:1012E00007030446074804F098FF9DF80710A1F192
:1012F0001603012B03D8236820461B68984702B0C9
:1013000010BD00BFA0300B0830B54B1E04460D4683
:101310008DB01F2B3AD8DFE803F0A3A79D979D3926
:101320009D399D399D8686909039393939396310B8
:101330003F3939393939399D9D9716230022037277
:1013400011464E4805F06FFF4D49684609F04FFAC7
:101350004C4904A809F04BFA4B4908A809F047FA90
:10136000694608AB04AA532003F096FB08A809F0CD
:10137000F4F904A809F0F1F9684609F0EEF9A37A46
:1013800023B90121E17219200BF05BFF29462046A9
:1013900000F024FE0DB030BD172300220372114669
:1013A000364805F040FF3949684609F020FA3549CA
:1013B00004A809F01CFA364908A809F018FA694689
:1013C00008AB04AA532003F067FB08A809F0C5F98D
:1013D00004A809F0C2F9684609F0BFF90021D1E775
:1013E0001523002203721146244805F01CFF6846AD
:1013F000284909F0FCF9234904A809F0F8F926491D
:1014000008A809F0F4F9694608AB04AA532003F0D0
:1014100043FB08A809F0A1F904A809F09EF9684661
:1014200009F09BF9B2E7037A152BAFD1437A002B71
:10143000ACD1837A002BA9D1D0E7037A152BA5D1A3
:10144000437A002BA2D19AE701234372037A152B2A
:101450009CD194E700234372037A152B96D1BDE704
:101460000123002143818EE700238372037A162B28
:1014700087D0437A002B84D188E700BFA0300B08C7
:10148000AB300B08B1300B08BD300B08CB300B086C
:10149000D1300B08E0300B08E6300B08D0B504461D
:1014A00016461F4608F080FCDDE90423C4E9062344
:1014B000DDE90623C4E90823DDE90823C4E90A239A
:1014C000DDE90A23C4E90C2300220023A060C4E95B
:1014D00004672046C4E90E23C4E91023D0BD2DE9DA
:1014E000F3471F46836882464360164608F05CFC5B
:1014F000DDE90A2304463946CAF8080030460CF0F4
:10150000E1F9DAE9082306460F460CF093FB4FF4A5
:101510007A73CDE90001DAF80400B0FBF3F0201A89
:101520000CF00EFB32463B4604460D460CF082FBA7
:10153000DAE910230CF0C8F9DAE90E23804689466F
:101540003046CAE9108939460CF0BCF922462B46D0
:101550000CF09AFCDAE90A230CF06CFBDAE90C23B4
:1015600004460D46404649460CF064FBDDE9002385
:101570000CF0AAF902460B46204629460CF0A4F9C5
:10158000DAE904458046894602460B46204629464C
:101590000CF0C2FD50B9DAE9064542464B462046FA
:1015A00029460CF0D7FD08B944464D462046294649
:1015B000CAE90E6702B0BDE8F0870000024A13686E
:1015C00001331360704700BFDC0200200000000000
:1015D000D0B5044688B000F007FD2046002600275D
:1015E00000221B4B40F8503B1A4BCDE90667CDE972
:1015F000022315A3D3E90023CDE90467CDE9002335
:101600000022154BFFF74AFF192384F898304FF456
:1016100048534FF49661C4E90267C4E90467A3859F
:1016200004F12C0204F1180323F8021B9342FBD1AE
:1016300000232046C4E91233E3850123238608B042
:10164000D0BD00BFAFF300800000000000407FC0AD
:10165000AC310B080000E03F00407F4038B5064C3D
:1016600023683BB9A020FEF718FD054608B1FFF737
:10167000AFFF2560206838BDEC02002007B50121CE
:1016800018200BF0CDFD00211B200BF0C9FD082117
:1016900018200BF05BFE4FF47A72FF2118200BF03C
:1016A00039FE00230122074900931B204FF0FF332E
:1016B0000BF028F908F078FB034B186003B05DF8D5
:1016C00004FB00BFBD150A08E402002038B508F08D
:1016D0006BFB0949094A0B68C31AB3F57A7F08D333
:1016E0000023074C0860256823603C236B435B089C
:1016F0001380108838BD00BFE4020020E8020020FB
:10170000E002002000000000F7B5054608F04CFBA1
:10171000AB6CC01AB0F5FA6F2BD3284695F82D4064
:10172000FFF7D4FF0CF00CFAD5E9022305F15006BF
:10173000CDE900013046FFF7D2FE00223C4B0646C1
:101740000F460CF0FDFCB0B1103CE4B2042C38BFE5
:101750000424322C28BF322495F82D30A34205D022
:10176000214618200BF0B0FD85F82D4008F01CFB39
:10177000A86403B0F0BD0022304639462D4B0CF072
:10178000DFFC08B1083CE0E7304625A3D3E900239D
:1017900039460CF0D5FC08B1043CD6E700223046AF
:1017A0003946254B0CF0CCFC08B1023CCDE70022B9
:1017B00030463946214B0CF0C3FC08B1013CC4E76C
:1017C0000022304639461E4B0CF0B0FC08B1013403
:1017D000BBE70022304639461A4B0CF0A7FC08B193
:1017E0000234B2E7002230463946174B0CF09EFC1B
:1017F00008B10434A9E7002230463946134B0CF0F7
:1018000095FC08B10834A0E7304607A3D3E90023CC
:1018100039460CF08BFC002898D0103495E700BFB7
:101820000000000000C072400000000000407FC0C7
:1018300000407F400000794000004E40008046405C
:10184000008046C000004EC000C072C0000079C0D9
:10185000F8B51F469DF818300446164683B100229D
:101860000023304639460CF04DFC70B34FF47A72C9
:10187000FF2118200BF04EFD002384F83030F8BD16
:1018800090F82C2039460A2A08BF80F82C3090F8AE
:101890002C506B1C80F82C3030460CF08DFC0C3535
:1018A00080B224F8150094F82E30002BE7D194F87C
:1018B0002F30002BE3D104F1180304F12C0233F88C
:1018C000021B8842DBD19342F9D1C4E90267D6E713
:1018D00038B590F82F3004460D4643B941B94FF45E
:1018E0007A72FF2118200BF015FD84F8305038BDB6
:1018F00090F8303013B9012380F830302946BDE824
:1019000038404FF47A7218200BF004BD10B504462D
:1019100094F82F3008463BB9D4E90223C4E90423E4
:101920000CF00EF9C4E9020110BD00000000000037
:101930002DE9F0434B1E04460D468FB01F2B24D8D3
:10194000DFE813F061006E00D200060106012300FB
:1019500006012300060123004C0173008700980054
:10196000B5002300230023002300230023002300CD
:101970002300D2009401C9016A0020005F00060123
:1019800006010601012384F8313094F8303013B198
:101990002046FFF7B9FE08F007FAE36CC01AA44B23
:1019A000984227D994F82F300BBB94F83030F3B11C
:1019B0002046FFF78BFED0B99E4902A808F017FF1A
:1019C0009D4906A808F013FF9C490AA808F00FFFDC
:1019D0000AAB06AA02A9532003F05EF80AA808F091
:1019E000BCFE06A808F0B9FE02A808F0B6FE08F092
:1019F000DBF9E0642946204600F0F0FA0FB0BDE8BC
:101A0000F0830023BFE7012380F82F304FF47A7270
:101A1000FF2118200BF07EFC002384F83030B4E75F
:101A2000002380F82F300123F7E794F831300022AB
:101A300000F10801D1E9000123B3814B0CF062FBF6
:101A40000028A2D100227E4B00902046FFF700FF25
:101A50009BE794F83130002200F10801D1E9000140
:101A60006BB3784B0CF04EFB00288ED10022754BE7
:101A70000090EAE794F83130002200F10801D1E942
:101A8000000153B1704B0CF03DFB00287FF47DAF9B
:101A90000023002200936C4BD7E76C4B0CF032FB19
:101AA00000287FF472AF0022684B0090CDE794F8D5
:101AB0003130002200F10801D1E9000153B1644B3B
:101AC0000CF020FB00287FF460AF0023002200937D
:101AD0005F4BBAE75F4B0CF015FB00287FF455AF66
:101AE00000225C4B0090B0E7002380F82E3090F885
:101AF0002F3013B9012380F830300026D4E904894F
:101B0000002732463B46404649460CF0FBFA18B9DE
:101B1000C4E90289C4E904674F4902A808F067FED6
:101B2000454906A808F063FE4C490AA808F05FFE84
:101B30000AAB06AA02A9532002F0AEFF0AA808F0D9
:101B40000CFE06A808F009FE02A808F006FE1CE735
:101B50000123414980F82E3080F8303002A808F087
:101B600046FE354906A808F042FE3D490AA808F09D
:101B70003EFE0AAB06AA02A9532002F08DFF0AA876
:101B800008F0EBFD06A808F0E8FD02A808F0E5FD66
:101B9000042D04D100222F4BC4E90223F5E66B1F6C
:101BA000012B02D80022284BF6E7072D02D1002294
:101BB000234BF1E7092D02D10022224BECE71E2D29
:101BC000FAD01F2D03D116A3D3E90023E4E7202D7B
:101BD0007FF4DBAE14A3D3E90023DDE7214902A89B
:101BE00008F005FE144906A808F001FE1E490AA8DF
:101BF00008F0FDFD0AAB06AA02A9532002F04CFF33
:101C00000AA808F0AAFD06A808F0A7FD02A808F097
:101C1000A4FD012384F82E30F8E600BFAFF3008066
:101C20000000000000709740000000000088A34002
:101C3000002E930284310B080A310B088A310B08FD
:101C400000407F4000208C4000C0924000209C401B
:101C500000E0954000409F4004310B0816310B080E
:101C60002F310B0856310B085C310B081D4902A8B7
:101C700008F0BDFD1C4906A808F0B9FD1B490AA8DB
:101C800008F0B5FD0AAB06AA02A9532002F004FF32
:101C90000AA808F062FD06A808F05FFD02A808F097
:101CA0005CFD94F82F3013B9012384F830304FF0E5
:101CB0000008D4E904674FF0000942464B4630461D
:101CC00039460CF01FFA00287FF45FAEC4E90267C2
:101CD000C4E9048959E690F82F30002B7FF455AE03
:101CE000A1E600BF04310B080A310B0872310B0862
:101CF00010B5044600F078F9034B1222236000234C
:101D00002046C4E9022310BD5C320B0838B5064CEE
:101D100023683BB91020FEF7C0F9054608B1FFF76C
:101D2000E7FF2560206838BDF002002008B50121DA
:101D300002200BF075FA00210B200BF071FABDE8C0
:101D40000840002102200BF07CBA0000002213B5ED
:101D500011460DF107030446074804F05EFA9DF8AA
:101D60000710A1F11303012B03D8236820461B6839
:101D7000984702B010BD00BFB0310B0870B5C37AF0
:101D8000DBB9012102200BF05CFA0A200AF0DCF832
:101D900001260F2400252DB90B200BF06BFA051E30
:101DA00018BF0125013C14F0FF04F4D11EB12146F7
:101DB00002200BF046FA284670BD0026E9E7000035
:101DC00030B54B1E04460D468DB01F2B4AD8DFE8B8
:101DD00013F0E000E400D900D200D9004900D90096
:101DE0004900D9004900D900BF00BF00C900C9009F
:101DF000490049009C002000780049004900490042
:101E0000490049004900490049004900D900D9006A
:101E1000D2001323002203721146654805F003FA2D
:101E20006449684608F0E3FC634904A808F0DFFC55
:101E3000624908A808F0DBFC694608AB04AA5320F5
:101E400002F02AFE08A808F088FC04A808F085FC27
:101E5000684608F082FCA37A23B90121E1720220CE
:101E60000BF0EFF907F0A0FFE368C01A544B98425B
:101E700021D92046FFF782FFD0B95249684608F0C1
:101E8000B6FC4D4904A808F0B2FC4F4908A808F078
:101E9000AEFC694608AB04AA532002F0FDFD08A879
:101EA00008F05BFC04A808F058FC684608F055FCF4
:101EB00007F07AFFE0602946204600F08FF80DB069
:101EC00030BD1423002203721146394805F0ABF9E6
:101ED0003E49684608F08BFC374904A808F087FCA7
:101EE0003B4908A808F083FC694608AB04AA5320C4
:101EF00002F0D2FD08A808F030FC04A808F02DFC80
:101F0000684608F02AFC0021A8E712230022037289
:101F10001146274805F087F968462E4908F067FC06
:101F2000254904A808F063FC2B4908A808F05FFCC9
:101F3000694608AB04AA532002F0AEFD08A808F0D9
:101F40000CFC04A808F009FC684608F006FC89E7C8
:101F5000037A122B86D1437A002B83D1837A002B0C
:101F600080D1D0E7037A122B7FF47CAF437A002B29
:101F70007FF478AF6FE701234372037A122B7FF46B
:101F800071AF68E700234372037A122B7FF46AAFC4
:101F9000B9E701230021438161E700238372037ABB
:101FA000132B3FF45AAF437A002B7FF456AF59E717
:101FB000B0310B08BE310B08C4310B08D8310B0807
:101FC000002E930229320B082F320B08EE310B083A
:101FD000F4310B080B320B0811320B08406810B1BA
:101FE00003681B6818477047024A0260002242607B
:101FF000704700BF68320B08416070470346406875
:102000000028FBD15960704738B5064C25683DB9AA
:102010001420FEF742F810B10223C560038020604F
:10202000206838BDF402002000211C200BF0F8B815
:10203000002370B586B004938B6804460E4602AD4B
:1020400033B1022228469847F3680593B368049396
:102050006A4695E80300231D82E8030093E8030025
:1020600085E8030092E8030083E80300049AE3682C
:102070002169E260059A0493059122611BB1032254
:1020800029462846984706B070BD07B582688DF886
:1020900007100AB90BF0F9F9C3680DF10701984769
:1020A00003B05DF804FB000010B504468CB01C20A2
:1020B0000BF0E0F8012801462CD12378022B29D11E
:1020C00040F20113204620F8043BFFF7DEFF1D49D4
:1020D000684608F08CFB1C4904A808F088FB1B49E3
:1020E00008A808F084FB694608AB04AA532002F054
:1020F000D3FC08A808F031FB04A808F02EFB6846C2
:1021000008F02BFB01220023A118114808F0AAF9BE
:102110000CB010BD1C200BF0ADF80028F2D12378D4
:10212000012BEFD10221204620F8041BFFF7ADFF61
:102130000849684608F05BFB034904A808F057FB10
:102140000549CDE76C320B0873320B0881320B085E
:10215000B6320B0898320B089F320B08436913B153
:1021600083690C301847704713B5002104460846B0
:1021700007F09AFE0023204601A9019307F0ACFE68
:10218000019C0CB1012323710021012007F08CFE7A
:102190002CB1236820469B6898470023237102B026
:1021A00010BD022A38B5044607D0032A11D0012AEF
:1021B00001D10B682360002038BD0C200D68FDF7AD
:1021C0006CFF03460028F5D095E8070083E8070078
:1021D000F0E700680028EED00C210BF050F9EAE798
:1021E00010B403685A689968541001EB6200D20772
:1021F00048BF0A591B6810BC48BFD3581847000095
:1022000037B5134B044603608068C8B100256FF0F2
:1022100000430221CDE900352A462B4607F064FE33
:102220002946A06807F0B0FE237903F0FF0513B13B
:1022300007F032FEF8E72946A06807F045FEA560E2
:1022400004F10C00FEF7DEF8204603B030BD00BFFD
:10225000B0340B0810B50446FFF7D2FF20461C210E
:102260000BF00DF9204610BD10B5044601F056FAEA
:1022700000232361022320602371204610BD00004B
:1022800038B5064C23683BB91820FDF706FF054614
:1022900008B1FFF7E9FF2560206838BDF80200208B
:1022A0002DE9F04F044600688FB00378002B00F052
:1022B000AC8001F043FA00258046554FDFF874A149
:1022C000544E5FFA85F9C84576D939460AA808F010
:1022D0008EFA019501350A22294606A808F007FB67
:1022E00006A90AA808F040FB2268019B01684FEA92
:1022F000830B02EB83035B68524693F9043030464C
:1023000004F0E3FF06A808F028FA0AA808F025FA66
:1023100039460AA808F06BFA0A22294606A808F0EE
:10232000E6FA06A90AA808F01FFB00233A4A01684A
:10233000304604F0CAFF06A808F00FFA0AA808F011
:102340000CFA39460AA808F052FA0A22294606A8C9
:1023500008F0CDFA06A90AA808F006FB2368016870
:102360005B445B6830465B692C4A05F000F806A8C0
:1023700008F0F3F90AA808F0F0F9B9F1000FA0D1BC
:1023800039460AA808F033FA0A22294606A808F0B6
:10239000AEFA06A90AA808F0E7FA236801685B68A4
:1023A00030469B691E4A04F0E2FF06A808F0D5F902
:1023B0000AA808F0D2F984E7236800221B7819499B
:1023C000144804F030FF0022236817491A7702A846
:1023D00008F00DFA154906A808F009FA14490AA8E8
:1023E00008F005FA0AAB06AA02A9532002F054FB32
:1023F0000AA808F0B2F906A808F0AFF902A808F098
:10240000ACF901200FB0BDE8F08F0520FAE700BF5E
:10241000C1320B0820300B08CE320B08DD320B081E
:10242000D9320B08E4320B08E9320B08F0320B0802
:10243000FE320B08C7320B08006803785BB14378A3
:1024400000EB83035B681B7F0BB901F0CDB9037F01
:102450000BB101F0A7B9704730B5032904460D460A
:1024600095B000F0CA800B460171002264496548AE
:1024700004F02BFF23685A7803EB82035B681B7F11
:10248000002B2FD16B1E082B26D8DFE803F0055C4C
:1024900025256B897A98A700042104F10800FFF72D
:1024A000F4FD594908A808F0A2F958490CA808F009
:1024B0009EF9574910A808F09AF910AB0CAA08A980
:1024C000532002F0E9FA10A808F047F90CA808F028
:1024D00044F908A808F041F92B4600224D49494823
:1024E00004F0F3FE4C4908A808F081F947490CA80C
:1024F00008F07DF9494904A808F079F90A2229462B
:10250000684608F0F4F9694604A808F02DFA014677
:1025100010A808F0B6F910AB0CAA08A9532002F0D5
:10252000BBFA10A808F019F9684608F016F904A8D3
:1025300008F013F90CA808F010F908A808F00DF934
:10254000012015B030BD052104F10800FFF79DFD05
:10255000334908A808F04BF92C490CA808F047F9B2
:102560003049A7E7072104F10800FFF78EFD2E4947
:1025700008A808F03CF925490CA808F038F92B49BF
:1025800098E70B2104F10800FFF77FFD284908A810
:1025900008F02DF91D490CA808F029F9254989E70B
:1025A0001E2104F10800FFF770FD234908A808F078
:1025B0001EF916490CA808F01AF920497AE71F21DC
:1025C00004F10800FFF761FD1D4908A808F00FF9A4
:1025D0000E490CA808F00BF91A496BE7202104F109
:1025E0000800FFF752FD184908A808F000F907494C
:1025F0000CA808F0FCF815495CE70220A1E700BF31
:102600001B330B0823330B082F330B08F0320B0856
:1026100035330B08DA330B08E2330B08E8330B08C9
:1026200045330B084B330B085A330B0861330B0847
:1026300073330B087A330B0889330B0890330B087C
:10264000A4330B08AB330B08BF330B08C6330B089E
:1026500030B590F9043004468FB0092B51D8DFE82B
:1026600003F00567755050839F91ADBB0DF10703D3
:1026700000226049604803F019FE9DF8073004F11C
:102680000805002B46D01C212846FFF7FEFC5B49BD
:102690000AA808F0ACF85A4906A808F0A8F8594961
:1026A00002A808F0A4F802AB06AA0AA9532002F077
:1026B000F3F902A808F051F806A808F04EF80AA8A5
:1026C00008F04BF803212846FFF7DFFC4E490AA823
:1026D00008F08DF84A4906A808F089F84B4902A885
:1026E00008F085F802AB06AA0AA9532002F0D4F933
:1026F00002A808F032F806A808F02FF80AA808F097
:102700002CF8002294F9043041493B4804F0DDFDE7
:102710000FB030BD1D212846FFF7B7FC3D490AA880
:1027200008F065F8364906A808F061F83A49B7E7B5
:1027300004210830FFF7A9FC38490AA808F057F827
:102740002F4906A808F053F83549C8E70521083095
:10275000FFF79BFC33490AA808F049F8284906A866
:1027600008F045F83049BAE707210830FFF78DFC3B
:102770002E490AA808F03BF8214906A808F037F8C6
:102780002B49ACE70B210830FFF77FFC29490AA849
:1027900008F02DF81A4906A808F029F826499EE7FE
:1027A0001E210830FFF771FC14490AA808F01FF831
:1027B000134906A808F01BF8204990E71F210830AC
:1027C000FFF763FC1E490AA808F011F80C4906A897
:1027D00008F00DF81B4982E720210830FFF755FC6F
:1027E00019490AA808F003F8054906A807F0FFFFF1
:1027F000164974E702340B0823330B0889330B089E
:10280000F0320B0815340B084D340B0853340B0809
:10281000DA330B082D340B0834340B082F330B0834
:1028200035330B0845330B084B330B085A330B0871
:1028300061330B0873330B087A330B0890330B08A2
:10284000A4330B08AB330B08BF330B08C6330B089C
:1028500013B50131044609D10DF1070300220949DE
:10286000094803F086FC9DF80730237123685A78E5
:1028700003EB82035B681B7F13B92046FFF7E8FE7A
:1028800002B010BD1B330B0823330B0830B50D46C7
:102890008FB00DF10703044600221A491A4803F0CD
:1028A00068FC9DF90730AB4229D1002315491A462F
:1028B0002371154804F009FD204694F90410FFF730
:1028C000C7FF124902A807F092FF114906A807F0B6
:1028D0008EFF10490AA807F08AFF0AAB06AA02A9D0
:1028E000532002F0D9F80AA807F037FF06A807F02E
:1028F00034FF02A807F031FF01200FB030BD0320E4
:10290000FBE700BF1B330B0823330B0863340B08B2
:10291000F0320B0869340B0813B56C460B460246BF
:1029200003C884E8030093E8030082E8030094E806
:10293000030083E8030002B010BD000070B58CB046
:102940000E4605AD02A981E80C0085E80C000023C5
:1029500004460C200A93FDF7A0FB034628B195E836
:102960000300109A83E803009A6000250893134B34
:1029700004F10C010B93124B08A80A93114B25711B
:102980002360A5606561FFF7C7FF0A9B6269636109
:102990000B9B0A92A269A3619DF8443031460B92C9
:1029A0000093094A2346019504F1080007F084FAD0
:1029B00008A8FDF727FD20460CB070BDE1210A08EC
:1029C000A3210A08B0340B0869210A08000000009E
:1029D0002DE9F04FA9B00DF11D0304460022C049B6
:1029E000C04803F01AFC9DF81D30002B00F08182D6
:1029F0002268BD491370BB4800220DF11E0303F08D
:102A00000CFC23689DF81E2000255A7000230493B7
:102A100020689DF810A00378534540F268820AF1BF
:102A20000106B2491BA807F0E2FE0A2231461FA8A0
:102A300007F05DFF1FA91BA807F096FF0DF11F030C
:102A4000AB4A0168A74803F094FB1FA807F085FE76
:102A50001BA807F082FEA5491BA807F0C8FE0A22A2
:102A600031461FA807F043FF1FA91BA807F07CFFF2
:102A700009ABA04A01689B4803F0D6FA1FA807F0EB
:102A80006CFE1BA807F069FE98491BA807F0AFFE73
:102A90000A2231461FA807F02AFF1FA91BA807F02A
:102AA00063FF08AB0168944A8E4803F017FB1FA828
:102AB00007F053FE1BA807F050FE23685B785345D0
:102AC00040F0408109F008FA0A2201460FA807F0F9
:102AD0000EFF0F9F09F00CFA0A22014613A807F017
:102AE00006FFDDF84CB009F00BFA0A22014617A8E0
:102AF00007F0FDFE38460DF07BFA064658460DF00D
:102B000077FADDF85C90029048460DF071FA804645
:102B100009A80DF06DFA029B1E440636B0444044ED
:102B2000FDF7BDFA804639460CF0DCFC734940469F
:102B30000CF0A8FC594640460CF0A4FC6F494046F6
:102B40000CF0A0FC494640460CF09CFC6B4940460A
:102B50000CF098FC09A940460CF094FC68494046EA
:102B60000CF090FC1FAA674940460DF015FE1FA807
:102B70000CF0BCFA0E46074609F0CEF90246C31720
:102B8000CDE90223DDE902013A4633460CF0A8F80C
:102B900051A3D3E900230BF077F900220023064666
:102BA0000F460BF0B9FA002855D009F095F90A2222
:102BB000411E1BA807F09BFE1B99084605910DF0CE
:102BC00017FA064658460DF013FA804648460DF0AF
:102BD0000FFA074609A80DF00BFA464406363744AB
:102BE0003844FDF75CFA804605990CF07BFC4349BC
:102BF00040460CF047FC594640460CF043FC3F4928
:102C000040460CF03FFC494640460CF03BFC3B493B
:102C100040460CF037FC09A940460CF033FC38491B
:102C200040460CF02FFC1FAA364940460DF0B4FD7B
:102C30001FA80CF05BFA02460B46DDE902010CF01E
:102C40004FF825A3D3E900230BF01EF906461BA875
:102C50000F4607F082FD4046FDF725FA00220023CB
:102C6000304639460BF058FA00284DD04FF07C51D1
:102C700008980BF01FFC0AF085FF32463B46804661
:102C800089460BF067FA00283ED032463B46404664
:102C900049460AF019FE0BF0AFFA064617A807F0EE
:102CA0005CFD13A807F059FD0FA807F056FD9DF92C
:102CB0001F304FEA8A0A013B082B56D8DFE813F091
:102CC00044008A00A60055009800C200B400D0005D
:102CD000DF0000BFAFF30080000000000020AC4028
:102CE000E4320B0820300B0888340B08C1320B0883
:102CF000C7320B08CE320B08DD320B0855370B08F4
:102D000091340B0895340B080022002330463946D5
:102D10000BF020FAA0B14FF07C5108980BF0CAFBE1
:102D20000AF030FF32463B46804689460BF012FAE5
:102D300030B132463B46404649460AF0C3FDAAE759
:102D40002E46ABE72E46B2E72420FDF7A6F907464C
:102D500040B1089B0121009609AA01F0CBFC664B0B
:102D60003B603C62236853445F60236829465344B8
:102D70003046D3F804800BF059FD0746002800F0D8
:102D80008D805E49D8F818000BF094FB5B490BF07E
:102D900091FB5B490BF08EFB0BF052FD07461C20AC
:102DA000FDF77BF9064660B1564B39460B9300237D
:102DB0000C93012301932368524A00930023FFF7E9
:102DC000BDFD23689A44DAF804309E60049B013309
:102DD00004931DE62420FDF760F907460028C1D0C2
:102DE000089B0221009609AA01F084FC464BB7E734
:102DF0002420FDF752F907460028B3D0089B05218F
:102E0000009609AA01F076FC404BA9E72420FDF7C3
:102E100044F907460028A5D0089B0321009609AA7B
:102E200001F068FC3A4B9BE72420FDF736F9074692
:102E3000002897D0089B0721009609AA01F05AFCA8
:102E4000344B8DE72420FDF728F90746002889D068
:102E5000089B0621009609AA01F04CFC2E4B7FE747
:102E60002420FDF71AF9074600283FF47BAF089BA2
:102E70000821009609AA01F03DFC284B70E72420A8
:102E8000FDF70BF9074600283FF46CAF089B0921BA
:102E9000009609AA01F02EFC214B61E7D8F8140036
:102EA0000AF070FE00221F4B0AF0C4FE00221E4BE7
:102EB0000AF0C0FE00221C4B0AF0BCFE00221B4B95
:102EC0000AF0B8FE0BF050F980461C20FDF7E5F83B
:102ED000064600283FF475AF0A4B4146CDE90D3751
:102EE000012301932368074A00933B4667E700F0FC
:102EF000ABFC29B0BDE8F08FF8350B08000070423C
:102F000000007A4475380A0890350B0820360B0803
:102F100034350B0858360B086C350B08F4340B08A5
:102F2000D0350B080000E03F00004E4000408F40CD
:102F30002DE9F04F91B01F469DF86C300546039384
:102F400003680E461B789046DDF868900BB1FFF7DA
:102F5000A7F90024039B5FFA84FA9C4200F04082A8
:102F600057F824B0002158460BF04CFC30B95846B5
:102F7000B1490BF05BFC002800F08B800AF1FF3AAE
:102F8000DFF8DC82DFF8DC925FFA8AF42420FDF7B8
:102F900084F8074618B101F09FFBA84B3B602B68F3
:102FA000414603EB84035F600CA8671C07F01FFC1D
:102FB0000A22394608A807F09AFC08A90CA807F0CD
:102FC000D3FC2B68A60033445B689D4A93F9043018
:102FD0000168484604F079F908A807F0BEFB0CA880
:102FE00007F0BBFB41460CA807F001FC0A2239465A
:102FF00008A807F07CFC08A90CA807F0B5FC2B6812
:10300000904A33445B6801680C33484604F007FA81
:1030100008A807F0A2FB0CA807F09FFB41460CA8EC
:1030200007F0E5FB0A22394608A807F060FC08A96A
:103030000CA807F099FC2B6801681E447368484689
:103040005B69814A04F093F908A807F086FB0CA895
:1030500007F083FBD4B941460CA807F0C8FB0A224D
:10306000394608A807F043FC08A90CA807F07CFC27
:103070002B6801685B6848469B69744A04F077F9DD
:1030800008A807F06AFB0CA807F067FB013CE4B254
:103090007CE73357013B082B24D8DFE813F0090005
:1030A000E5000D012300F9003501210149015D0111
:1030B0002420FCF7F2FF824678B1062259F824302A
:1030C00002FB0482009357F82430315701F012FBC1
:1030D0005F4BCAF80030CAF820502B6803EB84031A
:1030E000C3F804A0D5F800A0002C40F049810021CD
:1030F000D9F800000BF09AFB002800F04181DAF8C3
:103100000430544998690BF0D5F952490BF0D2F9C3
:1031100051490BF0CFF90BF093FB83461C20FCF7D1
:10312000BCFF824658B14D4B5946CDE904340123CA
:1031300001932B68494A00932346FFF7FFFB2B6856
:103140005B684749C3F808A00CA804F1010A07F01E
:103150004EFB0A22514608A807F0C9FB08A90CA893
:1031600007F002FC2B68364A03EB84035B680168B6
:1031700093F904303B4804F0A8F808A807F0EDFAEA
:103180000CA807F0EAFA36490CA807F030FB0A222F
:10319000514608A807F0ABFB08A90CA807F0E4FB10
:1031A0002B684FEA840B5B445B68264A0C3301684A
:1031B0002C4804F034F908A807F0CFFA0CA807F05F
:1031C000CCFA27490CA807F012FB0A22514608A89E
:1031D00007F08DFB08A90CA807F0C6FB2B68016857
:1031E0005B445B68184A5B691E4804F0C0F808A895
:1031F00007F0B3FA0CA807F0B0FAD4B918490CA834
:1032000007F0F5FA0A22514608A807F070FB08A952
:103210000CA807F0A9FB2B6801685B680B4A9B6947
:10322000104804F0A4F808A807F097FA0CA807F0D3
:1032300094FA54468EE600BF0000C04134350B08B6
:10324000C7320B08CE320B08DD320B08D9320B081F
:10325000F8350B080000704200007A4475380A08FF
:10326000C1320B0820300B082420FCF716FF8246E1
:1032700000283FF432AF062259F8243002FB0482C2
:10328000009357F82430315701F034FA5C4B20E7B3
:103290002420FCF702FF824600283FF41EAF0622DE
:1032A00059F8243002FB0482009357F82430315738
:1032B00001F020FA534B0CE72420FCF7EEFE824687
:1032C00000283FF40AAF062259F8243002FB04829A
:1032D000009357F82430315701F00CFA4A4BF8E6C6
:1032E0002420FCF7DAFE824600283FF4F6AE0622E0
:1032F00059F8243002FB0482009357F824303157E8
:1033000001F0F8F9414BE4E62420FCF7C6FE8246C2
:1033100000283FF4E2AE062259F8243002FB048272
:10332000009357F82430315701F0E4F9384BD0E6D8
:103330002420FCF7B2FE824600283FF4CEAE0622DF
:1033400059F8243002FB0482009357F82430315797
:1033500001F0D0F92F4BBCE62420FCF79EFE8246FC
:1033600000283FF4BAAE062259F8243002FB04824A
:10337000009357F82430315701F0BCF9264BA8E6EA
:103380000AEB840ADAF8043058690AF0FBFB0022E1
:10339000224B0AF04FFC0022214B0AF04BFC00228A
:1033A0001F4B0AF047FC00221E4B0AF043FC0AF0B8
:1033B000DBFE83461C20FCF770FE824660B11A4B90
:1033C0005946069300230793012301932B68164A5D
:1033D00000930023FFF7B2FA2B6803EB8403AFE6F8
:1033E0002B6800221C702B6810491B78104803F0D2
:1033F0001AFF286800F028FA012011B0BDE8F08F0C
:1034000090350B0820360B0834350B0858360B085E
:103410006C350B08F4340B08D0350B080000E03F86
:1034200000004E4000408F4075380A08E4320B0817
:1034300020300B087FB5002302938B6804460D46AD
:1034400000F1080633B1022268469847EB680393FF
:10345000AB68029331466846FFF75EFA029B226929
:103460002361039B02926269684663610392FCF7E1
:10347000C9FF4FF0FF312046FFF7EAF904B070BDF5
:10348000012130B583680177044698688FB038B160
:103490006FF000420023CDE900231A4606F024FD18
:1034A0000023256A0C932B6943B1022205F1080120
:1034B0000AA898476B690D932B690C931F238DF80D
:1034C00018300C9B0BB909F0E0FF0D9B06A90AA868
:1034D00098470C9B1BB10AA903220846984794F908
:1034E000043000221049114803F0EFFE104902A8F1
:1034F00007F07DF90F4906A807F079F90E490AA8E7
:1035000007F075F90AAB06AA02A9532001F0C4FA24
:103510000AA807F022F906A807F01FF902A807F089
:103520001CF90FB030BD00BFDA330B0823330B0892
:10353000A4330B08F0320B08BC340B0830B500255F
:10354000036A85611B6804465B788DB0002B3DD112
:10355000304908A8039507F04AF9236A0A221B6834
:1035600004A85978013107F0C2F904A908A807F0A6
:10357000FBF9294A016803AB284802F0AFFD04A813
:1035800007F0EBF808A807F0E8F8294603980BF0D5
:103590004DF9D8B11F4908A807F029F9236A0A2272
:1035A0001B6804A85978013107F0A1F904A908A8FB
:1035B00007F0DAF9A3690168174A184803F0D7FE43
:1035C00004A807F0CAF808A807F0C7F8A3689D6820
:1035D000F5B160690AF0D6FA0022114B0AF02AFB15
:1035E0000022104B0AF026FB00220E4B0AF022FBB1
:1035F00000220D4B0AF01EFB0AF0B6FD6FF00041F1
:1036000000220346CDE900122846032106F06CFC97
:103610000DB030BDC1320B08D9320B0820300B0879
:103620000000E03F00004E4000408F4070B58368CE
:10363000044698688EB000B3002106F095FCE0B116
:10364000A568A868C8B100266FF000430221CDE943
:1036500000363246334606F047FC3146A86806F08D
:1036600093FC2B7903F0FF0613B106F015FCF8E785
:103670003146A86806F028FCAE6000230021A0694E
:1036800023770BF0D3F810B12046FFF757FF206ADD
:103690004FF0FF31FFF7DCF80E4902A807F0A7F85A
:1036A0000D4906A807F0A3F80C490AA807F09FF8EF
:1036B0000AAB06AA02A9532001F0EEF90AA807F006
:1036C0004CF806A807F049F802A807F046F80EB033
:1036D00070BD00BFD0340B08F0320B08D7340B0894
:1036E00000232DE9F0410446DFF82C8003800377A6
:1036F000061D00F11C072420FCF7CFFC054618B17D
:1037000000F0EAFFC5F8008046F8045BBE42F2D143
:103710002046BDE8F08100BF34350B0838B5064CB3
:1037200023683BB92020FCF7B8FC054608B1FFF739
:10373000D7FF2560206838BDFC0200202DE9F0414C
:103740004378044600EB83035868037F13B1036892
:103750005B6898470027DFF848802378FEB2B342C1
:103760000DD92420FCF799FC054618B100F0B4FFF0
:10377000C5F8008004EB860675600137EDE700258B
:1037800005492B462A460548657003F04CFD207814
:103790002570BDE8F08100BF88340B0820300B088D
:1037A00034350B0870B5002504464378057700EBE7
:1037B0008303586803685B689847207801280ED017
:1037C00063782A46591CB1FBF0F300FB1313DBB2FC
:1037D000637003490348BDE8704003F024BD70BD29
:1037E00088340B0820300B0830B543788BB000EBE1
:1037F0008303596804460C3102A806F0F8FF08F06C
:103800005AFB0F4B02460F490093C31706A808F056
:10381000F3FA06A902A807F0DCF8054606A806F0A8
:103820009CFF02A806F099FF45B10023607823773A
:1038300004EB8004606803681B6898470BB030BDD8
:1038400045300B089803002070B54378044600EB20
:1038500083035D680021A8690AF0E8FF28B12B689E
:103860002846BDE870401B6818472046BDE87040F8
:10387000FFF7BABF10B54378044600EB83035B68DB
:103880009B68986810B90123237710BD002106F0CA
:103890006BFB0028F7D0F8E730B50025036A856197
:1038A0001B6804465B788DB0002B3DD1304908A8D9
:1038B000039506F09CFF236A0A221B6804A8597826
:1038C000013107F014F804A908A807F04DF8294AB7
:1038D000016803AB284802F001FC04A806F03DFF94
:1038E00008A806F03AFF294603980AF09FFFD8B1CE
:1038F0001F4908A806F07BFF236A0A221B6804A858
:103900005978013106F0F3FF04A908A807F02CF854
:10391000A3690168174A184803F029FD04A806F0B6
:103920001CFF08A806F019FFA3689D68F5B160693F
:103930000AF028F90022114B0AF07CF90022104B02
:103940000AF078F900220E4B0AF074F900220D4BB0
:103950000AF070F90AF008FC6FF0004100220346FB
:10396000CDE900122846032106F0BEFA0DB030BDA5
:10397000C1320B08D9320B0820300B080000E03FA1
:1039800000004E4000408F4038B5002383608B68B4
:1039900004460D462BB102229847EB68E360AB6802
:1039A000A360204638BD0000012110B5836801776F
:1039B000044698688EB038B16FF000420023CDE91C
:1039C00000231A4606F090FA216A0AA80831FFF788
:1039D000DBFF09210AA8FEF758FB0AA8FCF712FD35
:1039E00094F9043000221049104803F06EFC10498D
:1039F00002A806F0FCFE0F4906A806F0F8FE0E49E4
:103A00000AA806F0F4FE0AAB06AA02A9532001F0A8
:103A100043F80AA806F0A1FE06A806F09EFE02A83A
:103A200006F09BFE0EB010BDDA330B0823330B08F3
:103A3000FC340B08F0320B0802350B0870B58368B4
:103A4000044698688EB000B3002106F08DFAE0B10C
:103A5000A568A868C8B100266FF000430221CDE92F
:103A600000363246334606F03FFA3146A86806F083
:103A70008BFA2B7903F0FF0613B106F00DFAF8E785
:103A80003146A86806F020FAAE6000230021A06944
:103A900023770AF0CBFE10B12046FFF7FDFE216A26
:103AA0000AA80831FFF770FF0A210AA8FEF7EDFA0D
:103AB0000AA8FCF7A7FC206A4FF0FF31FEF7C8FE0A
:103AC0000E4902A806F093FE0D4906A806F08FFEE7
:103AD0000C490AA806F08BFE0AAB06AA02A95320DD
:103AE00000F0DAFF0AA806F038FE06A806F035FE58
:103AF00002A806F032FE0EB070BD00BF13350B08F1
:103B0000F0320B0819350B08012130B583680177B5
:103B1000044698688FB038B16FF000420023CDE9B9
:103B200000231A4606F0E0F90023256A0C932B695E
:103B300043B1022205F108010AA898476B690D9369
:103B40002B690C931E238DF818300C9B0BB909F0D0
:103B50009CFC0D9B06A90AA898470C9B1BB10AA9BF
:103B600003220846984794F904300022104911486E
:103B700003F0ABFB104902A806F039FE0F4906A876
:103B800006F035FE0E490AA806F031FE0AAB06AA79
:103B900002A9532000F080FF0AA806F0DEFD06A867
:103BA00006F0DBFD02A806F0D8FD0FB030BD00BF67
:103BB000DA330B0823330B0889330B08F0320B0878
:103BC0003C350B0830B50025036A85611B68044647
:103BD0005B788DB0002B3DD1304908A8039506F0E5
:103BE00006FE236A0A221B6804A85978013106F0F0
:103BF0007EFE04A908A806F0B7FE294A016803ABB7
:103C0000284802F06BFA04A806F0A7FD08A806F001
:103C1000A4FD294603980AF009FED8B11F4908A857
:103C200006F0E5FD236A0A221B6804A859780131D1
:103C300006F05DFE04A908A806F096FEA3690168D7
:103C4000174A184803F093FB04A806F086FD08A85D
:103C500006F083FDA3689D68F5B1606909F092FFE5
:103C60000022114B09F0E6FF0022104B09F0E2FFA1
:103C700000220E4B09F0DEFF00220D4B09F0DAFFA7
:103C80000AF072FA6FF0004100220346CDE90012FB
:103C90002846032106F028F90DB030BDC1320B08CB
:103CA000D9320B0820300B080000E03F00004E40E6
:103CB00000408F4070B58368044698688EB000B3AA
:103CC000002106F051F9E0B1A568A868C8B1002646
:103CD0006FF000430221CDE900363246334606F04C
:103CE00003F93146A86806F04FF92B7903F0FF0677
:103CF00013B106F0D1F8F8E73146A86806F0E4F809
:103D0000AE6000230021A06923770AF08FFD10B177
:103D10002046FFF757FF206A4FF0FF31FEF798FD6E
:103D20000E4902A806F063FD0D4906A806F05FFDE6
:103D30000C490AA806F05BFD0AAB06AA02A95320AB
:103D400000F0AAFE0AA806F008FD06A806F005FD88
:103D500002A806F002FD0EB070BD00BF2D340B08A6
:103D6000F0320B0850350B08012130B5836801771C
:103D7000044698688FB038B16FF000420023CDE957
:103D800000231A4606F0B0F80023256A0C932B692D
:103D900043B1022205F108010AA898476B690D9307
:103DA0002B690C9305238DF818300C9B0BB909F087
:103DB0006CFB0D9B06A90AA898470C9B1BB10AA98E
:103DC00003220846984794F904300022104911480C
:103DD00003F07BFA104902A806F009FD0F4906A876
:103DE00006F005FD0E490AA806F001FD0AAB06AA79
:103DF00002A9532000F050FE0AA806F0AEFC06A867
:103E000006F0ABFC02A806F0A8FC0FB030BD00BF66
:103E1000DA330B0823330B0845330B08F0320B0859
:103E20004B330B0830B50025036A85611B680446D7
:103E30005B788DB0002B3DD1304908A8039506F082
:103E4000D6FC236A0A221B6804A85978013106F0BF
:103E50004EFD04A908A806F087FD294A016803ABB6
:103E6000284802F03BF904A806F077FC08A806F001
:103E700074FC294603980AF0D9FCD8B11F4908A858
:103E800006F0B5FC236A0A221B6804A859780131A0
:103E900006F02DFD04A908A806F066FDA3690168D7
:103EA000174A184803F063FA04A806F056FC08A85D
:103EB00006F053FCA3689D68F5B1606909F062FEE5
:103EC0000022114B09F0B6FE0022104B09F0B2FEA1
:103ED00000220E4B09F0AEFE00220D4B09F0AAFEA7
:103EE0000AF042F96FF0004100220346CDE90012CA
:103EF0002846032105F0F8FF0DB030BDC1320B0894
:103F0000D9320B0820300B080000E03F00004E4083
:103F100000408F4070B58368044698688EB000B347
:103F2000002106F021F8E0B1A568A868C8B1002614
:103F30006FF000430221CDE900363246334605F0EA
:103F4000D3FF3146A86806F01FF82B7903F0FF066F
:103F500013B105F0A1FFF8E73146A86805F0B4FFFA
:103F6000AE6000230021A06923770AF05FFC10B146
:103F70002046FFF757FF206A4FF0FF31FEF768FC3D
:103F80000E4902A806F033FC0D4906A806F02FFCE6
:103F90000C490AA806F02BFC0AAB06AA02A953207A
:103FA00000F07AFD0AA806F0D8FB06A806F0D5FBBB
:103FB00002A806F0D2FB0EB070BD00BF74350B082E
:103FC000F0320B087A350B08012130B58368017790
:103FD000044698688FB038B16FF000420023CDE9F5
:103FE00000231A4605F080FF0023256A0C932B69F5
:103FF00043B1022205F108010AA898476B690D93A5
:104000002B690C9320238DF818300C9B0BB909F009
:104010003CFA0D9B06A90AA898470C9B1BB10AA95C
:1040200003220846984794F90430002210491148A9
:1040300003F04BF9104902A806F0D9FB0F4906A876
:1040400006F0D5FB0E490AA806F0D1FB0AAB06AA7A
:1040500002A9532000F020FD0AA806F07EFB06A866
:1040600006F07BFB02A806F078FB0FB030BD00BF66
:10407000DA330B0823330B08BF330B08F0320B087D
:1040800098350B0830B50025036A85611B68044626
:104090005B788DB0002B3DD1304908A8039506F020
:1040A000A6FB236A0A221B6804A85978013106F08E
:1040B0001EFC04A908A806F057FC294A016803ABB6
:1040C000284802F00BF804A806F047FB08A806F001
:1040D00044FB294603980AF0A9FBD8B11F4908A858
:1040E00006F085FB236A0A221B6804A8597801316F
:1040F00006F0FDFB04A908A806F036FCA3690168D8
:10410000174A184803F033F904A806F026FB08A85C
:1041100006F023FBA3689D68F5B1606909F032FDE4
:104120000022114B09F086FD0022104B09F082FDA0
:1041300000220E4B09F07EFD00220D4B09F07AFDA6
:104140000AF012F86FF0004100220346CDE9001298
:104150002846032105F0C8FE0DB030BDC1320B0862
:10416000D9320B0820300B080000E03F00004E4021
:1041700000408F4070B58368044698688EB000B3E5
:10418000002105F0F1FEE0B1A568A868C8B10026DD
:104190006FF000430221CDE900363246334605F088
:1041A000A3FE3146A86805F0EFFE2B7903F0FF0669
:1041B00013B105F071FEF8E73146A86805F084FEFA
:1041C000AE6000230021A06923770AF02FFB10B115
:1041D0002046FFF757FF206A4FF0FF31FEF738FB0C
:1041E0000E4902A806F003FB0D4906A806F0FFFAE7
:1041F0000C490AA806F0FBFA0AAB06AA02A953204A
:1042000000F04AFC0AA806F0A8FA06A806F0A5FAEB
:1042100002A806F0A2FA0EB070BD00BFAC350B08C4
:10422000F0320B08B3350B08012130B583680177F4
:10423000044698688FB038B16FF000420023CDE992
:1042400000231A4605F050FE0023256A0C932B69C3
:1042500043B1022205F108010AA898476B690D9342
:104260002B690C9304238DF818300C9B0BB909F0C3
:104270000CF90D9B06A90AA898470C9B1BB10AA92B
:1042800003220846984794F9043000221049114847
:1042900003F01BF8104902A806F0A9FA0F4906A876
:1042A00006F0A5FA0E490AA806F0A1FA0AAB06AA7A
:1042B00002A9532000F0F0FB0AA806F04EFA06A867
:1042C00006F04BFA02A806F048FA0FB030BD00BF66
:1042D000DA330B0823330B082F330B08F0320B08AB
:1042E00035330B0830B50025036A85611B68044629
:1042F0005B788DB0002B3DD1304908A8039506F0BE
:1043000076FA236A0A221B6804A85978013106F05C
:10431000EEFA04A908A806F027FB294A016803ABB6
:10432000284801F0DBFE04A806F017FA08A806F0FA
:1043300014FA294603980AF079FAD8B11F4908A857
:1043400006F055FA236A0A221B6804A8597801313D
:1043500006F0CDFA04A908A806F006FBA3690168D7
:10436000174A184803F003F804A806F0F6F908A85D
:1043700006F0F3F9A3689D68F5B1606909F002FCE5
:104380000022114B09F056FC0022104B09F052FCA0
:1043900000220E4B09F04EFC00220D4B09F04AFCA6
:1043A00009F0E2FE6FF0004100220346CDE9001261
:1043B0002846032105F098FD0DB030BDC1320B0831
:1043C000D9320B0820300B080000E03F00004E40BF
:1043D00000408F4070B58368044698688EB000B383
:1043E000002105F0C1FDE0B1A568A868C8B10026AC
:1043F0006FF000430221CDE900363246334605F026
:1044000073FD3146A86805F0BFFD2B7903F0FF0668
:1044100013B105F041FDF8E73146A86805F054FDF9
:10442000AE6000230021A06923770AF0FFF910B1E4
:104430002046FFF757FF206A4FF0FF31FEF708FADA
:104440000E4902A806F0D3F90D4906A806F0CFF9E7
:104450000C490AA806F0CBF90AAB06AA02A9532018
:1044600000F01AFB0AA806F078F906A806F075F91C
:1044700002A806F072F90EB070BD00BFD8350B0867
:10448000F0320B08DE350B0830B50025036A856174
:104490001B6804465B788DB0002B3DD1304908A8DD
:1044A000039506F0A4F9236A0A221B6804A8597828
:1044B000013106F01CFA04A908A806F055FA294AA9
:1044C000016803AB284801F009FE04A806F045F98D
:1044D00008A806F042F9294603980AF0A7F9D8B1CE
:1044E0001F4908A806F083F9236A0A221B6804A85A
:1044F0005978013106F0FBF904A908A806F034FA4E
:10450000A3690168174A184802F031FF04A806F0B1
:1045100024F908A806F021F9A3689D68F5B160693F
:1045200009F030FB0022114B09F084FB0022104BF4
:1045300009F080FB00220E4B09F07CFB00220D4BA2
:1045400009F078FB09F010FE6FF0004100220346ED
:10455000CDE900122846032105F0C6FC0DB030BDA0
:10456000C1320B08D9320B0820300B080000E03FA5
:1045700000004E4000408F40012110B58368017754
:10458000044698688EB038B16FF000420023CDE940
:1045900000231A4605F0A8FC216A0AA80831FFF793
:1045A000F3F907210AA8FDF770FD0AA8FBF72AFF17
:1045B00094F9043000221049104802F086FE104998
:1045C00002A806F014F90F4906A806F010F90E49E2
:1045D0000AA806F00CF90AAB06AA02A9532000F0BB
:1045E0005BFA0AA806F0B9F806A806F0B6F802A821
:1045F00006F0B3F80EB010BDDA330B0823330B0806
:104600005A330B08F0320B0861330B0870B583681E
:10461000044698688EB000B3002105F0A5FCE0B117
:10462000A568A868C8B100266FF000430221CDE953
:1046300000363246334605F057FC3146A86805F08F
:10464000A3FC2B7903F0FF0613B105F025FCF8E776
:104650003146A86805F038FCAE6000230021A0694F
:1046600023770AF0E3F810B12046FFF70DFF216A27
:104670000AA80831FFF788F908210AA8FDF705FD07
:104680000AA8FBF7BFFE206A4FF0FF31FEF7E0F803
:104690000E4902A806F0ABF80D4906A806F0A7F8E7
:1046A0000C490AA806F0A3F80AAB06AA02A95320EF
:1046B00000F0F2F90AA806F050F806A806F04DF846
:1046C00002A806F04AF80EB070BD00BF00360B0815
:1046D000F0320B0807360B08054A0260FF22027110
:1046E000002242618261002202778260704700BF2F
:1046F00030360B0838B5044608461D46074B1146B0
:1047000023602071062204F10C000BF08BFC049B4B
:104710002046A36100236561237738BD30360B083E
:10472000012130B583680177044698688FB038B1AD
:104730006FF000420023CDE900231A4605F0D4FBB8
:104740000023256A0C932B6943B1022205F108016D
:104750000AA898476B690D932B690C930B238DF86E
:1047600018300C9B0BB908F090FE0D9B06A90AA807
:1047700098470C9B1BB10AA903220846984794F955
:10478000043000221049114802F09FFD104902A890
:1047900006F02DF80F4906A806F029F80E490AA8D8
:1047A00006F025F80AAB06AA02A9532000F074F916
:1047B0000AA805F0D2FF06A805F0CFFF02A805F071
:1047C000CCFF0FB030BD00BFDA330B0823330B082A
:1047D00073330B08F0320B087A330B0830B5002521
:1047E000036A85611B6804465B788DB0002B3DD160
:1047F000304908A8039505F0FAFF236A0A221B68CE
:1048000004A85978013106F072F804A908A806F046
:10481000ABF8294A016803AB284801F05FFC04A803
:1048200005F09BFF08A805F098FF2946039809F0BA
:10483000FDFFD8B11F4908A805F0D9FF236A0A2255
:104840001B6804A85978013106F051F804A908A89A
:1048500006F08AF8A3690168174A184802F087FD34
:1048600004A805F07AFF08A805F077FFA3689D6803
:10487000F5B1606909F086F90022114B09F0DAF907
:104880000022104B09F0D6F900220E4B09F0D2F9A4
:1048900000220D4B09F0CEF909F066FC6FF00041E3
:1048A00000220346CDE900122846032105F01CFB37
:1048B0000DB030BDC1320B08D9320B0820300B08C7
:1048C0000000E03F00004E4000408F4070B583681C
:1048D000044698688EB000B3002105F045FBE0B1B6
:1048E000A568A868C8B100266FF000430221CDE991
:1048F00000363246334605F0F7FA3146A86805F02F
:1049000043FB2B7903F0FF0613B105F0C5FAF8E776
:104910003146A86805F0D8FAAE6000230021A069EE
:10492000237709F083FF10B12046FFF757FF206A75
:104930004FF0FF31FDF78CFF0E4902A805F057FF3D
:104940000D4906A805F053FF0C490AA805F04FFFD2
:104950000AAB06AA02A9532000F09EF80AA805F0A7
:10496000FCFE06A805F0F9FE02A805F0F6FE0EB062
:1049700070BD00BF38360B08F0320B083F360B080D
:1049800010B50446024B036004F0DEFE204610BD65
:10499000B8360B0810B50446FFF7F2FF2046382161
:1049A00008F06DFD204610BD37B59DF8185004681D
:1049B0008DF800308DF804503C23E468A04703B024
:1049C00030BD7047F0B54E288BB00E4615461C46DC
:1049D000109F16D1394606A805F009FF244B069A08
:1049E0001B7824498DF80030234B24481B78FFF7AF
:1049F000DBFF06A805F0B1FE052007F0A5FA0BB015
:104A0000F0BD5328FBD11E4902A805F0F0FE314647
:104A100002A805F0A9FF1B4905F0B2FF294605F0E1
:104A2000A3FF194905F0ACFF214605F09DFF17498A
:104A300005F0A6FF0446394606A805F0D8FE06A9EB
:104A4000204605F091FF124905F09AFF084B0268D5
:104A50001B7810498DF80030074B08481B78FFF78A
:104A6000A3FF06A805F079FE02A805F076FEC3E7CD
:104A70000103002072360B0800030020040300200D
:104A800079360B0883360B088F360B089B360B08DC
:104A9000AA360B0860370B0870B54E280E4615462F
:104AA0001C4686B00FD11C4B22681B781B498DF821
:104AB00000301B4B1B481B78FFF776FF052007F0E3
:104AC00043FA06B070BD5328FBD1174902A805F080
:104AD0008EFE314602A805F047FF144905F050FF4D
:104AE000294605F041FF124905F04AFF214605F02D
:104AF0003BFF104905F044FF074B02681B780E4945
:104B00008DF80030064B07481B78FFF74DFF02A8D1
:104B100005F023FED2E700BF0103002072360B0828
:104B2000000300200403002079360B0883360B08AD
:104B30009B360B08AA360B0860370B08014804F0B7
:104B400035BE00BF0403002001220B4B10B51A70C4
:104B500008220A4C0A4B20461A700A494FF4006298
:104B600004F0F0FE084B20462360084A0849BDE8DF
:104B7000104008F07FBC00BF0003002004030020A9
:104B80000103002000400240B8360B08500200200C
:104B900081490A081FB50023019303930C23ADF844
:104BA0000430044B0422029301AB05F05BFC05B01A
:104BB0005DF804FBD1000A08022A38B5044607D084
:104BC000032A11D0012A01D10B682360002038BDCF
:104BD0000C200D68FBF761FA03460028F5D095E834
:104BE000070083E80700F0E700680028EED00C21FA
:104BF00008F045FCEAE710B403685A689968541055
:104C000001EB6200D20748BF0A591B6810BC48BFBD
:104C1000D358184710B534220446002104300AF056
:104C200085F938232046236010BD002340681A46CA
:104C3000194605F0BFBB002340681A46194605F027
:104C4000C1BB00224068114605F0CCBB0023406880
:104C50001A46194605F0DEBB07B58068002340B14F
:104C6000CDE900131A46012105F03EF9B0FA80F0B3
:104C7000400903B05DF804FB07B58068002338B134
:104C8000CDE90013022105F02FF9B0FA80F04009B8
:104C900003B05DF804FB000010B5002204466FF07D
:104CA00000418069FFF7E8FF0248FFF7BEFF0023DD
:104CB000637710BD48040020F0B589B00446FBF7C7
:104CC000FDFF2060FDF722F86060FCF7E9FAA060C4
:104CD000FDF79AF9E060FBF7A3FE2061FDF7D0FA3B
:104CE00000262549606104F1200005F080FD22497D
:104CF00004F1300005F07BFD1C20A683A677FBF7AE
:104D0000CCF90546002832D00C200696FBF7C5F9F1
:104D100018B11A4B8460C0E90036194B04902B601F
:104D2000002304AE02AF96E8030087E803002B716E
:104D3000AB6005F10C0292E8030086E8030097E8F7
:104D4000030082E803000F4A06936A61AA690E49CC
:104D500007920E4A05F10800AA61019301230C4A4B
:104D600000932B4605F0A8F83046FBF74BFB204696
:104D7000A56109B0F0BD00BF9E370B08994C0A0829
:104D8000B0340B08B94B0A08C0D40100F74B0A082D
:104D900069210A0838B5064C23683BB94020FBF767
:104DA0007CF9054608B1FFF787FF2560206838BD0C
:104DB0004003002030B50024CBB004AB18193834C0
:104DC000FFF728FFB4F58C7FF7D105220E4804A920
:104DD00007F04EFFC5B2012D02D000204BB030BD10
:104DE00005A9684605F003FD6846084905F0FEFD83
:104DF0000446684605F0B1FC24B10348FFF726FFDE
:104E00002846EBE72046E9E748040020D8360B089F
:104E100010B5044600F120010448FFF7BBFE04F181
:104E200030010348BDE81040FFF7B4BEE5360B087B
:104E3000EA360B082DE9FF4700223A4E0446114698
:104E4000706805F0D7FA37460546002863D005F0AC
:104E500021FB002004F0E8FF4FF0000A0646002086
:104E600004F0E2FF00234EF65F22B0EB060861EB90
:104E70000A094B4508BF424505D305F013FB10B99D
:104E800005F000FBEBE705F00DFB064648B30022FA
:104E90006FF00041A069FFF7EFFE0022786811462D
:104EA00005F060FA00F15D01684605F0A0FC694676
:104EB00004F1200005F0F0FC684605F04EFCFFF719
:104EC0003DFE237F4BB1002360694FF0FF31237714
:104ED000FDF7BEFC6069FDF77BFD2068FBF750FF26
:104EE00008E0237F53B1024601462077786805F039
:104EF00071FA3546284604B0BDE8F0870948FFF747
:104F0000A0FE10B90748FFF796FE6FF00041A069B8
:104F1000FFF7A2FEE1E702460146706805F05AFA83
:104F2000E8E700BF4804002010B504460B48FFF72F
:104F300088FE50B1237F43B901232068237703689B
:104F40001821BDE810401B6818470448FFF779FE98
:104F500010B9237F03B1607710BD00BF4804002063
:104F600030B5437F044685B0A3B9FFF723FF05465C
:104F700080B9012320466377FFF75CFF00B3236904
:104F80001A783AB14FF47A701D7006F0DDFF60694F
:104F9000FDF71EFDA37F83B1002301A8A377CDE910
:104FA00001338DF80C3007F025F90648FFF743FE72
:104FB0006FF00041A069FFF74FFE2046FFF7B4FFF6
:104FC00005B030BD4804002010B504468CB011482F
:104FD000FFF73CFEE0B100230F496377684605F018
:104FE00006FC0E4904A805F002FC0D4908A805F0CE
:104FF000FEFB694608AB04AA5320FFF74DFD08A845
:1050000005F0ABFB04A805F0A8FB684605F0A5FB7E
:105010000CB010BD48040020F8360B08FE360B0813
:105020000C370B08F8B504460D460027A368FEB2FE
:105030009E421BD23146204605F0F3FC7E283146C5
:10504000204604D005F0EDFCA8550137EEE705F049
:10505000E8FC7E28F9D10021721C204605F01EFDD7
:105060000146204605F0FEFB0023AB550023A16856
:10507000DFB28F4203F1010607D23946204605F020
:10508000D0FC2F4433467876F1E700230D446B764D
:10509000F8BD00002DE9F043A9B00DF12008054648
:1050A00015A805F0EEFB2F4E414615A8FFF7BAFFF5
:1050B00015A805F052FB3046FFF7B7FD40460AF051
:1050C00097FF0DF13909074648460AF091FF38224B
:1050D000044600211AA809F029FF4C23CDE9153810
:1050E0000323ADF8683000237068194615AA199497
:1050F000CDE9177905F086F9044668BB1A49684678
:1051000005F075FB194904A805F071FB184915A8AD
:1051100005F06DFB694615AB04AA5320FFF7BCFCF4
:1051200015A805F01AFB04A805F017FB684605F062
:1051300014FB15A8CDE915448DF85C4007F05AF82A
:1051400040F2DC5006F000FF05F0ACF9044618B957
:105150003046FFF770FD6C77142006F0F5FE29B09D
:10516000BDE8F083480400202D370B08FE360B08FD
:1051700033370B082DE9F0470025D8B012AC2819B9
:105180003835FFF747FDB5F58C7FF8D1052221466C
:105190002E4807F06DFD2E49C7B202A805F027FB87
:1051A0000025DFF8B8A0DFF8B890EBB2BB4204F1FD
:1051B000380828D201350A22294606A805F097FBAF
:1051C00006A90AA805F05DFB51460AA805F0D8FB20
:1051D0000646211D0EA805F00AFB0EA9304605F073
:1051E000C3FB494605F0CCFB014602A805F0A9FB2C
:1051F0000EA805F0B2FA0AA805F0AFFA06A805F065
:10520000ACFA4446D1E7134B029A1B7812498DF849
:1052100000300EA83C2307F0E1F80F9C7CB16368D6
:10522000013B63605BB9236820469B689847A3688D
:10523000013BA3601BB923682046DB68984702A89E
:1052400005F08BFA58B0BDE8F08700BF4804002095
:105250009E370B083C03002057370B0854370B08C8
:1052600055370B081FB50446684600F015FA694625
:1052700004F1300005F010FB684605F06EFA04B04A
:1052800010BD00000022014B1A7070473C03002043
:1052900004F09ABD10B5044601464FF46172022035
:1052A00004F0AAFD204610BD10B5044601464FF497
:1052B0006172022004F098FD204610BD28B1037AE7
:1052C00003F0800311B903720120704743F0040317
:1052D00003720160F8E70346C06810B1182202FBB0
:1052E0000030704770B505460E46046824B120466C
:1052F000FFF7F1FF86420CD13046FFF7ECFF64B1B7
:1053000048B1031BDA10064B5343E36000B96C60ED
:1053100070BD0446EAE70346F7E72860F6E700BFFA
:10532000ABAAAAAA884203D020B131B10AF0D0B802
:10533000002070474FF0FF3070470120704738B5AC
:105340000D46044640B101692846FFF7EBFF18B14E
:105350002046FFF7C0FFF4E7204638BD50B1037A7E
:10536000CAB223F07F0343F0060303720023C0E9AF
:1053700000230120704730B514461D4640B1037A22
:10538000C0E9004523F07F0343F00C0303720120C2
:1053900030BD000030B50346D1E901021830824229
:1053A00003D2012300200B7430BDA2F118008860E5
:1053B000596869B1441AE510064C6C43CC605860DA
:1053C000002342F80C3C02F8103C42F8083CEBE7A2
:1053D0001860F4E7ABAAAAAA2DE9F04F03780446B7
:1053E0002B2B8B4685B037D02D2B36D101250134A0
:1053F0002378A3F13002092A02D92E2B40F0148120
:10540000002000214FF099394FF00A08DFF828A258
:10541000A6461EF8013BA3F1300C5FFA8CFCBCF1F0
:10542000090F1CD88A4508BF814519D34FF0FF37B3
:105430006FEA0C0608FB01F3A0FB080119448F4238
:1054400008BF86424FF000035FFA8CF208D3801841
:10545000744643EB0101DBE701340025C8E77BB16B
:10546000002300264FF48017B94208BFB04203F171
:1054700001081CD300230A2209F028FA4346F3E767
:105480009BF8083003F080034DB1CBE9000143F0F5
:105490000A038BF80830284605B0BDE8F08FCBE949
:1054A000000143F008038BF808300125F3E71A1BCD
:1054B00002EB040C234614F8016B0FFA8CFCA6F1E6
:1054C0003007092FF4D92E2E1DD1A6464FF099365C
:1054D0004FF00A08554F73461C780EF1010E303C10
:1054E000E4B2092C0FD8B94208BFB042F3D2A0FBF6
:1054F000082308FB013310190CF1FF3443F10001BC
:105500000FFA84FCE7E71A7802F0DF02452A70D12F
:105510005A782D2A24D101269A1C00244FF00A0E15
:10552000134612F8017B303F5FFA87F8B8F1090F94
:105530002DD80EFB047404EB0C03B3F59A7FEFDD5A
:1055400000209BF80830AEB18DB9002123F07F0315
:1055500043F00C033546CBE900018BF808309AE79D
:105560002B2A4FF0000614BF5A1C9A1CD5E74FF0A7
:105570000041EBE74DB92E4923F07F0343F00C03C4
:10558000CBE900018BF808308FE72A49F4E706B130
:1055900064421F78002F47D1644408F015FB002CAB
:1055A000064628DDDFF894A0E2070ED5FBB25B00CB
:1055B0005A1C5AF822205AF82330009201933046A0
:1055C000DDE9002308F036FB0646641007F1010709
:1055D000EAD10DB101F100419BF80830324623F0C9
:1055E0007F0343F00C038BF808300B46CBE9002314
:1055F0005BE70024CDE7DFF848A06442002CE8D048
:10560000E3070ED5FBB25B005A1C5AF822205AF869
:105610002330029203933046DDE9022308F00AFBAF
:10562000064664100137E9E7002534E7999901003F
:105630000000F07F0000F0FF9999991974380B0869
:105640002C380B0838B500252C4607F0A5FE284657
:10565000FFF71EFEFF2818BF013405F1010518BF32
:10566000A4B2B5F5006FF0D1204638BD38B5046856
:1056700005467CB16368013B63605BB923682046E3
:105680009B689847A368013BA3601BB92368204629
:10569000DB689847284638BD30B5ADF56B7D0446CC
:1056A00007F07AFE0120FFF7F3FDFF28174D13D115
:1056B0002B781749174A8DF8003009A83C2306F0CB
:1056C0008DFE0AA8FFF7D2FF1349204605F08FF898
:1056D00020460DF56B7D30BD07F05EFE09A8FFF793
:1056E000E3FD09A905A805F082F82B780849059A79
:1056F0008DF8003003A83C2306F070FE04A8FFF7E5
:10570000B5FF05A805F029F809A9DEE74403002044
:1057100057370B0868370B0889370B08033138B542
:1057200021F003050446284604F0E4FE70B1054468
:105730000023237694F82830C4E9020023F07F0385
:105740002046C4E9045584F8283038BD0546EFE703
:1057500008B570B1037A03F07F030C2B08D8DFE89B
:1057600003F01907070707070907090709071000CA
:10577000012008BDD0E90023134314BF01200020FD
:10578000F7E7002203C8002308F0BCFCB0FA80F061
:105790004009EEE70020ECE7806808B104F0B2BEF3
:1057A0007047F8B5054608680F46E0B1D5E9003402
:1057B0009C420ED91A4600F1FF3C92F800E01CF81A
:1057C000016F1146764502F101020FD1002EF4D18E
:1057D000EBB90AF00DFCAA68431C23449342064629
:1057E0000AD901232B7400242046F8BD11F8013B8F
:1057F000002BFBD10B46DBE76B60002CF4D002469C
:105800003968204609F06AFB0023A355ECE71C46E3
:10581000EAE750B1037ACAB223F07F0343F00803EA
:1058200003720023C0E900230120704730B568B13E
:10583000037A4CB200294FEAE47503F0800306DBDB
:1058400043F008030372C0E90045012030BD43F076
:105850000A036442037265EB4505F4E713B5044699
:1058600080B1019129B9037A23F07F0303720120EB
:1058700008E0104601A9FFF794FF237A23F07F0385
:1058800010B9237202B010BD43F0050323722060EB
:10589000EDE770B5037A164613F07F0202BF23F0DE
:1058A0007F0343F020030372037A044608BFC0E974
:1058B000002213F020000D460FD0084669B1206881
:1058C000FFF73DFD48B931462046FFF763FD20B1A3
:1058D000037A056103F07F03037270BD037A024609
:1058E00013F0200002D01068FFF729BD704708B5FB
:1058F000034610B1FFF7CDFF0346184608BD437CB1
:1059000033B9C3685A1CC2601B7803740123437403
:10591000007C7047F8B50446012600250D4F20464F
:10592000FFF7EDFF50B1A0F10903DBB2172B0DD843
:1059300006FA03F33B4209D06574F0E7237A002BA3
:1059400014BF0223012384F85830F8BD01202072CF
:10595000FBE700BF1300800030B5037A85B003F089
:105960007F03043B082B33D8DFE803F00E0E05322B
:10597000053232321A0003C8002908BFB0F5807F13
:1059800000D30020C0B209E00023694600688DF80A
:105990000830FFF721FD6846FFF7DEFF05B030BD98
:1059A000D0E90045002200232046294608F0C8FB24
:1059B0000028F3D008A3D3E900232046294608F0A5
:1059C000B5FB0028EAD02046294608F0F5FBD9E7C8
:1059D0000020E3E7AFF300800000000000E06F402C
:1059E00030B5037A85B003F07F03043B082B39D828
:1059F000DFE803F01515053805380E38200003C818
:105A0000002908BF802800D3002040B205B030BD77
:105A100003C8002908BF812824D24042F5E70023AB
:105A2000694600688DF80830FFF7D6FC6846FFF736
:105A3000D7FFEBE7D0E900450022204629460C4B72
:105A400008F07EFB0028E1D007A3D3E9002320461D
:105A5000294608F06BFB0028D8D02046294608F0DC
:105A600083FBD2E70020D1E70000000000C05F40C8
:105A7000000060C01FB5037A03F07F03043B082BCE
:105A800021D8DFE803F01111052005200B201C00B0
:105A900003C808F0C9FC05B05DF804FB03C808F0B2
:105AA000C3FC00F10040F6E70023694600688DF86A
:105AB0000830FFF791FC6846FFF7DCFFEBE703C80F
:105AC00008F09AFBE7E70020E5E70000000000008F
:105AD00030B5037A85B003F07F03043B082B39D837
