:02000004080AE8
:1000000000000A0884540B080000060008000501DF
:080010000402BD0B000000001A
:0400180064310B083C
:1000200009480A4908B5884205D0094A824202D0E7
:10003000121A0FF067F80748074A0021121A0FF04A
:1000400089F8064808BD00BF000000200C520B08CC
:100050004C020020500200204105002041050020F4
:1000600070B50CF00BF90025054E064CA41BA40836
:10007000A54200D170BD56F8043B98470135F7E71B
:10008000C4490B08F4490B0800F07CBA08B500F02D
:10009000EBF9BDE808400CF0B3B80AF00DBB0AF06C
:1000A0000BBB0AF011BB0AF00FBB000000210C20B3
:1000B00008B5024A0AF086F9FEE700BF5D9F0A080C
:1000C0000078B0FA80F04009704701230370704750
:1000D000106870477047006A0368DB6818470000C3
:1000E00002F00F02012A04BF014B1A70704700BFD3
:1000F000C802002003681268D1E900011847012AEC
:1001000003D0022A03D0002070470160FBE70B6890
:100110000360F8E70022F0B5144B87B05868114629
:100120000AF002FA03466D46002453F8570F104EAA
:100130009B88104F0090ADF804300A2215F8011B7F
:1001400002A80AF0A4FC02A930460AF0DCFC02A8CE
:100150000AF0E5FB052C03D0394630460AF0D7FCFF
:100160000134062CE9D1012007B0F0BDB404002011
:100170008402002078310B081FB5014668460AF05A
:1001800062FC6946044807F06EFC044668460AF0C3
:10019000C6FB204604B010BD9402002008B50449F7
:1001A0000AF006FD10B105F029FA012008BD00BFD4
:1001B0007A310B081FB5014668460AF044FC6946CF
:1001C000044807F0BFFC044668460AF0A8FB204636
:1001D00004B010BD940200201FB5014668460AF025
:1001E00032FC6946044807F099FE044668460AF066
:1001F00096FB204604B010BD940200201FB50146B6
:1002000068460AF020FC6946044807F0B6FE04463A
:1002100068460AF084FB204604B010BD940200201A
:100220001FB5014668460AF00EFC6946044807F00F
:10023000A9FE044668460AF072FB204604B010BDD1
:10024000940200201FB5014668460AF0FCFB69468F
:10025000044807F0B1FE044668460AF060FB2046F9
:1002600004B010BD940200201FB5014668460AF094
:10027000EAFB6946044807F0C3FE044668460AF0F4
:100280004EFB204604B010BD940200201FB501466D
:1002900068460AF0D8FB6946044807F0B7FE0446F2
:1002A00068460AF03CFB204604B010BD94020020D2
:1002B0001FB5014668460AF0C6FB6946044807F0C8
:1002C000C9FE044668460AF02AFB204604B010BD69
:1002D0009402002008B50AF0DDFCC1170BF0B6FD52
:1002E000012008BD1FB5014668460AF0ACFB69460F
:1002F000044807F03BFF044668460AF010FB20461E
:1003000004B010BD940200201FB5014668460AF0F3
:100310009AFB6946044807F04BFF044668460AF01A
:10032000FEFA204604B010BD9402002008B50AF081
:1003300075FA012008BD05F08BB930B51368006867
:1003400085B001938368D1E90045CDE902450BB939
:100350000DF0ADF9C36801AA02A9984705B030BDF8
:1003600030B585B00446089860B1406850B18568E2
:1003700045B1CDE90241CDE90023C4686A4601AB2D
:1003800002A9A04705B030BD10B50446006808B109
:100390000AF09AF9204610BD10B50446094B0360D7
:1003A0000AF05CFE21460BF075F80CF033FB0CF004
:1003B00025FB2046044B40F8043B0AF059FF204639
:1003C00010BD00BF8C320B0874320B0810B5044608
:1003D000FFF7E2FF204624210DF063F9204610BD0F
:1003E0000A2A08B50AD10022054B114658680AF0BE
:1003F000DBF818B904F0A2FC0123837708BD00BF25
:10040000B404002010B58368044613B103220146EA
:100410009847204610BD10B504462430FFF7F2FF80
:10042000204610BD024601480BF0B5BF6BC30A0859
:1004300008B50CF0E9FB4FF416510CF0DFFB01207E
:100440000BF06FFE0022114610460BF07AFE00F012
:1004500031FC01F0FFF801F0BBFD01F03BFCBDE811
:10046000084000F019BF000010B50C4C204607F002
:10047000C5F909F07BFD0A4B18600AF0E5F8094B55
:100480001A7852B100221A70236893F82B3023B9DE
:100490002046BDE8104007F0C9B910BD9402002005
:1004A000D4040020C802002038B5002383608B6884
:1004B00004460D462BB102229847EB68E360AB6817
:1004C000A360204638BD0000F0B500248FB0074679
:1004D0000E4602A8114606ADFFF7E6FF02A9284620
:1004E000FFF7E2FF10200C94FFF7D7FD034698B109
:1004F00095E803006A4682E8030093E8030085E874
:10050000030092E80300089A83E803009A60D96820
:10051000099A08940991DA600A93164B10200D93FA
:10052000154B0C93FFF7B9FD0446B0B1002383606F
:100530000C9B33B102220AA998470D9BE3600C9BE8
:10054000A3600E4B3846CDE9003431466B460C4A69
:1005500009F07AFF041E18BF01240AA8FFF752FF12
:100560002846FFF74FFF02A8FFF74CFF20460FB0C9
:10057000F0BD00BF3B030A0835070A080100080068
:1005800061030A087FB540494048FFF74BFF4049E7
:100590004048FFF747FF40494048FFF743FF4049C5
:1005A0004048FFF73FFF40494048FFF73BFF4049C5
:1005B0004048FFF737FF40494048FFF733FF4049C5
:1005C0004048FFF72FFF40494048FFF72BFF4049C5
:1005D0004048FFF727FF40494048FFF723FF4049C5
:1005E0004048FFF71FFF40494048FFF71BFF4049C5
:1005F0004048FFF717FF40494048FFF713FF4049C5
:100600004048FFF70FFF00240C230094ADF80030A2
:100610003D4B042201933D496B463D4802940AF04C
:1006200003F8234604223B493B4809F0FDFF04221E
:100630003A49032009F0F2FC394E3A4B3A4D6A46EA
:1006400000212020009303960295FFF73DFF6846A6
:10065000FFF7D8FE354B6A4600214FF40050009357
:10066000CDE90256FFF730FF6846FFF7CBFE224682
:100670002146072009F0F8FE20460BF052FD2C48D9
:1006800007F09CFD04B070BD79010A087F310B08AA
:100690009D010A088B310B0837030A0897310B08B4
:1006A000B5010A08AC310B08D9010A08BA310B08A8
:1006B000FD010A08C6310B0821020A08D0310B08D7
:1006C00045020A08DA310B0869020A08E7310B080B
:1006D0008D020A08F8310B08B1020A0802320B0831
:1006E000D5020A080E320B08E5020A0816320B087A
:1006F00009030A0825320B082D030A08B0320B083B
:1007000015010A0830320B08D1000A0884020020C3
:1007100040320B0849320B084F320B0856320B0897
:10072000F5000A08E1030A08FF000A08E1000A08C8
:1007300094020020022A70B5044607D0032A10D084
:10074000012A01D10B680360002070BD10200E68E3
:10075000FFF7A3FC054610B13146FFF7A5FE256063
:10076000F2E70468002CEFD02046FFF74BFE102183
:1007700020460CF096FFE7E770B51426D0E9005349
:10078000044606FB0356AE4204D028460AF0C7F8DA
:100790001435F8E7206809F097FF204670BD2DE971
:1007A000F843B1F10008074635DD4FF0140909FBA5
:1007B00008F009F081FF0546A8B3D7E90046844256
:1007C00009FB064615D2864214D9143EA4F1140939
:1007D000341B0444B1451FD02CB1314620460AF0E9
:1007E00018F9337C237430460AF099F8143E143C0F
:1007F000F0E711D0A946A6420ED0214648460AF09D
:1008000008F9237C204689F810300AF088F814345F
:1008100009F11409EFE70025386809F055FF0120B8
:100820003D60C7F80880BDE8F88300232DE9F0415A
:10083000C0E9003383600D4649680446994217DDDC
:10084000FFF7ADFFA0B1D5E900634FF0140808FB36
:1008500003682768B04509D02FB1314638460AF001
:10086000F2F8337C3B7414361437F3E76B6863603B
:100870002046BDE8F081000030B597B00CF07CFD5B
:10088000002342F216511A460CF07EFD0CF074FD66
:10089000002300241A4634210CF07EFD00210120A3
:1008A00009F0DAFD464D474B0120AB602C60AC806F
:1008B000AC7109F0B9FD28460125434A43490CF0C3
:1008C000EBFE0121042009F0B1FBFFF7B1FD404927
:1008D00040480AF06EF83C4A3F493E480CF0DCFEC6
:1008E0003E490CA80AF065F83D4911A88DF8405022
:1008F0000AF05FF802216846CDE900448DF85450B3
:100900000294FFF74CFF98B1009C34B120460CA92B
:100910000AF099F89DF84030237411A904F11400ED
:100920000AF091F89DF8543084F8243002230193A2
:100930000CF070F80546694603A8FFF776FF03A997
:1009400006A8284CFFF771FF274B06A9236009A8CA
:10095000FFF76BFF09AA0121201D0AF0EDFE09A88F
:10096000FFF70AFF06A8FFF707FF204B2562236069
:1009700003A8FFF701FF1E4B23600CF04BF84FF468
:1009800016510CF037F80AF069FB21460AF067FEB1
:100990006846FFF7F1FE11A809F0C1FF0CA809F0A5
:1009A000BEFF094A134920460CF076FE124806F0B5
:1009B000CBFE054A114910480CF06EFE17B030BD51
:1009C000540200200000FFFF5002002089030A08A3
:1009D000B33A0B08840200201FA90A085B320B08F7
:1009E0005F320B086002002074320B0874410B0860
:1009F0008C320B0899030A089402002017040A0895
:100A000007B5002201A81146019209F017FB0198D1
:100A100003B05DF804FB000038B5054C25682DB91E
:100A20000120FFF73AFB00B105702060206838BD57
:100A3000CC02002013B500221F4920480DF103030A
:100A400005F095FC00221E491C4801AB05F042FB55
:100A50009DF8034074B9012300221749174806F096
:100A600098FC0BF00AFB002203461549134806F0D8
:100A7000DEFD13E0042C13D900230F491A460F485A
:100A800006F087FC00230E491A460C4806F0CFFDFD
:100A900005200BF03BFB002009F0C3FE02B010BDA7
:100AA0000BF0EBFA019BC01AB0F5167FF6D89DF853
:100AB00003300133DBB2CFE79C320B08AA320B08BC
:100AC000B6320B0813B500221F4920480DF103036D
:100AD00005F04DFC00221E491C4801AB05F0FAFA56
:100AE0009DF8034074B9012300221749174806F006
:100AF00050FC0BF0C2FA002203461549134806F0D9
:100B000096FD13E0042C13D900230F491A460F4811
:100B100006F03FFC00230E491A460C4806F087FDFC
:100B200005200BF0F3FA002009F07BFE02B010BDA7
:100B30000BF0A3FA019BC01A7828F7D89DF8033070
:100B40000133DBB2D0E700BFC7320B08D5320B0848
:100B5000E0320B0810B50446FFF752FF822804D19B
:100B60002046BDE81040FFF765BFFFF749FF8C281E
:100B700004D12046BDE81040FFF7A4BFFFF740FFB7
:100B8000282802D10123237010BDBDE81040FFF7D3
:100B900037BF7047002210B50446044B114640F899
:100BA000043B09F02FFC204610BD00BF68330B0842
:100BB00010B50446FFF7EEFF204620210CF071FD32
:100BC000204610BD10B56C22002104460EF0C2FA7A
:100BD0000123002220461146236009F075FC2046BF
:100BE00010BD2DE9F04105460E4617469DF8181038
:100BF000002218461C4609F06FFC234606903A4630
:100C000031462846BDE8F04109F0DEBDF0B50446A6
:100C100026468BB001F0BCF91C4B002246F8083B7D
:100C20001421012009F058FC0125142703462A4607
:100C3000CDE900756FF07F41304609F0A3FD3946DC
:100C40000022022009F048FC1E2203460195009272
:100C50000F49022202A804F10C0503AE09F092FD2F
:100C60000FCE0FC596E8070085E8070002A8FFF73A
:100C700091FF4FF480124FF480732046C4E90A2399
:100C8000002384F8303063630BB0F0BD7C330B0875
:100C90000060FF0038B5064C23683BB93820FFF7E9
:100CA000FCF9054608B1FFF7B1FF2560206838BDA3
:100CB000D002002030B514249FB003A8FFF782FFB4
:100CC00003A803236FF07F4200210094FFF789FF00
:100CD00003A803236FF07F4201210094FFF781FFF7
:100CE00002231E25194603A8FF220094FFF779FF6F
:100CF00003A80223FF2203210094FFF772FF03A839
:100D00000323FF2204210094FFF76BFF03A80223B3
:100D1000FF2205210095FFF764FF03A80223FF22AD
:100D200006210095FFF75DFF03A803236FF07F42C4
:100D300007210094FFF755FF0A2303A800934FF4FF
:100D40007F4202230921FFF74CFF002203A811462E
:100D500009F0B2FB1FB030BD10B514249EB003A83B
:100D6000FFF730FF03A803236FF07F4202210094B6
:100D7000FFF737FF032303A819466FF07F42009463
:100D8000FFF72FFF03A803236FF07F420421009495
:100D9000FFF727FF03A803236FF07F42052100948C
:100DA000FFF71FFF032303A86FF07F420621009483
:100DB000FFF717FF002203A8114609F07DFB1EB0C4
:100DC00010BD38B505460C4681B10BF0A8F928B125
:100DD00000200BF0A6F9012385F82830214605F103
:100DE0000C000022BDE8384009F00CBB90F8283018
:100DF000002BF3D001200BF094F922462146204627
:100E00000BF09FF985F82840E8E710B5044649B192
:100E10000BF085F9A0B194F8290088B9BDE810401D
:100E20000BF07FB90BF07BF9044648B901200BF0B9
:100E300078F9224621462046BDE810400BF081B9E2
:100E400010BD38B50546E0B10478D4B183783A2BAB
:100E500017D10FF015FA042813D90A226878303C0C
:100E6000303802FB04042B79E878303B3038172CFB
:100E700002FB003005D83B2803D83C2303FB0400C9
:100E800038BD4FF0FF30FBE770B50D461646FFF753
:100E9000D8FF04462846FFF7D4FF05463046FFF743
:100EA000D0FF002C10DB002D0EDB00280CDB854270
:100EB00006DCAC4208DB8442ACBF0020012070BDE0
:100EC000AC42F8DB0120FAE70020F8E730B5054630
:100ED000364C8DB039B109F049F895F829302060C9
:100EE00063B10DB030BD09F041F842F20F722368D2
:100EF000C01A9042EFD8002BEDD0F2E795F82B40C6
:100F0000002CEED12A492B480DF10D028DF80D4031
:100F100005F0C4FA9DF80D3053B92749274808AAAF
:100F200005F0BCFA28469DF82010FFF76EFFD8E7C1
:100F3000224623491F4804AB0494ADF8144006949C
:100F4000ADF81C4005F01AF922461E49194806ABB7
:100F500005F014F9012318490DF10E0215488DF81A
:100F60000E3005F09BFA0BF088F8174B0246174934
:100F70000093C31708A80BF021F8089806AA04A943
:100F8000FFF782FF40B19DF80E102846FFF73DFFA6
:100F900008A809F0C4FCA4E7074908480DF10F02AE
:100FA00005F07CFA9DF80F10EFE700BFD402002097
:100FB000F1320B08F9320B0807330B080D330B081D
:100FC00018330B081E330B0822330B088C03002048
:100FD00013B50446084909480DF1070205F05EFA09
:100FE0009DF8073033B91121236884F82A10204670
:100FF0001B68984702B010BD07330B080D330B0870
:1010000070B5154690F82B200446D2B9012680F819
:101010002F1080F82D5080F82E3080F8302080F886
:101020002C6008F0A3FF84F82B60606330460BF05F
:1010300078F8002D0348BDE8704018BFFF200BF082
:1010400093B870BD0050FF0010B590F82B300446E7
:101050009BB308F08BFF636BC01AC7282DD908F02B
:1010600085FF94F82C306063D3B1002210461146FE
:101070000BF067F8002094F8303094F82F200133FB
:10108000DBB29A4284F82C0084F8303015D894F8FA
:101090002E3084F82B0083B1BDE810400BF041B82E
:1010A000012384F82C3094F82D300448002B18BF0D
:1010B000FF20BDE810400BF057B810BD0050FF00F6
:1010C000F0B54B1E04460D468DB0242B18D8DFE832
:1010D00003F0131D7A7A7A17177A697A1717171798
:1010E000174F1F17171717171792171717171717D5
:1010F0001717A3AAAEB2B60001212046FFF761FE82
:101100002946204600F03EFF0DB0F0BD0021F4E777
:101110000BF005F8064638B901200BF002F832460C
:10112000314630460BF00DF800224649464806F09D
:101130009BF81123454984F82A30684609F039FCA8
:10114000434904A809F035FC424908A809F031FCDC
:10115000694608AB04AA532003F072FC08A809F002
:10116000DEFB04A809F0DBFB684609F0D8FBC7E703
:101170000AF0D5FF20B194F8290008B90AF0D1FF90
:1011800001223049304806F06FF81023324984F8C4
:101190002A30684609F00DFC2D4904A809F009FC25
:1011A0002E49D2E7012780F829700AF0B8FF0646D9
:1011B0000028A5D138460AF0B4FF32463146304601
:1011C0000AF0BFFF9CE7002390F82B6080F82930DD
:1011D000002E95D11B491C4808AA05F05FF99DF81F
:1011E0002030002B8CD00AF09AFF002888D030469F
:1011F0000AF097FF84E7FFF75DFD0AF090FF10B15A
:1012000000200AF08EFF01220E490F4806F02CF84C
:10121000182384F82A3073E701231A46194620461A
:10122000FFF7EEFE6CE7012302211A46F7E70123E0
:101230001A460321F3E7012304211A46EFE70123AD
:101240000022F6E707330B080D330B0828330B0891
:101250002E330B083A330B0849330B084F330B0876
:1012600010B5044600F094FE024B2046236015237F
:10127000A36010BDE0330B0838B5064C23683BB9BA
:101280000C20FEF70AFF054608B1FFF7E9FF2560CD
:10129000206838BDD802002008B5012119200CF0C3
:1012A000D1F8BDE80840002119200CF0DCB800009E
:1012B000002213B511460DF107030446074805F057
:1012C00056F89DF80710A1F11603012B03D82368E7
:1012D00020461B68984702B010BD00BF80330B0842
:1012E00030B54B1E04460D468DB01F2B3AD8DFE8B3
:1012F00003F0A3A79D979D399D399D399D868690C2
:1013000090393939393963103F3939393939399D8B
:101310009D9716230022037211464E4806F039F8B5
:101320004D49684609F045FB4C4904A809F041FBCA
:101330004B4908A809F03DFB694608AB04AA5320B5
:1013400003F07EFB08A809F0EAFA04A809F0E7FA1E
:10135000684609F0E4FAA37A23B90121E172192061
:101360000CF081F82946204600F00CFE0DB030BD8F
:101370001723002203721146364806F00AF839494D
:10138000684609F016FB354904A809F012FB3649F6
:1013900008A809F00EFB694608AB04AA532003F025
:1013A0004FFB08A809F0BBFA04A809F0B8FA684690
:1013B00009F0B5FA0021D1E7152300220372114686
:1013C000244805F0E6FF6846284909F0F2FA234967
:1013D00004A809F0EEFA264908A809F0EAFA6946D5
:1013E00008AB04AA532003F02BFB08A809F097FAD6
:1013F00004A809F094FA684609F091FAB2E7037A72
:10140000152BAFD1437A002BACD1837A002BA9D115
:10141000D0E7037A152BA5D1437A002BA2D19AE706
:1014200001234372037A152B9CD194E70023437266
:10143000037A152B96D1BDE70123002143818EE766
:1014400000238372037A162B87D0437A002B84D132
:1014500088E700BF80330B088B330B0891330B08F0
:101460009D330B08AB330B08B1330B08C0330B08AB
:10147000C6330B08D0B5044616461F4608F076FD65
:10148000DDE90423C4E90623DDE90623C4E90823D2
:10149000DDE90823C4E90A23DDE90A23C4E90C23B2
:1014A00000220023A060C4E904672046C4E90E239B
:1014B000C4E91023D0BD2DE9F3471F468368824657
:1014C0004360164608F052FDDDE90A23044639461A
:1014D000CAF8080030460CF009FBDAE90823064692
:1014E0000F460CF0BBFC4FF47A73CDE90001DAF83B
:1014F0000400B0FBF3F0201A0CF036FC32463B46F9
:1015000004460D460CF0AAFCDAE910230CF0F0FAC0
:10151000DAE90E23804689463046CAE91089394601
:101520000CF0E4FA22462B460CF0C2FDDAE90A235D
:101530000CF094FCDAE90C2304460D46404649467B
:101540000CF08CFCDDE900230CF0D2FA02460B46CD
:10155000204629460CF0CCFADAE904458046894653
:1015600002460B46204629460CF0EAFE50B9DAE95D
:10157000064542464B46204629460CF0FFFE08B978
:1015800044464D4620462946CAE90E6702B0BDE8EA
:10159000F0870000024A136801331360704700BFF0
:1015A000DC02002000000000D0B5044688B000F046
:1015B000EFFC20460026002700221B4B40F8503B42
:1015C0001A4BCDE90667CDE9022315A3D3E9002321
:1015D000CDE90467CDE900230022154BFFF74AFF50
:1015E000192384F898304FF448534FF49661C4E9B6
:1015F0000267C4E90467A38504F12C0204F118030F
:1016000023F8021B9342FBD100232046C4E9123386
:10161000E3850123238608B0D0BD00BFAFF300806F
:101620000000000000407FC08C340B080000E03F49
:1016300000407F4038B5064C23683BB9A020FEF738
:101640002CFD054608B1FFF7AFFF2560206838BDC7
:10165000E002002008B5012118200BF0F3FE002164
:101660001B200BF0EFFE082118200BF081FFBDE8D6
:1016700008404FF47A72FF2118200BF05DBF000084
:10168000002313B50B4C01220B49236000931B2050
:101690004FF0FF330BF018FA4FF47A700AF036FD72
:1016A0001B200BF03BFA2068C0EB0010400080B21A
:1016B00002B010BDDC02002095150A0800000000F1
:1016C000F7B5054608F052FCAB6CC01AB0F5FA6FDE
:1016D0002BD3284695F82D40FFF7D2FF0CF044FBA2
:1016E000D5E9022305F15006CDE900013046FFF7A8
:1016F000E2FE00223C4B06460F460CF035FEB0B130
:10170000103CE4B2042C38BF0424322C28BF32240D
:1017100095F82D30A34205D0214618200BF0E6FEA7
:1017200085F82D4008F022FCA86403B0F0BD00222B
:10173000304639462D4B0CF017FE08B1083CE0E767
:10174000304625A3D3E9002339460CF00DFE08B13D
:10175000043CD6E7002230463946254B0CF004FE07
:1017600008B1023CCDE7002230463946214B0CF04F
:10177000FBFD08B1013CC4E70022304639461E4B50
:101780000CF0E8FD08B10134BBE7002230463946D1
:101790001A4B0CF0DFFD08B10234B2E700223046EC
:1017A0003946174B0CF0D6FD08B10434A9E70022E6
:1017B00030463946134B0CF0CDFD08B10834A0E794
:1017C000304607A3D3E9002339460CF0C3FD0028B7
:1017D00098D0103495E700BF0000000000C07240B0
:1017E0000000000000407FC000407F4000007940C2
:1017F00000004E4000804640008046C000004EC0C1
:1018000000C072C0000079C0F8B51F469DF81830BE
:101810000446164683B100220023304639460CF0B8
:1018200085FD70B34FF47A72FF2118200BF084FE0F
:10183000002384F83030F8BD90F82C2039460A2A6D
:1018400008BF80F82C3090F82C506B1C80F82C309E
:1018500030460CF0C5FD0C3580B224F8150094F824
:101860002E30002BE7D194F82F30002BE3D104F178
:10187000180304F12C0233F8021B8842DBD1934297
:10188000F9D1C4E90267D6E738B590F82F3004469D
:101890000D4643B941B94FF47A72FF2118200BF07D
:1018A0004BFE84F8305038BD80F830304FF47A72F7
:1018B000BDE8384018200BF03FBE10B5044694F840
:1018C0002F3008463BB9D4E90223C4E904230CF0C5
:1018D0004BFAC4E9020110BD2DE9F0434B1E04464A
:1018E0000D468FB01F2B24D8DFE813F061006E0087
:1018F000D200060106012300060123000601230091
:101900004C01730087009800B500230023002300DA
:1019100023002300230023002300D2009401C901E7
:101920006A0020005F00060106010601012384F819
:10193000313094F8303013B12046FFF7C1FE08F083
:1019400015FBE36CC01AA44B984227D994F82F30AA
:101950000BBB94F83030F3B12046FFF791FED0B9BD
:101960009E4902A809F025F89D4906A809F021F82A
:101970009C490AA809F01DF80AAB06AA02A953203F
:1019800003F05EF80AA808F0CAFF06A808F0C7FF2F
:1019900002A808F0C4FF08F0E9FAE06429462046EE
:1019A00000F0F0FA0FB0BDE8F0830023BFE7012399
:1019B00080F82F304FF47A72FF2118200BF0BCFD15
:1019C000002384F83030B4E7002380F82F3001235F
:1019D000F7E794F83130002200F10801D1E9000165
:1019E00023B3814B0CF0A2FC0028A2D100227E4B35
:1019F00000902046FFF708FF9BE794F83130002263
:101A000000F10801D1E900016BB3784B0CF08EFCBA
:101A100000288ED10022754B0090EAE794F831300F
:101A2000002200F10801D1E9000153B1704B0CF024
:101A30007DFC00287FF47DAF0023002200936C4BD7
:101A4000D7E76C4B0CF072FC00287FF472AF0022D9
:101A5000684B0090CDE794F83130002200F1080186
:101A6000D1E9000153B1644B0CF060FC00287FF415
:101A700060AF0023002200935F4BBAE75F4B0CF08E
:101A800055FC00287FF455AF00225C4B0090B0E776
:101A9000002380F82E3090F82F3013B9012380F8FE
:101AA00030300026D4E90489002732463B464046C0
:101AB00049460CF03BFC18B9C4E90289C4E9046743
:101AC0004F4902A808F075FF454906A808F071FFC4
:101AD0004C490AA808F06DFF0AAB06AA02A95320D8
:101AE00002F0AEFF0AA808F01AFF06A808F017FFD8
:101AF00002A808F014FF1CE70123414980F82E30AA
:101B000080F8303002A808F054FF354906A808F0E4
:101B100050FF3D490AA808F04CFF0AAB06AA02A9EB
:101B2000532002F08DFF0AA808F0F9FE06A808F07D
:101B3000F6FE02A808F0F3FE042D04D100222F4B7C
:101B4000C4E90223F5E66B1F012B02D80022284BC3
:101B5000F6E7072D02D10022234BF1E7092D02D130
:101B60000022224BECE71E2DFAD01F2D03D116A325
:101B7000D3E90023E4E7202D7FF4DBAE14A3D3E9FF
:101B80000023DDE7214902A808F013FF144906A845
:101B900008F00FFF1E490AA808F00BFF0AAB06AABF
:101BA00002A9532002F04CFF0AA808F0B8FE06A8CC
:101BB00008F0B5FE02A808F0B2FE012384F82E302A
:101BC000F8E600BFAFF3008000000000007097400F
:101BD000000000000088A340002E930264340B082C
:101BE000EA330B086A340B0800407F4000208C4029
:101BF00000C0924000209C4000E0954000409F4083
:101C0000E4330B08F6330B080F340B0836340B089B
:101C10003C340B081D4902A808F0CBFE1C4906A85D
:101C200008F0C7FE1B490AA808F0C3FE0AAB06AAC3
:101C300002A9532002F004FF0AA808F070FE06A8CB
:101C400008F06DFE02A808F06AFE94F82F3013B970
:101C5000012384F830304FF00008D4E904674FF0D6
:101C6000000942464B46304639460CF05FFB0028DF
:101C70007FF45FAEC4E90267C4E9048959E690F8CD
:101C80002F30002B7FF455AEA1E600BFE4330B08E4
:101C9000EA330B0852340B0810B5044600F078F90B
:101CA000034B1222236000232046C4E9022310BD07
:101CB0003C350B0838B5064C23683BB91020FEF7BD
:101CC000ECF9054608B1FFF7E7FF2560206838BD4D
:101CD000E402002008B5012102200BF0B3FB002133
:101CE0000B200BF0AFFBBDE80840002102200BF0F9
:101CF000BABB0000002213B511460DF107030446DC
:101D0000074804F034FB9DF80710A1F11303012BE1
:101D100003D8236820461B68984702B010BD00BF57
:101D200090340B0870B5C37ADBB9012102200BF0A7
:101D30009AFB0A200AF0EAF901260F2400252DB9A2
:101D40000B200BF0A9FB051E18BF0125013C14F068
:101D5000FF04F4D11EB1214602200BF084FB28467B
:101D600070BD0026E9E7000030B54B1E04460D4665
:101D70008DB01F2B4AD8DFE813F0E000E400D90053
:101D8000D200D9004900D9004900D9004900D90042
:101D9000BF00BF00C900C900490049009C002000E5
:101DA00078004900490049004900490049004900BC
:101DB00049004900D900D900D20013230022037240
:101DC0001146654805F0E5FA6449684608F0F1FDFA
:101DD000634904A808F0EDFD624908A808F0E9FD90
:101DE000694608AB04AA532002F02AFE08A808F0AE
:101DF00096FD04A808F093FD684608F090FDA37ACC
:101E000023B90121E17202200BF02DFB08F0AEF89E
:101E1000E368C01A544B984221D92046FFF782FF4D
:101E2000D0B95249684608F0C4FD4D4904A808F0ED
:101E3000C0FD4F4908A808F0BCFD694608AB04AADC
:101E4000532002F0FDFD08A808F069FD04A808F081
:101E500066FD684608F063FD08F088F8E0602946F2
:101E6000204600F08FF80DB030BD1423002203721D
:101E70001146394805F08DFA3E49684608F099FD4B
:101E8000374904A808F095FD3B4908A808F091FDE2
:101E9000694608AB04AA532002F0D2FD08A808F056
:101EA0003EFD04A808F03BFD684608F038FD00211F
:101EB000A8E71223002203721146274805F069FAA9
:101EC00068462E4908F075FD254904A808F071FD03
:101ED0002B4908A808F06DFD694608AB04AA5320F9
:101EE00002F0AEFD08A808F01AFD04A808F017FDDE
:101EF000684608F014FD89E7037A122B86D1437AED
:101F0000002B83D1837A002B80D1D0E7037A122B68
:101F10007FF47CAF437A002B7FF478AF6FE7012327
:101F20004372037A122B7FF471AF68E70023437288
:101F3000037A122B7FF46AAFB9E7012300214381B2
:101F400061E700238372037A132B3FF45AAF437A7D
:101F5000002B7FF456AF59E790340B089E340B08E2
:101F6000A4340B08B8340B08002E930209350B0873
:101F70000F350B08CE340B08D4340B08EB340B08A8
:101F8000F1340B08406810B103681B6818477047AC
:101F9000024A026000224260704700BF48350B08C9
:101FA00041607047034640680028FBD15960704784
:101FB00038B5064C25683DB91420FEF76EF810B10F
:101FC0000223C56003802060206838BDE80200203D
:101FD00000211C200BF036BA002370B586B00493A4
:101FE0008B6804460E4602AD33B10222284698475C
:101FF000F3680593B36804936A4695E80300231DCC
:1020000082E8030093E8030085E8030092E80300F8
:1020100083E80300049AE3682169E260059A049367
:10202000059122611BB1032229462846984706B034
:1020300070BD07B582688DF807100AB90BF037FB41
:10204000C3680DF10701984703B05DF804FB000079
:1020500010B504468CB01C200BF01EFA0128014676
:102060002CD12378022B29D140F20113204620F8ED
:10207000043BFFF7DEFF1D49684608F09AFC1C4947
:1020800004A808F096FC1B4908A808F092FC6946D1
:1020900008AB04AA532002F0D3FC08A808F03FFCC8
:1020A00004A808F03CFC684608F039FC0122002333
:1020B000A118114808F0B8FA0CB010BD1C200BF0A4
:1020C000EBF90028F2D12378012BEFD10221204631
:1020D00020F8041BFFF7ADFF0849684608F069FCCB
:1020E000034904A808F065FC0549CDE74C350B0809
:1020F00053350B0861350B0896350B0878350B08FE
:102100007F350B08436913B183690C30184770475A
:1021100013B500210446084607F0A8FF0023204617
:1021200001A9019307F0BAFF019C0CB101232371AF
:102130000021012007F09AFF2CB1236820469B68FC
:1021400098470023237102B010BD022A38B5044617
:1021500007D0032A11D0012A01D10B682360002087
:1021600038BD0C200D68FDF798FF03460028F5D018
:1021700095E8070083E80700F0E700680028EED044
:102180000C210BF08EFAEAE710B403685A689968DC
:10219000541001EB6200D20748BF0A591B6810BCFB
:1021A00048BFD3581847000037B5134B04460360A7
:1021B0008068C8B100256FF000430221CDE90035E9
:1021C0002A462B4607F072FF2946A06807F0BEFF9B
:1021D000237903F0FF0513B107F040FFF8E7294624
:1021E000A06807F053FFA56004F10C00FEF70AF9A0
:1021F000204603B030BD00BF90370B0810B5044631
:10220000FFF7D2FF20461C210BF04BFA204610BDF1
:1022100010B5044601F056FA002323610223206022
:102220002371204610BD000038B5064C23683BB929
:102230001820FDF732FF054608B1FFF7E9FF2560DA
:10224000206838BDEC0200202DE9F04F04460068FC
:102250008FB00378002B00F0AC8001F043FA00252A
:102260008046554FDFF874A1544E5FFA85F9C84592
:1022700076D939460AA808F09CFB019501350A2257
:10228000294606A808F015FC06A90AA808F04EFC85
:102290002268019B01684FEA830B02EB83035B68B2
:1022A000524693F90430304605F0C5F806A808F008
:1022B00036FB0AA808F033FB39460AA808F079FB78
:1022C0000A22294606A808F0F4FB06A90AA808F085
:1022D0002DFC00233A4A0168304605F0ACF806A808
:1022E00008F01DFB0AA808F01AFB39460AA808F0F6
:1022F00060FB0A22294606A808F0DBFB06A90AA80B
:1023000008F014FC236801685B445B6830465B6935
:102310002C4A05F0E2F806A808F001FB0AA808F02C
:10232000FEFAB9F1000FA0D139460AA808F041FB26
:102330000A22294606A808F0BCFB06A90AA808F04C
:10234000F5FB236801685B6830469B691E4A05F00F
:10235000C4F806A808F0E3FA0AA808F0E0FA84E74F
:10236000236800221B781949144805F012F800224E
:10237000236817491A7702A808F01BFB154906A81D
:1023800008F017FB14490AA808F013FB0AAB06AAC9
:1023900002A9532002F054FB0AA808F0C0FA06A8CC
:1023A00008F0BDFA02A808F0BAFA01200FB0BDE8A3
:1023B000F08F0520FAE700BFA1350B08FD320B08AE
:1023C000AE350B08BD350B08B9350B08C4350B0805
:1023D000C9350B08D0350B08DE350B08A7350B08BF
:1023E000006803785BB1437800EB83035B681B7F75
:1023F0000BB901F0CDB9037F0BB101F0A7B970475C
:1024000030B5032904460D4695B000F0CA800B464E
:10241000017100226449654805F00DF823685A7877
:1024200003EB82035B681B7F002B2FD16B1E082BF5
:1024300026D8DFE803F0055C25256B897A98A7008C
:10244000042104F10800FFF7F4FD594908A808F039
:10245000B0FA58490CA808F0ACFA574910A808F08F
:10246000A8FA10AB0CAA08A9532002F0E9FA10A8A8
:1024700008F055FA0CA808F052FA08A808F04FFA2C
:102480002B4600224D49494804F0D5FF4C4908A885
:1024900008F08FFA47490CA808F08BFA494904A8BC
:1024A00008F087FA0A222946684608F002FB6946C6
:1024B00004A808F03BFB014610A808F0C4FA10ABD2
:1024C0000CAA08A9532002F0BBFA10A808F027FABA
:1024D000684608F024FA04A808F021FA0CA808F0CD
:1024E0001EFA08A808F01BFA012015B030BD05211E
:1024F00004F10800FFF79DFD334908A808F059FAD8
:102500002C490CA808F055FA3049A7E7072104F137
:102510000800FFF78EFD2E4908A808F04AFA254961
:102520000CA808F046FA2B4998E70B2104F10800A3
:10253000FFF77FFD284908A808F03BFA1D490CA8C1
:1025400008F037FA254989E71E2104F10800FFF752
:1025500070FD234908A808F02CFA16490CA808F0C9
:1025600028FA20497AE71F2104F10800FFF761FDEE
:102570001D4908A808F01DFA0E490CA808F019FA20
:102580001A496BE7202104F10800FFF752FD1849B2
:1025900008A808F00EFA07490CA808F00AFA15492D
:1025A0005CE70220A1E700BFFB350B0803360B08F0
:1025B0000F360B08D0350B0815360B08BA360B084A
:1025C000C2360B08C8360B0825360B082B360B080D
:1025D0003A360B0841360B0853360B085A360B08AF
:1025E00069360B0870360B0884360B088B360B08DF
:1025F0009F360B08A6360B0830B590F90430044618
:102600008FB0092B51D8DFE803F005677550508370
:102610009F91ADBB0DF1070300226049604803F0B4
:10262000EFFE9DF8073004F10805002B46D01C2171
:102630002846FFF7FEFC5B490AA808F0BAF95A4998
:1026400006A808F0B6F9594902A808F0B2F902AB99
:1026500006AA0AA9532002F0F3F902A808F05FF9CC
:1026600006A808F05CF90AA808F059F903212846E1
:10267000FFF7DFFC4E490AA808F09BF94A4906A873
:1026800008F097F94B4902A808F093F902AB06AAA3
:102690000AA9532002F0D4F902A808F040F906A8CC
:1026A00008F03DF90AA808F03AF9002294F904303C
:1026B00041493B4804F0BFFE0FB030BD1D21284604
:1026C000FFF7B7FC3D490AA808F073F9364906A898
:1026D00008F06FF93A49B7E704210830FFF7A9FC81
:1026E00038490AA808F065F92F4906A808F061F9E9
:1026F0003549C8E705210830FFF79BFC33490AA894
:1027000008F057F9284906A808F053F93049BAE704
:1027100007210830FFF78DFC2E490AA808F049F977
:10272000214906A808F045F92B49ACE70B210830F0
:10273000FFF77FFC29490AA808F03BF91A4906A8C7
:1027400008F037F926499EE71E210830FFF771FC93
:1027500014490AA808F02DF9134906A808F029F928
:10276000204990E71F210830FFF763FC1E490AA8A3
:1027700008F01FF90C4906A808F01BF91B4982E76D
:1027800020210830FFF755FC19490AA808F011F973
:10279000054906A808F00DF9164974E7E2360B085A
:1027A00003360B0869360B08D0350B08F5360B08D5
:1027B0002D370B0833370B08BA360B080D370B08CB
:1027C00014370B080F360B0815360B0825360B0887
:1027D0002B360B083A360B0841360B0853360B08DC
:1027E0005A360B0870360B0884360B088B360B08EC
:1027F0009F360B08A6360B0813B50131044609D1E4
:102800000DF1070300220949094803F05CFD9DF81A
:102810000730237123685A7803EB82035B681B7FC0
:1028200013B92046FFF7E8FE02B010BDFB350B08D8
:1028300003360B0830B50D468FB00DF10703044683
:1028400000221A491A4803F03EFD9DF90730AB42B9
:1028500029D1002315491A462371154804F0EBFDD0
:10286000204694F90410FFF7C7FF124902A808F0A8
:10287000A0F8114906A808F09CF810490AA808F029
:1028800098F80AAB06AA02A9532002F0D9F80AA8C0
:1028900008F045F806A808F042F802A808F03FF84A
:1028A00001200FB030BD0320FBE700BFFB350B0854
:1028B00003360B0843370B08D0350B0849370B0894
:1028C00013B56C460B46024603C884E8030093E840
:1028D000030082E8030094E8030083E8030002B0E9
:1028E00010BD000070B58CB00E4605AD02A981E8A0
:1028F0000C0085E80C00002304460C200A93FDF729
:10290000CCFB034628B195E80300109A83E8030046
:102910009A6000250893134B04F10C010B93124BA2
:1029200008A80A93114B25712360A5606561FFF724
:10293000C7FF0A9B626963610B9B0A92A269A3614C
:102940009DF8443031460B920093094A2346019585
:1029500004F1080007F092FB08A8FDF753FD20469C
:102960000CB070BD89210A084B210A0890370B086A
:1029700011210A08000000002DE9F04FA9B00DF167
:102980001D0304460022C049C04803F0F0FC9DF836
:102990001D30002B00F081822268BD491370BB48B6
:1029A00000220DF11E0303F0E2FC23689DF81E20B7
:1029B00000255A700023049320689DF810A0037826
:1029C000534540F268820AF10106B2491BA807F09C
:1029D000F0FF0A2231461FA808F06BF81FA91BA8B8
:1029E00008F0A4F80DF11F03AB4A0168A74803F0F3
:1029F0006AFC1FA807F093FF1BA807F090FFA549EA
:102A00001BA807F0D6FF0A2231461FA808F051F88C
:102A10001FA91BA808F08AF809ABA04A01689B48C7
:102A200003F0ACFB1FA807F07AFF1BA807F077FFA5
:102A300098491BA807F0BDFF0A2231461FA808F0DD
:102A400038F81FA91BA808F071F808AB0168944A70
:102A50008E4803F0EDFB1FA807F061FF1BA807F0ED
:102A60005EFF23685B78534540F0408109F016FB18
:102A70000A2201460FA808F01CF80F9F09F01AFB64
:102A80000A22014613A808F014F8DDF84CB009F04A
:102A900019FB0A22014617A808F00BF838460DF07A
:102AA000EFFB064658460DF0EBFBDDF85C9002901C
:102AB00048460DF0E5FB804609A80DF0E1FB029BBE
:102AC0001E440636B0444044FDF7E9FA80463946D4
:102AD0000CF050FE734940460CF01CFE594640462F
:102AE0000CF018FE6F4940460CF014FE4946404673
:102AF0000CF010FE6B4940460CF00CFE09A9404654
:102B00000CF008FE684940460CF004FE1FAA674915
:102B100040460DF089FF1FA80CF0FCFB0E4607464F
:102B200009F0DCFA0246C317CDE90223DDE9020110
:102B30003A4633460CF0E8F951A3D3E900230BF0F1
:102B4000B7FA0022002306460F460BF0F9FB0028D7
:102B500055D009F0A3FA0A22411E1BA807F0A9FFCD
:102B60001B99084605910DF08BFB064658460DF063
:102B700087FB804648460DF083FB074609A80DF009
:102B80007FFB4644063637443844FDF788FA8046D2
:102B900005990CF0EFFD434940460CF0BBFD59464A
:102BA00040460CF0B7FD3F4940460CF0B3FD4946A6
:102BB00040460CF0AFFD3B4940460CF0ABFD09A987
:102BC00040460CF0A7FD384940460CF0A3FD1FAA73
:102BD000364940460DF028FF1FA80CF09BFB02462B
:102BE0000B46DDE902010CF08FF925A3D3E90023A0
:102BF0000BF05EFA06461BA80F4607F090FE404613
:102C0000FDF751FA00220023304639460BF098FBBD
:102C100000284DD04FF07C5108980BF05FFD0BF071
:102C2000C5F832463B46804689460BF0A7FB002894
:102C30003ED032463B46404649460AF059FF0BF02B
:102C4000EFFB064617A807F06AFE13A807F067FE19
:102C50000FA807F064FE9DF91F304FEA8A0A013B76
:102C6000082B56D8DFE813F044008A00A600550070
:102C70009800C200B400D000DF0000BFAFF30080B6
:102C8000000000000020AC40C4350B08FD320B08EA
:102C900068370B08A1350B08A7350B08AE350B08B4
:102CA000BD350B08353A0B0871370B0875370B0823
:102CB00000220023304639460BF060FBA0B14FF0F4
:102CC0007C5108980BF00AFD0BF070F832463B4639
:102CD000804689460BF052FB30B132463B464046B7
:102CE00049460AF003FFAAE72E46ABE72E46B2E7B5
:102CF0002420FDF7D2F9074640B1089B0121009638
:102D000009AA01F0CBFC664B3B603C62236853444C
:102D10005F602368294653443046D3F804800BF0A3
:102D200099FE0746002800F08D805E49D8F818000B
:102D30000BF0D4FC5B490BF0D1FC5B490BF0CEFCF3
:102D40000BF092FE07461C20FDF7A7F9064660B17E
:102D5000564B39460B9300230C93012301932368B0
:102D6000524A00930023FFF7BDFD23689A44DAF826
:102D700004309E60049B013304931DE62420FDF77C
:102D80008CF907460028C1D0089B0221009609AAA9
:102D900001F084FC464BB7E72420FDF77EF9074697
:102DA0000028B3D0089B0521009609AA01F076FC03
:102DB000404BA9E72420FDF770F907460028A5D06D
:102DC000089B0321009609AA01F068FC3A4B9BE797
:102DD0002420FDF762F90746002897D0089B0721B9
:102DE000009609AA01F05AFC344B8DE72420FDF728
:102DF00054F90746002889D0089B0621009609AAA5
:102E000001F04CFC2E4B7FE72420FDF746F90746E6
:102E100000283FF47BAF089B0821009609AA01F027
:102E20003DFC284B70E72420FDF737F907460028C2
:102E30003FF46CAF089B0921009609AA01F02EFC13
:102E4000214B61E7D8F814000AF0B0FF00221F4BB5
:102E50000BF004F800221E4B0BF000F800221C4B74
:102E60000AF0FCFF00221B4B0AF0F8FF0BF090FA6F
:102E700080461C20FDF711F9064600283FF475AF87
:102E80000A4B4146CDE90D37012301932368074AD8
:102E900000933B4667E700F0ABFC29B0BDE8F08F3C
:102EA000D8380B080000704200007A441D380A0828
:102EB00070380B0800390B0814380B0838390B0828
:102EC0004C380B08D4370B08B0380B080000E03F33
:102ED00000004E4000408F402DE9F04F91B01F465A
:102EE0009DF86C300546039303680E461B789046A8
:102EF000DDF868900BB1FFF7A7F90024039B5FFA98
:102F000084FA9C4200F0408257F824B000215846D1
:102F10000BF08CFD30B95846B1490BF09BFD0028F1
:102F200000F08B800AF1FF3ADFF8DC82DFF8DC92F8
:102F30005FFA8AF42420FDF7B0F8074618B101F0D3
:102F40009FFBA84B3B602B68414603EB84035F600B
:102F50000CA8671C07F02DFD0A22394608A807F0C7
:102F6000A8FD08A90CA807F0E1FD2B68A6003344D2
:102F70005B689D4A93F904300168484604F05BFAA7
:102F800008A807F0CCFC0CA807F0C9FC41460CA827
:102F900007F00FFD0A22394608A807F08AFD08A9A4
:102FA0000CA807F0C3FD2B68904A33445B680168A6
:102FB0000C33484604F0E9FA08A807F0B0FC0CA866
:102FC00007F0ADFC41460CA807F0F3FC0A22394695
:102FD00008A807F06EFD08A90CA807F0A7FD2B684C
:102FE00001681E44736848465B69814A04F075FABB
:102FF00008A807F094FC0CA807F091FCD4B941464E
:103000000CA807F0D6FC0A22394608A807F051FDA3
:1030100008A90CA807F08AFD2B6801685B68484680
:103020009B69744A04F059FA08A807F078FC0CA8C8
:1030300007F075FC013CE4B27CE73357013B082BF9
:1030400024D8DFE813F00900E5000D012300F900A2
:103050003501210149015D012420FDF71EF882465A
:1030600078B1062259F8243002FB0482009357F805
:103070002430315701F012FB5F4BCAF80030CAF818
:1030800020502B6803EB8403C3F804A0D5F800A0FC
:10309000002C40F049810021D9F800000BF0DAFC47
:1030A000002800F04181DAF80430544998690BF0A7
:1030B00015FB52490BF012FB51490BF00FFB0BF0C3
:1030C000D3FC83461C20FCF7E8FF824658B14D4BE9
:1030D0005946CDE90434012301932B68494A0093F2
:1030E0002346FFF7FFFB2B685B684749C3F808A03E
:1030F0000CA804F1010A07F05CFC0A22514608A85A
:1031000007F0D7FC08A90CA807F010FD2B68364A79
:1031100003EB84035B68016893F904303B4804F0D7
:103120008AF908A807F0FBFB0CA807F0F8FB364962
:103130000CA807F03EFC0A22514608A807F0B9FC8B
:1031400008A90CA807F0F2FC2B684FEA840B5B443B
:103150005B68264A0C3301682C4804F016FA08A86C
:1031600007F0DDFB0CA807F0DAFB27490CA807F0F5
:1031700020FC0A22514608A807F09BFC08A90CA8CD
:1031800007F0D4FC2B6801685B445B68184A5B69F4
:103190001E4804F0A2F908A807F0C1FB0CA807F02C
:1031A000BEFBD4B918490CA807F003FC0A2251460B
:1031B00008A807F07EFC08A90CA807F0B7FC2B684C
:1031C00001685B680B4A9B69104804F086F908A8FF
:1031D00007F0A5FB0CA807F0A2FB54468EE600BF43
:1031E0000000C04114380B08A7350B08AE350B089A
:1031F000BD350B08B9350B08D8380B0800007042F4
:1032000000007A441D380A08A1350B08FD320B086E
:103210002420FCF742FF824600283FF432AF06220A
:1032200059F8243002FB0482009357F824303157B8
:1032300001F034FA5C4B20E72420FCF72EFF824695
:1032400000283FF41EAF062259F8243002FB048206
:10325000009357F82430315701F020FA534B0CE714
:103260002420FCF71AFF824600283FF40AAF06220A
:1032700059F8243002FB0482009357F82430315768
:1032800001F00CFA4A4BF8E62420FCF706FF8246D0
:1032900000283FF4F6AE062259F8243002FB0482DF
:1032A000009357F82430315701F0F8F9414BE4E628
:1032B0002420FCF7F2FE824600283FF4E2AE06220C
:1032C00059F8243002FB0482009357F82430315718
:1032D00001F0E4F9384BD0E62420FCF7DEFE82460C
:1032E00000283FF4CEAE062259F8243002FB0482B7
:1032F000009357F82430315701F0D0F92F4BBCE63A
:103300002420FCF7CAFE824600283FF4BAAE06220B
:1033100059F8243002FB0482009357F824303157C7
:1033200001F0BCF9264BA8E60AEB840ADAF804306F
:1033300058690AF03BFD0022224B0AF08FFD002263
:10334000214B0AF08BFD00221F4B0AF087FD002263
:103350001E4B0AF083FD0BF01BF883461C20FCF784
:103360009CFE824660B11A4B594606930023079390
:10337000012301932B68164A00930023FFF7B2FA4A
:103380002B6803EB8403AFE62B6800221C702B68CC
:1033900010491B78104803F0FCFF286800F028FA59
:1033A000012011B0BDE8F08F70380B0800390B0810
:1033B00014380B0838390B084C380B08D4370B0875
:1033C000B0380B080000E03F00004E4000408F4046
:1033D0001D380A08C4350B08FD320B087FB50023E1
:1033E00002938B6804460D4600F1080633B10222B1
:1033F00068469847EB680393AB680293314668468A
:10340000FFF75EFA029B22692361039B02926269C5
:10341000684663610392FCF7F5FF4FF0FF312046E9
:10342000FFF7EAF904B070BD012130B58368017778
:10343000044698688FB038B16FF000420023CDE9A0
:1034400000231A4606F032FE0023256A0C932B69EE
:1034500043B1022205F108010AA898476B690D9350
:103460002B690C931F238DF818300C9B0BB90AF0B5
:103470001EF90D9B06A90AA898470C9B1BB10AA927
:1034800003220846984794F9043000221049114855
:1034900003F0D1FF104902A807F08BFA0F4906A8E4
:1034A00007F087FA0E490AA807F083FA0AAB06AAC2
:1034B00002A9532001F0C4FA0AA807F030FA06A8BE
:1034C00007F02DFA02A807F02AFA0FB030BD00BFAE
:1034D000BA360B0803360B0884360B08D0350B08B8
:1034E0009C370B0830B50025036A85611B680446CC
:1034F0005B788DB0002B3DD1304908A8039507F0CB
:1035000058FA236A0A221B6804A85978013107F087
:10351000D0FA04A908A807F009FB294A016803ABFF
:10352000284802F085FE04A807F0F9F908A807F07A
:10353000F6F9294603980BF08DFAD8B11F4908A86F
:1035400007F037FA236A0A221B6804A85978013168
:1035500007F0AFFA04A908A807F0E8FAA369016820
:10356000174A184803F0B9FF04A807F0D8F908A8CB
:1035700007F0D5F9A3689D68F5B160690AF016FCFB
:103580000022114B0AF06AFC0022104B0AF066FC84
:1035900000220E4B0AF062FC00220D4B0AF05EFC8A
:1035A0000AF0F6FE6FF0004100220346CDE900125A
:1035B0002846032106F07AFD0DB030BDA1350B0879
:1035C000B9350B08FD320B080000E03F00004E400B
:1035D00000408F4070B58368044698688EB000B391
:1035E000002106F0A3FDE0B1A568A868C8B10026D7
:1035F0006FF000430221CDE900363246334606F033
:1036000055FD3146A86806F0A1FD2B7903F0FF06B1
:1036100013B106F023FDF8E73146A86806F036FD41
:10362000AE6000230021A06923770BF013FA10B1DC
:103630002046FFF757FF206A4FF0FF31FFF7DCF815
:103640000E4902A807F0B5F90D4906A807F0B1F92F
:103650000C490AA807F0ADF90AAB06AA02A9532043
:1036600001F0EEF90AA807F05AF906A807F057F991
:1036700002A807F054F90EB070BD00BFB0370B08B8
:10368000D0350B08B7370B0800232DE9F04104466D
:10369000DFF82C8003800377061D00F11C0724202F
:1036A000FCF7FBFC054618B100F0EAFFC5F8008006
:1036B00046F8045BBE42F2D12046BDE8F08100BF6F
:1036C00014380B0838B5064C23683BB92020FCF7AA
:1036D000E4FC054608B1FFF7D7FF2560206838BD38
:1036E000F00200202DE9F0414378044600EB83030B
:1036F0005868037F13B103685B6898470027DFF8B9
:1037000048802378FEB2B3420DD92420FCF7C5FCD3
:10371000054618B100F0B4FFC5F8008004EB86063A
:1037200075600137EDE7002505492B462A46054817
:10373000657003F02EFE20782570BDE8F08100BF93
:1037400068370B08FD320B0814380B0870B50025DC
:1037500004464378057700EB8303586803685B6889
:103760009847207801280ED063782A46591CB1FB6F
:10377000F0F300FB1313DBB2637003490348BDE8A9
:10378000704003F006BE70BD68370B08FD320B08B1
:1037900030B543788BB000EB8303596804460C3195
:1037A00002A807F006F908F068FC0F4B02460F4923
:1037B0000093C31706A808F001FC06A902A807F0A9
:1037C000EAF9054606A807F0AAF802A807F0A7F844
:1037D00045B100236078237704EB800460680368B8
:1037E0001B6898470BB030BD22330B088C030020B8
:1037F00070B54378044600EB83035D680021A86937
:103800000BF028F928B12B682846BDE870401B68EA
:1038100018472046BDE87040FFF7BABF10B543789F
:10382000044600EB83035B689B68986810B901232A
:10383000237710BD002106F079FC0028F7D0F8E7C7
:1038400030B50025036A85611B6804465B788DB03E
:10385000002B3DD1304908A8039507F0AAF8236A48
:103860000A221B6804A85978013107F022F904A93B
:1038700008A807F05BF9294A016803AB284802F061
:10388000D7FC04A807F04BF808A807F048F8294629
:1038900003980BF0DFF8D8B11F4908A807F089F8A2
:1038A000236A0A221B6804A85978013107F001F93C
:1038B00004A908A807F03AF9A3690168174A18484B
:1038C00003F00BFE04A807F02AF808A807F027F871
:1038D000A3689D68F5B160690AF068FA0022114B8F
:1038E0000AF0BCFA0022104B0AF0B8FA00220E4B84
:1038F0000AF0B4FA00220D4B0AF0B0FA0AF048FDC3
:103900006FF0004100220346CDE900122846032152
:1039100006F0CCFB0DB030BDA1350B08B9350B0856
:10392000FD320B080000E03F00004E4000408F4099
:1039300038B5002383608B6804460D462BB1022204
:103940009847EB68E360AB68A360204638BD000091
:10395000012110B583680177044698688EB038B1AC
:103960006FF000420023CDE900231A4606F09EFBCB
:10397000216A0AA80831FFF7DBFF09210AA8FEF730
:1039800058FB0AA8FCF73EFD94F9043000221049C8
:10399000104803F050FD104902A807F00AF80F493B
:1039A00006A807F006F80E490AA807F002F80AABC5
:1039B00006AA02A9532001F043F80AA806F0AFFFB7
:1039C00006A806F0ACFF02A806F0A9FF0EB010BDD5
:1039D000BA360B0803360B08DC370B08D0350B085A
:1039E000E2370B0870B58368044698688EB000B360
:1039F000002106F09BFBE0B1A568A868C8B10026CD
:103A00006FF000430221CDE900363246334606F01E
:103A10004DFB3146A86806F099FB2B7903F0FF06B1
:103A200013B106F01BFBF8E73146A86806F02EFB41
:103A3000AE6000230021A06923770BF00BF810B1D2
:103A40002046FFF7FDFE216A0AA80831FFF770FF44
:103A50000A210AA8FEF7EDFA0AA8FCF7D3FC206AAF
:103A60004FF0FF31FEF7C8FE0E4902A806F0A1FF95
:103A70000D4906A806F09DFF0C490AA806F099FF1B
:103A80000AAB06AA02A9532000F0DAFF0AA806F042
:103A900046FF06A806F043FF02A806F040FF0EB05E
:103AA00070BD00BFF3370B08D0350B08F9370B0892
:103AB000012130B583680177044698688FB038B12A
:103AC0006FF000420023CDE900231A4606F0EEFA1B
:103AD0000023256A0C932B6943B1022205F10801EA
:103AE0000AA898476B690D932B690C931E238DF8D8
:103AF00018300C9B0BB909F0DAFD0D9B06A90AA83A
:103B000098470C9B1BB10AA903220846984794F9D1
:103B1000043000221049114803F08DFC104902A81E
:103B200006F047FF0F4906A806F043FF0E490AA812
:103B300006F03FFF0AAB06AA02A9532000F080FF5F
:103B40000AA806F0ECFE06A806F0E9FE02A806F0B8
:103B5000E6FE0FB030BD00BFBA360B0803360B08C7
:103B600069360B08D0350B081C380B0830B500251A
:103B7000036A85611B6804465B788DB0002B3DD1DC
:103B8000304908A8039506F014FF236A0A221B682F
:103B900004A85978013106F08CFF04A908A806F0A2
:103BA000C5FF294A016803AB284802F041FB04A87D
:103BB00006F0B5FE08A806F0B2FE294603980AF002
:103BC00049FFD8B11F4908A806F0F3FE236A0A226C
:103BD0001B6804A85978013106F06BFF04A908A8F6
:103BE00006F0A4FFA3690168174A184803F075FCA2
:103BF00004A806F094FE08A806F091FEA3689D684C
:103C0000F5B160690AF0D2F80022114B0AF026F9EA
:103C10000022104B0AF022F900220E4B0AF01EF986
:103C200000220D4B0AF01AF90AF0B2FB6FF00041C6
:103C300000220346CDE900122846032106F036FA99
:103C40000DB030BDA1350B08B9350B08FD320B089E
:103C50000000E03F00004E4000408F4070B5836898
:103C6000044698688EB000B3002106F05FFAE0B118
:103C7000A568A868C8B100266FF000430221CDE90D
:103C800000363246334606F011FA3146A86806F08F
:103C90005DFA2B7903F0FF0613B106F0DFF9F8E7C0
:103CA0003146A86806F0F2F9AE6000230021A06951
:103CB00023770AF0CFFE10B12046FFF757FF206AA6
:103CC0004FF0FF31FEF798FD0E4902A806F071FE95
:103CD0000D4906A806F06DFE0C490AA806F069FE1B
:103CE0000AAB06AA02A9532000F0AAFE0AA806F011
:103CF00016FE06A806F013FE02A806F010FE0EB08F
:103D000070BD00BF0D370B08D0350B0830380B08DD
:103D1000012130B583680177044698688FB038B1C7
:103D20006FF000420023CDE900231A4606F0BEF9E9
:103D30000023256A0C932B6943B1022205F1080187
:103D40000AA898476B690D932B690C9305238DF88E
:103D500018300C9B0BB909F0AAFC0D9B06A90AA808
:103D600098470C9B1BB10AA903220846984794F96F
:103D7000043000221049114803F05DFB104902A8ED
:103D800006F017FE0F4906A806F013FE0E490AA812
:103D900006F00FFE0AAB06AA02A9532000F050FE5F
:103DA0000AA806F0BCFD06A806F0B9FD02A806F0B8
:103DB000B6FD0FB030BD00BFBA360B0803360B0896
:103DC00025360B08D0350B082B360B0830B50025EF
:103DD000036A85611B6804465B788DB0002B3DD17A
:103DE000304908A8039506F0E4FD236A0A221B68FF
:103DF00004A85978013106F05CFE04A908A806F071
:103E000095FE294A016803AB284802F011FA04A87C
:103E100006F085FD08A806F082FD294603980AF001
:103E200019FED8B11F4908A806F0C3FD236A0A226B
:103E30001B6804A85978013106F03BFE04A908A8C4
:103E400006F074FEA3690168174A184803F045FBA1
:103E500004A806F064FD08A806F061FDA3689D684B
:103E6000F5B1606909F0A2FF0022114B09F0F6FFDD
:103E70000022104B09F0F2FF00220E4B09F0EEFF7A
:103E800000220D4B09F0EAFF0AF082FA6FF00041C0
:103E900000220346CDE900122846032106F006F968
:103EA0000DB030BDA1350B08B9350B08FD320B083C
:103EB0000000E03F00004E4000408F4070B5836836
:103EC000044698688EB000B3002106F02FF9E0B1E7
:103ED000A568A868C8B100266FF000430221CDE9AB
:103EE00000363246334606F0E1F83146A86806F05F
:103EF0002DF92B7903F0FF0613B106F0AFF8F8E7C0
:103F00003146A86806F0C2F8AE6000230021A0691F
:103F100023770AF09FFD10B12046FFF757FF206A74
:103F20004FF0FF31FEF768FC0E4902A806F041FD94
:103F30000D4906A806F03DFD0C490AA806F039FD1A
:103F40000AAB06AA02A9532000F07AFD0AA806F0DF
:103F5000E6FC06A806F0E3FC02A806F0E0FC0EB0C2
:103F600070BD00BF54380B08D0350B085A380B0809
:103F7000012130B583680177044698688FB038B165
:103F80006FF000420023CDE900231A4606F08EF8B8
:103F90000023256A0C932B6943B1022205F1080125
:103FA0000AA898476B690D932B690C9320238DF811
:103FB00018300C9B0BB909F07AFB0D9B06A90AA8D7
:103FC00098470C9B1BB10AA903220846984794F90D
:103FD000043000221049114803F02DFA104902A8BC
:103FE00006F0E7FC0F4906A806F0E3FC0E490AA814
:103FF00006F0DFFC0AAB06AA02A9532000F020FD60
:104000000AA806F08CFC06A806F089FC02A806F0B7
:1040100086FC0FB030BD00BFBA360B0803360B0864
:104020009F360B08D0350B0878380B0830B50025C3
:10403000036A85611B6804465B788DB0002B3DD117
:10404000304908A8039506F0B4FC236A0A221B68CD
:1040500004A85978013106F02CFD04A908A806F03F
:1040600065FD294A016803AB284802F0E1F804A87D
:1040700006F055FC08A806F052FC294603980AF001
:10408000E9FCD8B11F4908A806F093FC236A0A226C
:104090001B6804A85978013106F00BFD04A908A893
:1040A00006F044FDA3690168174A184803F015FAA1
:1040B00004A806F034FC08A806F031FCA3689D684B
:1040C000F5B1606909F072FE0022114B09F0C6FEDD
:1040D0000022104B09F0C2FE00220E4B09F0BEFE7A
:1040E00000220D4B09F0BAFE0AF052F96FF00041C0
:1040F00000220346CDE900122846032105F0D6FF31
:104100000DB030BDA1350B08B9350B08FD320B08D9
:104110000000E03F00004E4000408F4070B58368D3
:10412000044698688EB000B3002105F0FFFFE0B1AF
:10413000A568A868C8B100266FF000430221CDE948
:1041400000363246334605F0B1FF3146A86805F027
:10415000FDFF2B7903F0FF0613B105F07FFFF8E7B1
:104160003146A86805F092FFAE6000230021A069E7
:1041700023770AF06FFC10B12046FFF757FF206A43
:104180004FF0FF31FEF738FB0E4902A806F011FC94
:104190000D4906A806F00DFC0C490AA806F009FC1A
:1041A0000AAB06AA02A9532000F04AFC0AA806F0AE
:1041B000B6FB06A806F0B3FB02A806F0B0FB0EB0F3
:1041C00070BD00BF8C380B08D0350B0893380B0836
:1041D000012130B583680177044698688FB038B103
:1041E0006FF000420023CDE900231A4605F05EFF80
:1041F0000023256A0C932B6943B1022205F10801C3
:104200000AA898476B690D932B690C9304238DF8CA
:1042100018300C9B0BB909F04AFA0D9B06A90AA8A5
:1042200098470C9B1BB10AA903220846984794F9AA
:10423000043000221049114803F0FDF8104902A88B
:1042400006F0B7FB0F4906A806F0B3FB0E490AA813
:1042500006F0AFFB0AAB06AA02A9532000F0F0FB60
:104260000AA806F05CFB06A806F059FB02A806F0B7
:1042700056FB0FB030BD00BFBA360B0803360B0833
:104280000F360B08D0350B0815360B0830B5002556
:10429000036A85611B6804465B788DB0002B3DD1B5
:1042A000304908A8039506F084FB236A0A221B689C
:1042B00004A85978013106F0FCFB04A908A806F00F
:1042C00035FC294A016803AB284801F0B1FF04A876
:1042D00006F025FB08A806F022FB294603980AF001
:1042E000B9FBD8B11F4908A806F063FB236A0A226C
:1042F0001B6804A85978013106F0DBFB04A908A863
:1043000006F014FCA3690168174A184803F0E5F8A1
:1043100004A806F004FB08A806F001FBA3689D684A
:10432000F5B1606909F042FD0022114B09F096FDDC
:104330000022104B09F092FD00220E4B09F08EFD79
:1043400000220D4B09F08AFD0AF022F86FF00041BF
:1043500000220346CDE900122846032105F0A6FEFF
:104360000DB030BDA1350B08B9350B08FD320B0877
:104370000000E03F00004E4000408F4070B5836871
:10438000044698688EB000B3002105F0CFFEE0B17E
:10439000A568A868C8B100266FF000430221CDE9E6
:1043A00000363246334605F081FE3146A86805F0F6
:1043B000CDFE2B7903F0FF0613B105F04FFEF8E7B1
:1043C0003146A86805F062FEAE6000230021A069B6
:1043D00023770AF03FFB10B12046FFF757FF206A12
:1043E0004FF0FF31FEF708FA0E4902A806F0E1FA95
:1043F0000D4906A806F0DDFA0C490AA806F0D9FA1C
:104400000AAB06AA02A9532000F01AFB0AA806F07C
:1044100086FA06A806F083FA02A806F080FA0EB023
:1044200070BD00BFB8380B08D0350B08BE380B087C
:1044300030B50025036A85611B6804465B788DB042
:10444000002B3DD1304908A8039506F0B2FA236A43
:104450000A221B6804A85978013106F02AFB04A936
:1044600008A806F063FB294A016803AB284801F05D
:10447000DFFE04A806F053FA08A806F050FA294611
:1044800003980AF0E7FAD8B11F4908A806F091FA94
:10449000236A0A221B6804A85978013106F009FB37
:1044A00004A908A806F042FBA3690168174A184846
:1044B00003F013F804A806F032FA08A806F02FFA61
:1044C000A3689D68F5B1606909F070FC0022114B8A
:1044D00009F0C4FC0022104B09F0C0FC00220E4B76
:1044E00009F0BCFC00220D4B09F0B8FC09F050FFAC
:1044F0006FF0004100220346CDE900122846032157
:1045000005F0D4FD0DB030BDA1350B08B9350B0851
:10451000FD320B080000E03F00004E4000408F409D
:10452000012110B583680177044698688EB038B1D0
:104530006FF000420023CDE900231A4605F0B6FDD6
:10454000216A0AA80831FFF7F3F907210AA8FDF745
:1045500070FD0AA8FBF756FF94F9043000221049B9
:10456000104802F068FF104902A806F022FA0F492D
:1045700006A806F01EFA0E490AA806F01AFA0AABB7
:1045800006AA02A9532000F05BFA0AA806F0C7F9B0
:1045900006A806F0C4F902A806F0C1F90EB010BDD5
:1045A000BA360B0803360B083A360B08D0350B0821
:1045B00041360B0870B58368044698688EB000B326
:1045C000002105F0B3FDE0B1A568A868C8B10026D8
:1045D0006FF000430221CDE900363246334605F044
:1045E00065FD3146A86805F0B1FD2B7903F0FF06A3
:1045F00013B105F033FDF8E73146A86805F046FD34
:10460000AE6000230021A06923770AF023FA10B1DD
:104610002046FFF70DFF216A0AA80831FFF788F945
:1046200008210AA8FDF705FD0AA8FBF7EBFE206AA2
:104630004FF0FF31FEF7E0F80E4902A806F0B9F995
:104640000D4906A806F0B5F90C490AA806F0B1F91B
:104650000AAB06AA02A9532000F0F2F90AA806F054
:104660005EF906A806F05BF902A806F058F90EB04C
:1046700070BD00BFE0380B08D0350B08E7380B08D9
:10468000054A0260FF22027100224261826100221B
:1046900002778260704700BF10390B0838B50446B6
:1046A00008461D46074B114623602071062204F17F
:1046B0000C000BF0FFFD049B2046A3610023656105
:1046C000237738BD10390B08012130B58368017795
:1046D000044698688FB038B16FF000420023CDE9EE
:1046E00000231A4605F0E2FC0023256A0C932B698F
:1046F00043B1022205F108010AA898476B690D939E
:104700002B690C930B238DF818300C9B0BB908F018
:10471000CEFF0D9B06A90AA898470C9B1BB10AA9BE
:1047200003220846984794F90430002210491148A2
:1047300002F081FE104902A806F03BF90F4906A8D5
:1047400006F037F90E490AA806F033F90AAB06AAB3
:1047500002A9532000F074F90AA806F0E0F806A8B0
:1047600006F0DDF802A806F0DAF80FB030BD00BFA1
:10477000BA360B0803360B0853360B08D0350B0836
:104780005A360B0830B50025036A85611B6804465C
:104790005B788DB0002B3DD1304908A8039506F019
:1047A00008F9236A0A221B6804A85978013106F027
:1047B00080F904A908A806F0B9F9294A016803ABF1
:1047C000284801F035FD04A806F0A9F808A806F06D
:1047D000A6F8294603980AF03DF9D8B11F4908A860
:1047E00006F0E7F8236A0A221B6804A85978013109
:1047F00006F05FF904A908A806F098F9A369016812
:10480000174A184802F069FE04A806F088F808A8BC
:1048100006F085F8A3689D68F5B1606909F0C6FAED
:104820000022114B09F01AFB0022104B09F016FB75
:1048300000220E4B09F012FB00220D4B09F00EFB7B
:1048400009F0A6FD6FF0004100220346CDE90012F9
:104850002846032105F02AFC0DB030BDA1350B0818
:10486000B9350B08FD320B080000E03F00004E4058
:1048700000408F4070B58368044698688EB000B3DE
:10488000002105F053FCE0B1A568A868C8B1002676
:104890006FF000430221CDE900363246334605F081
:1048A00005FC3146A86805F051FC2B7903F0FF06A2
:1048B00013B105F0D3FBF8E73146A86805F0E6FB35
:1048C000AE6000230021A06923770AF0C3F810B17D
:1048D0002046FFF757FF206A4FF0FF31FDF78CFFAE
:1048E0000E4902A806F065F80D4906A806F061F821
:1048F0000C490AA806F05DF80AAB06AA02A95320E3
:1049000000F09EF80AA806F00AF806A806F007F8D4
:1049100002A806F004F80EB070BD00BF18390B08ED
:10492000D0350B081F390B0810B50446024B036045
:1049300004F0ECFF204610BD98390B0810B5044672
:10494000FFF7F2FF2046382108F0ABFE204610BDED
:1049500037B59DF8185004688DF800308DF8045074
:104960003C23E468A04703B030BD7047F0B54E2843
:104970008BB00E4615461C46109F16D1394606A828
:1049800006F017F8244B069A1B7824498DF800305E
:10499000234B24481B78FFF7DBFF06A805F0BFFF79
:1049A000052007F0B3FB0BB0F0BD5328FBD11E4927
:1049B00002A805F0FEFF314602A806F0B7F81B4931
:1049C00006F0C0F8294606F0B1F8194906F0BAF821
:1049D000214606F0ABF8174906F0B4F8044639460C
:1049E00006A805F0E6FF06A9204606F09FF8124942
:1049F00006F0A8F8084B02681B7810498DF80030C3
:104A0000074B08481B78FFF7A3FF06A805F087FFB0
:104A100002A805F084FFC3E7F502002052390B0815
:104A2000F4020020F802002059390B0863390B0802
:104A30006F390B087B390B088A390B08403A0B0891
:104A400070B54E280E4615461C4686B00FD11C4B3D
:104A500022681B781B498DF800301B4B1B481B78C4
:104A6000FFF776FF052007F051FB06B070BD532815
:104A7000FBD1174902A805F09CFF314602A806F0B9
:104A800055F8144906F05EF8294606F04FF8124929
:104A900006F058F8214606F049F8104906F052F899
:104AA000074B02681B780E498DF80030064B07480B
:104AB0001B78FFF74DFF02A805F031FFD2E700BFDA
:104AC000F502002052390B08F4020020F802002001
:104AD00059390B0863390B087B390B088A390B08E5
:104AE000403A0B08014804F043BF00BFF802002021
:104AF00001220B4B10B51A7008220A4C0A4B2046B3
:104B00001A700A494FF4006204F0FEFF084B204679
:104B10002360084A0849BDE8104008F0BDBD00BF49
:104B2000F4020020F8020020F502002000400240BC
:104B300098390B085002002029490A081FB50023A4
:104B4000019303930C23ADF80430044B0422029329
:104B500001AB05F069FD05B05DF804FBD1000A0862
:104B6000022A38B5044607D0032A11D0012A01D100
:104B70000B682360002038BD0C200D68FBF78DFA10
:104B800003460028F5D095E8070083E80700F0E722
:104B900000680028EED00C2108F083FDEAE710B48D
:104BA00003685A689968541001EB6200D20748BF45
:104BB0000A591B6810BC48BFD358184710B5342297
:104BC0000446002104300AF0C5FA38232046236049
:104BD00010BD002340681A46194605F0CDBC0023DD
:104BE00040681A46194605F0CFBC002240681146BD
:104BF00005F0DABC002340681A46194605F0ECBC03
:104C000007B58068002340B1CDE900131A460121A1
:104C100005F04CFAB0FA80F0400903B05DF804FBEF
:104C200007B58068002338B1CDE90013022105F0F3
:104C30003DFAB0FA80F0400903B05DF804FB0000D3
:104C400010B5002204466FF000418069FFF7E8FFCD
:104C50000248FFF7BEFF0023637710BDB4040020B5
:104C6000F0B589B00446FDF7DFFA2060FCF712F8D2
:104C70006060FDF71FF8A060FCF7FEFAE060FDF74A
:104C800097F92061FBF7C8FE00262549606104F111
:104C9000200005F08EFE224904F1300005F089FE67
:104CA0001C20A683A677FBF7F8F90546002832D02A
:104CB0000C200696FBF7F1F918B11A4B8460C0E995
:104CC0000036194B04902B60002304AE02AF96E827
:104CD000030087E803002B71AB6005F10C0292E83A
:104CE000030086E8030097E8030082E803000F4A08
:104CF00006936A61AA690E4907920E4A05F10800F7
:104D0000AA61019301230C4A00932B4605F0B6F9E2
:104D10003046FBF777FB2046A56109B0F0BD00BF28
:104D2000B33A0B08414C0A0890370B08614B0A084C
:104D3000C0D401009F4B0A0811210A0838B5064C5F
:104D400023683BB94020FBF7A8F9054608B1FFF7F7
:104D500087FF2560206838BD3403002030B500246B
:104D6000CBB004AB18193834FFF728FFB4F58C7FAB
:104D7000F7D105220E4804A908F08CF8C5B2012D20
:104D800002D000204BB030BD05A9684605F011FEE9
:104D90006846084905F00CFF0446684605F0BFFD6B
:104DA00024B10348FFF726FF2846EBE72046E9E752
:104DB000B4040020B8390B082DE9F04F044600F187
:104DC000200A85B051463D48FFF7B8FE04F1300196
:104DD0003B48FFF7B3FE00223A4E1146706805F0DB
:104DE000EBFB37460546002862D005F035FC002075
:104DF00005F0FCF84FF0000B0646002005F0F6F831
:104E000000234EF65F22B0EB060861EB0B094B4521
:104E100008BF424505D305F027FC10B905F014FC86
:104E2000EBE705F021FC064640B300226FF000419D
:104E3000A069FFF7F5FE00227868114605F074FBC3
:104E400000F15D01684605F0B4FD6946504605F085
:104E500005FE684605F063FDFFF744FE237F4BB176
:104E6000002320684FF0FF312377FDF7C5FC206851
:104E7000FDF782FD6068FBF76FFF08E0237F53B109
:104E8000024601462077786805F086FB35462846BD
:104E900005B0BDE8F08F0B48FFF7A7FE10B9094831
:104EA000FFF79DFE6FF00041A069FFF7A9FEE1E763
:104EB00002460146706805F06FFBE8E7C5390B084C
:104EC000CA390B08B404002010B504460B48FFF79C
:104ED0008CFE50B1237F43B90123606823770368B8
:104EE0001821BDE810401B6818470448FFF77DFEF5
:104EF00010B9237F03B1607710BD00BFB404002058
:104F000030B5437F044685B0A3B9FFF727FF0546B8
:104F100080B9012320466377FFF74EFF00B3636932
:104F20001A783AB14FF47A701D7007F0EFF82068E4
:104F3000FDF722FDA37F83B1002301A8A377CDE96C
:104F400001338DF80C3007F037FA0648FFF747FEBB
:104F50006FF00041A069FFF753FE2046FFF7B4FF52
:104F600005B030BDB404002010B504468CB0114823
:104F7000FFF740FEE0B100230F496377684605F074
:104F800018FD0E4904A805F014FD0D4908A805F008
:104F900010FD694608AB04AA5320FFF751FD08A88D
:104FA00005F0BDFC04A805F0BAFC684605F0B7FCA6
:104FB0000CB010BDB4040020D8390B08DE390B0842
:104FC000EC390B08F8B504460D460027A368FEB27D
:104FD0009E421BD23146204605F005FE7E28314612
:104FE000204604D005F0FFFDA8550137EEE705F097
:104FF000FAFD7E28F9D10021721C204605F030FE12
:105000000146204605F010FD0023AB550023A168A2
:10501000DFB28F4203F1010607D23946204605F080
:10502000E2FD2F4433467876F1E700230D446B769A
:10503000F8BD00002DE9F04305460E460024EFB010
:1050400028AB18193834FFF7B9FDB4F58C7FF7D1C8
:1050500031460DF1200815A805F0F5FC2F4E41460C
:1050600015A8FFF7AFFF15A805F059FC3046FFF76C
:10507000B0FD40460BF004F90DF1390907464846EA
:105080000BF0FEF83822044600211AA80AF062F854
:105090004C23CDE915380323ADF868300023706840
:1050A000194615AA1994CDE9177905F08DFA044629
:1050B00068BB1B49684605F07CFC1A4904A805F04A
:1050C00078FC194915A805F074FC694615AB04AACB
:1050D0005320FFF7B5FC15A805F021FC04A805F046
:1050E0001EFC684605F01BFC15A8CDE915448DF89B
:1050F0005C4007F061F940F2DC5007F007F805F07A
:10510000B3FA044618B93046FFF769FD6C771420EE
:1051100006F0FCFF6FB0BDE8F08300BFB4040020D0
:105120000D3A0B08DE390B08133A0B082DE9F0474E
:105130000025D8B012AC28193835FFF73FFDB5F57A
:105140008C7FF8D1052221462E4807F0A3FE2E4978
:10515000C7B202A805F02DFC0025DFF8B8A0DFF8E3
:10516000B890EBB2BB4204F1380828D201350A22CC
:10517000294606A805F09DFC06A90AA805F063FCCF
:1051800051460AA805F0DEFC0646211D0EA805F0D2
:1051900010FC0EA9304605F0C9FC494605F0D2FCCA
:1051A000014602A805F0AFFC0EA805F0B8FB0AA85E
:1051B00005F0B5FB06A805F0B2FB4446D1E7134B5A
:1051C000029A1B7812498DF800300EA83C2307F094
:1051D000E7F90F9C7CB16368013B63605BB92368AE
:1051E00020469B689847A368013BA3601BB92368CE
:1051F0002046DB68984702A805F091FB58B0BDE84F
:10520000F08700BFB4040020B33A0B08300300203D
:10521000373A0B08343A0B08353A0B081FB50446E9
:10522000684600F03FFA694604F1300005F016FCCC
:10523000684605F074FB04B010BD00000022014B6D
:105240001A7070473003002004F0A0BE10B5044669
:1052500001464FF46172022004F0B0FE204610BDFA
:1052600010B5044601464FF46172022004F09EFE20
:10527000204610BD28B1037A03F0800311B90372F0
:105280000120704743F0040303720160F8E703460E
:10529000C06810B1182202FB0030704770B5054697
:1052A0000E46046824B12046FFF7F1FF86420CD178
:1052B0003046FFF7ECFF64B148B1031BDA10064B30
:1052C0005343E36000B96C6070BD0446EAE70346EF
:1052D000F7E72860F6E700BFABAAAAAA884203D086
:1052E00020B131B10AF03CBA002070474FF0FF30D6
:1052F00070470120704738B50D46044640B101693A
:105300002846FFF7EBFF18B12046FFF7C0FFF4E790
:10531000204638BD50B1037ACAB223F07F0343F070
:10532000060303720023C0E900230120704730B553
:1053300014461D4640B1037AC0E9004523F07F03BF
:1053400043F00C030372012030BD000030B503466A
:10535000D1E901021830824203D2012300200B74EC
:1053600030BDA2F118008860596869B1441AE5108F
:10537000064C6C43CC605860002342F80C3C02F8A9
:10538000103C42F8083CEBE71860F4E7ABAAAAAA85
:105390002DE9F04F037804462B2B8B4685B037D090
:1053A0002D2B36D1012501342378A3F13002092AAF
:1053B00002D92E2B40F01481002000214FF09939A2
:1053C0004FF00A08DFF828A2A6461EF8013BA3F119
:1053D000300C5FFA8CFCBCF1090F1CD88A4508BF61
:1053E000814519D34FF0FF376FEA0C0608FB01F334
:1053F000A0FB080119448F4208BF86424FF000030A
:105400005FFA8CF208D38018744643EB0101DBE7A6
:1054100001340025C8E77BB1002300264FF4801734
:10542000B94208BFB04203F101081CD300230A228D
:1054300009F060FB4346F3E79BF8083003F0800374
:105440004DB1CBE9000143F00A038BF80830284640
:1054500005B0BDE8F08FCBE9000143F008038BF8FD
:1054600008300125F3E71A1B02EB040C234614F85D
:10547000016B0FFA8CFCA6F13007092FF4D92E2E00
:105480001DD1A6464FF099364FF00A08554F734686
:105490001C780EF1010E303CE4B2092C0FD8B94251
:1054A00008BFB042F3D2A0FB082308FB0133101958
:1054B0000CF1FF3443F100010FFA84FCE7E71A789E
:1054C00002F0DF02452A70D15A782D2A24D1012614
:1054D0009A1C00244FF00A0E134612F8017B303F4D
:1054E0005FFA87F8B8F1090F2DD80EFB047404EBAE
:1054F0000C03B3F59A7FEFDD00209BF80830AEB1C6
:105500008DB9002123F07F0343F00C033546CBE92E
:1055100000018BF808309AE72B2A4FF0000614BFE1
:105520005A1C9A1CD5E74FF00041EBE74DB92E49C4
:1055300023F07F0343F00C03CBE900018BF8083024
:105540008FE72A49F4E706B164421F78002F47D15C
:10555000644408F04DFC002C064628DDDFF894A0DA
:10556000E2070ED5FBB25B005A1C5AF822205AF80B
:105570002330009201933046DDE9002308F06EFCF1
:105580000646641007F10107EAD10DB101F10041AF
:105590009BF80830324623F07F0343F00C038BF86E
:1055A00008300B46CBE900235BE70024CDE7DFF8AA
:1055B00048A06442002CE8D0E3070ED5FBB25B00A4
:1055C0005A1C5AF822205AF823300292039330468C
:1055D000DDE9022308F042FC064664100137E9E7E2
:1055E000002534E7999901000000F07F0000F0FFEA
:1055F00099999919543B0B080C3B0B0800B58DB0D9
:1056000007F0DCFF04F0E2FC68460E4905F0D1F932
:105610000D4904A805F0CDF90C4908A805F0C9F911
:10562000694608AB04AA5320FFF70AFA08A805F058
:1056300076F904A805F073F9684605F070F90DB025
:105640005DF804FB483A0B084E3A0B085D3A0B082C
:1056500038B500252C4607F0B1FF2846FFF7F4FDCA
:10566000FF2818BF013405F1010518BFA4B2B5F534
:10567000006FF0D1204638BD38B5046805467CB1CE
:105680006368013B63605BB9236820469B68984769
:10569000A368013BA3601BB923682046DB689847D9
:1056A000284638BD30B5ADF56B7D044607F086FF62
:1056B0000120FFF7C9FDFF28174D13D12B7817499B
:1056C000174A8DF8003009A83C2306F069FF0AA8A4
:1056D000FFF7D2FF1349204605F06BF920460DF580
:1056E0006B7D30BD07F06AFF09A8FFF7B9FD09A976
:1056F00005A805F05EF92B780849059A8DF8003069
:1057000003A83C2306F04CFF04A8FFF7B5FF05A84B
:1057100005F005F909A9DEE738030020373A0B0840
:105720007D3A0B089E3A0B08033138B521F003058A
:105730000446284604F0C0FF70B1054400232376D8
:1057400094F82830C4E9020023F07F032046C4E91E
:10575000045584F8283038BD0546EFE708B570B128
:10576000037A03F07F030C2B08D8DFE803F0190756
:10577000070707070907090709071000012008BDE7
:10578000D0E90023134314BF01200020F7E70022D3
:1057900003C8002308F0CAFDB0FA80F04009EEE724
:1057A0000020ECE7806808B104F08EBF7047F8B5C0
:1057B000054608680F46E0B1D5E900349C420ED991
:1057C0001A4600F1FF3C92F800E01CF8016F114608
:1057D000764502F101020FD1002EF4D1EBB90AF0A7
:1057E0004FFDAA68431C2344934206460AD901236D
:1057F0002B7400242046F8BD11F8013B002BFBD18F
:105800000B46DBE76B60002CF4D00246396820467B
:1058100009F078FC0023A355ECE71C46EAE750B1F9
:10582000037ACAB223F07F0343F008030372002314
:10583000C0E900230120704730B568B1037A4CB24B
:1058400000294FEAE47503F0800306DB43F0080308
:105850000372C0E90045012030BD43F00A036442F1
:10586000037265EB4505F4E713B5044680B1019179
:1058700029B9037A23F07F030372012008E0104660
:1058800001A9FFF794FF237A23F07F0310B9237255
:1058900002B010BD43F0050323722060EDE748B16C
:1058A000037A016023F07F0343F0080303720023AF
:1058B00043600120704770B5037A164613F07F02EB
:1058C00002BF23F07F0343F020030372037A0446F0
:1058D00008BFC0E9002213F020000D460FD0084693
:1058E00069B12068FFF707FD48B931462046FFF748
:1058F0002DFD20B1037A056103F07F03037270BDB3
:10590000037A024613F0200002D01068FFF7F3BCC0
:10591000704708B5034610B1FFF7CDFF03461846A0
:1059200008BD437C33B9C3685A1CC2601B7803743A
:1059300001234374007C7047F8B504460126002516
:105940000D4F2046FFF7EDFF50B1A0F10903DBB288
:10595000172B0DD806FA03F33B4209D06574F0E724
:10596000237A002B14BF0223012384F85830F8BD9A
:1059700001202072FBE700BF130080000000000040
:1059800030B5037A85B003F07F03043B082B33D88E
:10599000DFE803F00E0E0532053232321A0003C87A
:1059A000002908BFB0F5807F00D30020C0B209E015
:1059B0000023694600688DF80830FFF7E9FC684667
:1059C000FFF7DEFF05B030BDD0E90045002200231F
:1059D0002046294608F0C8FC0028F3D008A3D3E9E4
:1059E00000232046294608F0B5FC0028EAD02046CE
:1059F000294608F0F5FCD9E70020E3E7AFF3008083
:105A00000000000000E06F4030B5037A85B003F07D
:105A10007F03043B082B39D8DFE803F01515053860
:105A200005380E38200003C8002908BF802800D39D
:105A3000002040B205B030BD03C8002908BF81284E
:105A400024D24042F5E70023694600688DF808300B
:105A5000FFF79EFC6846FFF7D7FFEBE7D0E900456C
:105A60000022204629460C4B08F07EFC0028E1D09D
:105A700007A3D3E900232046294608F06BFC002841
:105A8000D8D02046294608F083FCD2E70020D1E791
:105A90000000000000C05F40000060C01FB5037A36
:105AA00003F07F03043B082B21D8DFE803F011113A
:105AB000052005200B201C0003C808F0C9FD05B017
:105AC0005DF804FB03C808F0C3FD00F10040F6E7F1
:105AD0000023694600688DF80830FFF759FC6846D6
